{
  "address": "0x6D951C2f4BA8010765745bc36b6eEA69C7535C3A",
  "abi": [
    {
      "inputs": [
        {
          "internalType": "address",
          "name": "_priceFeed",
          "type": "address"
        },
        {
          "internalType": "address",
          "name": "_conversionPriceFeed",
          "type": "address"
        },
        {
          "internalType": "address",
          "name": "_token",
          "type": "address"
        }
      ],
      "stateMutability": "nonpayable",
      "type": "constructor"
    },
    {
      "anonymous": false,
      "inputs": [
        {
          "indexed": false,
          "internalType": "address",
          "name": "token",
          "type": "address"
        },
        {
          "indexed": false,
          "internalType": "uint256",
          "name": "price",
          "type": "uint256"
        },
        {
          "indexed": false,
          "internalType": "uint256",
          "name": "average",
          "type": "uint256"
        }
      ],
      "name": "PriceUpdate",
      "type": "event"
    },
    {
      "inputs": [],
      "name": "BORROWING_RATE",
      "outputs": [
        {
          "internalType": "uint256",
          "name": "",
          "type": "uint256"
        }
      ],
      "stateMutability": "view",
      "type": "function"
    },
    {
      "inputs": [],
      "name": "DECIMAL_PRECISION",
      "outputs": [
        {
          "internalType": "uint256",
          "name": "",
          "type": "uint256"
        }
      ],
      "stateMutability": "view",
      "type": "function"
    },
    {
      "inputs": [],
      "name": "LIQUIDATION_RESERVE",
      "outputs": [
        {
          "internalType": "uint256",
          "name": "",
          "type": "uint256"
        }
      ],
      "stateMutability": "view",
      "type": "function"
    },
    {
      "inputs": [],
      "name": "MAX_BORROWING_RATE",
      "outputs": [
        {
          "internalType": "uint256",
          "name": "",
          "type": "uint256"
        }
      ],
      "stateMutability": "view",
      "type": "function"
    },
    {
      "inputs": [],
      "name": "MAX_INT",
      "outputs": [
        {
          "internalType": "uint256",
          "name": "",
          "type": "uint256"
        }
      ],
      "stateMutability": "view",
      "type": "function"
    },
    {
      "inputs": [],
      "name": "PERCENT",
      "outputs": [
        {
          "internalType": "uint256",
          "name": "",
          "type": "uint256"
        }
      ],
      "stateMutability": "view",
      "type": "function"
    },
    {
      "inputs": [],
      "name": "PERCENT10",
      "outputs": [
        {
          "internalType": "uint256",
          "name": "",
          "type": "uint256"
        }
      ],
      "stateMutability": "view",
      "type": "function"
    },
    {
      "inputs": [],
      "name": "PERCENT_05",
      "outputs": [
        {
          "internalType": "uint256",
          "name": "",
          "type": "uint256"
        }
      ],
      "stateMutability": "view",
      "type": "function"
    },
    {
      "inputs": [],
      "name": "conversionPriceFeed",
      "outputs": [
        {
          "internalType": "contract IPriceFeed",
          "name": "",
          "type": "address"
        }
      ],
      "stateMutability": "view",
      "type": "function"
    },
    {
      "inputs": [],
      "name": "emitPriceSignal",
      "outputs": [],
      "stateMutability": "nonpayable",
      "type": "function"
    },
    {
      "inputs": [],
      "name": "price",
      "outputs": [
        {
          "internalType": "uint256",
          "name": "",
          "type": "uint256"
        }
      ],
      "stateMutability": "view",
      "type": "function"
    },
    {
      "inputs": [],
      "name": "priceFeed",
      "outputs": [
        {
          "internalType": "contract IPriceFeed",
          "name": "",
          "type": "address"
        }
      ],
      "stateMutability": "view",
      "type": "function"
    },
    {
      "inputs": [],
      "name": "pricePoint",
      "outputs": [
        {
          "internalType": "uint256",
          "name": "",
          "type": "uint256"
        }
      ],
      "stateMutability": "view",
      "type": "function"
    },
    {
      "inputs": [],
      "name": "token",
      "outputs": [
        {
          "internalType": "address",
          "name": "",
          "type": "address"
        }
      ],
      "stateMutability": "view",
      "type": "function"
    }
  ],
  "transactionHash": "0x2f2a649601587584a56f6207c8e8ebbcd41da2beb534f55135bdd64c5275fa2a",
  "args": [
    "0x880B6f6e63895F90E39253c7fE07e5788ce4F572",
    "0x0cD9Ba643054c43A5e7eF7810a79Cc4a307F9D03",
    "0x2FeC4ffaF7983d4b50CB0E004D13358BE776BE8d"
  ],
  "numDeployments": 1,
  "solcInputHash": "dea2b32fd21416889096b7b2b54df7fd",
  "bytecode": "0x60e060405234801561001057600080fd5b5060405161068138038061068183398101604081905261002f91610151565b6001600160a01b03831661009c5760405162461bcd60e51b815260206004820152602960248201527f653236333762205f707269636546656564206d757374206e6f7420626520616460448201526806472657373203078360bc1b60648201526084015b60405180910390fd5b6001600160a01b0382166101185760405162461bcd60e51b815260206004820152603360248201527f653236333762205f636f6e76657273696f6e507269636546656564206d75737460448201527f206e6f74206265206164647265737320307830000000000000000000000000006064820152608401610093565b6001600160a01b0392831660805290821660a0521660c052610194565b80516001600160a01b038116811461014c57600080fd5b919050565b60008060006060848603121561016657600080fd5b61016f84610135565b925061017d60208501610135565b915061018b60408501610135565b90509250925092565b60805160a05160c0516104a96101d8600039600081816101bf0152610364015260008181610157015261022201526000818161011801526102ad01526104a96000f3fe608060405234801561001057600080fd5b50600436106100ea5760003560e01c8063a20baee61161008c578063aceb2d0411610066578063aceb2d041461010b578063ad09014d146101aa578063b85a8b20146101b2578063fc0c546a146101ba57600080fd5b8063a20baee614610179578063ab96f86a14610198578063abdc5541146101a257600080fd5b806385c30bf6116100c857806385c30bf614610152578063923c1eec14610179578063a013991c14610188578063a035b1fe1461019057600080fd5b8063098d3228146100ef578063517ef1d71461010b578063741bef1a14610113575b600080fd5b6100f860001981565b6040519081526020015b60405180910390f35b6100f86101e1565b61013a7f000000000000000000000000000000000000000000000000000000000000000081565b6040516001600160a01b039091168152602001610102565b61013a7f000000000000000000000000000000000000000000000000000000000000000081565b6100f8670de0b6b3a764000081565b6100f861020f565b6100f861021e565b6101a0610341565b005b6100f86103bd565b6100f86103d2565b6100f86103fc565b61013a7f000000000000000000000000000000000000000000000000000000000000000081565b600260646101f8670de0b6b3a7640000600161040d565b6102029190610438565b61020c9190610438565b81565b600061021961021e565b905090565b60007f00000000000000000000000000000000000000000000000000000000000000006001600160a01b031663a035b1fe6040518163ffffffff1660e01b8152600401602060405180830381865afa15801561027e573d6000803e3d6000fd5b505050506040513d601f19601f820116820180604052508101906102a2919061045a565b670de0b6b3a76400007f00000000000000000000000000000000000000000000000000000000000000006001600160a01b031663a035b1fe6040518163ffffffff1660e01b8152600401602060405180830381865afa158015610309573d6000803e3d6000fd5b505050506040513d601f19601f8201168201806040525081019061032d919061045a565b610337919061040d565b6102199190610438565b7fac7b695c6873047ad50339f850f4ae3f6b8f6ef63ed1a8b22f7d36a1c6bd46f37f000000000000000000000000000000000000000000000000000000000000000061038b61021e565b61039361021e565b604080516001600160a01b03909416845260208401929092529082015260600160405180910390a1565b6064610202670de0b6b3a7640000600561040d565b60646103e7670de0b6b3a7640000600161040d565b6103f19190610438565b61020c90600a61040d565b6064610202670de0b6b3a764000060015b808202811582820484141761043257634e487b7160e01b600052601160045260246000fd5b92915050565b60008261045557634e487b7160e01b600052601260045260246000fd5b500490565b60006020828403121561046c57600080fd5b505191905056fea26469706673582212207df219a090a109266aa796508da1fbe7aab293ed15f2c52aef9406251538e60164736f6c63430008110033",
  "devdoc": {
    "kind": "dev",
    "methods": {},
    "version": 1
  },
  "userdoc": {
    "kind": "user",
    "methods": {},
    "version": 1
  },
  "storageLayout": {
    "storage": [],
    "types": null
  }
}