{
  "address": "0x6486A8242374134840F0040F858bf2631c1Cc088",
  "abi": [
    {
      "inputs": [
        {
          "internalType": "address",
          "name": "_factory",
          "type": "address"
        },
        {
          "internalType": "address",
          "name": "_router",
          "type": "address"
        }
      ],
      "stateMutability": "nonpayable",
      "type": "constructor"
    },
    {
      "anonymous": false,
      "inputs": [
        {
          "indexed": false,
          "internalType": "address",
          "name": "_collateralToken",
          "type": "address"
        },
        {
          "indexed": false,
          "internalType": "address",
          "name": "_apToken",
          "type": "address"
        }
      ],
      "name": "APtokenDeployed",
      "type": "event"
    },
    {
      "anonymous": false,
      "inputs": [
        {
          "indexed": false,
          "internalType": "address",
          "name": "previousAdmin",
          "type": "address"
        },
        {
          "indexed": false,
          "internalType": "address",
          "name": "newAdmin",
          "type": "address"
        }
      ],
      "name": "AdminChanged",
      "type": "event"
    },
    {
      "anonymous": false,
      "inputs": [
        {
          "indexed": false,
          "internalType": "address",
          "name": "_collateralToken",
          "type": "address"
        },
        {
          "indexed": false,
          "internalType": "address[]",
          "name": "_path",
          "type": "address[]"
        },
        {
          "indexed": false,
          "internalType": "uint256",
          "name": "_amountIn",
          "type": "uint256"
        },
        {
          "indexed": false,
          "internalType": "uint256",
          "name": "_amountOut",
          "type": "uint256"
        }
      ],
      "name": "Arbitrage",
      "type": "event"
    },
    {
      "anonymous": false,
      "inputs": [
        {
          "indexed": true,
          "internalType": "address",
          "name": "beacon",
          "type": "address"
        }
      ],
      "name": "BeaconUpgraded",
      "type": "event"
    },
    {
      "anonymous": false,
      "inputs": [
        {
          "indexed": false,
          "internalType": "address",
          "name": "_collateralToken",
          "type": "address"
        },
        {
          "indexed": false,
          "internalType": "address",
          "name": "_contributor",
          "type": "address"
        },
        {
          "indexed": false,
          "internalType": "uint256",
          "name": "_amount",
          "type": "uint256"
        },
        {
          "indexed": false,
          "internalType": "uint256",
          "name": "_apAmount",
          "type": "uint256"
        }
      ],
      "name": "Deposit",
      "type": "event"
    },
    {
      "anonymous": false,
      "inputs": [
        {
          "indexed": false,
          "internalType": "uint8",
          "name": "version",
          "type": "uint8"
        }
      ],
      "name": "Initialized",
      "type": "event"
    },
    {
      "anonymous": false,
      "inputs": [
        {
          "indexed": true,
          "internalType": "address",
          "name": "previousOwner",
          "type": "address"
        },
        {
          "indexed": true,
          "internalType": "address",
          "name": "newOwner",
          "type": "address"
        }
      ],
      "name": "OwnershipTransferred",
      "type": "event"
    },
    {
      "anonymous": false,
      "inputs": [
        {
          "indexed": true,
          "internalType": "address",
          "name": "implementation",
          "type": "address"
        }
      ],
      "name": "Upgraded",
      "type": "event"
    },
    {
      "anonymous": false,
      "inputs": [
        {
          "indexed": false,
          "internalType": "address",
          "name": "_collateralToken",
          "type": "address"
        },
        {
          "indexed": false,
          "internalType": "address",
          "name": "_contributor",
          "type": "address"
        },
        {
          "indexed": false,
          "internalType": "uint256",
          "name": "_amount",
          "type": "uint256"
        },
        {
          "indexed": false,
          "internalType": "uint256",
          "name": "_apAmount",
          "type": "uint256"
        }
      ],
      "name": "Withdraw",
      "type": "event"
    },
    {
      "inputs": [],
      "name": "BORROWING_RATE",
      "outputs": [
        {
          "internalType": "uint256",
          "name": "",
          "type": "uint256"
        }
      ],
      "stateMutability": "view",
      "type": "function"
    },
    {
      "inputs": [],
      "name": "DECIMAL_PRECISION",
      "outputs": [
        {
          "internalType": "uint256",
          "name": "",
          "type": "uint256"
        }
      ],
      "stateMutability": "view",
      "type": "function"
    },
    {
      "inputs": [],
      "name": "LIQUIDATION_RESERVE",
      "outputs": [
        {
          "internalType": "uint256",
          "name": "",
          "type": "uint256"
        }
      ],
      "stateMutability": "view",
      "type": "function"
    },
    {
      "inputs": [],
      "name": "MAX_BORROWING_RATE",
      "outputs": [
        {
          "internalType": "uint256",
          "name": "",
          "type": "uint256"
        }
      ],
      "stateMutability": "view",
      "type": "function"
    },
    {
      "inputs": [],
      "name": "MAX_INT",
      "outputs": [
        {
          "internalType": "uint256",
          "name": "",
          "type": "uint256"
        }
      ],
      "stateMutability": "view",
      "type": "function"
    },
    {
      "inputs": [],
      "name": "PERCENT",
      "outputs": [
        {
          "internalType": "uint256",
          "name": "",
          "type": "uint256"
        }
      ],
      "stateMutability": "view",
      "type": "function"
    },
    {
      "inputs": [],
      "name": "PERCENT10",
      "outputs": [
        {
          "internalType": "uint256",
          "name": "",
          "type": "uint256"
        }
      ],
      "stateMutability": "view",
      "type": "function"
    },
    {
      "inputs": [],
      "name": "PERCENT_05",
      "outputs": [
        {
          "internalType": "uint256",
          "name": "",
          "type": "uint256"
        }
      ],
      "stateMutability": "view",
      "type": "function"
    },
    {
      "inputs": [
        {
          "internalType": "address",
          "name": "_collateralToken",
          "type": "address"
        }
      ],
      "name": "addToken",
      "outputs": [],
      "stateMutability": "nonpayable",
      "type": "function"
    },
    {
      "inputs": [
        {
          "internalType": "uint256",
          "name": "_amountIn",
          "type": "uint256"
        },
        {
          "internalType": "address[]",
          "name": "_path",
          "type": "address[]"
        },
        {
          "internalType": "uint24[]",
          "name": "_fees",
          "type": "uint24[]"
        },
        {
          "internalType": "uint256",
          "name": "expiry",
          "type": "uint256"
        }
      ],
      "name": "arbitrage",
      "outputs": [],
      "stateMutability": "nonpayable",
      "type": "function"
    },
    {
      "inputs": [
        {
          "internalType": "address[]",
          "name": "_collateralTokens",
          "type": "address[]"
        }
      ],
      "name": "batchApproveRouter",
      "outputs": [],
      "stateMutability": "nonpayable",
      "type": "function"
    },
    {
      "inputs": [
        {
          "internalType": "address",
          "name": "",
          "type": "address"
        }
      ],
      "name": "collateralToAPToken",
      "outputs": [
        {
          "internalType": "contract IMintableToken",
          "name": "",
          "type": "address"
        }
      ],
      "stateMutability": "view",
      "type": "function"
    },
    {
      "inputs": [
        {
          "internalType": "address",
          "name": "_collateralToken",
          "type": "address"
        },
        {
          "internalType": "uint256",
          "name": "_amount",
          "type": "uint256"
        }
      ],
      "name": "deposit",
      "outputs": [],
      "stateMutability": "nonpayable",
      "type": "function"
    },
    {
      "inputs": [
        {
          "internalType": "address",
          "name": "",
          "type": "address"
        }
      ],
      "name": "depositsAndRewards",
      "outputs": [
        {
          "internalType": "uint256",
          "name": "",
          "type": "uint256"
        }
      ],
      "stateMutability": "view",
      "type": "function"
    },
    {
      "inputs": [],
      "name": "factory",
      "outputs": [
        {
          "internalType": "contract ITroveFactory",
          "name": "",
          "type": "address"
        }
      ],
      "stateMutability": "view",
      "type": "function"
    },
    {
      "inputs": [
        {
          "internalType": "address",
          "name": "_collateralToken",
          "type": "address"
        }
      ],
      "name": "getAPtokenPrice",
      "outputs": [
        {
          "internalType": "uint256",
          "name": "",
          "type": "uint256"
        }
      ],
      "stateMutability": "view",
      "type": "function"
    },
    {
      "inputs": [],
      "name": "initialize",
      "outputs": [],
      "stateMutability": "nonpayable",
      "type": "function"
    },
    {
      "inputs": [],
      "name": "name",
      "outputs": [
        {
          "internalType": "string",
          "name": "",
          "type": "string"
        }
      ],
      "stateMutability": "view",
      "type": "function"
    },
    {
      "inputs": [],
      "name": "owner",
      "outputs": [
        {
          "internalType": "address",
          "name": "",
          "type": "address"
        }
      ],
      "stateMutability": "view",
      "type": "function"
    },
    {
      "inputs": [],
      "name": "proxiableUUID",
      "outputs": [
        {
          "internalType": "bytes32",
          "name": "",
          "type": "bytes32"
        }
      ],
      "stateMutability": "view",
      "type": "function"
    },
    {
      "inputs": [],
      "name": "renounceOwnership",
      "outputs": [],
      "stateMutability": "nonpayable",
      "type": "function"
    },
    {
      "inputs": [],
      "name": "router",
      "outputs": [
        {
          "internalType": "contract IUniswapV3Router",
          "name": "",
          "type": "address"
        }
      ],
      "stateMutability": "view",
      "type": "function"
    },
    {
      "inputs": [
        {
          "internalType": "address",
          "name": "_collateralToken",
          "type": "address"
        },
        {
          "internalType": "address",
          "name": "_recipient",
          "type": "address"
        }
      ],
      "name": "transferExtraCollateral",
      "outputs": [],
      "stateMutability": "nonpayable",
      "type": "function"
    },
    {
      "inputs": [
        {
          "internalType": "address",
          "name": "newOwner",
          "type": "address"
        }
      ],
      "name": "transferOwnership",
      "outputs": [],
      "stateMutability": "nonpayable",
      "type": "function"
    },
    {
      "inputs": [
        {
          "internalType": "address",
          "name": "newImplementation",
          "type": "address"
        }
      ],
      "name": "upgradeTo",
      "outputs": [],
      "stateMutability": "nonpayable",
      "type": "function"
    },
    {
      "inputs": [
        {
          "internalType": "address",
          "name": "newImplementation",
          "type": "address"
        },
        {
          "internalType": "bytes",
          "name": "data",
          "type": "bytes"
        }
      ],
      "name": "upgradeToAndCall",
      "outputs": [],
      "stateMutability": "payable",
      "type": "function"
    },
    {
      "inputs": [
        {
          "internalType": "address",
          "name": "_collateralToken",
          "type": "address"
        },
        {
          "internalType": "uint256",
          "name": "_amount",
          "type": "uint256"
        }
      ],
      "name": "withdraw",
      "outputs": [],
      "stateMutability": "nonpayable",
      "type": "function"
    }
  ],
  "transactionHash": "0xcd915113b153802d4d5d520e0f775efb2f2e7b814b23ffb6bcb53f648fa5af22",
  "args": [
    "0xf6063b2A386397C6fD5bb468523328bD363Cf614",
    "0xE592427A0AEce92De3Edee1F18E0157C05861564"
  ],
  "numDeployments": 1,
  "solcInputHash": "dea2b32fd21416889096b7b2b54df7fd",
  "bytecode": "0x60e0604052306080523480156200001557600080fd5b50604051620045de380380620045de833981016040819052620000389162000218565b6001600160a01b038216620000a95760405162461bcd60e51b815260206004820152602c60248201527f3535313135622074726f766520666163746f7279206d757374206e6f7420626560448201526b02061646472657373203078360a41b60648201526084015b60405180910390fd5b6001600160a01b038116620001175760405162461bcd60e51b815260206004820152602d60248201527f35353131356220726f757465722061646472657373206d757374206e6f74206260448201526c06520616464726573732030783609c1b6064820152608401620000a0565b6001600160a01b0380831660a052811660c052620001346200013c565b505062000250565b600054610100900460ff1615620001a65760405162461bcd60e51b815260206004820152602760248201527f496e697469616c697a61626c653a20636f6e747261637420697320696e697469604482015266616c697a696e6760c81b6064820152608401620000a0565b60005460ff9081161015620001f9576000805460ff191660ff9081179091556040519081527f7f26b83ff96e1f2b6a682f133852f6798a09c465da95921460cefb38474024989060200160405180910390a15b565b80516001600160a01b03811681146200021357600080fd5b919050565b600080604083850312156200022c57600080fd5b6200023783620001fb565b91506200024760208401620001fb565b90509250929050565b60805160a05160c051614311620002cd6000396000818161055301528181610969015281816111ef01526116d20152600081816104ae01528181610e2601528181610ef201528181610fea01526112290152600081816105af015281816105fb01528181610a6501528181610aa80152610b7401526143116000f3fe608060405260043610620001be5760003560e01c806386fca95f11620000ff578063ad09014d1162000095578063d48bfca7116200006c578063d48bfca714620004d0578063f2fde38b14620004f5578063f3fef3a3146200051a578063f887ea40146200053f57600080fd5b8063ad09014d146200046a578063b85a8b201462000482578063c45a0155146200049a57600080fd5b8063a1fbb7cb11620000d6578063a1fbb7cb146200042d578063a20baee6146200040f578063abdc55411462000452578063aceb2d04146200036a57600080fd5b806386fca95f14620003ca5780638da5cb5b14620003ef578063923c1eec146200040f57600080fd5b80634933b9ee1162000175578063517ef1d7116200014c578063517ef1d7146200036a57806352d1902d1462000382578063715018a6146200039a5780638129fc1c14620003b257600080fd5b80634933b9ee14620002db5780634b1c143514620003005780634f1ef286146200035357600080fd5b806306fdde0314620001c3578063098d322814620002125780630a66859214620002395780633659cfe6146200025e57806345c7890a146200028557806347e7ef2414620002b6575b600080fd5b348015620001d057600080fd5b5060408051808201825260148152730417262697472616765506f6f6c556e69737761760641b6020820152905162000209919062002990565b60405180910390f35b3480156200021f57600080fd5b506200022a60001981565b60405190815260200162000209565b3480156200024657600080fd5b506200022a62000258366004620029bb565b62000575565b3480156200026b57600080fd5b50620002836200027d366004620029bb565b620005a5565b005b3480156200029257600080fd5b506200022a620002a4366004620029bb565b60fc6020526000908152604090205481565b348015620002c357600080fd5b5062000283620002d5366004620029db565b62000699565b348015620002e857600080fd5b5062000283620002fa36600462002a59565b62000967565b3480156200030d57600080fd5b506200033a6200031f366004620029bb565b60fb602052600090815260409020546001600160a01b031681565b6040516001600160a01b03909116815260200162000209565b620002836200036436600462002b14565b62000a5b565b3480156200037757600080fd5b506200022a62000b33565b3480156200038f57600080fd5b506200022a62000b67565b348015620003a757600080fd5b506200028362000c1d565b348015620003bf57600080fd5b506200028362000c35565b348015620003d757600080fd5b5062000283620003e936600462002bb1565b62000d58565b348015620003fc57600080fd5b506097546001600160a01b03166200033a565b3480156200041c57600080fd5b506200022a670de0b6b3a764000081565b3480156200043a57600080fd5b50620002836200044c36600462002bef565b62000e18565b3480156200045f57600080fd5b506200022a62001462565b3480156200047757600080fd5b506200022a62001479565b3480156200048f57600080fd5b506200022a620014a9565b348015620004a757600080fd5b506200033a7f000000000000000000000000000000000000000000000000000000000000000081565b348015620004dd57600080fd5b5062000283620004ef366004620029bb565b620014c0565b3480156200050257600080fd5b506200028362000514366004620029bb565b62001745565b3480156200052757600080fd5b506200028362000539366004620029db565b620017c1565b3480156200054c57600080fd5b506200033a7f000000000000000000000000000000000000000000000000000000000000000081565b6001600160a01b03808216600090815260fb60205260408120549091166200059e8382620019f7565b9392505050565b6001600160a01b037f0000000000000000000000000000000000000000000000000000000000000000163003620005f95760405162461bcd60e51b8152600401620005f09062002c78565b60405180910390fd5b7f00000000000000000000000000000000000000000000000000000000000000006001600160a01b03166200064460008051602062004295833981519152546001600160a01b031690565b6001600160a01b0316146200066d5760405162461bcd60e51b8152600401620005f09062002cc4565b620006788162001b40565b60408051600080825260208201909252620006969183919062001b4a565b50565b620006a362001cc7565b6001600160a01b03808316600090815260fb602052604090205416806200070d5760405162461bcd60e51b815260206004820152601d60248201527f643764623920746f6b656e206d7573742068617665204150746f6b656e0000006044820152606401620005f0565b60008211620007755760405162461bcd60e51b815260206004820152602d60248201527f6437646239206465706f73697420616d6f756e74206d7573742062652062696760448201526c676572207468616e207a65726f60981b6064820152608401620005f0565b6000620007838483620019f7565b6040516323b872dd60e01b8152336004820152306024820152604481018590529091506001600160a01b038516906323b872dd906064016020604051808303816000875af1158015620007da573d6000803e3d6000fd5b505050506040513d601f19601f8201168201806040525081019062000800919062002d10565b6200084e5760405162461bcd60e51b815260206004820152601b60248201527f313530616130207472616e736665722066726f6d206661696c656400000000006044820152606401620005f0565b60008162000865670de0b6b3a76400008662002d4a565b62000871919062002d64565b6040516340c10f1960e01b8152336004820152602481018290529091506001600160a01b038416906340c10f1990604401600060405180830381600087803b158015620008bd57600080fd5b505af1158015620008d2573d6000803e3d6000fd5b505050506001600160a01b038516600090815260fc6020526040812080548692906200090090849062002d87565b9091555050604080516001600160a01b0387168152336020820152908101859052606081018290527fdcbc1c05240f31ff3ad067ef1ee35ce4997762752e3a095284754544f4c709d79060800160405180910390a150505062000963600160c955565b5050565b7f000000000000000000000000000000000000000000000000000000000000000060005b8281101562000a55576000848483818110620009ab57620009ab62002d9d565b9050602002016020810190620009c29190620029bb565b60405163095ea7b360e01b81526001600160a01b03858116600483015260001960248301529192509082169063095ea7b3906044016020604051808303816000875af115801562000a17573d6000803e3d6000fd5b505050506040513d601f19601f8201168201806040525081019062000a3d919062002d10565b5050808062000a4c9062002db3565b9150506200098b565b50505050565b6001600160a01b037f000000000000000000000000000000000000000000000000000000000000000016300362000aa65760405162461bcd60e51b8152600401620005f09062002c78565b7f00000000000000000000000000000000000000000000000000000000000000006001600160a01b031662000af160008051602062004295833981519152546001600160a01b031690565b6001600160a01b03161462000b1a5760405162461bcd60e51b8152600401620005f09062002cc4565b62000b258262001b40565b620009638282600162001b4a565b6002606462000b4c670de0b6b3a7640000600162002d4a565b62000b58919062002d64565b62000b64919062002d64565b81565b6000306001600160a01b037f0000000000000000000000000000000000000000000000000000000000000000161462000c095760405162461bcd60e51b815260206004820152603860248201527f555550535570677261646561626c653a206d757374206e6f742062652063616c60448201527f6c6564207468726f7567682064656c656761746563616c6c00000000000000006064820152608401620005f0565b506000805160206200429583398151915290565b62000c2762001d29565b62000c33600062001d85565b565b600054610100900460ff161580801562000c565750600054600160ff909116105b8062000c725750303b15801562000c72575060005460ff166001145b62000cd75760405162461bcd60e51b815260206004820152602e60248201527f496e697469616c697a61626c653a20636f6e747261637420697320616c72656160448201526d191e481a5b9a5d1a585b1a5e995960921b6064820152608401620005f0565b6000805460ff19166001179055801562000cfb576000805461ff0019166101001790555b62000d0562001dd7565b62000d0f62001e0b565b801562000696576000805461ff0019169055604051600181527f7f26b83ff96e1f2b6a682f133852f6798a09c465da95921460cefb38474024989060200160405180910390a150565b62000d6262001d29565b6040516370a0823160e01b815230600482015282906000906001600160a01b038316906370a0823190602401602060405180830381865afa15801562000dac573d6000803e3d6000fd5b505050506040513d601f19601f8201168201806040525081019062000dd2919062002dcf565b6001600160a01b038516600090815260fc602052604090205490915062000e118462000dff838562002de9565b6001600160a01b038616919062001e3f565b5050505050565b62000e2262001cc7565b60007f00000000000000000000000000000000000000000000000000000000000000006001600160a01b031663992642e56040518163ffffffff1660e01b8152600401602060405180830381865afa15801562000e83573d6000803e3d6000fd5b505050506040513d601f19601f8201168201806040525081019062000ea9919062002dff565b6001600160a01b03168686600081811062000ec85762000ec862002d9d565b905060200201602081019062000edf9190620029bb565b6001600160a01b031603620011e95760007f00000000000000000000000000000000000000000000000000000000000000006001600160a01b031663992642e56040518163ffffffff1660e01b8152600401602060405180830381865afa15801562000f4f573d6000803e3d6000fd5b505050506040513d601f19601f8201168201806040525081019062000f75919062002dff565b6040516370a0823160e01b81523060048201529091506000906001600160a01b038316906370a0823190602401602060405180830381865afa15801562000fc0573d6000803e3d6000fd5b505050506040513d601f19601f8201168201806040525081019062000fe6919062002dcf565b90507f00000000000000000000000000000000000000000000000000000000000000006001600160a01b031663048c661d6040518163ffffffff1660e01b8152600401602060405180830381865afa15801562001047573d6000803e3d6000fd5b505050506040513d601f19601f820116820180604052508101906200106d919062002dff565b6001600160a01b031663a1fbb7cb8a8a8a8a8a8a6040518763ffffffff1660e01b8152600401620010a49695949392919062002e6c565b6020604051808303816000875af1158015620010c4573d6000803e3d6000fd5b505050506040513d601f19601f82011682018060405250810190620010ea919062002dcf565b506040516370a0823160e01b81523060048201526001600160a01b0383169063a9059cbb903390849084906370a0823190602401602060405180830381865afa1580156200113c573d6000803e3d6000fd5b505050506040513d601f19601f8201168201806040525081019062001162919062002dcf565b6200116e919062002de9565b6040516001600160e01b031960e085901b1681526001600160a01b03909216600483015260248201526044016020604051808303816000875af1158015620011ba573d6000803e3d6000fd5b505050506040513d601f19601f82011682018060405250810190620011e0919062002d10565b5050506200144e565b6200121a7f000000000000000000000000000000000000000000000000000000000000000088888888888862001ea4565b90506000670de0b6b3a76400007f00000000000000000000000000000000000000000000000000000000000000006001600160a01b031663ec5883956040518163ffffffff1660e01b8152600401602060405180830381865afa15801562001286573d6000803e3d6000fd5b505050506040513d601f19601f82011682018060405250810190620012ac919062002dcf565b620012b8908462002d4a565b620012c4919062002d64565b9050620012d2818362002de9565b915086866000818110620012ea57620012ea62002d9d565b9050602002016020810190620013019190620029bb565b60405163a9059cbb60e01b8152336004820152602481018390526001600160a01b03919091169063a9059cbb906044016020604051808303816000875af115801562001351573d6000803e3d6000fd5b505050506040513d601f19601f8201168201806040525081019062001377919062002d10565b508160fc60008989600081811062001393576200139362002d9d565b9050602002016020810190620013aa9190620029bb565b6001600160a01b03166001600160a01b031681526020019081526020016000206000828254620013db919062002d87565b909155507f251ff4c7634fd55f04c3cf32dbd1ee0a0df57c945c32ba5bde076456722b63059050878760008162001416576200141662002d9d565b90506020020160208101906200142d9190620029bb565b88888b866040516200144495949392919062002ee6565b60405180910390a1505b506200145a600160c955565b505050505050565b606462000b58670de0b6b3a7640000600562002d4a565b606462001490670de0b6b3a7640000600162002d4a565b6200149c919062002d64565b62000b6490600a62002d4a565b606462000b58670de0b6b3a7640000600162002d4a565b6001600160a01b03818116600090815260fb60205260409020541615620015395760405162461bcd60e51b815260206004820152602660248201527f61633334322074686520746f6b656e2068617320616c7265616479206265656e60448201526508185919195960d21b6064820152608401620005f0565b60008190506000816001600160a01b03166306fdde036040518163ffffffff1660e01b8152600401600060405180830381865afa1580156200157f573d6000803e3d6000fd5b505050506040513d6000823e601f3d908101601f19168201604052620015a9919081019062002f21565b604051602001620015bb919062002fa1565b60405160208183030381529060405290506000826001600160a01b03166395d89b416040518163ffffffff1660e01b8152600401600060405180830381865afa1580156200160d573d6000803e3d6000fd5b505050506040513d6000823e601f3d908101601f1916820160405262001637919081019062002f21565b60405160200162001649919062002fd7565b604051602081830303815290604052905060008282866040516200166d906200292e565b6200167b9392919062003003565b604051809103906000f08015801562001698573d6000803e3d6000fd5b506001600160a01b03868116600090815260fb6020526040902080546001600160a01b0319168383161790559091508190620016fa9086167f00000000000000000000000000000000000000000000000000000000000000006000196200220b565b604080516001600160a01b038089168252831660208201527fa382806de660013e2e748a65a90d3d86e2b3282d70f6a131bdbec61792b4f90d910160405180910390a1505050505050565b6200174f62001d29565b6001600160a01b038116620017b65760405162461bcd60e51b815260206004820152602660248201527f4f776e61626c653a206e6577206f776e657220697320746865207a65726f206160448201526564647265737360d01b6064820152608401620005f0565b620006968162001d85565b620017cb62001cc7565b6001600160a01b03808316600090815260fb602052604090205416816200184b5760405162461bcd60e51b815260206004820152602d60248201527f3362333239207769746864726177616c20616d6f756e74206d7573742062652060448201526c0626967676572207468616e203609c1b6064820152608401620005f0565b6040516323b872dd60e01b8152336004820152306024820152604481018390526001600160a01b038216906323b872dd906064016020604051808303816000875af11580156200189f573d6000803e3d6000fd5b505050506040513d601f19601f82011682018060405250810190620018c5919062002d10565b506000670de0b6b3a7640000620018dd8584620019f7565b620018e9908562002d4a565b620018f5919062002d64565b604051630852cd8d60e31b8152600481018590529091506001600160a01b038316906342966c6890602401600060405180830381600087803b1580156200193b57600080fd5b505af115801562001950573d6000803e3d6000fd5b505050506001600160a01b038416600090815260fc6020526040812080548392906200197e90849062002de9565b909155506200199a90506001600160a01b038516338362001e3f565b604080516001600160a01b0386168152336020820152908101829052606081018490527ff341246adaac6f497bc2a656f546ab9e182111d630394f0c57c710a59a2cb5679060800160405180910390a1505062000963600160c955565b60008060fc6000856001600160a01b03166001600160a01b031681526020019081526020016000205490506000836001600160a01b03166318160ddd6040518163ffffffff1660e01b8152600401602060405180830381865afa15801562001a63573d6000803e3d6000fd5b505050506040513d601f19601f8201168201806040525081019062001a89919062002dcf565b905081158062001a97575080155b1562001ab057670de0b6b3a76400009250505062001b3a565b836001600160a01b03166318160ddd6040518163ffffffff1660e01b8152600401602060405180830381865afa15801562001aef573d6000803e3d6000fd5b505050506040513d601f19601f8201168201806040525081019062001b15919062002dcf565b62001b29670de0b6b3a76400008462002d4a565b62001b35919062002d64565b925050505b92915050565b6200069662001d29565b7f4910fdfa16fed3260ed0e7147f7cc6da11a60208b5b9406d12a635614ffd91435460ff161562001b855762001b808362002328565b505050565b826001600160a01b03166352d1902d6040518163ffffffff1660e01b8152600401602060405180830381865afa92505050801562001be2575060408051601f3d908101601f1916820190925262001bdf9181019062002dcf565b60015b62001c475760405162461bcd60e51b815260206004820152602e60248201527f45524331393637557067726164653a206e657720696d706c656d656e7461746960448201526d6f6e206973206e6f74205555505360901b6064820152608401620005f0565b60008051602062004295833981519152811462001cb95760405162461bcd60e51b815260206004820152602960248201527f45524331393637557067726164653a20756e737570706f727465642070726f786044820152681a58589b195555525160ba1b6064820152608401620005f0565b5062001b80838383620023c7565b600260c9540362001d1b5760405162461bcd60e51b815260206004820152601f60248201527f5265656e7472616e637947756172643a207265656e7472616e742063616c6c006044820152606401620005f0565b600260c955565b600160c955565b6097546001600160a01b0316331462000c335760405162461bcd60e51b815260206004820181905260248201527f4f776e61626c653a2063616c6c6572206973206e6f7420746865206f776e65726044820152606401620005f0565b609780546001600160a01b038381166001600160a01b0319831681179093556040519116919082907f8be0079c531659141344cd1fd0a4f28419497f9722a3daafe3b4186f6b6457e090600090a35050565b600054610100900460ff1662001e015760405162461bcd60e51b8152600401620005f09062003045565b62000c33620023f2565b600054610100900460ff1662001e355760405162461bcd60e51b8152600401620005f09062003045565b62000c3362002427565b6040516001600160a01b03831660248201526044810182905262001b8090849063a9059cbb60e01b906064015b60408051601f198184030181529190526020810180516001600160e01b03166001600160e01b03199093169290921790915262002451565b6000858562001eb560018262002de9565b81811062001ec75762001ec762002d9d565b905060200201602081019062001ede9190620029bb565b6001600160a01b03168686600081811062001efd5762001efd62002d9d565b905060200201602081019062001f149190620029bb565b6001600160a01b03161462001f7c5760405162461bcd60e51b815260206004820152602760248201527f6561666539206d75737420737461727420616e6420656e64207769746820736160448201526636b29031b7b4b760c91b6064820152608401620005f0565b8142108062001f89575081155b62001fc85760405162461bcd60e51b815260206004820152600e60248201526d656166653920746f6f206c61746560901b6044820152606401620005f0565b60008686600081811062001fe05762001fe062002d9d565b905060200201602081019062001ff79190620029bb565b6040516370a0823160e01b81523060048201529091506000906001600160a01b038316906370a0823190602401602060405180830381865afa15801562002042573d6000803e3d6000fd5b505050506040513d601f19601f8201168201806040525081019062002068919062002dcf565b905060006040518060800160405280620020e68b8b8080602002602001604051908101604052809392919081815260200183836020028082843760009201919091525050604080516020808f0282810182019093528e82529093508e92508d9182918501908490808284376000920191909152506200252a92505050565b8152306020820152604081018c9052606001620021058c600162002d87565b905260405163b858183f60e01b81529091506001600160a01b038c169063b858183f906200213890849060040162003090565b6020604051808303816000875af115801562002158573d6000803e3d6000fd5b505050506040513d601f19601f820116820180604052508101906200217e919062002dcf565b506040516370a0823160e01b815230600482015260009083906001600160a01b038616906370a0823190602401602060405180830381865afa158015620021c9573d6000803e3d6000fd5b505050506040513d601f19601f82011682018060405250810190620021ef919062002dcf565b620021fb919062002de9565b9c9b505050505050505050505050565b801580620022895750604051636eb1769f60e11b81523060048201526001600160a01b03838116602483015284169063dd62ed3e90604401602060405180830381865afa15801562002261573d6000803e3d6000fd5b505050506040513d601f19601f8201168201806040525081019062002287919062002dcf565b155b620022f65760405162461bcd60e51b815260206004820152603660248201527f5361666545524332303a20617070726f76652066726f6d206e6f6e2d7a65726f60448201527520746f206e6f6e2d7a65726f20616c6c6f77616e636560501b6064820152608401620005f0565b6040516001600160a01b03831660248201526044810182905262001b8090849063095ea7b360e01b9060640162001e6c565b6001600160a01b0381163b620023975760405162461bcd60e51b815260206004820152602d60248201527f455243313936373a206e657720696d706c656d656e746174696f6e206973206e60448201526c1bdd08184818dbdb9d1c9858dd609a1b6064820152608401620005f0565b6000805160206200429583398151915280546001600160a01b0319166001600160a01b0392909216919091179055565b620023d2836200261c565b600082511180620023e05750805b1562001b805762000a5583836200265e565b600054610100900460ff166200241c5760405162461bcd60e51b8152600401620005f09062003045565b62000c333362001d85565b600054610100900460ff1662001d225760405162461bcd60e51b8152600401620005f09062003045565b6000620024a8826040518060400160405280602081526020017f5361666545524332303a206c6f772d6c6576656c2063616c6c206661696c6564815250856001600160a01b0316620027529092919063ffffffff16565b80519091501562001b805780806020019051810190620024c9919062002d10565b62001b805760405162461bcd60e51b815260206004820152602a60248201527f5361666545524332303a204552433230206f7065726174696f6e20646964206e6044820152691bdd081cdd58d8d9595960b21b6064820152608401620005f0565b60608260008151811062002542576200254262002d9d565b602002602001015160405160200162002573919060609190911b6bffffffffffffffffffffffff1916815260140190565b604051602081830303815290604052905060005b8251811015620026155781838281518110620025a757620025a762002d9d565b602002602001015185836001620025bf919062002d87565b81518110620025d257620025d262002d9d565b6020026020010151604051602001620025ee93929190620030e0565b604051602081830303815290604052915080806200260c9062002db3565b91505062002587565b5092915050565b620026278162002328565b6040516001600160a01b038216907fbc7cd75a20ee27fd9adebab32041f755214dbc6bffa90cc0225b39da2e5c2d3b90600090a250565b60606001600160a01b0383163b620026c85760405162461bcd60e51b815260206004820152602660248201527f416464726573733a2064656c65676174652063616c6c20746f206e6f6e2d636f6044820152651b9d1c9858dd60d21b6064820152608401620005f0565b600080846001600160a01b031684604051620026e591906200312e565b600060405180830381855af49150503d806000811462002722576040519150601f19603f3d011682016040523d82523d6000602084013e62002727565b606091505b509150915062001b358282604051806060016040528060278152602001620042b5602791396200276b565b606062002763848460008562002788565b949350505050565b606083156200277c5750816200059e565b6200059e8383620028c3565b606082471015620027eb5760405162461bcd60e51b815260206004820152602660248201527f416464726573733a20696e73756666696369656e742062616c616e636520666f6044820152651c8818d85b1b60d21b6064820152608401620005f0565b6001600160a01b0385163b620028445760405162461bcd60e51b815260206004820152601d60248201527f416464726573733a2063616c6c20746f206e6f6e2d636f6e74726163740000006044820152606401620005f0565b600080866001600160a01b031685876040516200286291906200312e565b60006040518083038185875af1925050503d8060008114620028a1576040519150601f19603f3d011682016040523d82523d6000602084013e620028a6565b606091505b5091509150620028b8828286620028f0565b979650505050505050565b815115620028d45781518083602001fd5b8060405162461bcd60e51b8152600401620005f0919062002990565b60608315620029015750816200059e565b825115620029125782518084602001fd5b8160405162461bcd60e51b8152600401620005f0919062002990565b611148806200314d83390190565b60005b83811015620029595781810151838201526020016200293f565b50506000910152565b600081518084526200297c8160208601602086016200293c565b601f01601f19169290920160200192915050565b6020815260006200059e602083018462002962565b6001600160a01b03811681146200069657600080fd5b600060208284031215620029ce57600080fd5b81356200059e81620029a5565b60008060408385031215620029ef57600080fd5b8235620029fc81620029a5565b946020939093013593505050565b60008083601f84011262002a1d57600080fd5b50813567ffffffffffffffff81111562002a3657600080fd5b6020830191508360208260051b850101111562002a5257600080fd5b9250929050565b6000806020838503121562002a6d57600080fd5b823567ffffffffffffffff81111562002a8557600080fd5b62002a938582860162002a0a565b90969095509350505050565b634e487b7160e01b600052604160045260246000fd5b604051601f8201601f1916810167ffffffffffffffff8111828210171562002ae15762002ae162002a9f565b604052919050565b600067ffffffffffffffff82111562002b065762002b0662002a9f565b50601f01601f191660200190565b6000806040838503121562002b2857600080fd5b823562002b3581620029a5565b9150602083013567ffffffffffffffff81111562002b5257600080fd5b8301601f8101851362002b6457600080fd5b803562002b7b62002b758262002ae9565b62002ab5565b81815286602083850101111562002b9157600080fd5b816020840160208301376000602083830101528093505050509250929050565b6000806040838503121562002bc557600080fd5b823562002bd281620029a5565b9150602083013562002be481620029a5565b809150509250929050565b6000806000806000806080878903121562002c0957600080fd5b86359550602087013567ffffffffffffffff8082111562002c2957600080fd5b62002c378a838b0162002a0a565b9097509550604089013591508082111562002c5157600080fd5b5062002c6089828a0162002a0a565b979a9699509497949695606090950135949350505050565b6020808252602c908201527f46756e6374696f6e206d7573742062652063616c6c6564207468726f7567682060408201526b19195b1959d85d1958d85b1b60a21b606082015260800190565b6020808252602c908201527f46756e6374696f6e206d7573742062652063616c6c6564207468726f7567682060408201526b6163746976652070726f787960a01b606082015260800190565b60006020828403121562002d2357600080fd5b815180151581146200059e57600080fd5b634e487b7160e01b600052601160045260246000fd5b808202811582820484141762001b3a5762001b3a62002d34565b60008262002d8257634e487b7160e01b600052601260045260246000fd5b500490565b8082018082111562001b3a5762001b3a62002d34565b634e487b7160e01b600052603260045260246000fd5b60006001820162002dc85762002dc862002d34565b5060010190565b60006020828403121562002de257600080fd5b5051919050565b8181038181111562001b3a5762001b3a62002d34565b60006020828403121562002e1257600080fd5b81516200059e81620029a5565b8183526000602080850194508260005b8581101562002e6157813562002e4581620029a5565b6001600160a01b03168752958201959082019060010162002e2f565b509495945050505050565b8681526000602060808184015262002e8960808401888a62002e1f565b8381036040850152858152869082016000805b8881101562002ecd57833562ffffff811680821462002eb9578384fd5b845250928401929184019160010162002e9c565b5050809350505050826060830152979650505050505050565b6001600160a01b038616815260806020820181905260009062002f0d908301868862002e1f565b604083019490945250606001529392505050565b60006020828403121562002f3457600080fd5b815167ffffffffffffffff81111562002f4c57600080fd5b8201601f8101841362002f5e57600080fd5b805162002f6f62002b758262002ae9565b81815285602083850101111562002f8557600080fd5b62002f988260208301602086016200293c565b95945050505050565b6b020a82a37b5b2b7103337b9160a51b81526000825162002fca81600c8501602087016200293c565b91909101600c0192915050565b61041560f41b81526000825162002ff68160028501602087016200293c565b9190910160020192915050565b60608152600062003018606083018662002962565b82810360208401526200302c818662002962565b91505060018060a01b0383166040830152949350505050565b6020808252602b908201527f496e697469616c697a61626c653a20636f6e7472616374206973206e6f74206960408201526a6e697469616c697a696e6760a81b606082015260800190565b602081526000825160806020840152620030ae60a084018262002962565b905060018060a01b03602085015116604084015260408401516060840152606084015160808401528091505092915050565b60008451620030f48184602089016200293c565b60e89490941b6001600160e81b0319169190930190815260609190911b6bffffffffffffffffffffffff1916600382015260170192915050565b60008251620031428184602087016200293c565b919091019291505056fe60806040523480156200001157600080fd5b5060405162001148380380620011488339810160408190526200003491620001b8565b828281816003620000468382620002d4565b506004620000558282620002d4565b505050620000726200006c6200009d60201b60201c565b620000a1565b5050600680546001600160a01b0319166001600160a01b039290921691909117905550620003a09050565b3390565b600580546001600160a01b038381166001600160a01b0319831681179093556040519116919082907f8be0079c531659141344cd1fd0a4f28419497f9722a3daafe3b4186f6b6457e090600090a35050565b634e487b7160e01b600052604160045260246000fd5b600082601f8301126200011b57600080fd5b81516001600160401b0380821115620001385762000138620000f3565b604051601f8301601f19908116603f01168101908282118183101715620001635762000163620000f3565b816040528381526020925086838588010111156200018057600080fd5b600091505b83821015620001a4578582018301518183018401529082019062000185565b600093810190920192909252949350505050565b600080600060608486031215620001ce57600080fd5b83516001600160401b0380821115620001e657600080fd5b620001f48783880162000109565b945060208601519150808211156200020b57600080fd5b506200021a8682870162000109565b604086015190935090506001600160a01b03811681146200023a57600080fd5b809150509250925092565b600181811c908216806200025a57607f821691505b6020821081036200027b57634e487b7160e01b600052602260045260246000fd5b50919050565b601f821115620002cf57600081815260208120601f850160051c81016020861015620002aa5750805b601f850160051c820191505b81811015620002cb57828155600101620002b6565b5050505b505050565b81516001600160401b03811115620002f057620002f0620000f3565b620003088162000301845462000245565b8462000281565b602080601f831160018114620003405760008415620003275750858301515b600019600386901b1c1916600185901b178555620002cb565b600085815260208120601f198616915b82811015620003715788860151825594840194600190910190840162000350565b5085821015620003905787850151600019600388901b60f8161c191681555b5050505050600190811b01905550565b610d9880620003b06000396000f3fe608060405234801561001057600080fd5b506004361061010b5760003560e01c806370a08231116100a2578063a457c2d711610071578063a457c2d71461021e578063a9059cbb14610231578063c55dae6314610244578063dd62ed3e14610257578063f2fde38b1461029057600080fd5b806370a08231146101c0578063715018a6146101e95780638da5cb5b146101f157806395d89b411461021657600080fd5b8063313ce567116100de578063313ce56714610176578063395093511461018557806340c10f191461019857806342966c68146101ad57600080fd5b806306fdde0314610110578063095ea7b31461012e57806318160ddd1461015157806323b872dd14610163575b600080fd5b6101186102a3565b6040516101259190610b79565b60405180910390f35b61014161013c366004610be3565b610335565b6040519015158152602001610125565b6002545b604051908152602001610125565b610141610171366004610c0d565b61034f565b60405160128152602001610125565b610141610193366004610be3565b610373565b6101ab6101a6366004610be3565b6103b2565b005b6101ab6101bb366004610c49565b6103f3565b6101556101ce366004610c62565b6001600160a01b031660009081526020819052604090205490565b6101ab610400565b6005546001600160a01b03165b6040516001600160a01b039091168152602001610125565b610118610436565b61014161022c366004610be3565b610445565b61014161023f366004610be3565b6104d7565b6006546101fe906001600160a01b031681565b610155610265366004610c84565b6001600160a01b03918216600090815260016020908152604080832093909416825291909152205490565b6101ab61029e366004610c62565b6104e5565b6060600380546102b290610cb7565b80601f01602080910402602001604051908101604052809291908181526020018280546102de90610cb7565b801561032b5780601f106103005761010080835404028352916020019161032b565b820191906000526020600020905b81548152906001019060200180831161030e57829003601f168201915b5050505050905090565b60003361034381858561057d565b60019150505b92915050565b60003361035d8582856106a2565b610368858585610734565b506001949350505050565b3360008181526001602090815260408083206001600160a01b038716845290915281205490919061034390829086906103ad908790610d07565b61057d565b6005546001600160a01b031633146103e55760405162461bcd60e51b81526004016103dc90610d1a565b60405180910390fd5b6103ef8282610902565b5050565b6103fd33826109e1565b50565b6005546001600160a01b0316331461042a5760405162461bcd60e51b81526004016103dc90610d1a565b6104346000610b27565b565b6060600480546102b290610cb7565b3360008181526001602090815260408083206001600160a01b0387168452909152812054909190838110156104ca5760405162461bcd60e51b815260206004820152602560248201527f45524332303a2064656372656173656420616c6c6f77616e63652062656c6f77604482015264207a65726f60d81b60648201526084016103dc565b610368828686840361057d565b600033610343818585610734565b6005546001600160a01b0316331461050f5760405162461bcd60e51b81526004016103dc90610d1a565b6001600160a01b0381166105745760405162461bcd60e51b815260206004820152602660248201527f4f776e61626c653a206e6577206f776e657220697320746865207a65726f206160448201526564647265737360d01b60648201526084016103dc565b6103fd81610b27565b6001600160a01b0383166105df5760405162461bcd60e51b8152602060048201526024808201527f45524332303a20617070726f76652066726f6d20746865207a65726f206164646044820152637265737360e01b60648201526084016103dc565b6001600160a01b0382166106405760405162461bcd60e51b815260206004820152602260248201527f45524332303a20617070726f766520746f20746865207a65726f206164647265604482015261737360f01b60648201526084016103dc565b6001600160a01b0383811660008181526001602090815260408083209487168084529482529182902085905590518481527f8c5be1e5ebec7d5bd14f71427d1e84f3dd0314c0f7b2291e5b200ac8c7c3b92591015b60405180910390a3505050565b6001600160a01b03838116600090815260016020908152604080832093861683529290522054600019811461072e57818110156107215760405162461bcd60e51b815260206004820152601d60248201527f45524332303a20696e73756666696369656e7420616c6c6f77616e636500000060448201526064016103dc565b61072e848484840361057d565b50505050565b6001600160a01b0383166107985760405162461bcd60e51b815260206004820152602560248201527f45524332303a207472616e736665722066726f6d20746865207a65726f206164604482015264647265737360d81b60648201526084016103dc565b6001600160a01b0382166107fa5760405162461bcd60e51b815260206004820152602360248201527f45524332303a207472616e7366657220746f20746865207a65726f206164647260448201526265737360e81b60648201526084016103dc565b6001600160a01b038316600090815260208190526040902054818110156108725760405162461bcd60e51b815260206004820152602660248201527f45524332303a207472616e7366657220616d6f756e7420657863656564732062604482015265616c616e636560d01b60648201526084016103dc565b6001600160a01b038085166000908152602081905260408082208585039055918516815290812080548492906108a9908490610d07565b92505081905550826001600160a01b0316846001600160a01b03167fddf252ad1be2c89b69c2b068fc378daa952ba7f163c4a11628f55a4df523b3ef846040516108f591815260200190565b60405180910390a361072e565b6001600160a01b0382166109585760405162461bcd60e51b815260206004820152601f60248201527f45524332303a206d696e7420746f20746865207a65726f20616464726573730060448201526064016103dc565b806002600082825461096a9190610d07565b90915550506001600160a01b03821660009081526020819052604081208054839290610997908490610d07565b90915550506040518181526001600160a01b038316906000907fddf252ad1be2c89b69c2b068fc378daa952ba7f163c4a11628f55a4df523b3ef9060200160405180910390a35050565b6001600160a01b038216610a415760405162461bcd60e51b815260206004820152602160248201527f45524332303a206275726e2066726f6d20746865207a65726f206164647265736044820152607360f81b60648201526084016103dc565b6001600160a01b03821660009081526020819052604090205481811015610ab55760405162461bcd60e51b815260206004820152602260248201527f45524332303a206275726e20616d6f756e7420657863656564732062616c616e604482015261636560f01b60648201526084016103dc565b6001600160a01b0383166000908152602081905260408120838303905560028054849290610ae4908490610d4f565b90915550506040518281526000906001600160a01b038516907fddf252ad1be2c89b69c2b068fc378daa952ba7f163c4a11628f55a4df523b3ef90602001610695565b600580546001600160a01b038381166001600160a01b0319831681179093556040519116919082907f8be0079c531659141344cd1fd0a4f28419497f9722a3daafe3b4186f6b6457e090600090a35050565b600060208083528351808285015260005b81811015610ba657858101830151858201604001528201610b8a565b506000604082860101526040601f19601f8301168501019250505092915050565b80356001600160a01b0381168114610bde57600080fd5b919050565b60008060408385031215610bf657600080fd5b610bff83610bc7565b946020939093013593505050565b600080600060608486031215610c2257600080fd5b610c2b84610bc7565b9250610c3960208501610bc7565b9150604084013590509250925092565b600060208284031215610c5b57600080fd5b5035919050565b600060208284031215610c7457600080fd5b610c7d82610bc7565b9392505050565b60008060408385031215610c9757600080fd5b610ca083610bc7565b9150610cae60208401610bc7565b90509250929050565b600181811c90821680610ccb57607f821691505b602082108103610ceb57634e487b7160e01b600052602260045260246000fd5b50919050565b634e487b7160e01b600052601160045260246000fd5b8082018082111561034957610349610cf1565b6020808252818101527f4f776e61626c653a2063616c6c6572206973206e6f7420746865206f776e6572604082015260600190565b8181038181111561034957610349610cf156fea2646970667358221220793add6795255b7170d5ab426c96d98761c7c3e6f636fd31858d4450a053c6d564736f6c63430008110033360894a13ba1a3210667c828492db98dca3e2076cc3735a920a3ca505d382bbc416464726573733a206c6f772d6c6576656c2064656c65676174652063616c6c206661696c6564a2646970667358221220e918f2ae28a639b5f3fecf6885192900ac7d74dd9bba330177d8883e23edd8bf64736f6c63430008110033",
  "devdoc": {
    "kind": "dev",
    "methods": {
      "addToken(address)": {
        "details": "to add new supported collateral by deploying APtoken for it",
        "params": {
          "_collateralToken": "collateral to be added"
        }
      },
      "arbitrage(uint256,address[],uint24[],uint256)": {
        "details": "to do arbitrage",
        "params": {
          "_amountIn": "start amount",
          "_fees": "the fees for the swap",
          "_path": "the path for the swap",
          "expiry": "the timeout for the swap"
        }
      },
      "batchApproveRouter(address[])": {
        "details": "approves the list collateral tokens on Router to enable arbitrage, should be called when the router was changed.",
        "params": {
          "_collateralTokens": "list of collateralToken addresses"
        }
      },
      "deposit(address,uint256)": {
        "details": "to deposit collateral into ArbitragePool and get APtoken",
        "params": {
          "_amount": "amount to deposit",
          "_collateralToken": "amount to deposit"
        }
      },
      "getAPtokenPrice(address)": {
        "details": "calculates the price of APtoken by baseToken/apToken.supply()",
        "params": {
          "_collateralToken": "IERC20 address of base token"
        }
      },
      "owner()": {
        "details": "Returns the address of the current owner."
      },
      "proxiableUUID()": {
        "details": "Implementation of the ERC1822 {proxiableUUID} function. This returns the storage slot used by the implementation. It is used to validate the implementation's compatibility when performing an upgrade. IMPORTANT: A proxy pointing at a proxiable contract should not be considered proxiable itself, because this risks bricking a proxy that upgrades to it, by delegating to itself until out of gas. Thus it is critical that this function revert if invoked through a proxy. This is guaranteed by the `notDelegated` modifier."
      },
      "renounceOwnership()": {
        "details": "Leaves the contract without owner. It will not be possible to call `onlyOwner` functions anymore. Can only be called by the current owner. NOTE: Renouncing ownership will leave the contract without an owner, thereby removing any functionality that is only available to the owner."
      },
      "transferExtraCollateral(address,address)": {
        "details": "moves extra collateral that was sent by mistake to the contract from the balance",
        "params": {
          "_collateralToken": "collateralToken addresses"
        }
      },
      "transferOwnership(address)": {
        "details": "Transfers ownership of the contract to a new account (`newOwner`). Can only be called by the current owner."
      },
      "upgradeTo(address)": {
        "details": "Upgrade the implementation of the proxy to `newImplementation`. Calls {_authorizeUpgrade}. Emits an {Upgraded} event."
      },
      "upgradeToAndCall(address,bytes)": {
        "details": "Upgrade the implementation of the proxy to `newImplementation`, and subsequently execute the function call encoded in `data`. Calls {_authorizeUpgrade}. Emits an {Upgraded} event."
      },
      "withdraw(address,uint256)": {
        "details": "to withdraw collateral from ArbitragePool by redeeming APtoken",
        "params": {
          "_amount": "amount of APtoken to give",
          "_collateralToken": "amount to withdraw"
        }
      }
    },
    "stateVariables": {
      "collateralToAPToken": {
        "details": "stores APtoken address for each token"
      },
      "depositsAndRewards": {
        "details": "stores totalDeposit + rewards value for each collateral"
      }
    },
    "title": "is used to liquidate troves and reward depositors with collateral redeemed",
    "version": 1
  },
  "userdoc": {
    "kind": "user",
    "methods": {},
    "version": 1
  },
  "storageLayout": {
    "storage": [
      {
        "astId": 630,
        "contract": "contracts/arbitrage-pool-uniswap.sol:ArbitragePoolUniswap",
        "label": "_initialized",
        "offset": 0,
        "slot": "0",
        "type": "t_uint8"
      },
      {
        "astId": 633,
        "contract": "contracts/arbitrage-pool-uniswap.sol:ArbitragePoolUniswap",
        "label": "_initializing",
        "offset": 1,
        "slot": "0",
        "type": "t_bool"
      },
      {
        "astId": 612,
        "contract": "contracts/arbitrage-pool-uniswap.sol:ArbitragePoolUniswap",
        "label": "__gap",
        "offset": 0,
        "slot": "1",
        "type": "t_array(t_uint256)50_storage"
      },
      {
        "astId": 927,
        "contract": "contracts/arbitrage-pool-uniswap.sol:ArbitragePoolUniswap",
        "label": "__gap",
        "offset": 0,
        "slot": "51",
        "type": "t_array(t_uint256)50_storage"
      },
      {
        "astId": 1453,
        "contract": "contracts/arbitrage-pool-uniswap.sol:ArbitragePoolUniswap",
        "label": "__gap",
        "offset": 0,
        "slot": "101",
        "type": "t_array(t_uint256)50_storage"
      },
      {
        "astId": 113,
        "contract": "contracts/arbitrage-pool-uniswap.sol:ArbitragePoolUniswap",
        "label": "_owner",
        "offset": 0,
        "slot": "151",
        "type": "t_address"
      },
      {
        "astId": 233,
        "contract": "contracts/arbitrage-pool-uniswap.sol:ArbitragePoolUniswap",
        "label": "__gap",
        "offset": 0,
        "slot": "152",
        "type": "t_array(t_uint256)49_storage"
      },
      {
        "astId": 1069,
        "contract": "contracts/arbitrage-pool-uniswap.sol:ArbitragePoolUniswap",
        "label": "_status",
        "offset": 0,
        "slot": "201",
        "type": "t_uint256"
      },
      {
        "astId": 1127,
        "contract": "contracts/arbitrage-pool-uniswap.sol:ArbitragePoolUniswap",
        "label": "__gap",
        "offset": 0,
        "slot": "202",
        "type": "t_array(t_uint256)49_storage"
      },
      {
        "astId": 6140,
        "contract": "contracts/arbitrage-pool-uniswap.sol:ArbitragePoolUniswap",
        "label": "collateralToAPToken",
        "offset": 0,
        "slot": "251",
        "type": "t_mapping(t_address,t_contract(IMintableToken)7364)"
      },
      {
        "astId": 6145,
        "contract": "contracts/arbitrage-pool-uniswap.sol:ArbitragePoolUniswap",
        "label": "depositsAndRewards",
        "offset": 0,
        "slot": "252",
        "type": "t_mapping(t_address,t_uint256)"
      }
    ],
    "types": {
      "t_address": {
        "encoding": "inplace",
        "label": "address",
        "numberOfBytes": "20"
      },
      "t_array(t_uint256)49_storage": {
        "base": "t_uint256",
        "encoding": "inplace",
        "label": "uint256[49]",
        "numberOfBytes": "1568"
      },
      "t_array(t_uint256)50_storage": {
        "base": "t_uint256",
        "encoding": "inplace",
        "label": "uint256[50]",
        "numberOfBytes": "1600"
      },
      "t_bool": {
        "encoding": "inplace",
        "label": "bool",
        "numberOfBytes": "1"
      },
      "t_contract(IMintableToken)7364": {
        "encoding": "inplace",
        "label": "contract IMintableToken",
        "numberOfBytes": "20"
      },
      "t_mapping(t_address,t_contract(IMintableToken)7364)": {
        "encoding": "mapping",
        "key": "t_address",
        "label": "mapping(address => contract IMintableToken)",
        "numberOfBytes": "32",
        "value": "t_contract(IMintableToken)7364"
      },
      "t_mapping(t_address,t_uint256)": {
        "encoding": "mapping",
        "key": "t_address",
        "label": "mapping(address => uint256)",
        "numberOfBytes": "32",
        "value": "t_uint256"
      },
      "t_uint256": {
        "encoding": "inplace",
        "label": "uint256",
        "numberOfBytes": "32"
      },
      "t_uint8": {
        "encoding": "inplace",
        "label": "uint8",
        "numberOfBytes": "1"
      }
    }
  }
}