{
  "address": "0xeb70EaC1371Ef898AC2781D7168c0d5A11da10cf",
  "abi": [
    {
      "anonymous": false,
      "inputs": [
        {
          "indexed": false,
          "internalType": "address",
          "name": "previousAdmin",
          "type": "address"
        },
        {
          "indexed": false,
          "internalType": "address",
          "name": "newAdmin",
          "type": "address"
        }
      ],
      "name": "AdminChanged",
      "type": "event"
    },
    {
      "anonymous": false,
      "inputs": [
        {
          "indexed": true,
          "internalType": "address",
          "name": "beacon",
          "type": "address"
        }
      ],
      "name": "BeaconUpgraded",
      "type": "event"
    },
    {
      "anonymous": false,
      "inputs": [
        {
          "indexed": false,
          "internalType": "address",
          "name": "token",
          "type": "address"
        },
        {
          "indexed": false,
          "internalType": "uint256",
          "name": "totalCollateral",
          "type": "uint256"
        }
      ],
      "name": "CollateralUpdate",
      "type": "event"
    },
    {
      "anonymous": false,
      "inputs": [
        {
          "indexed": false,
          "internalType": "address",
          "name": "collateral",
          "type": "address"
        },
        {
          "indexed": false,
          "internalType": "uint256",
          "name": "totalDebt",
          "type": "uint256"
        }
      ],
      "name": "DebtUpdate",
      "type": "event"
    },
    {
      "anonymous": false,
      "inputs": [
        {
          "indexed": false,
          "internalType": "uint8",
          "name": "version",
          "type": "uint8"
        }
      ],
      "name": "Initialized",
      "type": "event"
    },
    {
      "anonymous": false,
      "inputs": [
        {
          "indexed": false,
          "internalType": "address",
          "name": "serviceFee",
          "type": "address"
        },
        {
          "indexed": false,
          "internalType": "address",
          "name": "subscriber",
          "type": "address"
        },
        {
          "indexed": false,
          "internalType": "address",
          "name": "trove",
          "type": "address"
        }
      ],
      "name": "NewServiceFee",
      "type": "event"
    },
    {
      "anonymous": false,
      "inputs": [
        {
          "indexed": false,
          "internalType": "address",
          "name": "trove",
          "type": "address"
        },
        {
          "indexed": false,
          "internalType": "address",
          "name": "token",
          "type": "address"
        },
        {
          "indexed": false,
          "internalType": "address",
          "name": "owner",
          "type": "address"
        }
      ],
      "name": "NewTrove",
      "type": "event"
    },
    {
      "anonymous": false,
      "inputs": [
        {
          "indexed": true,
          "internalType": "address",
          "name": "previousOwner",
          "type": "address"
        },
        {
          "indexed": true,
          "internalType": "address",
          "name": "newOwner",
          "type": "address"
        }
      ],
      "name": "OwnershipTransferred",
      "type": "event"
    },
    {
      "anonymous": false,
      "inputs": [
        {
          "indexed": false,
          "internalType": "address",
          "name": "account",
          "type": "address"
        }
      ],
      "name": "Paused",
      "type": "event"
    },
    {
      "anonymous": false,
      "inputs": [
        {
          "indexed": false,
          "internalType": "address",
          "name": "token",
          "type": "address"
        },
        {
          "indexed": false,
          "internalType": "uint256",
          "name": "stableAmount",
          "type": "uint256"
        },
        {
          "indexed": false,
          "internalType": "uint256",
          "name": "tokenAmount",
          "type": "uint256"
        },
        {
          "indexed": false,
          "internalType": "uint256",
          "name": "stableUnspent",
          "type": "uint256"
        },
        {
          "indexed": false,
          "internalType": "uint256",
          "name": "startBaseRate",
          "type": "uint256"
        },
        {
          "indexed": false,
          "internalType": "uint256",
          "name": "finishBaseRate",
          "type": "uint256"
        },
        {
          "indexed": false,
          "internalType": "address",
          "name": "lastTroveRedeemed",
          "type": "address"
        }
      ],
      "name": "Redemption",
      "type": "event"
    },
    {
      "anonymous": false,
      "inputs": [
        {
          "indexed": false,
          "internalType": "address",
          "name": "previousImplementation",
          "type": "address"
        },
        {
          "indexed": false,
          "internalType": "address",
          "name": "newImplementation",
          "type": "address"
        }
      ],
      "name": "ServiceFeeImplementationSet",
      "type": "event"
    },
    {
      "anonymous": false,
      "inputs": [
        {
          "indexed": false,
          "internalType": "address",
          "name": "trove",
          "type": "address"
        },
        {
          "indexed": false,
          "internalType": "address",
          "name": "token",
          "type": "address"
        },
        {
          "indexed": false,
          "internalType": "uint256",
          "name": "newAmount",
          "type": "uint256"
        },
        {
          "indexed": false,
          "internalType": "uint256",
          "name": "newCollateralization",
          "type": "uint256"
        }
      ],
      "name": "TroveCollateralUpdate",
      "type": "event"
    },
    {
      "anonymous": false,
      "inputs": [
        {
          "indexed": false,
          "internalType": "address",
          "name": "trove",
          "type": "address"
        },
        {
          "indexed": false,
          "internalType": "address",
          "name": "actor",
          "type": "address"
        },
        {
          "indexed": false,
          "internalType": "address",
          "name": "token",
          "type": "address"
        },
        {
          "indexed": false,
          "internalType": "uint256",
          "name": "newAmount",
          "type": "uint256"
        },
        {
          "indexed": false,
          "internalType": "uint256",
          "name": "baseRate",
          "type": "uint256"
        },
        {
          "indexed": false,
          "internalType": "uint256",
          "name": "newCollateralization",
          "type": "uint256"
        },
        {
          "indexed": false,
          "internalType": "uint256",
          "name": "feePaid",
          "type": "uint256"
        }
      ],
      "name": "TroveDebtUpdate",
      "type": "event"
    },
    {
      "anonymous": false,
      "inputs": [
        {
          "indexed": false,
          "internalType": "address",
          "name": "previousImplementation",
          "type": "address"
        },
        {
          "indexed": false,
          "internalType": "address",
          "name": "newImplementation",
          "type": "address"
        }
      ],
      "name": "TroveImplementationSet",
      "type": "event"
    },
    {
      "anonymous": false,
      "inputs": [
        {
          "indexed": false,
          "internalType": "address",
          "name": "token",
          "type": "address"
        },
        {
          "indexed": false,
          "internalType": "address",
          "name": "trove",
          "type": "address"
        },
        {
          "indexed": false,
          "internalType": "address",
          "name": "referenceTrove",
          "type": "address"
        },
        {
          "indexed": false,
          "internalType": "bool",
          "name": "before",
          "type": "bool"
        }
      ],
      "name": "TroveInserted",
      "type": "event"
    },
    {
      "anonymous": false,
      "inputs": [
        {
          "indexed": false,
          "internalType": "address",
          "name": "trove",
          "type": "address"
        },
        {
          "indexed": false,
          "internalType": "address",
          "name": "collateralToken",
          "type": "address"
        },
        {
          "indexed": false,
          "internalType": "uint256",
          "name": "priceAtLiquidation",
          "type": "uint256"
        },
        {
          "indexed": false,
          "internalType": "address",
          "name": "stabilityPoolLiquidation",
          "type": "address"
        },
        {
          "indexed": false,
          "internalType": "uint256",
          "name": "collateral",
          "type": "uint256"
        }
      ],
      "name": "TroveLiquidated",
      "type": "event"
    },
    {
      "anonymous": false,
      "inputs": [
        {
          "indexed": false,
          "internalType": "address",
          "name": "trove",
          "type": "address"
        }
      ],
      "name": "TroveRemoved",
      "type": "event"
    },
    {
      "anonymous": false,
      "inputs": [
        {
          "indexed": false,
          "internalType": "address",
          "name": "account",
          "type": "address"
        }
      ],
      "name": "Unpaused",
      "type": "event"
    },
    {
      "anonymous": false,
      "inputs": [
        {
          "indexed": true,
          "internalType": "address",
          "name": "implementation",
          "type": "address"
        }
      ],
      "name": "Upgraded",
      "type": "event"
    },
    {
      "inputs": [],
      "name": "BORROWING_RATE",
      "outputs": [
        {
          "internalType": "uint256",
          "name": "",
          "type": "uint256"
        }
      ],
      "stateMutability": "view",
      "type": "function"
    },
    {
      "inputs": [],
      "name": "DECIMAL_PRECISION",
      "outputs": [
        {
          "internalType": "uint256",
          "name": "",
          "type": "uint256"
        }
      ],
      "stateMutability": "view",
      "type": "function"
    },
    {
      "inputs": [],
      "name": "LIQUIDATION_RESERVE",
      "outputs": [
        {
          "internalType": "uint256",
          "name": "",
          "type": "uint256"
        }
      ],
      "stateMutability": "view",
      "type": "function"
    },
    {
      "inputs": [],
      "name": "MAX_BORROWING_RATE",
      "outputs": [
        {
          "internalType": "uint256",
          "name": "",
          "type": "uint256"
        }
      ],
      "stateMutability": "view",
      "type": "function"
    },
    {
      "inputs": [],
      "name": "MAX_INT",
      "outputs": [
        {
          "internalType": "uint256",
          "name": "",
          "type": "uint256"
        }
      ],
      "stateMutability": "view",
      "type": "function"
    },
    {
      "inputs": [],
      "name": "PERCENT",
      "outputs": [
        {
          "internalType": "uint256",
          "name": "",
          "type": "uint256"
        }
      ],
      "stateMutability": "view",
      "type": "function"
    },
    {
      "inputs": [],
      "name": "PERCENT10",
      "outputs": [
        {
          "internalType": "uint256",
          "name": "",
          "type": "uint256"
        }
      ],
      "stateMutability": "view",
      "type": "function"
    },
    {
      "inputs": [],
      "name": "PERCENT_05",
      "outputs": [
        {
          "internalType": "uint256",
          "name": "",
          "type": "uint256"
        }
      ],
      "stateMutability": "view",
      "type": "function"
    },
    {
      "inputs": [],
      "name": "WETHContract",
      "outputs": [
        {
          "internalType": "contract IWETH",
          "name": "",
          "type": "address"
        }
      ],
      "stateMutability": "view",
      "type": "function"
    },
    {
      "inputs": [],
      "name": "arbitragePool",
      "outputs": [
        {
          "internalType": "address",
          "name": "",
          "type": "address"
        }
      ],
      "stateMutability": "view",
      "type": "function"
    },
    {
      "inputs": [],
      "name": "arbitrageShareRatio",
      "outputs": [
        {
          "internalType": "uint256",
          "name": "",
          "type": "uint256"
        }
      ],
      "stateMutability": "view",
      "type": "function"
    },
    {
      "inputs": [],
      "name": "bonqToken",
      "outputs": [
        {
          "internalType": "contract IERC20",
          "name": "",
          "type": "address"
        }
      ],
      "stateMutability": "view",
      "type": "function"
    },
    {
      "inputs": [
        {
          "internalType": "address",
          "name": "_token",
          "type": "address"
        },
        {
          "internalType": "address",
          "name": "_trove",
          "type": "address"
        }
      ],
      "name": "containsTrove",
      "outputs": [
        {
          "internalType": "bool",
          "name": "",
          "type": "bool"
        }
      ],
      "stateMutability": "view",
      "type": "function"
    },
    {
      "inputs": [
        {
          "internalType": "contract ITrove",
          "name": "_trove",
          "type": "address"
        },
        {
          "internalType": "uint256",
          "name": "_feeAmount",
          "type": "uint256"
        },
        {
          "internalType": "uint256",
          "name": "_feeInterval",
          "type": "uint256"
        }
      ],
      "name": "createNewServiceFee",
      "outputs": [
        {
          "internalType": "contract IServiceFeeGenerator",
          "name": "newServiceFee",
          "type": "address"
        }
      ],
      "stateMutability": "nonpayable",
      "type": "function"
    },
    {
      "inputs": [
        {
          "internalType": "address",
          "name": "_token",
          "type": "address"
        }
      ],
      "name": "createTrove",
      "outputs": [
        {
          "internalType": "contract ITrove",
          "name": "trove",
          "type": "address"
        }
      ],
      "stateMutability": "nonpayable",
      "type": "function"
    },
    {
      "inputs": [
        {
          "internalType": "address",
          "name": "_token",
          "type": "address"
        },
        {
          "internalType": "uint256",
          "name": "_collateralAmount",
          "type": "uint256"
        },
        {
          "internalType": "address",
          "name": "_recipient",
          "type": "address"
        },
        {
          "internalType": "uint256",
          "name": "_borrowAmount",
          "type": "uint256"
        },
        {
          "internalType": "address",
          "name": "_nextTrove",
          "type": "address"
        }
      ],
      "name": "createTroveAndBorrow",
      "outputs": [],
      "stateMutability": "nonpayable",
      "type": "function"
    },
    {
      "inputs": [
        {
          "internalType": "address",
          "name": "_token",
          "type": "address"
        },
        {
          "internalType": "address",
          "name": "_trove",
          "type": "address"
        },
        {
          "internalType": "address",
          "name": "stabilityPoolLiquidation",
          "type": "address"
        },
        {
          "internalType": "uint256",
          "name": "collateral",
          "type": "uint256"
        }
      ],
      "name": "emitLiquidationEvent",
      "outputs": [],
      "stateMutability": "nonpayable",
      "type": "function"
    },
    {
      "inputs": [
        {
          "internalType": "address",
          "name": "_token",
          "type": "address"
        },
        {
          "internalType": "uint256",
          "name": "_newAmount",
          "type": "uint256"
        },
        {
          "internalType": "uint256",
          "name": "_newCollateralization",
          "type": "uint256"
        }
      ],
      "name": "emitTroveCollateralUpdate",
      "outputs": [],
      "stateMutability": "nonpayable",
      "type": "function"
    },
    {
      "inputs": [
        {
          "internalType": "address",
          "name": "_token",
          "type": "address"
        },
        {
          "internalType": "uint256",
          "name": "_newAmount",
          "type": "uint256"
        },
        {
          "internalType": "uint256",
          "name": "_newCollateralization",
          "type": "uint256"
        },
        {
          "internalType": "uint256",
          "name": "_feePaid",
          "type": "uint256"
        }
      ],
      "name": "emitTroveDebtUpdate",
      "outputs": [],
      "stateMutability": "nonpayable",
      "type": "function"
    },
    {
      "inputs": [],
      "name": "feeRecipient",
      "outputs": [
        {
          "internalType": "contract IFeeRecipient",
          "name": "",
          "type": "address"
        }
      ],
      "stateMutability": "view",
      "type": "function"
    },
    {
      "inputs": [
        {
          "internalType": "address",
          "name": "_token",
          "type": "address"
        }
      ],
      "name": "firstTrove",
      "outputs": [
        {
          "internalType": "address",
          "name": "",
          "type": "address"
        }
      ],
      "stateMutability": "view",
      "type": "function"
    },
    {
      "inputs": [
        {
          "internalType": "uint256",
          "name": "_amount",
          "type": "uint256"
        }
      ],
      "name": "getBorrowingFee",
      "outputs": [
        {
          "internalType": "uint256",
          "name": "",
          "type": "uint256"
        }
      ],
      "stateMutability": "view",
      "type": "function"
    },
    {
      "inputs": [
        {
          "internalType": "uint256",
          "name": "_feeRatio",
          "type": "uint256"
        },
        {
          "internalType": "uint256",
          "name": "_amount",
          "type": "uint256"
        }
      ],
      "name": "getRedemptionAmount",
      "outputs": [
        {
          "internalType": "uint256",
          "name": "",
          "type": "uint256"
        }
      ],
      "stateMutability": "pure",
      "type": "function"
    },
    {
      "inputs": [
        {
          "internalType": "uint256",
          "name": "_feeRatio",
          "type": "uint256"
        },
        {
          "internalType": "uint256",
          "name": "_amount",
          "type": "uint256"
        }
      ],
      "name": "getRedemptionFee",
      "outputs": [
        {
          "internalType": "uint256",
          "name": "",
          "type": "uint256"
        }
      ],
      "stateMutability": "pure",
      "type": "function"
    },
    {
      "inputs": [
        {
          "internalType": "address",
          "name": "_trove",
          "type": "address"
        }
      ],
      "name": "getRedemptionFeeRatio",
      "outputs": [
        {
          "internalType": "uint256",
          "name": "",
          "type": "uint256"
        }
      ],
      "stateMutability": "view",
      "type": "function"
    },
    {
      "inputs": [
        {
          "internalType": "uint256",
          "name": "_fee",
          "type": "uint256"
        },
        {
          "internalType": "address",
          "name": "_trove",
          "type": "address"
        }
      ],
      "name": "getReducedFeeAndRefundAmount",
      "outputs": [
        {
          "internalType": "uint256",
          "name": "_reducedFee",
          "type": "uint256"
        },
        {
          "internalType": "uint256",
          "name": "_refundAmount",
          "type": "uint256"
        }
      ],
      "stateMutability": "view",
      "type": "function"
    },
    {
      "inputs": [
        {
          "internalType": "address",
          "name": "_trove",
          "type": "address"
        },
        {
          "internalType": "address",
          "name": "_newNextTrove",
          "type": "address"
        }
      ],
      "name": "increaseCollateralNative",
      "outputs": [],
      "stateMutability": "payable",
      "type": "function"
    },
    {
      "inputs": [
        {
          "internalType": "address",
          "name": "_stableCoin",
          "type": "address"
        },
        {
          "internalType": "address",
          "name": "_feeRecipient",
          "type": "address"
        }
      ],
      "name": "initialize",
      "outputs": [],
      "stateMutability": "nonpayable",
      "type": "function"
    },
    {
      "inputs": [
        {
          "internalType": "address",
          "name": "_token",
          "type": "address"
        },
        {
          "internalType": "address",
          "name": "_newNextTrove",
          "type": "address"
        }
      ],
      "name": "insertTrove",
      "outputs": [],
      "stateMutability": "nonpayable",
      "type": "function"
    },
    {
      "inputs": [
        {
          "internalType": "address",
          "name": "_token",
          "type": "address"
        }
      ],
      "name": "lastTrove",
      "outputs": [
        {
          "internalType": "address",
          "name": "",
          "type": "address"
        }
      ],
      "stateMutability": "view",
      "type": "function"
    },
    {
      "inputs": [
        {
          "internalType": "address",
          "name": "_trove",
          "type": "address"
        },
        {
          "internalType": "address",
          "name": "_token",
          "type": "address"
        }
      ],
      "name": "liquidateTrove",
      "outputs": [],
      "stateMutability": "nonpayable",
      "type": "function"
    },
    {
      "inputs": [
        {
          "internalType": "address",
          "name": "_token",
          "type": "address"
        }
      ],
      "name": "liquidationPool",
      "outputs": [
        {
          "internalType": "contract ILiquidationPool",
          "name": "",
          "type": "address"
        }
      ],
      "stateMutability": "view",
      "type": "function"
    },
    {
      "inputs": [],
      "name": "maxTroveBONQStake",
      "outputs": [
        {
          "internalType": "uint256",
          "name": "",
          "type": "uint256"
        }
      ],
      "stateMutability": "view",
      "type": "function"
    },
    {
      "inputs": [],
      "name": "name",
      "outputs": [
        {
          "internalType": "string",
          "name": "",
          "type": "string"
        }
      ],
      "stateMutability": "view",
      "type": "function"
    },
    {
      "inputs": [
        {
          "internalType": "address",
          "name": "_token",
          "type": "address"
        },
        {
          "internalType": "address",
          "name": "_trove",
          "type": "address"
        }
      ],
      "name": "nextTrove",
      "outputs": [
        {
          "internalType": "address",
          "name": "",
          "type": "address"
        }
      ],
      "stateMutability": "view",
      "type": "function"
    },
    {
      "inputs": [],
      "name": "owner",
      "outputs": [
        {
          "internalType": "address",
          "name": "",
          "type": "address"
        }
      ],
      "stateMutability": "view",
      "type": "function"
    },
    {
      "inputs": [],
      "name": "paused",
      "outputs": [
        {
          "internalType": "bool",
          "name": "",
          "type": "bool"
        }
      ],
      "stateMutability": "view",
      "type": "function"
    },
    {
      "inputs": [
        {
          "internalType": "address",
          "name": "_token",
          "type": "address"
        },
        {
          "internalType": "address",
          "name": "_trove",
          "type": "address"
        }
      ],
      "name": "prevTrove",
      "outputs": [
        {
          "internalType": "address",
          "name": "",
          "type": "address"
        }
      ],
      "stateMutability": "view",
      "type": "function"
    },
    {
      "inputs": [],
      "name": "proxiableUUID",
      "outputs": [
        {
          "internalType": "bytes32",
          "name": "",
          "type": "bytes32"
        }
      ],
      "stateMutability": "view",
      "type": "function"
    },
    {
      "inputs": [
        {
          "internalType": "address",
          "name": "_collateralToken",
          "type": "address"
        },
        {
          "internalType": "uint256",
          "name": "_stableAmount",
          "type": "uint256"
        },
        {
          "internalType": "uint256",
          "name": "_maxRate",
          "type": "uint256"
        },
        {
          "internalType": "uint256",
          "name": "_lastTroveCurrentICR",
          "type": "uint256"
        },
        {
          "internalType": "address",
          "name": "_lastTroveNewPositionHint",
          "type": "address"
        }
      ],
      "name": "redeemStableCoinForCollateral",
      "outputs": [],
      "stateMutability": "nonpayable",
      "type": "function"
    },
    {
      "inputs": [
        {
          "internalType": "address",
          "name": "_token",
          "type": "address"
        },
        {
          "internalType": "address",
          "name": "_trove",
          "type": "address"
        }
      ],
      "name": "removeTrove",
      "outputs": [],
      "stateMutability": "nonpayable",
      "type": "function"
    },
    {
      "inputs": [],
      "name": "renounceOwnership",
      "outputs": [],
      "stateMutability": "nonpayable",
      "type": "function"
    },
    {
      "inputs": [],
      "name": "serviceFeeImplementation",
      "outputs": [
        {
          "internalType": "address",
          "name": "",
          "type": "address"
        }
      ],
      "stateMutability": "view",
      "type": "function"
    },
    {
      "inputs": [
        {
          "internalType": "address",
          "name": "_arbitragePool",
          "type": "address"
        }
      ],
      "name": "setArbitragePool",
      "outputs": [],
      "stateMutability": "nonpayable",
      "type": "function"
    },
    {
      "inputs": [
        {
          "internalType": "uint256",
          "name": "_arbitrageShareRatio",
          "type": "uint256"
        }
      ],
      "name": "setArbitrageShareRatio",
      "outputs": [],
      "stateMutability": "nonpayable",
      "type": "function"
    },
    {
      "inputs": [
        {
          "internalType": "address",
          "name": "_feeRecipient",
          "type": "address"
        }
      ],
      "name": "setFeeRecipient",
      "outputs": [],
      "stateMutability": "nonpayable",
      "type": "function"
    },
    {
      "inputs": [
        {
          "internalType": "address",
          "name": "_token",
          "type": "address"
        },
        {
          "internalType": "address",
          "name": "_liquidationPool",
          "type": "address"
        }
      ],
      "name": "setLiquidationPool",
      "outputs": [],
      "stateMutability": "nonpayable",
      "type": "function"
    },
    {
      "inputs": [
        {
          "internalType": "uint256",
          "name": "_newAmount",
          "type": "uint256"
        }
      ],
      "name": "setMaxTroveBONQStake",
      "outputs": [],
      "stateMutability": "nonpayable",
      "type": "function"
    },
    {
      "inputs": [
        {
          "internalType": "address",
          "name": "_serviceFeeImplementation",
          "type": "address"
        }
      ],
      "name": "setServiceFeeImplementation",
      "outputs": [],
      "stateMutability": "nonpayable",
      "type": "function"
    },
    {
      "inputs": [
        {
          "internalType": "address",
          "name": "_stabilityPool",
          "type": "address"
        }
      ],
      "name": "setStabilityPool",
      "outputs": [],
      "stateMutability": "nonpayable",
      "type": "function"
    },
    {
      "inputs": [],
      "name": "setTokenOwner",
      "outputs": [],
      "stateMutability": "nonpayable",
      "type": "function"
    },
    {
      "inputs": [
        {
          "internalType": "address",
          "name": "_tokenPriceFeed",
          "type": "address"
        }
      ],
      "name": "setTokenPriceFeed",
      "outputs": [],
      "stateMutability": "nonpayable",
      "type": "function"
    },
    {
      "inputs": [
        {
          "internalType": "address",
          "name": "_troveImplementation",
          "type": "address"
        }
      ],
      "name": "setTroveImplementation",
      "outputs": [],
      "stateMutability": "nonpayable",
      "type": "function"
    },
    {
      "inputs": [
        {
          "internalType": "address",
          "name": "_WETH",
          "type": "address"
        },
        {
          "internalType": "address",
          "name": "_liquidationPool",
          "type": "address"
        }
      ],
      "name": "setWETH",
      "outputs": [],
      "stateMutability": "nonpayable",
      "type": "function"
    },
    {
      "inputs": [],
      "name": "stabilityPool",
      "outputs": [
        {
          "internalType": "contract IStabilityPoolBase",
          "name": "",
          "type": "address"
        }
      ],
      "stateMutability": "view",
      "type": "function"
    },
    {
      "inputs": [],
      "name": "stableCoin",
      "outputs": [
        {
          "internalType": "contract IMintableToken",
          "name": "",
          "type": "address"
        }
      ],
      "stateMutability": "view",
      "type": "function"
    },
    {
      "inputs": [],
      "name": "togglePause",
      "outputs": [],
      "stateMutability": "nonpayable",
      "type": "function"
    },
    {
      "inputs": [
        {
          "internalType": "address",
          "name": "_token",
          "type": "address"
        }
      ],
      "name": "tokenCollateralization",
      "outputs": [
        {
          "internalType": "uint256",
          "name": "",
          "type": "uint256"
        }
      ],
      "stateMutability": "view",
      "type": "function"
    },
    {
      "inputs": [],
      "name": "tokenOwner",
      "outputs": [
        {
          "internalType": "contract IMintableTokenOwner",
          "name": "",
          "type": "address"
        }
      ],
      "stateMutability": "view",
      "type": "function"
    },
    {
      "inputs": [],
      "name": "tokenToPriceFeed",
      "outputs": [
        {
          "internalType": "contract ITokenPriceFeed",
          "name": "",
          "type": "address"
        }
      ],
      "stateMutability": "view",
      "type": "function"
    },
    {
      "inputs": [
        {
          "internalType": "address",
          "name": "_token",
          "type": "address"
        }
      ],
      "name": "totalCollateral",
      "outputs": [
        {
          "internalType": "uint256",
          "name": "",
          "type": "uint256"
        }
      ],
      "stateMutability": "view",
      "type": "function"
    },
    {
      "inputs": [],
      "name": "totalDebt",
      "outputs": [
        {
          "internalType": "uint256",
          "name": "",
          "type": "uint256"
        }
      ],
      "stateMutability": "view",
      "type": "function"
    },
    {
      "inputs": [
        {
          "internalType": "address",
          "name": "_token",
          "type": "address"
        }
      ],
      "name": "totalDebtForToken",
      "outputs": [
        {
          "internalType": "uint256",
          "name": "",
          "type": "uint256"
        }
      ],
      "stateMutability": "view",
      "type": "function"
    },
    {
      "inputs": [
        {
          "internalType": "address",
          "name": "newOwner",
          "type": "address"
        }
      ],
      "name": "transferOwnership",
      "outputs": [],
      "stateMutability": "nonpayable",
      "type": "function"
    },
    {
      "inputs": [
        {
          "internalType": "address",
          "name": "_newOwner",
          "type": "address"
        }
      ],
      "name": "transferTokenOwnerOwnership",
      "outputs": [],
      "stateMutability": "nonpayable",
      "type": "function"
    },
    {
      "inputs": [
        {
          "internalType": "address",
          "name": "_newOwner",
          "type": "address"
        }
      ],
      "name": "transferTokenOwnership",
      "outputs": [],
      "stateMutability": "nonpayable",
      "type": "function"
    },
    {
      "inputs": [
        {
          "internalType": "address",
          "name": "_token",
          "type": "address"
        }
      ],
      "name": "troveCount",
      "outputs": [
        {
          "internalType": "uint256",
          "name": "",
          "type": "uint256"
        }
      ],
      "stateMutability": "view",
      "type": "function"
    },
    {
      "inputs": [],
      "name": "troveImplementation",
      "outputs": [
        {
          "internalType": "address",
          "name": "",
          "type": "address"
        }
      ],
      "stateMutability": "view",
      "type": "function"
    },
    {
      "inputs": [
        {
          "internalType": "address",
          "name": "_token",
          "type": "address"
        },
        {
          "internalType": "uint256",
          "name": "_amount",
          "type": "uint256"
        },
        {
          "internalType": "bool",
          "name": "_increase",
          "type": "bool"
        }
      ],
      "name": "updateTotalCollateral",
      "outputs": [],
      "stateMutability": "nonpayable",
      "type": "function"
    },
    {
      "inputs": [
        {
          "internalType": "uint256",
          "name": "_amount",
          "type": "uint256"
        },
        {
          "internalType": "bool",
          "name": "_borrow",
          "type": "bool"
        }
      ],
      "name": "updateTotalDebt",
      "outputs": [],
      "stateMutability": "nonpayable",
      "type": "function"
    },
    {
      "inputs": [
        {
          "internalType": "address",
          "name": "newImplementation",
          "type": "address"
        }
      ],
      "name": "upgradeTo",
      "outputs": [],
      "stateMutability": "nonpayable",
      "type": "function"
    },
    {
      "inputs": [
        {
          "internalType": "address",
          "name": "newImplementation",
          "type": "address"
        },
        {
          "internalType": "bytes",
          "name": "data",
          "type": "bytes"
        }
      ],
      "name": "upgradeToAndCall",
      "outputs": [],
      "stateMutability": "payable",
      "type": "function"
    }
  ],
  "transactionHash": "0xfe70d7a6aacc8cb65292a09a373583b59f3063fe4c5ea76c9649a114fb14e150",
  "args": [],
  "numDeployments": 1,
  "solcInputHash": "dea2b32fd21416889096b7b2b54df7fd",
  "bytecode": "0x60a0604052306080523480156200001557600080fd5b506200002062000026565b620000e8565b600054610100900460ff1615620000935760405162461bcd60e51b815260206004820152602760248201527f496e697469616c697a61626c653a20636f6e747261637420697320696e697469604482015266616c697a696e6760c81b606482015260840160405180910390fd5b60005460ff9081161015620000e6576000805460ff191660ff9081179091556040519081527f7f26b83ff96e1f2b6a682f133852f6798a09c465da95921460cefb38474024989060200160405180910390a15b565b608051615eb662000120600039600081816118e601528181611926015281816121d20152818161221201526122d30152615eb66000f3fe60806040526004361061041a5760003560e01c806379a71baf1161021e578063abdc554111610123578063ddc0e554116100ab578063e7b361541161007a578063e7b3615414610c9e578063ec58839514610cbe578063f0083b4f14610cd5578063f2fde38b14610cf6578063fc7b9c1814610d1657600080fd5b8063ddc0e55414610c02578063deb44c8814610c3e578063e04a3e9014610c5e578063e74b981b14610c7e57600080fd5b8063b85a8b20116100f2578063b85a8b2014610b77578063c11aeb3914610b8c578063c4ae316814610bad578063c531b26614610bc2578063c7089e4314610be257600080fd5b8063abdc554114610b2d578063aceb2d041461078b578063ad09014d14610b42578063b3d5e0ce14610b5757600080fd5b8063914a1ac9116101a657806398d721e01161017557806398d721e014610aab578063992642e514610acb578063a20baee614610a36578063a3e6761014610aec578063a66ca8f214610b0c57600080fd5b8063914a1ac914610a15578063923c1eec14610a365780639385739514610a525780639723ee6014610a7257600080fd5b806380b0dcc9116101ed57806380b0dcc91461097757806381519ef41461099757806382250527146109b757806385ad9175146109d75780638da5cb5b146109f757600080fd5b806379a71baf146108ea5780637deace2d1461090a5780637e059b221461092a57806380054c201461096057600080fd5b8063448d65b41161032457806356e71857116102ac578063631203b01161027b578063631203b01461083957806365d7ddc4146108595780636757634d1461087957806369e5e6e014610899578063715018a6146108d557600080fd5b806356e71857146107b55780635c4f6785146107d55780635c975abb146107f55780635ca7f98d1461081957600080fd5b80634d31a2af116102f35780634d31a2af146107385780634e2f663c146107585780634f1ef28614610778578063517ef1d71461078b57806352d1902d146107a057600080fd5b8063448d65b4146106c457806346904840146106e4578063485cc955146107055780634a7402fb1461072557600080fd5b806321e6b53d116103a75780633659cfe6116103765780633659cfe6146106245780633a297fd8146106445780633e78cf73146106645780633eebf7b9146106845780633f6e0719146106a457600080fd5b806321e6b53d146105a457806328a0e71b146105c45780632aaed16a146105e45780632bcf77411461060457600080fd5b80630cec0d18116103ee5780630cec0d18146104e15780630f2f11461461050157806312552e2514610521578063142af9a21461055657806314ac36d11461058f57600080fd5b80621bed281461041f578063048c661d1461044157806306fdde031461047e578063098d3228146104bd575b600080fd5b34801561042b57600080fd5b5061043f61043a3660046157c6565b610d2d565b005b34801561044d57600080fd5b5060fb54610461906001600160a01b031681565b6040516001600160a01b0390911681526020015b60405180910390f35b34801561048a57600080fd5b50604080518082018252601081526f4f726967696e616c20466163746f727960801b602082015290516104759190615823565b3480156104c957600080fd5b506104d360001981565b604051908152602001610475565b3480156104ed57600080fd5b5061043f6104fc366004615856565b611304565b34801561050d57600080fd5b506104d361051c36600461586f565b61138e565b34801561052d57600080fd5b5061054161053c366004615891565b6113b6565b60408051928352602083019190915201610475565b34801561056257600080fd5b506104d36105713660046158b6565b6001600160a01b0316600090815260fd602052604090206001015490565b34801561059b57600080fd5b5061043f6114a9565b3480156105b057600080fd5b5061043f6105bf3660046158b6565b611703565b3480156105d057600080fd5b5061043f6105df3660046158d3565b61176e565b3480156105f057600080fd5b5061043f6105ff3660046158b6565b61183f565b34801561061057600080fd5b5061043f61061f3660046158b6565b611869565b34801561063057600080fd5b5061043f61063f3660046158b6565b6118dc565b34801561065057600080fd5b5060fc54610461906001600160a01b031681565b34801561067057600080fd5b5061043f61067f3660046158b6565b6119b8565b34801561069057600080fd5b506104d361069f36600461586f565b6119e2565b3480156106b057600080fd5b506104616106bf3660046158b6565b611a08565b3480156106d057600080fd5b506104616106df366004615924565b611a29565b3480156106f057600080fd5b5061010254610461906001600160a01b031681565b34801561071157600080fd5b5061043f6107203660046157c6565b611d37565b61043f6107333660046157c6565b611eef565b34801561074457600080fd5b506104d36107533660046158b6565b612152565b34801561076457600080fd5b5061043f6107733660046158b6565b61218e565b61043f61078636600461596f565b6121c8565b34801561079757600080fd5b506104d3612298565b3480156107ac57600080fd5b506104d36122c6565b3480156107c157600080fd5b5061043f6107d03660046157c6565b612379565b3480156107e157600080fd5b5061043f6107f0366004615856565b6123b2565b34801561080157600080fd5b5060c95460ff165b6040519015158152602001610475565b34801561082557600080fd5b5061043f6108343660046157c6565b6123c0565b34801561084557600080fd5b506104d3610854366004615856565b61251e565b34801561086557600080fd5b5061043f6108743660046157c6565b61258d565b34801561088557600080fd5b5061043f610894366004615a41565b612615565b3480156108a557600080fd5b506104616108b43660046158b6565b6001600160a01b03908116600090815260fd60205260409020600301541690565b3480156108e157600080fd5b5061043f6126fc565b3480156108f657600080fd5b5061043f610905366004615a83565b612710565b34801561091657600080fd5b5061043f6109253660046158b6565b6127f4565b34801561093657600080fd5b506104d36109453660046158b6565b6001600160a01b0316600090815260fd602052604090205490565b34801561096c57600080fd5b506104d36101065481565b34801561098357600080fd5b5061043f610992366004615abe565b612867565b3480156109a357600080fd5b506104616109b23660046157c6565b61296c565b3480156109c357600080fd5b5061043f6109d23660046157c6565b61299d565b3480156109e357600080fd5b506104d36109f23660046158b6565b612f38565b348015610a0357600080fd5b506097546001600160a01b0316610461565b348015610a2157600080fd5b5061010154610461906001600160a01b031681565b348015610a4257600080fd5b506104d3670de0b6b3a764000081565b348015610a5e57600080fd5b5060ff54610461906001600160a01b031681565b348015610a7e57600080fd5b506104d3610a8d3660046158b6565b6001600160a01b0316600090815260fd602052604090206005015490565b348015610ab757600080fd5b5061043f610ac63660046158b6565b613110565b348015610ad757600080fd5b5061010054610461906001600160a01b031681565b348015610af857600080fd5b5060fe54610461906001600160a01b031681565b348015610b1857600080fd5b5061010754610461906001600160a01b031681565b348015610b3957600080fd5b506104d36131bc565b348015610b4e57600080fd5b506104d36131d1565b348015610b6357600080fd5b50610809610b723660046157c6565b6131fb565b348015610b8357600080fd5b506104d361322e565b348015610b9857600080fd5b5061010454610461906001600160a01b031681565b348015610bb957600080fd5b5061043f613243565b348015610bce57600080fd5b5061043f610bdd366004615b1d565b613266565b348015610bee57600080fd5b50610461610bfd3660046157c6565b613827565b348015610c0e57600080fd5b50610461610c1d3660046158b6565b6001600160a01b03908116600090815260fd60205260409020600201541690565b348015610c4a57600080fd5b5061043f610c59366004615b65565b613855565b348015610c6a57600080fd5b5061043f610c79366004615924565b6139f7565b348015610c8a57600080fd5b5061043f610c993660046158b6565b613a44565b348015610caa57600080fd5b50610461610cb93660046158b6565b613add565b348015610cca57600080fd5b506104d36101085481565b348015610ce157600080fd5b5061010554610461906001600160a01b031681565b348015610d0257600080fd5b5061043f610d113660046158b6565b613f73565b348015610d2257600080fd5b506104d36101035481565b8133610d3982826131fb565b610d5e5760405162461bcd60e51b8152600401610d5590615b8a565b60405180910390fd5b610d6884846131fb565b80610d7a57506001600160a01b038316155b610de45760405162461bcd60e51b815260206004820152603560248201527f3361363639207468652074726f76652068696e74206d757374206578697374206044820152740696e20746865206c697374206f722062652030783605c1b6064820152608401610d55565b6001600160a01b038316610e13576001600160a01b03808516600090815260fd60205260409020600301541692505b336001600160a01b03841603610e5f576000610e2f858561296c565b9050806001600160a01b0316846001600160a01b031603610e5957610e548585613827565b610e5b565b805b9350505b6001600160a01b038416600090815260fd6020526040902033908490600190610e8b9060030184613fe9565b610eee5760405162461bcd60e51b815260206004820152602e60248201527f33613636392074726f766520636f756c64206e6f742062652072656d6f76656460448201526d08199c9bdb481d1a19481b1a5cdd60921b6064820152608401610d55565b826001600160a01b0316630dca59c16040518163ffffffff1660e01b8152600401602060405180830381865afa158015610f2c573d6000803e3d6000fd5b505050506040513d601f19601f82011682018060405250810190610f509190615bdd565b600003610ff3576001600160a01b038716600090815260fd60205260408120610f81916003909101908590806141d8565b610f9d5760405162461bcd60e51b8152600401610d5590615bf6565b604080516001600160a01b038981168252851660208201526000818301819052606082015290517ff41ecc43fd86bebfc7d02efecacb0a49ee2df40df4ee0bc7fbe9325576c2fdd19181900360800190a16112fb565b6000836001600160a01b031663d91d2f606040518163ffffffff1660e01b8152600401602060405180830381865afa158015611033573d6000803e3d6000fd5b505050506040513d601f19601f820116820180604052508101906110579190615bdd565b90506000836001600160a01b031663d91d2f606040518163ffffffff1660e01b8152600401602060405180830381865afa158015611099573d6000803e3d6000fd5b505050506040513d601f19601f820116820180604052508101906110bd9190615bdd565b9050818110611191576110cf89611a08565b6001600160a01b0316886001600160a01b03161461118c575b6110f28985613827565b9350836001600160a01b031663d91d2f606040518163ffffffff1660e01b8152600401602060405180830381865afa158015611132573d6000803e3d6000fd5b505050506040513d601f19601f820116820180604052508101906111569190615bdd565b9050818111801561118757506001600160a01b03808a16600090815260fd6020526040902060040154858216911614155b6110e8575b61125d565b6001600160a01b03898116600090815260fd602052604090206003015489821691161461125d575b6111c3898561296c565b9350836001600160a01b031663d91d2f606040518163ffffffff1660e01b8152600401602060405180830381865afa158015611203573d6000803e3d6000fd5b505050506040513d601f19601f820116820180604052508101906112279190615bdd565b9050818110801561125857506001600160a01b03808a16600090815260fd6020526040902060030154858216911614155b6111b9575b6001600160a01b038916600090815260fd602052604090208282119350611289906003018686866141d8565b6112a55760405162461bcd60e51b8152600401610d5590615bf6565b604080516001600160a01b038b811682528781166020830152861681830152841515606082015290517ff41ecc43fd86bebfc7d02efecacb0a49ee2df40df4ee0bc7fbe9325576c2fdd19181900360800190a150505b50505050505050565b61130c614521565b60648111156113695760405162461bcd60e51b8152602060048201526024808201527f6437646338207468652073686172652063616e206e6f74206265206f766572206044820152633130302560e01b6064820152608401610d55565b606461137d670de0b6b3a764000083615c59565b6113879190615c70565b6101085550565b6000670de0b6b3a76400006113a38484615c59565b6113ad9190615c70565b90505b92915050565b60008060008390506000816001600160a01b031663c478b5bd6040518163ffffffff1660e01b8152600401602060405180830381865afa1580156113fe573d6000803e3d6000fd5b505050506040513d601f19601f820116820180604052508101906114229190615bdd565b61010654909150811580611434575080155b1561144857866000945094505050506114a2565b80821061145e57600087945094505050506114a2565b670de0b6b3a7640000816114728285615c59565b61147c9190615c70565b6114869089615c59565b6114909190615c70565b935061149c8488615c92565b94505050505b9250929050565b6114b1614521565b6101005460408051638da5cb5b60e01b815290516001600160a01b03909216918291638da5cb5b9160048083019260209291908290030181865afa1580156114fd573d6000803e3d6000fd5b505050506040513d601f19601f820116820180604052508101906115219190615ca5565b60fe80546001600160a01b0319166001600160a01b0392831690811790915560408051637e062a3560e11b815290519284169263fc0c546a916004808201926020929091908290030181865afa15801561157f573d6000803e3d6000fd5b505050506040513d601f19601f820116820180604052508101906115a39190615ca5565b6001600160a01b0316146116175760405162461bcd60e51b815260206004820152603560248201527f34313634322074686520537461626c65436f696e206d757374206265206f776e60448201527432b210313c903a3432903a37b5b2b71037bbb732b960591b6064820152608401610d55565b60fe5460408051638da5cb5b60e01b8152905130926001600160a01b031691638da5cb5b9160048083019260209291908290030181865afa158015611660573d6000803e3d6000fd5b505050506040513d601f19601f820116820180604052508101906116849190615ca5565b6001600160a01b0316146117005760405162461bcd60e51b815260206004820152603860248201527f3431363432207468697320636f6e7472616374206d757374206265207468652060448201527f6f776e6572206f662074686520746f6b656e206f776e657200000000000000006064820152608401610d55565b50565b61170b614521565b60fe546040516321e6b53d60e01b81526001600160a01b038381166004830152909116906321e6b53d906024015b600060405180830381600087803b15801561175357600080fd5b505af1158015611767573d6000803e3d6000fd5b5050505050565b60ff546040516384ba3f6960e01b81526001600160a01b0380871660048301527f02bc4d5cd45896d0a40a3c1d56314df3d795dcd0457cfff43d579b1df4a08e309286928892909116906384ba3f6990602401602060405180830381865afa1580156117de573d6000803e3d6000fd5b505050506040513d601f19601f820116820180604052508101906118029190615bdd565b604080516001600160a01b039485168152928416602084015282015290841660608201526080810183905260a0015b60405180910390a150505050565b611847614521565b60fc80546001600160a01b0319166001600160a01b0392909216919091179055565b611871614521565b61010454604080516001600160a01b03928316815291831660208301527fb11f992e0256b743c656e4155a7c973abdb563505a0fe01ac94e5053aea0f225910160405180910390a161010480546001600160a01b0319166001600160a01b0392909216919091179055565b6001600160a01b037f00000000000000000000000000000000000000000000000000000000000000001630036119245760405162461bcd60e51b8152600401610d5590615cc2565b7f00000000000000000000000000000000000000000000000000000000000000006001600160a01b031661196d600080516020615e3a833981519152546001600160a01b031690565b6001600160a01b0316146119935760405162461bcd60e51b8152600401610d5590615d0e565b61199c8161457b565b6040805160008082526020820190925261170091839190614583565b6119c0614521565b60ff80546001600160a01b0319166001600160a01b0392909216919091179055565b60006119f683670de0b6b3a7640000615d5a565b6113a3670de0b6b3a764000084615c59565b6001600160a01b03908116600090815260fd60205260409020600401541690565b6000611a96846001600160a01b031663fc0c546a6040518163ffffffff1660e01b8152600401602060405180830381865afa158015611a6c573d6000803e3d6000fd5b505050506040513d601f19601f82011682018060405250810190611a909190615ca5565b856131fb565b611ae25760405162461bcd60e51b815260206004820152601860248201527f646161373038206e6f7420612076616c69642074726f766500000000000000006044820152606401610d55565b336001600160a01b0316846001600160a01b0316638da5cb5b6040518163ffffffff1660e01b8152600401602060405180830381865afa158015611b2a573d6000803e3d6000fd5b505050506040513d601f19601f82011682018060405250810190611b4e9190615ca5565b6001600160a01b031614611bb25760405162461bcd60e51b815260206004820152602560248201527f646161373038206d73672e73656e646572206d7573742062652074726f76652060448201526437bbb732b960d91b6064820152608401610d55565b61010554600090611bcb906001600160a01b03166146ee565b90506001600160a01b038116611c1c5760405162461bcd60e51b8152602060048201526016602482015275115490cc4c4d8dce8818dc99585d194819985a5b195960521b6044820152606401610d55565b604051630e0cb96960e31b81526001600160a01b038281166004830152861690637065cb4890602401600060405180830381600087803b158015611c5f57600080fd5b505af1158015611c73573d6000803e3d6000fd5b5050604051633d0d630f60e11b81526001600160a01b0388811660048301526024820188905260448201879052939450849384169250637a1ac61e9150606401600060405180830381600087803b158015611ccd57600080fd5b505af1158015611ce1573d6000803e3d6000fd5b5050604080516001600160a01b03858116825233602083015289168183015290517f98e516a83449d577a8e66a6da3d23ffb1d3495a6139972a33c3721b16c00c8629350908190036060019150a1509392505050565b600054610100900460ff1615808015611d575750600054600160ff909116105b80611d715750303b158015611d71575060005460ff166001145b611dd45760405162461bcd60e51b815260206004820152602e60248201527f496e697469616c697a61626c653a20636f6e747261637420697320616c72656160448201526d191e481a5b9a5d1a585b1a5e995960921b6064820152608401610d55565b6000805460ff191660011790558015611df7576000805461ff0019166101001790555b611dff61473b565b611e0761476a565b61010080546001600160a01b038581166001600160a01b03199283168117909355610102805491861691909216811790915560405163095ea7b360e01b81526004810191909152600019602482015263095ea7b3906044016020604051808303816000875af1158015611e7e573d6000803e3d6000fd5b505050506040513d601f19601f82011682018060405250810190611ea29190615d6d565b508015611eea576000805461ff0019169055604051600181527f7f26b83ff96e1f2b6a682f133852f6798a09c465da95921460cefb3847402498906020015b60405180910390a15b505050565b6101015460408051637e062a3560e11b8152905184926001600160a01b039081169283929185169163fc0c546a916004808201926020929091908290030181865afa158015611f42573d6000803e3d6000fd5b505050506040513d601f19601f82011682018060405250810190611f669190615ca5565b6001600160a01b031614611fbc5760405162461bcd60e51b815260206004820152601760248201527f6238323832206e6f7420612076616c69642074726f76650000000000000000006044820152606401610d55565b806001600160a01b031663d0e30db0346040518263ffffffff1660e01b81526004016000604051808303818588803b158015611ff757600080fd5b505af115801561200b573d6000803e3d6000fd5b50506101015460405163a9059cbb60e01b81526001600160a01b038981166004830152346024830152909116935063a9059cbb925060440190506020604051808303816000875af1158015612064573d6000803e3d6000fd5b505050506040513d601f19601f820116820180604052508101906120889190615d6d565b6120ea5760405162461bcd60e51b815260206004820152602d60248201527f623832383220636f756c64206e6f74207472616e73666572207468652072657160448201526c1d595cdd195908185b5bdd5b9d609a1b6064820152608401610d55565b6040516304796e1f60e31b8152600060048201526001600160a01b0384811660248301528316906323cb70f890604401600060405180830381600087803b15801561213457600080fd5b505af1158015612148573d6000803e3d6000fd5b5050505050505050565b6001600160a01b038116600090815260fd602052604081206001810154905461218490670de0b6b3a764000090615c59565b6113b09190615c70565b612196614521565b60fe5460405163f2fde38b60e01b81526001600160a01b0383811660048301529091169063f2fde38b90602401611739565b6001600160a01b037f00000000000000000000000000000000000000000000000000000000000000001630036122105760405162461bcd60e51b8152600401610d5590615cc2565b7f00000000000000000000000000000000000000000000000000000000000000006001600160a01b0316612259600080516020615e3a833981519152546001600160a01b031690565b6001600160a01b03161461227f5760405162461bcd60e51b8152600401610d5590615d0e565b6122888261457b565b61229482826001614583565b5050565b600260646122af670de0b6b3a76400006001615c59565b6122b99190615c70565b6122c39190615c70565b81565b6000306001600160a01b037f000000000000000000000000000000000000000000000000000000000000000016146123665760405162461bcd60e51b815260206004820152603860248201527f555550535570677261646561626c653a206d757374206e6f742062652063616c60448201527f6c6564207468726f7567682064656c656761746563616c6c00000000000000006064820152608401610d55565b50600080516020615e3a83398151915290565b612381614521565b6001600160a01b03918216600090815260fd6020526040902060020180546001600160a01b03191691909216179055565b6123ba614521565b61010655565b80826123cc82826131fb565b6123e85760405162461bcd60e51b8152600401610d5590615b8a565b60008490506000816001600160a01b031663eaca974b6040518163ffffffff1660e01b8152600401602060405180830381865afa15801561242d573d6000803e3d6000fd5b505050506040513d601f19601f820116820180604052508101906124519190615bdd565b9050816001600160a01b03166328a070256040518163ffffffff1660e01b8152600401600060405180830381600087803b15801561248e57600080fd5b505af11580156124a2573d6000803e3d6000fd5b5050610100546040516323b872dd60e01b81526001600160a01b0390911692506323b872dd91506124db90899033908690600401615d8a565b6020604051808303816000875af11580156124fa573d6000803e3d6000fd5b505050506040513d601f19601f820116820180604052508101906112fb9190615d6d565b61010254604051630631203b60e41b8152600481018390526000916001600160a01b03169063631203b090602401602060405180830381865afa158015612569573d6000803e3d6000fd5b505050506040513d601f19601f820116820180604052508101906113b09190615bdd565b612595614521565b610101546001600160a01b0316156125ef5760405162461bcd60e51b815260206004820152601f60248201527f636439663320574554482063616e206f6e6c7920626520736574206f6e6365006044820152606401610d55565b61010180546001600160a01b0319166001600160a01b0384161790556122948282612379565b823361262182826131fb565b61263d5760405162461bcd60e51b8152600401610d5590615b8a565b8215612676576001600160a01b038516600090815260fd60205260408120805486929061266b908490615d5a565b909155506126a49050565b6001600160a01b038516600090815260fd60205260408120805486929061269e908490615c92565b90915550505b6001600160a01b038516600081815260fd6020908152604091829020548251938452908301527fa7397a34065f9b23fc4f24516f72718d02d2ec2a5a58e2903ca1150bcc0fa10b910160405180910390a15050505050565b612704614521565b61270e6000614799565b565b7fc699869172ddb8efd1d3379b969fec6a7a23e5d91d2389d8b896c773708a240e3332868661010260009054906101000a90046001600160a01b03166001600160a01b0316631f68f20a6040518163ffffffff1660e01b8152600401602060405180830381865afa158015612789573d6000803e3d6000fd5b505050506040513d601f19601f820116820180604052508101906127ad9190615bdd565b604080516001600160a01b039687168152948616602086015292909416918301919091526060820152608081019190915260a0810184905260c0810183905260e001611831565b6127fc614521565b61010554604080516001600160a01b03928316815291831660208301527f56d6f0f8bd180def6e72fc21cc85044e0d4d795564afdd60ae3cb0ec12113070910160405180910390a161010580546001600160a01b0319166001600160a01b0392909216919091179055565b600061287286613add565b90506128896001600160a01b0387163383886147eb565b6040516304796e1f60e31b815260006004820181905260248201526001600160a01b038216906323cb70f890604401600060405180830381600087803b1580156128d257600080fd5b505af11580156128e6573d6000803e3d6000fd5b50505050670de0b6b3a7640000831061296457604051636c665a5560e01b81526001600160a01b038581166004830152602482018590528381166044830152821690636c665a5590606401600060405180830381600087803b15801561294b57600080fd5b505af115801561295f573d6000803e3d6000fd5b505050505b505050505050565b6001600160a01b03918216600090815260fd6020908152604080832093851683526006909301905220600101541690565b81816129a982826131fb565b6129c55760405162461bcd60e51b8152600401610d5590615b8a565b6000839050336001600160a01b0316816001600160a01b0316638da5cb5b6040518163ffffffff1660e01b8152600401602060405180830381865afa158015612a12573d6000803e3d6000fd5b505050506040513d601f19601f82011682018060405250810190612a369190615ca5565b6001600160a01b03161480612a5357506001600160a01b03841633145b612ac55760405162461bcd60e51b815260206004820152603760248201527f3137336661206f6e6c7920746865206f776e65722063616e2072656d6f76652060448201527f7468652074726f76652066726f6d20746865206c6973740000000000000000006064820152608401610d55565b806001600160a01b0316630dca59c16040518163ffffffff1660e01b8152600401602060405180830381865afa158015612b03573d6000803e3d6000fd5b505050506040513d601f19601f82011682018060405250810190612b279190615bdd565b15612b8b5760405162461bcd60e51b815260206004820152602e60248201527f3137336661207265706179207468652064656274206265666f72652072656d6f60448201526d76696e67207468652074726f766560901b6064820152608401610d55565b6000816001600160a01b031663fc0c546a6040518163ffffffff1660e01b8152600401602060405180830381865afa158015612bcb573d6000803e3d6000fd5b505050506040513d601f19601f82011682018060405250810190612bef9190615ca5565b604051634b20406760e11b8152600060048201529091506001600160a01b0383169063964080ce90602401600060405180830381600087803b158015612c3457600080fd5b505af1158015612c48573d6000803e3d6000fd5b50506040516370a0823160e01b81526001600160a01b03888116600483015260009350841691506370a0823190602401602060405180830381865afa158015612c95573d6000803e3d6000fd5b505050506040513d601f19601f82011682018060405250810190612cb99190615bdd565b90508015612d9a57826001600160a01b0316633c7034a3846001600160a01b0316638da5cb5b6040518163ffffffff1660e01b8152600401602060405180830381865afa158015612d0e573d6000803e3d6000fd5b505050506040513d601f19601f82011682018060405250810190612d329190615ca5565b6040516001600160e01b031960e084901b1681526001600160a01b0390911660048201526024810184905260006044820152606401600060405180830381600087803b158015612d8157600080fd5b505af1158015612d95573d6000803e3d6000fd5b505050505b6001600160a01b038716600090815260fd60205260409020612dbf9060030187613fe9565b612e225760405162461bcd60e51b815260206004820152602e60248201527f31373366612074726f766520636f756c64206e6f742062652072656d6f76656460448201526d08199c9bdb481d1a19481b1a5cdd60921b6064820152608401610d55565b60fe5460405163cfbd488560e01b81526001600160a01b0388811660048301529091169063cfbd488590602401600060405180830381600087803b158015612e6957600080fd5b505af1158015612e7d573d6000803e3d6000fd5b505050506001600160a01b03878116600090815260fd602052604090819020600201549051633518da6560e11b81528883166004820152911690636a31b4ca90602401600060405180830381600087803b158015612eda57600080fd5b505af1158015612eee573d6000803e3d6000fd5b50506040516001600160a01b03891681527f56df94b000d5de0883743a2b4328178bc012bed334409fdace98ae5b36d6a91a9250602001905060405180910390a150505050505050565b600080826001600160a01b031663fc0c546a6040518163ffffffff1660e01b8152600401602060405180830381865afa158015612f79573d6000803e3d6000fd5b505050506040513d601f19601f82011682018060405250810190612f9d9190615ca5565b9050600060ff60009054906101000a90046001600160a01b03169050600061308f856001600160a01b031663d91d2f606040518163ffffffff1660e01b8152600401602060405180830381865afa158015612ffc573d6000803e3d6000fd5b505050506040513d601f19601f820116820180604052508101906130209190615bdd565b60405163aa41911f60e01b81526001600160a01b03868116600483015285169063aa41911f90602401602060405180830381865afa158015613066573d6000803e3d6000fd5b505050506040513d601f19601f8201168201806040525081019061308a9190615bdd565b614849565b604051630241336f60e21b81526001600160a01b03858116600483015291925061310791841690630904cdbc90602401602060405180830381865afa1580156130dc573d6000803e3d6000fd5b505050506040513d601f19601f820116820180604052508101906131009190615bdd565b82906149d5565b95945050505050565b613118614521565b60fb80546001600160a01b0319166001600160a01b03831690811790915560408051635336547960e11b8152905183929163a66ca8f29160048083019260209291908290030181865afa158015613173573d6000803e3d6000fd5b505050506040513d601f19601f820116820180604052508101906131979190615ca5565b61010780546001600160a01b0319166001600160a01b03929092169190911790555050565b60646122b9670de0b6b3a76400006005615c59565b60646131e6670de0b6b3a76400006001615c59565b6131f09190615c70565b6122c390600a615c59565b6001600160a01b03918216600090815260fd60209081526040808320938516835260069093019052206001015416151590565b60646122b9670de0b6b3a76400006001615c59565b61324b614521565b60c95460ff161561325e5761270e6149eb565b61270e614a3d565b610100546001600160a01b0316670de0b6b3a764000061328587611a08565b6001600160a01b031663d91d2f606040518163ffffffff1660e01b8152600401602060405180830381865afa1580156132c2573d6000803e3d6000fd5b505050506040513d601f19601f820116820180604052508101906132e69190615bdd565b116133595760405162461bcd60e51b815260206004820152603f60248201527f61376639392066697273742074726f766520697320756e646572636f6c6c617460448201527f6572616c6973656420616e64206d757374206265206c697175696461746564006064820152608401610d55565b6040516370a0823160e01b815233600482015285906001600160a01b038316906370a0823190602401602060405180830381865afa15801561339f573d6000803e3d6000fd5b505050506040513d601f19601f820116820180604052508101906133c39190615bdd565b10156134115760405162461bcd60e51b815260206004820152601f60248201527f613766393920696e73756666696369656e7420466961742062616c616e6365006044820152606401610d55565b604051636eb1769f60e11b815233600482015230602482015285906001600160a01b0383169063dd62ed3e90604401602060405180830381865afa15801561345d573d6000803e3d6000fd5b505050506040513d601f19601f820116820180604052508101906134819190615bdd565b10156134e45760405162461bcd60e51b815260206004820152602c60248201527f613766393920537461626c65436f696e206973206e6f7420617070726f76656460448201526b20666f7220666163746f727960a01b6064820152608401610d55565b610102546001600160a01b03166134f9615748565b6001600160a01b03881681526080810187905261351588611a08565b6001600160a01b031660a082015261352d8187614a7a565b905061353b81878787614c45565b6060810151909150156121485760408082015190516323b872dd60e01b81526001600160a01b038516916323b872dd9161357c913391309190600401615d8a565b6020604051808303816000875af115801561359b573d6000803e3d6000fd5b505050506040513d601f19601f820116820180604052508101906135bf9190615d6d565b50604081810151905163cbb9435960e01b815260048101919091526001600160a01b0383169063cbb94359906024016020604051808303816000875af115801561360d573d6000803e3d6000fd5b505050506040513d601f19601f820116820180604052508101906136319190615d6d565b506000826001600160a01b0316631f68f20a6040518163ffffffff1660e01b8152600401602060405180830381865afa158015613672573d6000803e3d6000fd5b505050506040513d601f19601f820116820180604052508101906136969190615bdd565b90506000836001600160a01b031663cd16e7f7866001600160a01b03166318160ddd6040518163ffffffff1660e01b8152600401602060405180830381865afa1580156136e7573d6000803e3d6000fd5b505050506040513d601f19601f8201168201806040525081019061370b9190615bdd565b670de0b6b3a764000086602001516137239190615c59565b61372d9190615c70565b6040518263ffffffff1660e01b815260040161374b91815260200190565b6020604051808303816000875af115801561376a573d6000803e3d6000fd5b505050506040513d601f19601f8201168201806040525081019061378e9190615bdd565b90507f9485a67cba0aacb19621a77dcac069765b67928a650316d414b368154e673e248a84602001518560600151866080015186868960c0015160405161381397969594939291906001600160a01b039788168152602081019690965260408601949094526060850192909252608084015260a083015290911660c082015260e00190565b60405180910390a150505050505050505050565b6001600160a01b03918216600090815260fd6020908152604080832093851683526006909301905220541690565b60003390506000816001600160a01b031663fc0c546a6040518163ffffffff1660e01b8152600401602060405180830381865afa15801561389a573d6000803e3d6000fd5b505050506040513d601f19601f820116820180604052508101906138be9190615ca5565b90506138ca81336131fb565b6139165760405162461bcd60e51b815260206004820152601760248201527f6662666435206e6f7420612076616c69642074726f76650000000000000000006044820152606401610d55565b821561396a5783610103600082825461392f9190615d5a565b90915550506001600160a01b038116600090815260fd60205260408120600101805486929061395f908490615d5a565b909155506139b39050565b83610103600082825461397d9190615c92565b90915550506001600160a01b038116600090815260fd6020526040812060010180548692906139ad908490615c92565b90915550505b61010354604080516001600160a01b038416815260208101929092527ff95b4220419afa063ecabab77276c7ed0a3c7175e2f140babd24e56208ce58a29101611831565b604080513381526001600160a01b0385166020820152908101839052606081018290527f91aae5057d63fa752409cbc2eaaebd6e31f0beac641e40f0e762b135a62e847990608001611ee1565b613a4c614521565b61010280546001600160a01b0319166001600160a01b038381169182179092556101005460405163095ea7b360e01b8152600481019290925260001960248301529091169063095ea7b3906044016020604051808303816000875af1158015613ab9573d6000803e3d6000fd5b505050506040513d601f19601f820116820180604052508101906122949190615d6d565b60fe546000906001600160a01b031680613b435760405162461bcd60e51b815260206004820152602160248201527f36366331302074686520746f6b656e206f776e6572206d7573742062652073656044820152601d60fa1b6064820152608401610d55565b306001600160a01b0316816001600160a01b0316638da5cb5b6040518163ffffffff1660e01b8152600401602060405180830381865afa158015613b8b573d6000803e3d6000fd5b505050506040513d601f19601f82011682018060405250810190613baf9190615ca5565b6001600160a01b031614613c2b5760405162461bcd60e51b815260206004820152603760248201527f36366331302074686520746f6b656e206f776e65722773206f776e6572206d7560448201527f7374206265207468652074726f766520666163746f72790000000000000000006064820152608401610d55565b60ff54604051639878cbb360e01b81526001600160a01b0385811660048301526000921690639878cbb390602401602060405180830381865afa158015613c76573d6000803e3d6000fd5b505050506040513d601f19601f82011682018060405250810190613c9a9190615ca5565b6001600160a01b031603613cff5760405162461bcd60e51b815260206004820152602660248201527f36366331302074686520746f6b656e2070726963652066656564206d757374206044820152651899481cd95d60d21b6064820152608401610d55565b61010454600090613d18906001600160a01b03166146ee565b90506001600160a01b038116613d695760405162461bcd60e51b8152602060048201526016602482015275115490cc4c4d8dce8818dc99585d194819985a5b195960521b6044820152606401610d55565b60405163485cc95560e01b81526001600160a01b038581166004830152336024830152919350839182169063485cc95590604401600060405180830381600087803b158015613db757600080fd5b505af1158015613dcb573d6000803e3d6000fd5b5050506001600160a01b038516600090815260fd60205260408120613df79250600301908390806141d8565b613e565760405162461bcd60e51b815260206004820152602a60248201527f36366331302074726f766520636f756c64206e6f7420626520616464656420746044820152691bc81d1a19481b1a5cdd60b21b6064820152608401610d55565b6001600160a01b03848116600090815260fd602052604090819020600201549051630fe1df2960e21b81528383166004820152911690633f877ca490602401600060405180830381600087803b158015613eaf57600080fd5b505af1158015613ec3573d6000803e3d6000fd5b5050604051634c1d96ab60e11b81526001600160a01b0384811660048301528516925063983b2d569150602401600060405180830381600087803b158015613f0a57600080fd5b505af1158015613f1e573d6000803e3d6000fd5b5050604080516001600160a01b03858116825288166020820152338183015290517fd73cf983c0299e0b942c23588e67dbf06af623c7a611345b2fa509a38c6c1ed09350908190036060019150a15050919050565b613f7b614521565b6001600160a01b038116613fe05760405162461bcd60e51b815260206004820152602660248201527f4f776e61626c653a206e6577206f776e657220697320746865207a65726f206160448201526564647265737360d01b6064820152608401610d55565b61170081614799565b6001600160a01b0380821660009081526003840160209081526040808320815180830190925280548516825260010154909316908301819052909190156141ce5783546001600160a01b038481169116148015614055575060018401546001600160a01b038481169116145b1561407a5783546001600160a01b03199081168555600185018054909116905561417a565b60018401546001600160a01b03908116908416036140d8576020808201516001600160a01b0316600081815260038701909252604090912080546001600160a01b03199081168317909155600186018054909116909117905561417a565b83546001600160a01b039081169084160361412c57805184546001600160a01b039091166001600160a01b03199182168117865560008181526003870160205260409020600101805490921617905561417a565b60208082015182516001600160a01b0391821660008181526003890190945260408085208054949093166001600160a01b031994851681179093559184529220600101805490911690911790555b6001600160a01b0383166000908152600385016020526040902080546001600160a01b0319908116825560019182018054909116905560028501546141bf9190615c92565b600285015550600190506113b0565b5060009392505050565b60006001600160a01b038316158061420e57506001600160a01b0383811660009081526003870160205260409020600101541615155b61425a5760405162461bcd60e51b815260206004820152601f60248201527f3739643364205f726566206e6569746865722076616c6964206e6f72203078006044820152606401610d55565b6001600160a01b038085166000908152600387016020526040902080549091166145135785546001600160a01b03166142cd5780546001600160a01b0386166001600160a01b031991821681178355600180840180548416831790558801805483168217905587549091161786556144f4565b8280156142fa57506001600160a01b03841615806142fa575060018601546001600160a01b038581169116145b1561435857600180870180546001600160a01b03908116600081815260038b01602052604090208054928a166001600160a01b03199384168117909155855483168117865593850180548316909117905581541690911790556144f4565b8215801561438357506001600160a01b0384161580614383575085546001600160a01b038581169116145b156143df5785546001600160a01b0390811660008181526003890160205260409020600190810180546001600160a01b0319908116948a16948517909155845481169092178455830180548216831790558754161786556144f4565b6001600160a01b03808516600090815260038801602090815260409182902082518084019093528054841683526001015490921691810191909152831561448757805182546001600160a01b039182166001600160a01b0319918216178455600180850180548985169084168117909155600090815260038b01602052604080822080548c8716908616811790915586519095168252902001805490911690911790556144f2565b81546001600160a01b038087166001600160a01b031992831681178555602080850180516001808901805492871692881692909217909155600093845260038d01909252604080842090920180548c8616908716811790915590519093168252902080549092161790555b505b6002860154614504906001615d5a565b60028701555060019050614519565b60009150505b949350505050565b6097546001600160a01b0316331461270e5760405162461bcd60e51b815260206004820181905260248201527f4f776e61626c653a2063616c6c6572206973206e6f7420746865206f776e65726044820152606401610d55565b611700614521565b7f4910fdfa16fed3260ed0e7147f7cc6da11a60208b5b9406d12a635614ffd91435460ff16156145b657611eea83614e93565b826001600160a01b03166352d1902d6040518163ffffffff1660e01b8152600401602060405180830381865afa925050508015614610575060408051601f3d908101601f1916820190925261460d91810190615bdd565b60015b6146735760405162461bcd60e51b815260206004820152602e60248201527f45524331393637557067726164653a206e657720696d706c656d656e7461746960448201526d6f6e206973206e6f74205555505360901b6064820152608401610d55565b600080516020615e3a83398151915281146146e25760405162461bcd60e51b815260206004820152602960248201527f45524331393637557067726164653a20756e737570706f727465642070726f786044820152681a58589b195555525160ba1b6064820152608401610d55565b50611eea838383614f2f565b6000604051733d602d80600a3d3981f3363d3d373d3d3d363d7360601b81528260601b60148201526e5af43d82803e903d91602b57fd5bf360881b60288201526037816000f09392505050565b600054610100900460ff166147625760405162461bcd60e51b8152600401610d5590615dae565b61270e614f54565b600054610100900460ff166147915760405162461bcd60e51b8152600401610d5590615dae565b61270e614f84565b609780546001600160a01b038381166001600160a01b0319831681179093556040519116919082907f8be0079c531659141344cd1fd0a4f28419497f9722a3daafe3b4186f6b6457e090600090a35050565b614843846323b872dd60e01b85858560405160240161480c93929190615d8a565b60408051601f198184030181529190526020810180516001600160e01b03166001600160e01b031990931692909217909152614fb7565b50505050565b60008061486a61485a84600f615c59565b6148648587615c92565b906149d5565b9050600083670de0b6b3a7640000816148838580615c59565b61488d9190615c70565b6148979190615c59565b6148a19190615c70565b905060006148b8670de0b6b3a7640000602c615c59565b6148c386602d615c59565b6148cd9190615c92565b9050600081670de0b6b3a764000060646148e8826001615c59565b6148f29190615c70565b6148fd90600a615c59565b6149079190615c59565b6149119190615c70565b90506000606461492a670de0b6b3a76400006001615c59565b6149349190615c70565b821161496a5760026064614951670de0b6b3a76400006001615c59565b61495b9190615c70565b6149659190615c70565b61499f565b60026064614981670de0b6b3a76400006001615c59565b61498b9190615c70565b6149959190615c70565b61499f9083615c92565b905080836149b5670de0b6b3a764000087615c59565b6149bf9190615c70565b6149c99190615d5a565b98975050505050505050565b60008183106149e457816113ad565b5090919050565b6149f3615089565b60c9805460ff191690557f5db9ee0a495bf2e6ff9c91a7834c1ba4fdd244a5e8aa4e537bd38aeae4b073aa335b6040516001600160a01b03909116815260200160405180910390a1565b614a456150d2565b60c9805460ff191660011790557f62e78cea01bee320cd4e420270b5ea74000d11b0c9f74754ebdbfc544b05a258614a203390565b614a82615748565b60a08301516101025460408051630fb4790560e11b815290516000926001600160a01b031691631f68f20a9160048083019260209291908290030181865afa158015614ad2573d6000803e3d6000fd5b505050506040513d601f19601f82011682018060405250810190614af69190615bdd565b614b038660a00151612f38565b614b0d9190615d5a565b90506000614b1f8287608001516119e2565b90505b826001600160a01b0316633746403c6040518163ffffffff1660e01b8152600401602060405180830381865afa158015614b60573d6000803e3d6000fd5b505050506040513d601f19601f82011682018060405250810190614b849190615bdd565b6000108015614bf4575080836001600160a01b0316633746403c6040518163ffffffff1660e01b8152600401602060405180830381865afa158015614bcd573d6000803e3d6000fd5b505050506040513d601f19601f82011682018060405250810190614bf19190615bdd565b11155b8015614bff57508482105b15614c3b57614c0e8683615118565b9550614c1d8660a00151612f38565b9150614c2d8287608001516119e2565b90508560a001519250614b22565b5093949350505050565b614c4d615748565b60a08501516101025460408051630fb4790560e11b815290516000926001600160a01b031691631f68f20a9160048083019260209291908290030181865afa158015614c9d573d6000803e3d6000fd5b505050506040513d601f19601f82011682018060405250810190614cc19190615bdd565b614cce8860a00151612f38565b614cd89190615d5a565b905084826001600160a01b031663d91d2f606040518163ffffffff1660e01b8152600401602060405180830381865afa158015614d19573d6000803e3d6000fd5b505050506040513d601f19601f82011682018060405250810190614d3d9190615bdd565b148015614d4957508581105b15614e88576000614dc8614d61838a608001516119e2565b846001600160a01b0316633746403c6040518163ffffffff1660e01b8152600401602060405180830381865afa158015614d9f573d6000803e3d6000fd5b505050506040513d601f19601f82011682018060405250810190614dc39190615bdd565b6149d5565b9050600080614ddd338b60a00151858a615200565b91509150818a602001818151614df39190615d5a565b9052506000614e02858461138e565b9050600080614e15838e60a001516113b6565b91509150818d604001818151614e2b9190615d5a565b905250614e388286615d5a565b8d608001818151614e499190615c92565b90525060608d018051859190614e60908390615d5a565b90525060a08d01516001600160a01b03811660c08f0152614e8190826152ff565b5050505050505b509495945050505050565b6001600160a01b0381163b614f005760405162461bcd60e51b815260206004820152602d60248201527f455243313936373a206e657720696d706c656d656e746174696f6e206973206e60448201526c1bdd08184818dbdb9d1c9858dd609a1b6064820152608401610d55565b600080516020615e3a83398151915280546001600160a01b0319166001600160a01b0392909216919091179055565b614f38836153db565b600082511180614f455750805b15611eea57614843838361541b565b600054610100900460ff16614f7b5760405162461bcd60e51b8152600401610d5590615dae565b61270e33614799565b600054610100900460ff16614fab5760405162461bcd60e51b8152600401610d5590615dae565b60c9805460ff19169055565b600061500c826040518060400160405280602081526020017f5361666545524332303a206c6f772d6c6576656c2063616c6c206661696c6564815250856001600160a01b03166155069092919063ffffffff16565b805190915015611eea578080602001905181019061502a9190615d6d565b611eea5760405162461bcd60e51b815260206004820152602a60248201527f5361666545524332303a204552433230206f7065726174696f6e20646964206e6044820152691bdd081cdd58d8d9595960b21b6064820152608401610d55565b60c95460ff1661270e5760405162461bcd60e51b815260206004820152601460248201527314185d5cd8589b194e881b9bdd081c185d5cd95960621b6044820152606401610d55565b60c95460ff161561270e5760405162461bcd60e51b815260206004820152601060248201526f14185d5cd8589b194e881c185d5cd95960821b6044820152606401610d55565b615120615748565b600061513484600001518560a0015161296c565b9050600080615147338760a0015161551f565b91509150818660200181815161515d9190615d5a565b905250600061516c868461138e565b905060008061517f838a60a001516113b6565b9150915081896040018181516151959190615d5a565b9052506151a28286615d5a565b896080018181516151b39190615c92565b9052506060890180518591906151ca908390615d5a565b90525060a0890180516001600160a01b0390811660c08c01528716908190526151f390826152ff565b5096979650505050505050565b610100546040516323b872dd60e01b8152600091829186916001600160a01b0316906323b872dd9061523a908a9085908a90600401615d8a565b6020604051808303816000875af1158015615259573d6000803e3d6000fd5b505050506040513d601f19601f8201168201806040525081019061527d9190615d6d565b5060405163bba06f2760e01b81526001600160a01b038881166004830152858116602483015282169063bba06f279060440160408051808303816000875af11580156152cd573d6000803e3d6000fd5b505050506040513d601f19601f820116820180604052508101906152f19190615df9565b925092505094509492505050565b801561229457610100546040516323b872dd60e01b81526001600160a01b03909116906323b872dd9061533a90339086908690600401615d8a565b6020604051808303816000875af1158015615359573d6000803e3d6000fd5b505050506040513d601f19601f8201168201806040525081019061537d9190615d6d565b5060405163acb7081560e01b8152600060048201526001600160a01b038316602482018190529063acb7081590604401600060405180830381600087803b1580156153c757600080fd5b505af1158015612964573d6000803e3d6000fd5b6153e481614e93565b6040516001600160a01b038216907fbc7cd75a20ee27fd9adebab32041f755214dbc6bffa90cc0225b39da2e5c2d3b90600090a250565b60606001600160a01b0383163b6154835760405162461bcd60e51b815260206004820152602660248201527f416464726573733a2064656c65676174652063616c6c20746f206e6f6e2d636f6044820152651b9d1c9858dd60d21b6064820152608401610d55565b600080846001600160a01b03168460405161549e9190615e1d565b600060405180830381855af49150503d80600081146154d9576040519150601f19603f3d011682016040523d82523d6000602084013e6154de565b606091505b50915091506131078282604051806060016040528060278152602001615e5a6027913961559b565b606061551584846000856155b4565b90505b9392505050565b6000806155908484856001600160a01b0316633746403c6040518163ffffffff1660e01b8152600401602060405180830381865afa158015615565573d6000803e3d6000fd5b505050506040513d601f19601f820116820180604052508101906155899190615bdd565b6000615200565b915091509250929050565b606083156155aa575081615518565b61551883836156e5565b6060824710156156155760405162461bcd60e51b815260206004820152602660248201527f416464726573733a20696e73756666696369656e742062616c616e636520666f6044820152651c8818d85b1b60d21b6064820152608401610d55565b6001600160a01b0385163b61566c5760405162461bcd60e51b815260206004820152601d60248201527f416464726573733a2063616c6c20746f206e6f6e2d636f6e74726163740000006044820152606401610d55565b600080866001600160a01b031685876040516156889190615e1d565b60006040518083038185875af1925050503d80600081146156c5576040519150601f19603f3d011682016040523d82523d6000602084013e6156ca565b606091505b50915091506156da82828661570f565b979650505050505050565b8151156156f55781518083602001fd5b8060405162461bcd60e51b8152600401610d559190615823565b6060831561571e575081615518565b82511561572e5782518084602001fd5b8160405162461bcd60e51b8152600401610d559190615823565b60405180610100016040528060006001600160a01b031681526020016000815260200160008152602001600081526020016000815260200160006001600160a01b0316815260200160006001600160a01b0316815260200160006001600160a01b031681525090565b6001600160a01b038116811461170057600080fd5b600080604083850312156157d957600080fd5b82356157e4816157b1565b915060208301356157f4816157b1565b809150509250929050565b60005b8381101561581a578181015183820152602001615802565b50506000910152565b60208152600082518060208401526158428160408501602087016157ff565b601f01601f19169190910160400192915050565b60006020828403121561586857600080fd5b5035919050565b6000806040838503121561588257600080fd5b50508035926020909101359150565b600080604083850312156158a457600080fd5b8235915060208301356157f4816157b1565b6000602082840312156158c857600080fd5b8135615518816157b1565b600080600080608085870312156158e957600080fd5b84356158f4816157b1565b93506020850135615904816157b1565b92506040850135615914816157b1565b9396929550929360600135925050565b60008060006060848603121561593957600080fd5b8335615944816157b1565b95602085013595506040909401359392505050565b634e487b7160e01b600052604160045260246000fd5b6000806040838503121561598257600080fd5b823561598d816157b1565b9150602083013567ffffffffffffffff808211156159aa57600080fd5b818501915085601f8301126159be57600080fd5b8135818111156159d0576159d0615959565b604051601f8201601f19908116603f011681019083821181831017156159f8576159f8615959565b81604052828152886020848701011115615a1157600080fd5b8260208601602083013760006020848301015280955050505050509250929050565b801515811461170057600080fd5b600080600060608486031215615a5657600080fd5b8335615a61816157b1565b9250602084013591506040840135615a7881615a33565b809150509250925092565b60008060008060808587031215615a9957600080fd5b8435615aa4816157b1565b966020860135965060408601359560600135945092505050565b600080600080600060a08688031215615ad657600080fd5b8535615ae1816157b1565b9450602086013593506040860135615af8816157b1565b9250606086013591506080860135615b0f816157b1565b809150509295509295909350565b600080600080600060a08688031215615b3557600080fd5b8535615b40816157b1565b94506020860135935060408601359250606086013591506080860135615b0f816157b1565b60008060408385031215615b7857600080fd5b8235915060208301356157f481615a33565b60208082526033908201527f6639666163207468652074726f766520686173206e6f74206265656e20637265604082015272617465642062792074686520666163746f727960681b606082015260800190565b600060208284031215615bef57600080fd5b5051919050565b6020808252602d908201527f33613636392074726f766520636f756c64206e6f7420626520696e736572746560408201526c19081a5b881d1a19481b1a5cdd609a1b606082015260800190565b634e487b7160e01b600052601160045260246000fd5b80820281158282048414176113b0576113b0615c43565b600082615c8d57634e487b7160e01b600052601260045260246000fd5b500490565b818103818111156113b0576113b0615c43565b600060208284031215615cb757600080fd5b8151615518816157b1565b6020808252602c908201527f46756e6374696f6e206d7573742062652063616c6c6564207468726f7567682060408201526b19195b1959d85d1958d85b1b60a21b606082015260800190565b6020808252602c908201527f46756e6374696f6e206d7573742062652063616c6c6564207468726f7567682060408201526b6163746976652070726f787960a01b606082015260800190565b808201808211156113b0576113b0615c43565b600060208284031215615d7f57600080fd5b815161551881615a33565b6001600160a01b039384168152919092166020820152604081019190915260600190565b6020808252602b908201527f496e697469616c697a61626c653a20636f6e7472616374206973206e6f74206960408201526a6e697469616c697a696e6760a81b606082015260800190565b60008060408385031215615e0c57600080fd5b505080516020909101519092909150565b60008251615e2f8184602087016157ff565b919091019291505056fe360894a13ba1a3210667c828492db98dca3e2076cc3735a920a3ca505d382bbc416464726573733a206c6f772d6c6576656c2064656c65676174652063616c6c206661696c6564a2646970667358221220efd1173ca198d8f36eab722e2b468ee85f3253c7337aea418bf744f60699c8d964736f6c63430008110033",
  "devdoc": {
    "kind": "dev",
    "methods": {
      "containsTrove(address,address)": {
        "details": "returns and checks if such trove exists for this token"
      },
      "createNewServiceFee(address,uint256,uint256)": {
        "details": "creates new ServiceFeeGenerator for user",
        "params": {
          "_feeAmount": "amount of fee to take (must be >= minimal borrow)",
          "_feeInterval": "interval required for payments",
          "_trove": "any valid trove that user owns"
        }
      },
      "createTrove(address)": {
        "details": "creates a trove if the token is supported",
        "params": {
          "_token": "any supported token address"
        }
      },
      "createTroveAndBorrow(address,uint256,address,uint256,address)": {
        "details": "creates a trove with collateral and borrows from it",
        "params": {
          "_borrowAmount": "the value of the minting",
          "_collateralAmount": "a positive amount of collateral to transfer from the sender's account or zero",
          "_nextTrove": "is the trove that we think will be the next one in the list. This might be off in case there were some other list changing transactions",
          "_recipient": "is the address to which the newly minted tokens will be transferred",
          "_token": "any supported token address"
        }
      },
      "emitLiquidationEvent(address,address,address,uint256)": {
        "details": "to emit Liquidation event, to be called from a trove after liquidation.",
        "params": {
          "_token": "address of token",
          "_trove": "address of the Trove",
          "collateral": "uint256 amount of collateral",
          "stabilityPoolLiquidation": "address of StabilityPool, 0x0 if Community LiquidationPool"
        }
      },
      "emitTroveCollateralUpdate(address,uint256,uint256)": {
        "details": "to emit Collateral update event, to be called from trove",
        "params": {
          "_newAmount": "new trove's Collateral value",
          "_newCollateralization": "new trove's collateralization value",
          "_token": "address of token"
        }
      },
      "emitTroveDebtUpdate(address,uint256,uint256,uint256)": {
        "details": "to emit Trove's debt update event, to be called from trove",
        "params": {
          "_newAmount": "new trove's debt value",
          "_newCollateralization": "new trove's collateralization value",
          "_token": "address of token"
        }
      },
      "firstTrove(address)": {
        "details": "returns the first trove by minimal collaterization ratio"
      },
      "getBorrowingFee(uint256)": {
        "details": "returns fee from borrowing the amount"
      },
      "getRedemptionAmount(uint256,uint256)": {
        "details": "returns amount to be used in redemption excluding fee,"
      },
      "getRedemptionFee(uint256,uint256)": {
        "details": "returns fee from redeeming the amount"
      },
      "getRedemptionFeeRatio(address)": {
        "details": "returns fee from redeeming the amount"
      },
      "getReducedFeeAndRefundAmount(uint256,address)": {
        "details": "returns reduced fee and amount to repay based on trove BONQ stake"
      },
      "increaseCollateralNative(address,address)": {
        "details": "deposits native token into trove after wrapping the ETH (EWT, AVAX, etc) into WETH (WEWT, WAVAX, etc)",
        "params": {
          "_newNextTrove": "hint for next trove position",
          "_trove": "tove to be deposited in"
        }
      },
      "insertTrove(address,address)": {
        "details": "insert a trove in the sorted list of troves. the troves must be sorted by collateralisation ratio CR the sender must be the trove which will be inserted in the list",
        "params": {
          "_newNextTrove": "is the trove before which the trove will be added"
        }
      },
      "lastTrove(address)": {
        "details": "returns the last trove by maximum collaterization ratio"
      },
      "liquidationPool(address)": {
        "details": "returns contract address of LiquidationPool for specific token"
      },
      "nextTrove(address,address)": {
        "details": "returns the next trove by collaterization ratio"
      },
      "owner()": {
        "details": "Returns the address of the current owner."
      },
      "paused()": {
        "details": "Returns true if the contract is paused, and false otherwise."
      },
      "prevTrove(address,address)": {
        "details": "returns the previous trove by collaterization ratio"
      },
      "proxiableUUID()": {
        "details": "Implementation of the ERC1822 {proxiableUUID} function. This returns the storage slot used by the implementation. It is used to validate the implementation's compatibility when performing an upgrade. IMPORTANT: A proxy pointing at a proxiable contract should not be considered proxiable itself, because this risks bricking a proxy that upgrades to it, by delegating to itself until out of gas. Thus it is critical that this function revert if invoked through a proxy. This is guaranteed by the `notDelegated` modifier."
      },
      "redeemStableCoinForCollateral(address,uint256,uint256,uint256,address)": {
        "details": "redeem desired StableCoin amount for desired collateral tokens",
        "params": {
          "_lastTroveCurrentICR": "ICR of the last trove to be redeemed, if matches then the hint is working and it redeems",
          "_lastTroveNewPositionHint": "hint for the of the nextNewTrove after redemption for the latest trove",
          "_maxRate": "is max fee (in % with 1e18 precision) allowed to pay",
          "_stableAmount": "the desired amount of StableCoin to pay for redemption"
        }
      },
      "removeTrove(address,address)": {
        "details": "remove a trove from the list and send any remaining token balance to the owner",
        "params": {
          "_trove": "is the trove which will be removed"
        }
      },
      "renounceOwnership()": {
        "details": "Leaves the contract without owner. It will not be possible to call `onlyOwner` functions anymore. Can only be called by the current owner. NOTE: Renouncing ownership will leave the contract without an owner, thereby removing any functionality that is only available to the owner."
      },
      "setArbitragePool(address)": {
        "details": "sets contract address of ArbitragePool"
      },
      "setArbitrageShareRatio(uint256)": {
        "details": "set the ratio of the arbitrage gains which should go to the sender of the message",
        "params": {
          "_arbitrageShareRatio": "the ratio by which the arbitrage gains will be multiplied"
        }
      },
      "setFeeRecipient(address)": {
        "details": "sets contract address of FeeRecipient"
      },
      "setLiquidationPool(address,address)": {
        "details": "sets contract address of LiquidationPool for specific token"
      },
      "setMaxTroveBONQStake(uint256)": {
        "details": "sets new amount for trove BONQ state at which redemption fee refunding equals to 100%"
      },
      "setServiceFeeImplementation(address)": {
        "details": "sets address of the service-fee-generator implementation for minimal clones"
      },
      "setStabilityPool(address)": {
        "details": "sets contract address of StabilityPool"
      },
      "setTokenOwner()": {
        "details": "sets address of the contract for stableCoin issuance"
      },
      "setTokenPriceFeed(address)": {
        "details": "sets contract address of TokenPriceFeed"
      },
      "setTroveImplementation(address)": {
        "details": "sets address of the Trove implementation for minimal clones"
      },
      "setWETH(address,address)": {
        "details": "sets contract address of Wrapped native token, along with liquidationPool"
      },
      "togglePause()": {
        "details": "toggles the pause state of the contract if the contract is paused borrowing is disabled and liquidation with Stability Pool is impossible (Community liquidations still allowed)"
      },
      "tokenCollateralization(address)": {
        "details": "returns total collateral ratio averaged between troves for specific token"
      },
      "totalCollateral(address)": {
        "details": "returns total collateral among all troves for specific token"
      },
      "totalDebtForToken(address)": {
        "details": "returns total debt among all troves for specific token"
      },
      "transferOwnership(address)": {
        "details": "Transfers ownership of the contract to a new account (`newOwner`). Can only be called by the current owner."
      },
      "transferTokenOwnerOwnership(address)": {
        "details": "transfers contract ownership this function is used when a new TroveFactory version is deployed and the same tokens are used. We transfer the ownership of the TokenOwner contract and the new TroveFactory is able to add minters"
      },
      "transferTokenOwnership(address)": {
        "details": "transfers contract ownership this function is used when a new TroveFactory version is deployed and the same tokens are used. We transfer the ownership of the TokenOwner contract and the new TroveFactory is able to add minters"
      },
      "troveCount(address)": {
        "details": "returns the number of troves for specific token"
      },
      "updateTotalCollateral(address,uint256,bool)": {
        "details": "function to be called from trove to update total collateral value of all troves of this tokens",
        "params": {
          "_increase": "bool that indicates \"+\" or \"-\" operation"
        }
      },
      "updateTotalDebt(uint256,bool)": {
        "details": "function to be called from trove to change totalDebt",
        "params": {
          "_borrow": "indicates if it is borrow or repay/liquidatin"
        }
      },
      "upgradeTo(address)": {
        "details": "Upgrade the implementation of the proxy to `newImplementation`. Calls {_authorizeUpgrade}. Emits an {Upgraded} event."
      },
      "upgradeToAndCall(address,bytes)": {
        "details": "Upgrade the implementation of the proxy to `newImplementation`, and subsequently execute the function call encoded in `data`. Calls {_authorizeUpgrade}. Emits an {Upgraded} event."
      }
    },
    "version": 1
  },
  "userdoc": {
    "kind": "user",
    "methods": {},
    "version": 1
  },
  "storageLayout": {
    "storage": [
      {
        "astId": 630,
        "contract": "contracts/original-trove-factory.sol:OriginalTroveFactory",
        "label": "_initialized",
        "offset": 0,
        "slot": "0",
        "type": "t_uint8"
      },
      {
        "astId": 633,
        "contract": "contracts/original-trove-factory.sol:OriginalTroveFactory",
        "label": "_initializing",
        "offset": 1,
        "slot": "0",
        "type": "t_bool"
      },
      {
        "astId": 612,
        "contract": "contracts/original-trove-factory.sol:OriginalTroveFactory",
        "label": "__gap",
        "offset": 0,
        "slot": "1",
        "type": "t_array(t_uint256)50_storage"
      },
      {
        "astId": 927,
        "contract": "contracts/original-trove-factory.sol:OriginalTroveFactory",
        "label": "__gap",
        "offset": 0,
        "slot": "51",
        "type": "t_array(t_uint256)50_storage"
      },
      {
        "astId": 1453,
        "contract": "contracts/original-trove-factory.sol:OriginalTroveFactory",
        "label": "__gap",
        "offset": 0,
        "slot": "101",
        "type": "t_array(t_uint256)50_storage"
      },
      {
        "astId": 113,
        "contract": "contracts/original-trove-factory.sol:OriginalTroveFactory",
        "label": "_owner",
        "offset": 0,
        "slot": "151",
        "type": "t_address"
      },
      {
        "astId": 233,
        "contract": "contracts/original-trove-factory.sol:OriginalTroveFactory",
        "label": "__gap",
        "offset": 0,
        "slot": "152",
        "type": "t_array(t_uint256)49_storage"
      },
      {
        "astId": 949,
        "contract": "contracts/original-trove-factory.sol:OriginalTroveFactory",
        "label": "_paused",
        "offset": 0,
        "slot": "201",
        "type": "t_bool"
      },
      {
        "astId": 1054,
        "contract": "contracts/original-trove-factory.sol:OriginalTroveFactory",
        "label": "__gap",
        "offset": 0,
        "slot": "202",
        "type": "t_array(t_uint256)49_storage"
      },
      {
        "astId": 13494,
        "contract": "contracts/original-trove-factory.sol:OriginalTroveFactory",
        "label": "stabilityPool",
        "offset": 0,
        "slot": "251",
        "type": "t_contract(IStabilityPoolBase)7641"
      },
      {
        "astId": 13497,
        "contract": "contracts/original-trove-factory.sol:OriginalTroveFactory",
        "label": "arbitragePool",
        "offset": 0,
        "slot": "252",
        "type": "t_address"
      },
      {
        "astId": 13502,
        "contract": "contracts/original-trove-factory.sol:OriginalTroveFactory",
        "label": "_troves",
        "offset": 0,
        "slot": "253",
        "type": "t_mapping(t_address,t_struct(TroveList)13472_storage)"
      },
      {
        "astId": 13506,
        "contract": "contracts/original-trove-factory.sol:OriginalTroveFactory",
        "label": "tokenOwner",
        "offset": 0,
        "slot": "254",
        "type": "t_contract(IMintableTokenOwner)7400"
      },
      {
        "astId": 13510,
        "contract": "contracts/original-trove-factory.sol:OriginalTroveFactory",
        "label": "tokenToPriceFeed",
        "offset": 0,
        "slot": "255",
        "type": "t_contract(ITokenPriceFeed)7750"
      },
      {
        "astId": 13514,
        "contract": "contracts/original-trove-factory.sol:OriginalTroveFactory",
        "label": "stableCoin",
        "offset": 0,
        "slot": "256",
        "type": "t_contract(IMintableToken)7364"
      },
      {
        "astId": 13517,
        "contract": "contracts/original-trove-factory.sol:OriginalTroveFactory",
        "label": "WETHContract",
        "offset": 0,
        "slot": "257",
        "type": "t_contract(IWETH)8227"
      },
      {
        "astId": 13521,
        "contract": "contracts/original-trove-factory.sol:OriginalTroveFactory",
        "label": "feeRecipient",
        "offset": 0,
        "slot": "258",
        "type": "t_contract(IFeeRecipient)7284"
      },
      {
        "astId": 13524,
        "contract": "contracts/original-trove-factory.sol:OriginalTroveFactory",
        "label": "totalDebt",
        "offset": 0,
        "slot": "259",
        "type": "t_uint256"
      },
      {
        "astId": 13526,
        "contract": "contracts/original-trove-factory.sol:OriginalTroveFactory",
        "label": "troveImplementation",
        "offset": 0,
        "slot": "260",
        "type": "t_address"
      },
      {
        "astId": 13528,
        "contract": "contracts/original-trove-factory.sol:OriginalTroveFactory",
        "label": "serviceFeeImplementation",
        "offset": 0,
        "slot": "261",
        "type": "t_address"
      },
      {
        "astId": 13532,
        "contract": "contracts/original-trove-factory.sol:OriginalTroveFactory",
        "label": "maxTroveBONQStake",
        "offset": 0,
        "slot": "262",
        "type": "t_uint256"
      },
      {
        "astId": 13536,
        "contract": "contracts/original-trove-factory.sol:OriginalTroveFactory",
        "label": "bonqToken",
        "offset": 0,
        "slot": "263",
        "type": "t_contract(IERC20)3472"
      },
      {
        "astId": 13538,
        "contract": "contracts/original-trove-factory.sol:OriginalTroveFactory",
        "label": "arbitrageShareRatio",
        "offset": 0,
        "slot": "264",
        "type": "t_uint256"
      }
    ],
    "types": {
      "t_address": {
        "encoding": "inplace",
        "label": "address",
        "numberOfBytes": "20"
      },
      "t_array(t_uint256)49_storage": {
        "base": "t_uint256",
        "encoding": "inplace",
        "label": "uint256[49]",
        "numberOfBytes": "1568"
      },
      "t_array(t_uint256)50_storage": {
        "base": "t_uint256",
        "encoding": "inplace",
        "label": "uint256[50]",
        "numberOfBytes": "1600"
      },
      "t_bool": {
        "encoding": "inplace",
        "label": "bool",
        "numberOfBytes": "1"
      },
      "t_contract(IERC20)3472": {
        "encoding": "inplace",
        "label": "contract IERC20",
        "numberOfBytes": "20"
      },
      "t_contract(IFeeRecipient)7284": {
        "encoding": "inplace",
        "label": "contract IFeeRecipient",
        "numberOfBytes": "20"
      },
      "t_contract(ILiquidationPool)7323": {
        "encoding": "inplace",
        "label": "contract ILiquidationPool",
        "numberOfBytes": "20"
      },
      "t_contract(IMintableToken)7364": {
        "encoding": "inplace",
        "label": "contract IMintableToken",
        "numberOfBytes": "20"
      },
      "t_contract(IMintableTokenOwner)7400": {
        "encoding": "inplace",
        "label": "contract IMintableTokenOwner",
        "numberOfBytes": "20"
      },
      "t_contract(IStabilityPoolBase)7641": {
        "encoding": "inplace",
        "label": "contract IStabilityPoolBase",
        "numberOfBytes": "20"
      },
      "t_contract(ITokenPriceFeed)7750": {
        "encoding": "inplace",
        "label": "contract ITokenPriceFeed",
        "numberOfBytes": "20"
      },
      "t_contract(IWETH)8227": {
        "encoding": "inplace",
        "label": "contract IWETH",
        "numberOfBytes": "20"
      },
      "t_mapping(t_address,t_struct(EntryLink)18431_storage)": {
        "encoding": "mapping",
        "key": "t_address",
        "label": "mapping(address => struct LinkedAddressList.EntryLink)",
        "numberOfBytes": "32",
        "value": "t_struct(EntryLink)18431_storage"
      },
      "t_mapping(t_address,t_struct(TroveList)13472_storage)": {
        "encoding": "mapping",
        "key": "t_address",
        "label": "mapping(address => struct TroveFactory.TroveList)",
        "numberOfBytes": "32",
        "value": "t_struct(TroveList)13472_storage"
      },
      "t_struct(EntryLink)18431_storage": {
        "encoding": "inplace",
        "label": "struct LinkedAddressList.EntryLink",
        "members": [
          {
            "astId": 18428,
            "contract": "contracts/original-trove-factory.sol:OriginalTroveFactory",
            "label": "prev",
            "offset": 0,
            "slot": "0",
            "type": "t_address"
          },
          {
            "astId": 18430,
            "contract": "contracts/original-trove-factory.sol:OriginalTroveFactory",
            "label": "next",
            "offset": 0,
            "slot": "1",
            "type": "t_address"
          }
        ],
        "numberOfBytes": "64"
      },
      "t_struct(List)18443_storage": {
        "encoding": "inplace",
        "label": "struct LinkedAddressList.List",
        "members": [
          {
            "astId": 18433,
            "contract": "contracts/original-trove-factory.sol:OriginalTroveFactory",
            "label": "_last",
            "offset": 0,
            "slot": "0",
            "type": "t_address"
          },
          {
            "astId": 18435,
            "contract": "contracts/original-trove-factory.sol:OriginalTroveFactory",
            "label": "_first",
            "offset": 0,
            "slot": "1",
            "type": "t_address"
          },
          {
            "astId": 18437,
            "contract": "contracts/original-trove-factory.sol:OriginalTroveFactory",
            "label": "_size",
            "offset": 0,
            "slot": "2",
            "type": "t_uint256"
          },
          {
            "astId": 18442,
            "contract": "contracts/original-trove-factory.sol:OriginalTroveFactory",
            "label": "_values",
            "offset": 0,
            "slot": "3",
            "type": "t_mapping(t_address,t_struct(EntryLink)18431_storage)"
          }
        ],
        "numberOfBytes": "128"
      },
      "t_struct(TroveList)13472_storage": {
        "encoding": "inplace",
        "label": "struct TroveFactory.TroveList",
        "members": [
          {
            "astId": 13463,
            "contract": "contracts/original-trove-factory.sol:OriginalTroveFactory",
            "label": "totalCollateral",
            "offset": 0,
            "slot": "0",
            "type": "t_uint256"
          },
          {
            "astId": 13465,
            "contract": "contracts/original-trove-factory.sol:OriginalTroveFactory",
            "label": "totalDebt",
            "offset": 0,
            "slot": "1",
            "type": "t_uint256"
          },
          {
            "astId": 13468,
            "contract": "contracts/original-trove-factory.sol:OriginalTroveFactory",
            "label": "liquidationPool",
            "offset": 0,
            "slot": "2",
            "type": "t_contract(ILiquidationPool)7323"
          },
          {
            "astId": 13471,
            "contract": "contracts/original-trove-factory.sol:OriginalTroveFactory",
            "label": "list",
            "offset": 0,
            "slot": "3",
            "type": "t_struct(List)18443_storage"
          }
        ],
        "numberOfBytes": "224"
      },
      "t_uint256": {
        "encoding": "inplace",
        "label": "uint256",
        "numberOfBytes": "32"
      },
      "t_uint8": {
        "encoding": "inplace",
        "label": "uint8",
        "numberOfBytes": "1"
      }
    }
  }
}