{
  "address": "0x4Bd810F02781d50B414C64e3Af91E8dB4252300F",
  "abi": [
    {
      "inputs": [
        {
          "internalType": "address",
          "name": "_factory",
          "type": "address"
        }
      ],
      "stateMutability": "nonpayable",
      "type": "constructor"
    },
    {
      "anonymous": false,
      "inputs": [
        {
          "indexed": false,
          "internalType": "address",
          "name": "trove",
          "type": "address"
        },
        {
          "indexed": false,
          "internalType": "uint256",
          "name": "debt",
          "type": "uint256"
        },
        {
          "indexed": false,
          "internalType": "uint256",
          "name": "collateral",
          "type": "uint256"
        }
      ],
      "name": "Liquidated",
      "type": "event"
    },
    {
      "anonymous": false,
      "inputs": [
        {
          "indexed": true,
          "internalType": "address",
          "name": "previousOwner",
          "type": "address"
        },
        {
          "indexed": true,
          "internalType": "address",
          "name": "newOwner",
          "type": "address"
        }
      ],
      "name": "OwnershipTransferred",
      "type": "event"
    },
    {
      "anonymous": false,
      "inputs": [
        {
          "indexed": true,
          "internalType": "bytes32",
          "name": "role",
          "type": "bytes32"
        },
        {
          "indexed": true,
          "internalType": "bytes32",
          "name": "previousAdminRole",
          "type": "bytes32"
        },
        {
          "indexed": true,
          "internalType": "bytes32",
          "name": "newAdminRole",
          "type": "bytes32"
        }
      ],
      "name": "RoleAdminChanged",
      "type": "event"
    },
    {
      "anonymous": false,
      "inputs": [
        {
          "indexed": true,
          "internalType": "bytes32",
          "name": "role",
          "type": "bytes32"
        },
        {
          "indexed": true,
          "internalType": "address",
          "name": "account",
          "type": "address"
        },
        {
          "indexed": true,
          "internalType": "address",
          "name": "sender",
          "type": "address"
        }
      ],
      "name": "RoleGranted",
      "type": "event"
    },
    {
      "anonymous": false,
      "inputs": [
        {
          "indexed": true,
          "internalType": "bytes32",
          "name": "role",
          "type": "bytes32"
        },
        {
          "indexed": true,
          "internalType": "address",
          "name": "account",
          "type": "address"
        },
        {
          "indexed": true,
          "internalType": "address",
          "name": "sender",
          "type": "address"
        }
      ],
      "name": "RoleRevoked",
      "type": "event"
    },
    {
      "inputs": [],
      "name": "BORROWING_RATE",
      "outputs": [
        {
          "internalType": "uint256",
          "name": "",
          "type": "uint256"
        }
      ],
      "stateMutability": "view",
      "type": "function"
    },
    {
      "inputs": [],
      "name": "DECIMAL_PRECISION",
      "outputs": [
        {
          "internalType": "uint256",
          "name": "",
          "type": "uint256"
        }
      ],
      "stateMutability": "view",
      "type": "function"
    },
    {
      "inputs": [],
      "name": "DEFAULT_ADMIN_ROLE",
      "outputs": [
        {
          "internalType": "bytes32",
          "name": "",
          "type": "bytes32"
        }
      ],
      "stateMutability": "view",
      "type": "function"
    },
    {
      "inputs": [],
      "name": "LIQUIDATION_RESERVE",
      "outputs": [
        {
          "internalType": "uint256",
          "name": "",
          "type": "uint256"
        }
      ],
      "stateMutability": "view",
      "type": "function"
    },
    {
      "inputs": [],
      "name": "MAX_BORROWING_RATE",
      "outputs": [
        {
          "internalType": "uint256",
          "name": "",
          "type": "uint256"
        }
      ],
      "stateMutability": "view",
      "type": "function"
    },
    {
      "inputs": [],
      "name": "MAX_INT",
      "outputs": [
        {
          "internalType": "uint256",
          "name": "",
          "type": "uint256"
        }
      ],
      "stateMutability": "view",
      "type": "function"
    },
    {
      "inputs": [],
      "name": "OWNER_ROLE",
      "outputs": [
        {
          "internalType": "bytes32",
          "name": "",
          "type": "bytes32"
        }
      ],
      "stateMutability": "view",
      "type": "function"
    },
    {
      "inputs": [],
      "name": "PERCENT",
      "outputs": [
        {
          "internalType": "uint256",
          "name": "",
          "type": "uint256"
        }
      ],
      "stateMutability": "view",
      "type": "function"
    },
    {
      "inputs": [],
      "name": "PERCENT10",
      "outputs": [
        {
          "internalType": "uint256",
          "name": "",
          "type": "uint256"
        }
      ],
      "stateMutability": "view",
      "type": "function"
    },
    {
      "inputs": [],
      "name": "PERCENT_05",
      "outputs": [
        {
          "internalType": "uint256",
          "name": "",
          "type": "uint256"
        }
      ],
      "stateMutability": "view",
      "type": "function"
    },
    {
      "inputs": [],
      "name": "TOKEN_PRECISION",
      "outputs": [
        {
          "internalType": "uint256",
          "name": "",
          "type": "uint256"
        }
      ],
      "stateMutability": "view",
      "type": "function"
    },
    {
      "inputs": [
        {
          "internalType": "address",
          "name": "_newOwner",
          "type": "address"
        }
      ],
      "name": "addOwner",
      "outputs": [],
      "stateMutability": "nonpayable",
      "type": "function"
    },
    {
      "inputs": [],
      "name": "arbitrageParticipation",
      "outputs": [
        {
          "internalType": "bool",
          "name": "",
          "type": "bool"
        }
      ],
      "stateMutability": "view",
      "type": "function"
    },
    {
      "inputs": [],
      "name": "arbitrageState",
      "outputs": [
        {
          "internalType": "contract IArbitragePool",
          "name": "arbitragePool",
          "type": "address"
        },
        {
          "internalType": "contract IMintableToken",
          "name": "apToken",
          "type": "address"
        },
        {
          "internalType": "uint256",
          "name": "lastApPrice",
          "type": "uint256"
        }
      ],
      "stateMutability": "view",
      "type": "function"
    },
    {
      "inputs": [],
      "name": "bonqStake",
      "outputs": [
        {
          "internalType": "uint256",
          "name": "",
          "type": "uint256"
        }
      ],
      "stateMutability": "view",
      "type": "function"
    },
    {
      "inputs": [],
      "name": "bonqToken",
      "outputs": [
        {
          "internalType": "contract IERC20",
          "name": "",
          "type": "address"
        }
      ],
      "stateMutability": "view",
      "type": "function"
    },
    {
      "inputs": [
        {
          "internalType": "address",
          "name": "_recipient",
          "type": "address"
        },
        {
          "internalType": "uint256",
          "name": "_amount",
          "type": "uint256"
        },
        {
          "internalType": "address",
          "name": "_newNextTrove",
          "type": "address"
        }
      ],
      "name": "borrow",
      "outputs": [],
      "stateMutability": "nonpayable",
      "type": "function"
    },
    {
      "inputs": [],
      "name": "collateral",
      "outputs": [
        {
          "internalType": "uint256",
          "name": "",
          "type": "uint256"
        }
      ],
      "stateMutability": "view",
      "type": "function"
    },
    {
      "inputs": [],
      "name": "collateralValue",
      "outputs": [
        {
          "internalType": "uint256",
          "name": "",
          "type": "uint256"
        }
      ],
      "stateMutability": "view",
      "type": "function"
    },
    {
      "inputs": [],
      "name": "collateralization",
      "outputs": [
        {
          "internalType": "uint256",
          "name": "",
          "type": "uint256"
        }
      ],
      "stateMutability": "view",
      "type": "function"
    },
    {
      "inputs": [],
      "name": "debt",
      "outputs": [
        {
          "internalType": "uint256",
          "name": "",
          "type": "uint256"
        }
      ],
      "stateMutability": "view",
      "type": "function"
    },
    {
      "inputs": [
        {
          "internalType": "address",
          "name": "_recipient",
          "type": "address"
        },
        {
          "internalType": "uint256",
          "name": "_amount",
          "type": "uint256"
        },
        {
          "internalType": "address",
          "name": "_newNextTrove",
          "type": "address"
        }
      ],
      "name": "decreaseCollateral",
      "outputs": [],
      "stateMutability": "nonpayable",
      "type": "function"
    },
    {
      "inputs": [],
      "name": "factory",
      "outputs": [
        {
          "internalType": "contract ITroveFactory",
          "name": "",
          "type": "address"
        }
      ],
      "stateMutability": "view",
      "type": "function"
    },
    {
      "inputs": [
        {
          "internalType": "bytes32",
          "name": "role",
          "type": "bytes32"
        }
      ],
      "name": "getRoleAdmin",
      "outputs": [
        {
          "internalType": "bytes32",
          "name": "",
          "type": "bytes32"
        }
      ],
      "stateMutability": "view",
      "type": "function"
    },
    {
      "inputs": [
        {
          "internalType": "bytes32",
          "name": "role",
          "type": "bytes32"
        },
        {
          "internalType": "uint256",
          "name": "index",
          "type": "uint256"
        }
      ],
      "name": "getRoleMember",
      "outputs": [
        {
          "internalType": "address",
          "name": "",
          "type": "address"
        }
      ],
      "stateMutability": "view",
      "type": "function"
    },
    {
      "inputs": [
        {
          "internalType": "bytes32",
          "name": "role",
          "type": "bytes32"
        }
      ],
      "name": "getRoleMemberCount",
      "outputs": [
        {
          "internalType": "uint256",
          "name": "",
          "type": "uint256"
        }
      ],
      "stateMutability": "view",
      "type": "function"
    },
    {
      "inputs": [
        {
          "internalType": "bytes32",
          "name": "role",
          "type": "bytes32"
        },
        {
          "internalType": "address",
          "name": "account",
          "type": "address"
        }
      ],
      "name": "grantRole",
      "outputs": [],
      "stateMutability": "nonpayable",
      "type": "function"
    },
    {
      "inputs": [
        {
          "internalType": "bytes32",
          "name": "role",
          "type": "bytes32"
        },
        {
          "internalType": "address",
          "name": "account",
          "type": "address"
        }
      ],
      "name": "hasRole",
      "outputs": [
        {
          "internalType": "bool",
          "name": "",
          "type": "bool"
        }
      ],
      "stateMutability": "view",
      "type": "function"
    },
    {
      "inputs": [
        {
          "internalType": "uint256",
          "name": "_amount",
          "type": "uint256"
        },
        {
          "internalType": "address",
          "name": "_newNextTrove",
          "type": "address"
        }
      ],
      "name": "increaseCollateral",
      "outputs": [],
      "stateMutability": "nonpayable",
      "type": "function"
    },
    {
      "inputs": [
        {
          "internalType": "address",
          "name": "_token",
          "type": "address"
        },
        {
          "internalType": "address",
          "name": "_troveOwner",
          "type": "address"
        }
      ],
      "name": "initialize",
      "outputs": [],
      "stateMutability": "nonpayable",
      "type": "function"
    },
    {
      "inputs": [],
      "name": "liqTokenRateSnapshot",
      "outputs": [
        {
          "internalType": "uint256",
          "name": "",
          "type": "uint256"
        }
      ],
      "stateMutability": "view",
      "type": "function"
    },
    {
      "inputs": [],
      "name": "liquidate",
      "outputs": [],
      "stateMutability": "nonpayable",
      "type": "function"
    },
    {
      "inputs": [],
      "name": "liquidationReserve",
      "outputs": [
        {
          "internalType": "uint256",
          "name": "",
          "type": "uint256"
        }
      ],
      "stateMutability": "view",
      "type": "function"
    },
    {
      "inputs": [],
      "name": "mcr",
      "outputs": [
        {
          "internalType": "uint256",
          "name": "",
          "type": "uint256"
        }
      ],
      "stateMutability": "view",
      "type": "function"
    },
    {
      "inputs": [],
      "name": "netDebt",
      "outputs": [
        {
          "internalType": "uint256",
          "name": "",
          "type": "uint256"
        }
      ],
      "stateMutability": "view",
      "type": "function"
    },
    {
      "inputs": [],
      "name": "owner",
      "outputs": [
        {
          "internalType": "address",
          "name": "",
          "type": "address"
        }
      ],
      "stateMutability": "view",
      "type": "function"
    },
    {
      "inputs": [],
      "name": "recordedCollateral",
      "outputs": [
        {
          "internalType": "uint256",
          "name": "",
          "type": "uint256"
        }
      ],
      "stateMutability": "view",
      "type": "function"
    },
    {
      "inputs": [
        {
          "internalType": "address",
          "name": "_recipient",
          "type": "address"
        },
        {
          "internalType": "address",
          "name": "_newNextTrove",
          "type": "address"
        }
      ],
      "name": "redeem",
      "outputs": [
        {
          "internalType": "uint256",
          "name": "_stableAmount",
          "type": "uint256"
        },
        {
          "internalType": "uint256",
          "name": "_collateralReceived",
          "type": "uint256"
        }
      ],
      "stateMutability": "nonpayable",
      "type": "function"
    },
    {
      "inputs": [
        {
          "internalType": "address",
          "name": "_ownerToRemove",
          "type": "address"
        }
      ],
      "name": "removeOwner",
      "outputs": [],
      "stateMutability": "nonpayable",
      "type": "function"
    },
    {
      "inputs": [],
      "name": "renounceOwnership",
      "outputs": [],
      "stateMutability": "nonpayable",
      "type": "function"
    },
    {
      "inputs": [
        {
          "internalType": "bytes32",
          "name": "role",
          "type": "bytes32"
        },
        {
          "internalType": "address",
          "name": "account",
          "type": "address"
        }
      ],
      "name": "renounceRole",
      "outputs": [],
      "stateMutability": "nonpayable",
      "type": "function"
    },
    {
      "inputs": [
        {
          "internalType": "uint256",
          "name": "_amount",
          "type": "uint256"
        },
        {
          "internalType": "address",
          "name": "_newNextTrove",
          "type": "address"
        }
      ],
      "name": "repay",
      "outputs": [],
      "stateMutability": "nonpayable",
      "type": "function"
    },
    {
      "inputs": [
        {
          "internalType": "bytes32",
          "name": "role",
          "type": "bytes32"
        },
        {
          "internalType": "address",
          "name": "account",
          "type": "address"
        }
      ],
      "name": "revokeRole",
      "outputs": [],
      "stateMutability": "nonpayable",
      "type": "function"
    },
    {
      "inputs": [
        {
          "internalType": "bool",
          "name": "_state",
          "type": "bool"
        }
      ],
      "name": "setArbitrageParticipation",
      "outputs": [],
      "stateMutability": "nonpayable",
      "type": "function"
    },
    {
      "inputs": [
        {
          "internalType": "bytes4",
          "name": "interfaceId",
          "type": "bytes4"
        }
      ],
      "name": "supportsInterface",
      "outputs": [
        {
          "internalType": "bool",
          "name": "",
          "type": "bool"
        }
      ],
      "stateMutability": "view",
      "type": "function"
    },
    {
      "inputs": [],
      "name": "token",
      "outputs": [
        {
          "internalType": "contract IERC20",
          "name": "",
          "type": "address"
        }
      ],
      "stateMutability": "view",
      "type": "function"
    },
    {
      "inputs": [
        {
          "internalType": "address",
          "name": "_newOwner",
          "type": "address"
        }
      ],
      "name": "transferOwnership",
      "outputs": [],
      "stateMutability": "nonpayable",
      "type": "function"
    },
    {
      "inputs": [
        {
          "internalType": "address",
          "name": "_token",
          "type": "address"
        },
        {
          "internalType": "address",
          "name": "_recipient",
          "type": "address"
        }
      ],
      "name": "transferToken",
      "outputs": [],
      "stateMutability": "nonpayable",
      "type": "function"
    },
    {
      "inputs": [],
      "name": "unclaimedArbitrageReward",
      "outputs": [
        {
          "internalType": "uint256",
          "name": "",
          "type": "uint256"
        }
      ],
      "stateMutability": "view",
      "type": "function"
    },
    {
      "inputs": [],
      "name": "unclaimedCollateralRewardAndDebt",
      "outputs": [
        {
          "internalType": "uint256",
          "name": "",
          "type": "uint256"
        },
        {
          "internalType": "uint256",
          "name": "",
          "type": "uint256"
        }
      ],
      "stateMutability": "view",
      "type": "function"
    },
    {
      "inputs": [
        {
          "internalType": "uint256",
          "name": "_amount",
          "type": "uint256"
        }
      ],
      "name": "unstakeBONQ",
      "outputs": [],
      "stateMutability": "nonpayable",
      "type": "function"
    }
  ],
  "transactionHash": "0x54473c890e4dd136a6ba7f92eff6b1e7618ac47b401dac78a186a0f499015a2a",
  "args": [
    "0xf6063b2A386397C6fD5bb468523328bD363Cf614"
  ],
  "numDeployments": 1,
  "solcInputHash": "dea2b32fd21416889096b7b2b54df7fd",
  "bytecode": "0x60a06040523480156200001157600080fd5b50604051620050ee380380620050ee8339810160408190526200003491620000a1565b6200003f3362000051565b6001600160a01b0316608052620000d3565b600080546001600160a01b038381166001600160a01b0319831681178455604051919092169283917f8be0079c531659141344cd1fd0a4f28419497f9722a3daafe3b4186f6b6457e09190a35050565b600060208284031215620000b457600080fd5b81516001600160a01b0381168114620000cc57600080fd5b9392505050565b608051614efc620001f260003960008181610589015281816107af015281816108ce0152818161095201528181610a5c01528181610bba01528181610c3701528181610d1701528181610ef201528181610f8c015281816112ae015281816114e3015281816115ab01528181611697015281816117270152818161180d0152818161195901528181611b1e01528181611c0001528181611ca001528181611e8e0152818161241f015281816126bd0152818161273a015281816127f0015281816128ec015281816129c401528181612b5a01528181612df60152818161317101528181613576015281816136ae015281816137470152818161378501528181613a5801528181613dc901528181613f0d01526140750152614efc6000f3fe608060405234801561001057600080fd5b50600436106102f15760003560e01c8063923c1eec1161019d578063c45a0155116100e9578063d8dfeb45116100a2578063eaca974b1161007c578063eaca974b1461060f578063f2fde38b14610618578063fc0c546a1461062b578063fd6270231461063e57600080fd5b8063d8dfeb45146105ea578063d91d2f60146105f2578063e58378bb146105fa57600080fd5b8063c45a015514610584578063c478b5bd146105ab578063c6616894146105b3578063c8c33edc146105bc578063ca15c873146105c4578063d547741f146105d757600080fd5b8063abdc554111610156578063ad09014d11610130578063ad09014d14610544578063b85a8b201461054c578063b8caedc414610554578063bba06f271461055c57600080fd5b8063abdc554114610529578063acb7081514610531578063aceb2d041461040d57600080fd5b8063923c1eec146104e4578063964080ce146104f357806397828c0214610506578063a20baee6146104e4578063a217fddf1461050e578063a66ca8f21461051657600080fd5b80633c7034a31161025c5780636c665a55116102155780637d4113c9116101ef5780637d4113c9146104905780638da5cb5b146104995780639010d07c146104be57806391d14854146104d157600080fd5b80636c665a55146104625780637065cb4814610475578063715018a61461048857600080fd5b80633c7034a3146103d4578063485cc955146103e757806348ae238f146103fa578063517ef1d71461040d5780635b8462d914610415578063673a1ac21461045957600080fd5b8063249db00c116102ae578063249db00c1461038957806328a07025146103965780632f2ff15d1461039e57806331533029146103b157806336568abe146103b95780633746403c146103cc57600080fd5b806301ffc9a7146102f6578063098d32281461031e5780630dca59c114610335578063173825d91461033d57806323cb70f814610352578063248a9ca314610365575b600080fd5b6103096103043660046149c9565b610651565b60405190151581526020015b60405180910390f35b61032760001981565b604051908152602001610315565b61032761067c565b61035061034b366004614a08565b61069e565b005b610350610360366004614a25565b610768565b610327610373366004614a55565b6000908152600160208190526040909120015490565b6009546103099060ff1681565b610350610853565b6103506103ac366004614a25565b610f53565b610327610f7f565b6103506103c7366004614a25565b6110a2565b610327611120565b6103506103e2366004614a6e565b611137565b6103506103f5366004614ab0565b611352565b610350610408366004614ab0565b6118c5565b610327611aba565b600a54600b54600c54610433926001600160a01b0390811692169083565b604080516001600160a01b03948516815293909216602084015290820152606001610315565b61032760075481565b610350610470366004614a6e565b611ae8565b610350610483366004614a08565b611d13565b610350611d5f565b61032760085481565b6000546001600160a01b03165b6040516001600160a01b039091168152602001610315565b6104a66104cc366004614ade565b611dc5565b6103096104df366004614a25565b611de4565b610327670de0b6b3a764000081565b610350610501366004614b0e565b611e0f565b61032761228a565b610327600081565b600d546104a6906001600160a01b031681565b6103276123ab565b61035061053f366004614a25565b6123c0565b6103276127ad565b6103276127d7565b6103276127ec565b61056f61056a366004614ab0565b6128de565b60408051928352602083019190915201610315565b6104a67f000000000000000000000000000000000000000000000000000000000000000081565b610327612d9c565b61032760045481565b61056f612dcd565b6103276105d2366004614a55565b612edd565b6103506105e5366004614a25565b612ef4565b610327612f1b565b6103276130c6565b610327600080516020614ea783398151915281565b61032760065481565b610350610626366004614a08565b613107565b6003546104a6906001600160a01b031681565b61035061064c366004614a55565b613195565b60006001600160e01b03198216635a05180f60e01b1480610676575061067682613246565b92915050565b600080610687612dcd565b915050806005546106989190614b41565b91505090565b6106b6600080516020614ea783398151915233611de4565b6106db5760405162461bcd60e51b81526004016106d290614b54565b60405180910390fd5b806001600160a01b03166106f76000546001600160a01b031690565b6001600160a01b03160361074d5760405162461bcd60e51b815260206004820152601e60248201527f363034653320646f206e6f742072656d6f7665206d61696e206f776e6572000060448201526064016106d2565b610765600080516020614ea78339815191528261327b565b50565b6003546001600160a01b0316821561078f5761078f6001600160a01b03821633308661329d565b600061079961330e565b600554909150156107ad576107ad83613628565b7f00000000000000000000000000000000000000000000000000000000000000006001600160a01b031663e04a3e9083836107e6613775565b6040516001600160e01b031960e086901b1681526001600160a01b039093166004840152602483019190915260448201526064015b600060405180830381600087803b15801561083557600080fd5b505af1158015610849573d6000803e3d6000fd5b5050505050505050565b61085b61330e565b506108646127ec565b61086c613775565b106108b05760405162461bcd60e51b81526020600482015260146024820152731a1a9a331a1021a91036bab9ba10363a1026a1a960611b60448201526064016106d2565b6000600360009054906101000a90046001600160a01b0316905060007f00000000000000000000000000000000000000000000000000000000000000006001600160a01b031663048c661d6040518163ffffffff1660e01b8152600401602060405180830381865afa15801561092a573d6000803e3d6000fd5b505050506040513d601f19601f8201168201806040525081019061094e9190614b97565b90507f00000000000000000000000000000000000000000000000000000000000000006001600160a01b031663992642e56040518163ffffffff1660e01b8152600401602060405180830381865afa1580156109ae573d6000803e3d6000fd5b505050506040513d601f19601f820116820180604052508101906109d29190614b97565b6001600160a01b031663095ea7b3336006546040518363ffffffff1660e01b8152600401610a01929190614bb4565b6020604051808303816000875af1158015610a20573d6000803e3d6000fd5b505050506040513d601f19601f82011682018060405250810190610a449190614bcd565b5060095460ff1615610a5a57610a5a6000611e0f565b7f00000000000000000000000000000000000000000000000000000000000000006001600160a01b0316635c975abb6040518163ffffffff1660e01b8152600401602060405180830381865afa158015610ab8573d6000803e3d6000fd5b505050506040513d601f19601f82011682018060405250810190610adc9190614bcd565b158015610af75750670de0b6b3a7640000610af5613775565b115b8015610b6b5750610b0661067c565b816001600160a01b031663f6153ccd6040518163ffffffff1660e01b8152600401602060405180830381865afa158015610b44573d6000803e3d6000fd5b505050506040513d601f19601f82011682018060405250810190610b689190614bea565b10155b15610cf557600754610b89906001600160a01b038416908390613884565b600754604051636757634d60e01b81526001600160a01b0384811660048301526024820192909252600060448201527f000000000000000000000000000000000000000000000000000000000000000090911690636757634d90606401600060405180830381600087803b158015610c0057600080fd5b505af1158015610c14573d6000803e3d6000fd5b5050600554604051631bd6899160e31b81526004810191909152600060248201527f00000000000000000000000000000000000000000000000000000000000000006001600160a01b0316925063deb44c889150604401600060405180830381600087803b158015610c8557600080fd5b505af1158015610c99573d6000803e3d6000fd5b50505050806001600160a01b03166328a070256040518163ffffffff1660e01b8152600401600060405180830381600087803b158015610cd857600080fd5b505af1158015610cec573d6000803e3d6000fd5b50505050610e60565b604051633770395560e21b81526001600160a01b0383811660048301526000917f00000000000000000000000000000000000000000000000000000000000000009091169063ddc0e55490602401602060405180830381865afa158015610d60573d6000803e3d6000fd5b505050506040513d601f19601f82011682018060405250810190610d849190614b97565b9050610da681600754856001600160a01b03166138849092919063ffffffff16565b806001600160a01b03166328a070256040518163ffffffff1660e01b8152600401600060405180830381600087803b158015610de157600080fd5b505af1158015610df5573d6000803e3d6000fd5b50505050806001600160a01b03166366501ae56040518163ffffffff1660e01b8152600401602060405180830381865afa158015610e37573d6000803e3d6000fd5b505050506040513d601f19601f82011682018060405250810190610e5b9190614bea565b600855505b60065460056000828254610e749190614c03565b90915550506005546007546040805130815260208101939093528201527f09c223cfcd8c93e245f558f5f8de755fc0930fd9bc257441155ef5d54a170e0f9060600160405180910390a1600060058190556006819055600755604051638225052760e01b81526001600160a01b0383811660048301523060248301527f000000000000000000000000000000000000000000000000000000000000000016906382250527906044015b600060405180830381600087803b158015610f3757600080fd5b505af1158015610f4b573d6000803e3d6000fd5b505050505050565b60008281526001602081905260409091200154610f708133613988565b610f7a83836139ec565b505050565b6000670de0b6b3a76400007f00000000000000000000000000000000000000000000000000000000000000006001600160a01b031663938573956040518163ffffffff1660e01b8152600401602060405180830381865afa158015610fe8573d6000803e3d6000fd5b505050506040513d601f19601f8201168201806040525081019061100c9190614b97565b6003546040516384ba3f6960e01b81526001600160a01b0391821660048201529116906384ba3f6990602401602060405180830381865afa158015611055573d6000803e3d6000fd5b505050506040513d601f19601f820116820180604052508101906110799190614bea565b611089611084612f1b565b613a0e565b6110939190614c16565b61109d9190614c2d565b905090565b6001600160a01b03811633146111125760405162461bcd60e51b815260206004820152602f60248201527f416363657373436f6e74726f6c3a2063616e206f6e6c792072656e6f756e636560448201526e103937b632b9903337b91039b2b63360891b60648201526084016106d2565b61111c828261327b565b5050565b600060065461112d61067c565b61109d9190614c03565b61114f600080516020614ea783398151915233611de4565b61116b5760405162461bcd60e51b81526004016106d290614b54565b611173613a30565b6003546009546001600160a01b039091169060ff161561127a57600a5460405163053342c960e11b81526001600160a01b0383811660048301526000921690630a66859290602401602060405180830381865afa1580156111d8573d6000803e3d6000fd5b505050506040513d601f19601f820116820180604052508101906111fc9190614bea565b6004546112099086614c16565b6112139190614c2d565b600a5460405163f3fef3a360e01b81529192506001600160a01b03169063f3fef3a3906112469085908590600401614bb4565b600060405180830381600087803b15801561126057600080fd5b505af1158015611274573d6000803e3d6000fd5b50505050505b61128e6001600160a01b0382168585613cc3565b600061129861330e565b600554909150156112ac576112ac83613628565b7f00000000000000000000000000000000000000000000000000000000000000006001600160a01b031663e04a3e9083836112e5613775565b6040516001600160e01b031960e086901b1681526001600160a01b03909316600484015260248301919091526044820152606401600060405180830381600087803b15801561133357600080fd5b505af1158015611347573d6000803e3d6000fd5b505050505050505050565b600054600160a81b900460ff1661137657600054600160a01b900460ff161561137a565b303b155b6113dd5760405162461bcd60e51b815260206004820152602e60248201527f496e697469616c697a61626c653a20636f6e747261637420697320616c72656160448201526d191e481a5b9a5d1a585b1a5e995960921b60648201526084016106d2565b600054600160a81b900460ff16158015611407576000805461ffff60a01b191661010160a01b1790555b6001600160a01b03831661146b5760405162461bcd60e51b815260206004820152602560248201527f343166653638205f746f6b656e206d757374206e6f7420626520616464726573604482015264073203078360dc1b60648201526084016106d2565b6001600160a01b0382166114d45760405162461bcd60e51b815260206004820152602a60248201527f343166653638205f74726f76654f776e6572206d757374206e6f7420626520616044820152690646472657373203078360b41b60648201526084016106d2565b6114dd82613ce2565b611507827f0000000000000000000000000000000000000000000000000000000000000000613d32565b600380546001600160a01b0319166001600160a01b0385169081179091556040805163313ce56760e01b8152905163313ce567916004808201926020929091908290030181865afa158015611560573d6000803e3d6000fd5b505050506040513d601f19601f820116820180604052508101906115849190614c4f565b61158f90600a614d56565b6004908155604051633770395560e21b81526001600160a01b037f0000000000000000000000000000000000000000000000000000000000000000169163ddc0e554916115ed918791016001600160a01b0391909116815260200190565b602060405180830381865afa15801561160a573d6000803e3d6000fd5b505050506040513d601f19601f8201168201806040525081019061162e9190614b97565b6001600160a01b03166366501ae56040518163ffffffff1660e01b8152600401602060405180830381865afa15801561166b573d6000803e3d6000fd5b505050506040513d601f19601f8201168201806040525081019061168f9190614bea565b6008819055507f00000000000000000000000000000000000000000000000000000000000000006001600160a01b031663992642e56040518163ffffffff1660e01b8152600401602060405180830381865afa1580156116f3573d6000803e3d6000fd5b505050506040513d601f19601f820116820180604052508101906117179190614b97565b6001600160a01b031663095ea7b37f00000000000000000000000000000000000000000000000000000000000000006001600160a01b031663469048406040518163ffffffff1660e01b8152600401602060405180830381865afa158015611783573d6000803e3d6000fd5b505050506040513d601f19601f820116820180604052508101906117a79190614b97565b6000196040518363ffffffff1660e01b81526004016117c7929190614bb4565b6020604051808303816000875af11580156117e6573d6000803e3d6000fd5b505050506040513d601f19601f8201168201806040525081019061180a9190614bcd565b507f00000000000000000000000000000000000000000000000000000000000000006001600160a01b031663a66ca8f26040518163ffffffff1660e01b8152600401602060405180830381865afa158015611869573d6000803e3d6000fd5b505050506040513d601f19601f8201168201806040525081019061188d9190614b97565b600d80546001600160a01b0319166001600160a01b03929092169190911790558015610f7a576000805460ff60a81b19169055505050565b6118dd600080516020614ea783398151915233611de4565b6118f95760405162461bcd60e51b81526004016106d290614b54565b6003546001600160a01b03908116908316036119575760405162461bcd60e51b815260206004820152601f60248201527f37613831302063616e2774207472616e7366657220636f6c6c61746572616c0060448201526064016106d2565b7f00000000000000000000000000000000000000000000000000000000000000006001600160a01b031663992642e56040518163ffffffff1660e01b8152600401602060405180830381865afa1580156119b5573d6000803e3d6000fd5b505050506040513d601f19601f820116820180604052508101906119d99190614b97565b6001600160a01b0316826001600160a01b031603611a395760405162461bcd60e51b815260206004820181905260248201527f37613831302063616e2774207472616e7366657220737461626c6520636f696e60448201526064016106d2565b6040516370a0823160e01b81523060048201526000906001600160a01b038416906370a0823190602401602060405180830381865afa158015611a80573d6000803e3d6000fd5b505050506040513d601f19601f82011682018060405250810190611aa49190614bea565b9050610f7a6001600160a01b0384168383613cc3565b60026064611ad1670de0b6b3a76400006001614c16565b611adb9190614c2d565b611ae59190614c2d565b81565b611b00600080516020614ea783398151915233611de4565b611b1c5760405162461bcd60e51b81526004016106d290614b54565b7f00000000000000000000000000000000000000000000000000000000000000006001600160a01b0316635c975abb6040518163ffffffff1660e01b8152600401602060405180830381865afa158015611b7a573d6000803e3d6000fd5b505050506040513d601f19601f82011682018060405250810190611b9e9190614bcd565b15611beb5760405162461bcd60e51b815260206004820152601d60248201527f63666134622054726f766520466163746f72792069732070617573656400000060448201526064016106d2565b6000611bf78383613d62565b9050611c9084847f00000000000000000000000000000000000000000000000000000000000000006001600160a01b031663992642e56040518163ffffffff1660e01b8152600401602060405180830381865afa158015611c5c573d6000803e3d6000fd5b505050506040513d601f19601f82011682018060405250810190611c809190614b97565b6001600160a01b03169190613cc3565b6003546005546001600160a01b037f00000000000000000000000000000000000000000000000000000000000000008116926379a71baf92911690611cd3613775565b6040516001600160e01b031960e086901b1681526001600160a01b039093166004840152602483019190915260448201526064810184905260840161081b565b611d2b600080516020614ea783398151915233611de4565b611d475760405162461bcd60e51b81526004016106d290614b54565b610765600080516020614ea7833981519152826139ec565b6000546001600160a01b03163314611db95760405162461bcd60e51b815260206004820181905260248201527f4f776e61626c653a2063616c6c6572206973206e6f7420746865206f776e657260448201526064016106d2565b611dc36000613ce2565b565b6000828152600260205260408120611ddd90836140e1565b9392505050565b60009182526001602090815260408084206001600160a01b0393909316845291905290205460ff1690565b611e27600080516020614ea783398151915233611de4565b611e435760405162461bcd60e51b81526004016106d290614b54565b60095460ff1615158115151461076557611e5b61330e565b506003546009805460ff1916831515179055604080516307452ffb60e31b815290516001600160a01b03928316926000927f000000000000000000000000000000000000000000000000000000000000000090911691633a297fd8916004808201926020929091908290030181865afa158015611edc573d6000803e3d6000fd5b505050506040513d601f19601f82011682018060405250810190611f009190614b97565b9050821561217457611f1e6001600160a01b03831682600019613884565b604051634b1c143560e01b81526001600160a01b03838116600483015260009190831690634b1c1435906024016020604051808303816000875af1158015611f6a573d6000803e3d6000fd5b505050506040513d601f19601f82011682018060405250810190611f8e9190614b97565b60405163095ea7b360e01b81529091506001600160a01b0382169063095ea7b390611fc190859060001990600401614bb4565b6020604051808303816000875af1158015611fe0573d6000803e3d6000fd5b505050506040513d601f19601f820116820180604052508101906120049190614bcd565b50600a80546001600160a01b038481166001600160a01b031992831617909255600b805484841692169190911790556040516370a0823160e01b81523060048201526000918516906370a0823190602401602060405180830381865afa158015612072573d6000803e3d6000fd5b505050506040513d601f19601f820116820180604052508101906120969190614bea565b905080156120ff576040516311f9fbc960e21b81526001600160a01b038416906347e7ef24906120cc9087908590600401614bb4565b600060405180830381600087803b1580156120e657600080fd5b505af11580156120fa573d6000803e3d6000fd5b505050505b60405163053342c960e11b81526001600160a01b038581166004830152841690630a66859290602401602060405180830381865afa158015612145573d6000803e3d6000fd5b505050506040513d601f19601f820116820180604052508101906121699190614bea565b600c5550610f7a9050565b6121896001600160a01b038316826000613884565b600b546040516370a0823160e01b81523060048201526000916001600160a01b0316906370a0823190602401602060405180830381865afa1580156121d2573d6000803e3d6000fd5b505050506040513d601f19601f820116820180604052508101906121f69190614bea565b9050801561226357600a5460405163f3fef3a360e01b81526001600160a01b039091169063f3fef3a3906122309086908590600401614bb4565b600060405180830381600087803b15801561224a57600080fd5b505af115801561225e573d6000803e3d6000fd5b505050505b50600a80546001600160a01b0319908116909155600b805490911690556000600c55505050565b600b546040516370a0823160e01b815230600482015260009182916001600160a01b03909116906370a0823190602401602060405180830381865afa1580156122d7573d6000803e3d6000fd5b505050506040513d601f19601f820116820180604052508101906122fb9190614bea565b600a5460035460405163053342c960e11b81526001600160a01b039182166004820152929350600092911690630a66859290602401602060405180830381865afa15801561234d573d6000803e3d6000fd5b505050506040513d601f19601f820116820180604052508101906123719190614bea565b600c549091506000906123849083614c03565b9050670de0b6b3a76400006123998285614c16565b6123a39190614c2d565b935050505090565b6064611adb670de0b6b3a76400006005614c16565b6123c861330e565b5060006005541161241b5760405162461bcd60e51b815260206004820152601c60248201527f65333762322064656274206d757374206265206774207468616e20300000000060448201526064016106d2565b60007f00000000000000000000000000000000000000000000000000000000000000006001600160a01b031663992642e56040518163ffffffff1660e01b8152600401602060405180830381865afa15801561247b573d6000803e3d6000fd5b505050506040513d601f19601f8201168201806040525081019061249f9190614b97565b60065490915083156124df576124c3816005546124bc9190614c03565b85906140ed565b93506124da6001600160a01b03831633308761329d565b6125b2565b6040516370a0823160e01b81523060048201526125609082906001600160a01b038516906370a0823190602401602060405180830381865afa158015612529573d6000803e3d6000fd5b505050506040513d601f19601f8201168201806040525081019061254d9190614bea565b6125579190614c03565b600554906140ed565b9350600084116125b25760405162461bcd60e51b815260206004820152601860248201527f653337623220696e73756666696369656e742066756e6473000000000000000060448201526064016106d2565b604051630852cd8d60e31b8152600481018590526001600160a01b038316906342966c6890602401600060405180830381600087803b1580156125f457600080fd5b505af1158015612608573d6000803e3d6000fd5b50505050836005600082825461261e9190614c03565b90915550506005548190036126a057604051630852cd8d60e31b8152600481018290526001600160a01b038316906342966c6890602401600060405180830381600087803b15801561266f57600080fd5b505af1158015612683573d6000803e3d6000fd5b5050505080846126939190614b41565b6000600581905560065593505b604051631bd6899160e31b815260048101859052600060248201527f00000000000000000000000000000000000000000000000000000000000000006001600160a01b03169063deb44c8890604401600060405180830381600087803b15801561270957600080fd5b505af115801561271d573d6000803e3d6000fd5b5050505061272a83613628565b6003546005546001600160a01b037f00000000000000000000000000000000000000000000000000000000000000008116926379a71baf9291169061276d613775565b6040516001600160e01b031960e086901b1681526001600160a01b039093166004840152602483019190915260448201526000606482015260840161081b565b60646127c2670de0b6b3a76400006001614c16565b6127cc9190614c2d565b611ae590600a614c16565b6064611adb670de0b6b3a76400006001614c16565b60007f00000000000000000000000000000000000000000000000000000000000000006001600160a01b031663938573956040518163ffffffff1660e01b8152600401602060405180830381865afa15801561284c573d6000803e3d6000fd5b505050506040513d601f19601f820116820180604052508101906128709190614b97565b60035460405163aa41911f60e01b81526001600160a01b03918216600482015291169063aa41911f906024015b602060405180830381865afa1580156128ba573d6000803e3d6000fd5b505050506040513d601f19601f8201168201806040525081019061109d9190614bea565b600080336001600160a01b037f000000000000000000000000000000000000000000000000000000000000000016146129595760405162461bcd60e51b815260206004820181905260248201527f3132313061206f6e6c792063616c6c61626c652066726f6d20666163746f727960448201526064016106d2565b612961613a30565b612969613775565b6129716127ec565b11156129bf5760405162461bcd60e51b815260206004820152601960248201527f653935376620544352206d75737420626520677465204d43520000000000000060448201526064016106d2565b6006547f00000000000000000000000000000000000000000000000000000000000000006001600160a01b031663992642e56040518163ffffffff1660e01b8152600401602060405180830381865afa158015612a20573d6000803e3d6000fd5b505050506040513d601f19601f82011682018060405250810190612a449190614b97565b6040516370a0823160e01b81523060048201526001600160a01b0391909116906370a0823190602401602060405180830381865afa158015612a8a573d6000803e3d6000fd5b505050506040513d601f19601f82011682018060405250810190612aae9190614bea565b612ab89190614c03565b91506001600160a01b03831615612ad957612ad1611120565b821115612ae4565b612ae1611120565b82145b612b305760405162461bcd60e51b815260206004820181905260248201527f653935376620616d6f756e7420213d206465627420616e64206e6f2068696e7460448201526064016106d2565b6000600360009054906101000a90046001600160a01b031690506000670de0b6b3a76400006004547f00000000000000000000000000000000000000000000000000000000000000006001600160a01b031663938573956040518163ffffffff1660e01b8152600401602060405180830381865afa158015612bb6573d6000803e3d6000fd5b505050506040513d601f19601f82011682018060405250810190612bda9190614b97565b6040516384ba3f6960e01b81526001600160a01b03868116600483015291909116906384ba3f6990602401602060405180830381865afa158015612c22573d6000803e3d6000fd5b505050506040513d601f19601f82011682018060405250810190612c469190614bea565b612c58670de0b6b3a764000088614c16565b612c629190614c2d565b612c6c9190614c16565b612c769190614c2d565b60095490915060ff1615612d7157600a5460405163053342c960e11b81526001600160a01b0384811660048301526000921690630a66859290602401602060405180830381865afa158015612ccf573d6000803e3d6000fd5b505050506040513d601f19601f82011682018060405250810190612cf39190614bea565b600454612d009084614c16565b612d0a9190614c2d565b600a5460405163f3fef3a360e01b81529192506001600160a01b03169063f3fef3a390612d3d9086908590600401614bb4565b600060405180830381600087803b158015612d5757600080fd5b505af1158015612d6b573d6000803e3d6000fd5b50505050505b612d856001600160a01b0383168783613cc3565b809250612d936000866123c0565b50509250929050565b600d546040516370a0823160e01b81523060048201526000916001600160a01b0316906370a082319060240161289d565b600354604051633770395560e21b81526001600160a01b039182166004820152600091829182917f0000000000000000000000000000000000000000000000000000000000000000169063ddc0e55490602401602060405180830381865afa158015612e3d573d6000803e3d6000fd5b505050506040513d601f19601f82011682018060405250810190612e619190614b97565b90506000816001600160a01b03166366501ae56040518163ffffffff1660e01b8152600401602060405180830381865afa158015612ea3573d6000803e3d6000fd5b505050506040513d601f19601f82011682018060405250810190612ec79190614bea565b9050612ed38282614103565b9350935050509091565b600081815260026020526040812061067690614291565b60008281526001602081905260409091200154612f118133613988565b610f7a838361327b565b600080612f26612dcd565b506003546040516370a0823160e01b815230600482015291925060009183916001600160a01b0316906370a0823190602401602060405180830381865afa158015612f75573d6000803e3d6000fd5b505050506040513d601f19601f82011682018060405250810190612f999190614bea565b612fa39190614b41565b60095490915060ff161561067657600b546040516370a0823160e01b81523060048201526000916001600160a01b0316906370a0823190602401602060405180830381865afa158015612ffa573d6000803e3d6000fd5b505050506040513d601f19601f8201168201806040525081019061301e9190614bea565b600a5460035460405163053342c960e11b81526001600160a01b039182166004820152929350600092911690630a66859290602401602060405180830381865afa158015613070573d6000803e3d6000fd5b505050506040513d601f19601f820116820180604052508101906130949190614bea565b9050670de0b6b3a76400006130a98284614c16565b6130b39190614c2d565b6130bd9084614b41565b94505050505090565b6000806130d161067c565b905080156130fe57806130e2610f7f565b6130f490670de0b6b3a7640000614c16565b6106989190614c2d565b60001991505090565b6131108161429b565b6000613129600080516020614ea7833981519152612edd565b90505b801561316a57613158600080516020614ea7833981519152613153816104cc600186614c03565b61327b565b8061316281614d65565b91505061312c565b50610765817f0000000000000000000000000000000000000000000000000000000000000000613d32565b6131ad600080516020614ea783398151915233611de4565b6131c95760405162461bcd60e51b81526004016106d290614b54565b6131d1612d9c565b81111561322f5760405162461bcd60e51b815260206004820152602660248201527f65366337643720776974686472617720616d6f756e7420657863656564732062604482015265616c616e636560d01b60648201526084016106d2565b600d54610765906001600160a01b03163383613cc3565b60006001600160e01b03198216637965db0b60e01b148061067657506301ffc9a760e01b6001600160e01b0319831614610676565b6132858282614363565b6000828152600260205260409020610f7a90826143ca565b6040516001600160a01b03808516602483015283166044820152606481018290526133089085906323b872dd60e01b906084015b60408051601f198184030181529190526020810180516001600160e01b03166001600160e01b0319909316929092179091526143df565b50505050565b6000613318613a30565b6007546003546009546001600160a01b039091169060009060ff16156134f5576040516370a0823160e01b81523060048201526000906001600160a01b038416906370a0823190602401602060405180830381865afa15801561337f573d6000803e3d6000fd5b505050506040513d601f19601f820116820180604052508101906133a39190614bea565b9050801561341057600a546040516311f9fbc960e21b81526001600160a01b03909116906347e7ef24906133dd9086908590600401614bb4565b600060405180830381600087803b1580156133f757600080fd5b505af115801561340b573d6000803e3d6000fd5b505050505b600b546040516370a0823160e01b81523060048201526001600160a01b03909116906370a0823190602401602060405180830381865afa158015613458573d6000803e3d6000fd5b505050506040513d601f19601f8201168201806040525081019061347c9190614bea565b600a5460405163053342c960e11b81526001600160a01b038681166004830152929450911690630a66859290602401602060405180830381865afa1580156134c8573d6000803e3d6000fd5b505050506040513d601f19601f820116820180604052508101906134ec9190614bea565b600c5550613560565b6040516370a0823160e01b81523060048201526001600160a01b038316906370a0823190602401602060405180830381865afa158015613539573d6000803e3d6000fd5b505050506040513d601f19601f8201168201806040525081019061355d9190614bea565b90505b6007819055828114611ddd576001600160a01b037f000000000000000000000000000000000000000000000000000000000000000016636757634d836135a684876140ed565b6135b085886144b1565b6135ba9190614c03565b6040516001600160e01b031960e085901b1681526001600160a01b0390921660048301526024820152858410156044820152606401600060405180830381600087803b15801561360957600080fd5b505af115801561361d573d6000803e3d6000fd5b505050509392505050565b6136306127ec565b613638613775565b10156136865760405162461bcd60e51b815260206004820152601760248201527f343136373020544352206d757374206265203e204d435200000000000000000060448201526064016106d2565b6003546040516304b91f7360e51b81526001600160a01b0391821660048201819052916001917f000000000000000000000000000000000000000000000000000000000000000090911690639723ee6090602401602060405180830381865afa1580156136f7573d6000803e3d6000fd5b505050506040513d601f19601f8201168201806040525081019061371b9190614bea565b111561111c5760405162037da560e31b81526001600160a01b03828116600483015283811660248301527f00000000000000000000000000000000000000000000000000000000000000001690621bed2890604401610f1d565b6005546000901561387d576005547f00000000000000000000000000000000000000000000000000000000000000006001600160a01b031663938573956040518163ffffffff1660e01b8152600401602060405180830381865afa1580156137e1573d6000803e3d6000fd5b505050506040513d601f19601f820116820180604052508101906138059190614b97565b6003546040516384ba3f6960e01b81526001600160a01b0391821660048201529116906384ba3f6990602401602060405180830381865afa15801561384e573d6000803e3d6000fd5b505050506040513d601f19601f820116820180604052508101906138729190614bea565b611089600754613a0e565b5060001990565b8015806138fe5750604051636eb1769f60e11b81523060048201526001600160a01b03838116602483015284169063dd62ed3e90604401602060405180830381865afa1580156138d8573d6000803e3d6000fd5b505050506040513d601f19601f820116820180604052508101906138fc9190614bea565b155b6139695760405162461bcd60e51b815260206004820152603660248201527f5361666545524332303a20617070726f76652066726f6d206e6f6e2d7a65726f60448201527520746f206e6f6e2d7a65726f20616c6c6f77616e636560501b60648201526084016106d2565b610f7a8363095ea7b360e01b84846040516024016132d1929190614bb4565b6139928282611de4565b61111c576139aa816001600160a01b031660146144c0565b6139b58360206144c0565b6040516020016139c6929190614da0565b60408051601f198184030181529082905262461bcd60e51b82526106d291600401614e15565b6139f6828261465c565b6000828152600260205260409020610f7a90826146c7565b600454600090613a26670de0b6b3a764000084614c16565b6106769190614c2d565b600354604051633770395560e21b81526001600160a01b0391821660048201819052916000917f00000000000000000000000000000000000000000000000000000000000000009091169063ddc0e55490602401602060405180830381865afa158015613aa1573d6000803e3d6000fd5b505050506040513d601f19601f82011682018060405250810190613ac59190614b97565b90506000816001600160a01b03166366501ae56040518163ffffffff1660e01b8152600401602060405180830381865afa158015613b07573d6000803e3d6000fd5b505050506040513d601f19601f82011682018060405250810190613b2b9190614bea565b9050600080613b3a8484614103565b90925090508115613cbc57604051631fc6e79760e31b815260048101839052602481018290526001600160a01b0385169063fe373cb890604401600060405180830381600087803b158015613b8e57600080fd5b505af1158015613ba2573d6000803e3d6000fd5b505050508160076000828254613bb89190614b41565b925050819055508060056000828254613bd19190614b41565b9091555050600883905560095460ff1615613cbc57600a546040516311f9fbc960e21b81526001600160a01b03909116906347e7ef2490613c189088908690600401614bb4565b600060405180830381600087803b158015613c3257600080fd5b505af1158015613c46573d6000803e3d6000fd5b5050600a5460405163053342c960e11b81526001600160a01b0389811660048301529091169250630a6685929150602401602060405180830381865afa158015613c94573d6000803e3d6000fd5b505050506040513d601f19601f82011682018060405250810190613cb89190614bea565b600c555b5050505050565b610f7a8363a9059cbb60e01b84846040516024016132d1929190614bb4565b600080546001600160a01b038381166001600160a01b0319831681178455604051919092169283917f8be0079c531659141344cd1fd0a4f28419497f9722a3daafe3b4186f6b6457e09190a35050565b613d4a600080516020614ea7833981519152836139ec565b61111c600080516020614ea7833981519152826139ec565b6000670de0b6b3a7640000831015613dbc5760405162461bcd60e51b815260206004820152601f60248201527f636232396320616d6f756e74206d757374206265206774203120746f6b656e0060448201526064016106d2565b613dc461330e565b5060007f00000000000000000000000000000000000000000000000000000000000000006001600160a01b031663469048406040518163ffffffff1660e01b8152600401602060405180830381865afa158015613e25573d6000803e3d6000fd5b505050506040513d601f19601f82011682018060405250810190613e499190614b97565b604051630631203b60e41b8152600481018690529091506001600160a01b0382169063631203b090602401602060405180830381865afa158015613e91573d6000803e3d6000fd5b505050506040513d601f19601f82011682018060405250810190613eb59190614bea565b91506000613ec38386614b41565b9050600654600003613eea57670de0b6b3a76400006006819055613ee79082614b41565b90505b8060056000828254613efc9190614b41565b90915550613f0b905084613628565b7f00000000000000000000000000000000000000000000000000000000000000006001600160a01b031663a3e676106040518163ffffffff1660e01b8152600401602060405180830381865afa158015613f69573d6000803e3d6000fd5b505050506040513d601f19601f82011682018060405250810190613f8d9190614b97565b6001600160a01b03166340c10f1930836040518363ffffffff1660e01b8152600401613fba929190614bb4565b600060405180830381600087803b158015613fd457600080fd5b505af1158015613fe8573d6000803e3d6000fd5b505060405163cbb9435960e01b8152600481018690526001600160a01b038516925063cbb9435991506024016020604051808303816000875af1158015614033573d6000803e3d6000fd5b505050506040513d601f19601f820116820180604052508101906140579190614bcd565b50604051631bd6899160e31b815260048101829052600160248201527f00000000000000000000000000000000000000000000000000000000000000006001600160a01b03169063deb44c8890604401600060405180830381600087803b1580156140c157600080fd5b505af11580156140d5573d6000803e3d6000fd5b50505050505092915050565b6000611ddd83836146dc565b60008183106140fc5781611ddd565b5090919050565b6008546000908190818082861115614285576000876001600160a01b031663d8dfeb456040518163ffffffff1660e01b8152600401602060405180830381865afa158015614155573d6000803e3d6000fd5b505050506040513d601f19601f820116820180604052508101906141799190614bea565b905080156142835760075480856141908a83614c16565b61419a9190614c2d565b6141a49190614c03565b9350886001600160a01b031663d8dfeb456040518163ffffffff1660e01b8152600401602060405180830381865afa1580156141e4573d6000803e3d6000fd5b505050506040513d601f19601f820116820180604052508101906142089190614bea565b848a6001600160a01b0316630dca59c16040518163ffffffff1660e01b8152600401602060405180830381865afa158015614247573d6000803e3d6000fd5b505050506040513d601f19601f8201168201806040525081019061426b9190614bea565b6142759190614c16565b61427f9190614c2d565b9250505b505b90969095509350505050565b6000610676825490565b6000546001600160a01b031633146142f55760405162461bcd60e51b815260206004820181905260248201527f4f776e61626c653a2063616c6c6572206973206e6f7420746865206f776e657260448201526064016106d2565b6001600160a01b03811661435a5760405162461bcd60e51b815260206004820152602660248201527f4f776e61626c653a206e6577206f776e657220697320746865207a65726f206160448201526564647265737360d01b60648201526084016106d2565b61076581613ce2565b61436d8282611de4565b1561111c5760008281526001602090815260408083206001600160a01b0385168085529252808320805460ff1916905551339285917ff6391f5c32d9c69d2a47ea670b442974b53935d1edc7fd64eb21e047a839171b9190a45050565b6000611ddd836001600160a01b038416614706565b6000614434826040518060400160405280602081526020017f5361666545524332303a206c6f772d6c6576656c2063616c6c206661696c6564815250856001600160a01b03166147f99092919063ffffffff16565b805190915015610f7a57808060200190518101906144529190614bcd565b610f7a5760405162461bcd60e51b815260206004820152602a60248201527f5361666545524332303a204552433230206f7065726174696f6e20646964206e6044820152691bdd081cdd58d8d9595960b21b60648201526084016106d2565b60008183116140fc5781611ddd565b606060006144cf836002614c16565b6144da906002614b41565b67ffffffffffffffff8111156144f2576144f2614e48565b6040519080825280601f01601f19166020018201604052801561451c576020820181803683370190505b509050600360fc1b8160008151811061453757614537614e5e565b60200101906001600160f81b031916908160001a905350600f60fb1b8160018151811061456657614566614e5e565b60200101906001600160f81b031916908160001a905350600061458a846002614c16565b614595906001614b41565b90505b600181111561460d576f181899199a1a9b1b9c1cb0b131b232b360811b85600f16601081106145c9576145c9614e5e565b1a60f81b8282815181106145df576145df614e5e565b60200101906001600160f81b031916908160001a90535060049490941c9361460681614d65565b9050614598565b508315611ddd5760405162461bcd60e51b815260206004820181905260248201527f537472696e67733a20686578206c656e67746820696e73756666696369656e7460448201526064016106d2565b6146668282611de4565b61111c5760008281526001602081815260408084206001600160a01b0386168086529252808420805460ff19169093179092559051339285917f2f8788117e7eff1d82e926ec794901d17c78024a50270940304540a733656f0d9190a45050565b6000611ddd836001600160a01b038416614810565b60008260000182815481106146f3576146f3614e5e565b9060005260206000200154905092915050565b600081815260018301602052604081205480156147ef57600061472a600183614c03565b855490915060009061473e90600190614c03565b90508181146147a357600086600001828154811061475e5761475e614e5e565b906000526020600020015490508087600001848154811061478157614781614e5e565b6000918252602080832090910192909255918252600188019052604090208390555b85548690806147b4576147b4614e74565b600190038181906000526020600020016000905590558560010160008681526020019081526020016000206000905560019350505050610676565b6000915050610676565b6060614808848460008561485f565b949350505050565b600081815260018301602052604081205461485757508154600181810184556000848152602080822090930184905584548482528286019093526040902091909155610676565b506000610676565b6060824710156148c05760405162461bcd60e51b815260206004820152602660248201527f416464726573733a20696e73756666696369656e742062616c616e636520666f6044820152651c8818d85b1b60d21b60648201526084016106d2565b6001600160a01b0385163b6149175760405162461bcd60e51b815260206004820152601d60248201527f416464726573733a2063616c6c20746f206e6f6e2d636f6e747261637400000060448201526064016106d2565b600080866001600160a01b031685876040516149339190614e8a565b60006040518083038185875af1925050503d8060008114614970576040519150601f19603f3d011682016040523d82523d6000602084013e614975565b606091505b5091509150614985828286614990565b979650505050505050565b6060831561499f575081611ddd565b8251156149af5782518084602001fd5b8160405162461bcd60e51b81526004016106d29190614e15565b6000602082840312156149db57600080fd5b81356001600160e01b031981168114611ddd57600080fd5b6001600160a01b038116811461076557600080fd5b600060208284031215614a1a57600080fd5b8135611ddd816149f3565b60008060408385031215614a3857600080fd5b823591506020830135614a4a816149f3565b809150509250929050565b600060208284031215614a6757600080fd5b5035919050565b600080600060608486031215614a8357600080fd5b8335614a8e816149f3565b9250602084013591506040840135614aa5816149f3565b809150509250925092565b60008060408385031215614ac357600080fd5b8235614ace816149f3565b91506020830135614a4a816149f3565b60008060408385031215614af157600080fd5b50508035926020909101359150565b801515811461076557600080fd5b600060208284031215614b2057600080fd5b8135611ddd81614b00565b634e487b7160e01b600052601160045260246000fd5b8082018082111561067657610676614b2b565b60208082526023908201527f63666133622061646472657373206973206d697373696e67204f574e45525f526040820152624f4c4560e81b606082015260800190565b600060208284031215614ba957600080fd5b8151611ddd816149f3565b6001600160a01b03929092168252602082015260400190565b600060208284031215614bdf57600080fd5b8151611ddd81614b00565b600060208284031215614bfc57600080fd5b5051919050565b8181038181111561067657610676614b2b565b808202811582820484141761067657610676614b2b565b600082614c4a57634e487b7160e01b600052601260045260246000fd5b500490565b600060208284031215614c6157600080fd5b815160ff81168114611ddd57600080fd5b600181815b80851115614cad578160001904821115614c9357614c93614b2b565b80851615614ca057918102915b93841c9390800290614c77565b509250929050565b600082614cc457506001610676565b81614cd157506000610676565b8160018114614ce75760028114614cf157614d0d565b6001915050610676565b60ff841115614d0257614d02614b2b565b50506001821b610676565b5060208310610133831016604e8410600b8410161715614d30575081810a610676565b614d3a8383614c72565b8060001904821115614d4e57614d4e614b2b565b029392505050565b6000611ddd60ff841683614cb5565b600081614d7457614d74614b2b565b506000190190565b60005b83811015614d97578181015183820152602001614d7f565b50506000910152565b7f416363657373436f6e74726f6c3a206163636f756e7420000000000000000000815260008351614dd8816017850160208801614d7c565b7001034b99036b4b9b9b4b733903937b6329607d1b6017918401918201528351614e09816028840160208801614d7c565b01602801949350505050565b6020815260008251806020840152614e34816040850160208701614d7c565b601f01601f19169190910160400192915050565b634e487b7160e01b600052604160045260246000fd5b634e487b7160e01b600052603260045260246000fd5b634e487b7160e01b600052603160045260246000fd5b60008251614e9c818460208701614d7c565b919091019291505056feb19546dff01e856fb3f010c267a7b1c60363cf8a4664e21cc89c26224620214ea26469706673582212203836a2b2ba80553f03d073f0d366a46da9ae04327400289f6ca0e1ab3ea9ca6264736f6c63430008110033",
  "devdoc": {
    "kind": "dev",
    "methods": {
      "addOwner(address)": {
        "details": "add an address to the list of owners",
        "params": {
          "_newOwner": "the address of the new owner"
        }
      },
      "bonqStake()": {
        "details": "get amount of BONQ staked in the trove"
      },
      "borrow(address,uint256,address)": {
        "details": "mint some stable coins and pay the issuance fee. The transaction will fail if the resulting ICR < MCR",
        "params": {
          "_amount": "the value of the minting",
          "_newNextTrove": "is the trove that we think will be the next one in the list. This might be off in case there were some other list changing transactions",
          "_recipient": "is the address to which the newly minted tokens will be transferred"
        }
      },
      "collateral()": {
        "details": "this function will return the actual collateral (balance of the collateral token) including any liquidation rewards from community liquidation"
      },
      "collateralValue()": {
        "details": "the value of the collateral * the current price as returned by the price feed contract for the collateral token"
      },
      "collateralization()": {
        "details": "the Individual Collateralisation Ratio (ICR) of the trove"
      },
      "debt()": {
        "details": "this function will return the actual debt including any liquidation liabilities from community liquidation"
      },
      "decreaseCollateral(address,uint256,address)": {
        "details": "send some or all of the balance of the trove to an arbitrary address. Only the owner of the trove can do this as long as the debt is Zero, the transfer is performed without further checks. once the debt is not zero, the trove position in the trove list is changed to keep the list ordered by collateralisation ratio",
        "params": {
          "_amount": "amount of collateral",
          "_newNextTrove": "hint for next trove after reorder",
          "_recipient": "the address which will receive the tokens"
        }
      },
      "getRoleAdmin(bytes32)": {
        "details": "Returns the admin role that controls `role`. See {grantRole} and {revokeRole}. To change a role's admin, use {_setRoleAdmin}."
      },
      "getRoleMember(bytes32,uint256)": {
        "details": "Returns one of the accounts that have `role`. `index` must be a value between 0 and {getRoleMemberCount}, non-inclusive. Role bearers are not sorted in any particular way, and their ordering may change at any point. WARNING: When using {getRoleMember} and {getRoleMemberCount}, make sure you perform all queries on the same block. See the following https://forum.openzeppelin.com/t/iterating-over-elements-on-enumerableset-in-openzeppelin-contracts/2296[forum post] for more information."
      },
      "getRoleMemberCount(bytes32)": {
        "details": "Returns the number of accounts that have `role`. Can be used together with {getRoleMember} to enumerate all bearers of a role."
      },
      "grantRole(bytes32,address)": {
        "details": "Grants `role` to `account`. If `account` had not been already granted `role`, emits a {RoleGranted} event. Requirements: - the caller must have ``role``'s admin role."
      },
      "hasRole(bytes32,address)": {
        "details": "Returns `true` if `account` has been granted `role`."
      },
      "increaseCollateral(uint256,address)": {
        "details": "there are two options to increase the collateral: 1. transfer the tokens to the trove and call increaseCollateral with amount = 0 2. grant the trove permission to transfer from your account and call increaseCollateral with amount > 0",
        "params": {
          "_amount": "a positive amount to transfer from the sender's account or zero",
          "_newNextTrove": "once the trove is better collateralised, its position in the list will change, the caller should indicate the new position in order to reduce gas consumption"
        }
      },
      "liquidate()": {
        "details": "is called to liquidate the trove, if ICR < MCR then all the collateral is sent to the liquidation pool and the debt is forgiven the msg.sender is allowed to transfer the liquidation reserve out of the trove"
      },
      "mcr()": {
        "details": "the Minimum Collateralisation Ratio for this trove as set in the Token to Price Feed contract."
      },
      "netDebt()": {
        "details": "the net debt is the debt minus the liquidation reserve"
      },
      "redeem(address,address)": {
        "details": "is called to redeem StableCoin for token, called by factory when MCR > ICR, amount of StableCoin is taken from balance and must be <= netDebt. uses priceFeed to calculate collateral amount. returns amount of StableCoin used and collateral received",
        "params": {
          "_newNextTrove": "hint for next trove after reorder, if it's not full redemption",
          "_recipient": "the address which receives redeemed token"
        }
      },
      "removeOwner(address)": {
        "details": "add an address to the list of owners",
        "params": {
          "_ownerToRemove": "the address of the new owner"
        }
      },
      "renounceOwnership()": {
        "details": "Leaves the contract without owner. It will not be possible to call `onlyOwner` functions anymore. Can only be called by the current owner. NOTE: Renouncing ownership will leave the contract without an owner, thereby removing any functionality that is only available to the owner."
      },
      "renounceRole(bytes32,address)": {
        "details": "Revokes `role` from the calling account. Roles are often managed via {grantRole} and {revokeRole}: this function's purpose is to provide a mechanism for accounts to lose their privileges if they are compromised (such as when a trusted device is misplaced). If the calling account had been revoked `role`, emits a {RoleRevoked} event. Requirements: - the caller must be `account`."
      },
      "repay(uint256,address)": {
        "details": "repay a portion of the debt by either sending some stable coins to the trove or allowing the trove to take tokens out of your balance",
        "params": {
          "_amount": "the amount of stable coins to reduce the debt with",
          "_newNextTrove": "is the trove that we think will be the next one in the list. This might be off in case there were some other list changing transactions"
        }
      },
      "revokeRole(bytes32,address)": {
        "details": "Revokes `role` from `account`. If `account` had been granted `role`, emits a {RoleRevoked} event. Requirements: - the caller must have ``role``'s admin role."
      },
      "setArbitrageParticipation(bool)": {
        "details": "configuration function to enable or disable collateral participation in ArbitragePool",
        "params": {
          "_state": "true/false to turn the state on/off"
        }
      },
      "supportsInterface(bytes4)": {
        "details": "See {IERC165-supportsInterface}."
      },
      "transferOwnership(address)": {
        "details": "transfers user's trove ownership after revoking other roles from other addresses",
        "params": {
          "_newOwner": "the address of the new owner"
        }
      },
      "transferToken(address,address)": {
        "details": "security function to make sure that if tokens are sent to the trove by mistake, they're not lost. It will always send the entire balance This function can not be used to transfer the collateral token",
        "params": {
          "_recipient": "the address the transfer should go to",
          "_token": "the ERC20 to transfer"
        }
      },
      "unclaimedArbitrageReward()": {
        "details": "the reward in the liquidation pool which has not been claimed yet"
      },
      "unclaimedCollateralRewardAndDebt()": {
        "details": "the reward in the liquidation pool which has not been claimed yet"
      },
      "unstakeBONQ(uint256)": {
        "details": "withdraw some BONQ from trove",
        "params": {
          "_amount": "amount of BONQ"
        }
      }
    },
    "version": 1
  },
  "userdoc": {
    "kind": "user",
    "methods": {},
    "version": 1
  },
  "storageLayout": {
    "storage": [
      {
        "astId": 2054,
        "contract": "contracts/trove.sol:Trove",
        "label": "_owner",
        "offset": 0,
        "slot": "0",
        "type": "t_address"
      },
      {
        "astId": 2607,
        "contract": "contracts/trove.sol:Trove",
        "label": "_initialized",
        "offset": 20,
        "slot": "0",
        "type": "t_bool"
      },
      {
        "astId": 2610,
        "contract": "contracts/trove.sol:Trove",
        "label": "_initializing",
        "offset": 21,
        "slot": "0",
        "type": "t_bool"
      },
      {
        "astId": 1539,
        "contract": "contracts/trove.sol:Trove",
        "label": "_roles",
        "offset": 0,
        "slot": "1",
        "type": "t_mapping(t_bytes32,t_struct(RoleData)1534_storage)"
      },
      {
        "astId": 1842,
        "contract": "contracts/trove.sol:Trove",
        "label": "_roleMembers",
        "offset": 0,
        "slot": "2",
        "type": "t_mapping(t_bytes32,t_struct(AddressSet)4823_storage)"
      },
      {
        "astId": 16066,
        "contract": "contracts/trove.sol:Trove",
        "label": "token",
        "offset": 0,
        "slot": "3",
        "type": "t_contract(IERC20)3472"
      },
      {
        "astId": 16069,
        "contract": "contracts/trove.sol:Trove",
        "label": "TOKEN_PRECISION",
        "offset": 0,
        "slot": "4",
        "type": "t_uint256"
      },
      {
        "astId": 16071,
        "contract": "contracts/trove.sol:Trove",
        "label": "_debt",
        "offset": 0,
        "slot": "5",
        "type": "t_uint256"
      },
      {
        "astId": 16073,
        "contract": "contracts/trove.sol:Trove",
        "label": "liquidationReserve",
        "offset": 0,
        "slot": "6",
        "type": "t_uint256"
      },
      {
        "astId": 16076,
        "contract": "contracts/trove.sol:Trove",
        "label": "recordedCollateral",
        "offset": 0,
        "slot": "7",
        "type": "t_uint256"
      },
      {
        "astId": 16078,
        "contract": "contracts/trove.sol:Trove",
        "label": "liqTokenRateSnapshot",
        "offset": 0,
        "slot": "8",
        "type": "t_uint256"
      },
      {
        "astId": 16080,
        "contract": "contracts/trove.sol:Trove",
        "label": "arbitrageParticipation",
        "offset": 0,
        "slot": "9",
        "type": "t_bool"
      },
      {
        "astId": 16083,
        "contract": "contracts/trove.sol:Trove",
        "label": "arbitrageState",
        "offset": 0,
        "slot": "10",
        "type": "t_struct(ArbitrageState)16058_storage"
      },
      {
        "astId": 16086,
        "contract": "contracts/trove.sol:Trove",
        "label": "bonqToken",
        "offset": 0,
        "slot": "13",
        "type": "t_contract(IERC20)3472"
      }
    ],
    "types": {
      "t_address": {
        "encoding": "inplace",
        "label": "address",
        "numberOfBytes": "20"
      },
      "t_array(t_bytes32)dyn_storage": {
        "base": "t_bytes32",
        "encoding": "dynamic_array",
        "label": "bytes32[]",
        "numberOfBytes": "32"
      },
      "t_bool": {
        "encoding": "inplace",
        "label": "bool",
        "numberOfBytes": "1"
      },
      "t_bytes32": {
        "encoding": "inplace",
        "label": "bytes32",
        "numberOfBytes": "32"
      },
      "t_contract(IArbitragePool)7207": {
        "encoding": "inplace",
        "label": "contract IArbitragePool",
        "numberOfBytes": "20"
      },
      "t_contract(IERC20)3472": {
        "encoding": "inplace",
        "label": "contract IERC20",
        "numberOfBytes": "20"
      },
      "t_contract(IMintableToken)7364": {
        "encoding": "inplace",
        "label": "contract IMintableToken",
        "numberOfBytes": "20"
      },
      "t_mapping(t_address,t_bool)": {
        "encoding": "mapping",
        "key": "t_address",
        "label": "mapping(address => bool)",
        "numberOfBytes": "32",
        "value": "t_bool"
      },
      "t_mapping(t_bytes32,t_struct(AddressSet)4823_storage)": {
        "encoding": "mapping",
        "key": "t_bytes32",
        "label": "mapping(bytes32 => struct EnumerableSet.AddressSet)",
        "numberOfBytes": "32",
        "value": "t_struct(AddressSet)4823_storage"
      },
      "t_mapping(t_bytes32,t_struct(RoleData)1534_storage)": {
        "encoding": "mapping",
        "key": "t_bytes32",
        "label": "mapping(bytes32 => struct AccessControl.RoleData)",
        "numberOfBytes": "32",
        "value": "t_struct(RoleData)1534_storage"
      },
      "t_mapping(t_bytes32,t_uint256)": {
        "encoding": "mapping",
        "key": "t_bytes32",
        "label": "mapping(bytes32 => uint256)",
        "numberOfBytes": "32",
        "value": "t_uint256"
      },
      "t_struct(AddressSet)4823_storage": {
        "encoding": "inplace",
        "label": "struct EnumerableSet.AddressSet",
        "members": [
          {
            "astId": 4822,
            "contract": "contracts/trove.sol:Trove",
            "label": "_inner",
            "offset": 0,
            "slot": "0",
            "type": "t_struct(Set)4522_storage"
          }
        ],
        "numberOfBytes": "64"
      },
      "t_struct(ArbitrageState)16058_storage": {
        "encoding": "inplace",
        "label": "struct Trove.ArbitrageState",
        "members": [
          {
            "astId": 16052,
            "contract": "contracts/trove.sol:Trove",
            "label": "arbitragePool",
            "offset": 0,
            "slot": "0",
            "type": "t_contract(IArbitragePool)7207"
          },
          {
            "astId": 16055,
            "contract": "contracts/trove.sol:Trove",
            "label": "apToken",
            "offset": 0,
            "slot": "1",
            "type": "t_contract(IMintableToken)7364"
          },
          {
            "astId": 16057,
            "contract": "contracts/trove.sol:Trove",
            "label": "lastApPrice",
            "offset": 0,
            "slot": "2",
            "type": "t_uint256"
          }
        ],
        "numberOfBytes": "96"
      },
      "t_struct(RoleData)1534_storage": {
        "encoding": "inplace",
        "label": "struct AccessControl.RoleData",
        "members": [
          {
            "astId": 1531,
            "contract": "contracts/trove.sol:Trove",
            "label": "members",
            "offset": 0,
            "slot": "0",
            "type": "t_mapping(t_address,t_bool)"
          },
          {
            "astId": 1533,
            "contract": "contracts/trove.sol:Trove",
            "label": "adminRole",
            "offset": 0,
            "slot": "1",
            "type": "t_bytes32"
          }
        ],
        "numberOfBytes": "64"
      },
      "t_struct(Set)4522_storage": {
        "encoding": "inplace",
        "label": "struct EnumerableSet.Set",
        "members": [
          {
            "astId": 4517,
            "contract": "contracts/trove.sol:Trove",
            "label": "_values",
            "offset": 0,
            "slot": "0",
            "type": "t_array(t_bytes32)dyn_storage"
          },
          {
            "astId": 4521,
            "contract": "contracts/trove.sol:Trove",
            "label": "_indexes",
            "offset": 0,
            "slot": "1",
            "type": "t_mapping(t_bytes32,t_uint256)"
          }
        ],
        "numberOfBytes": "64"
      },
      "t_uint256": {
        "encoding": "inplace",
        "label": "uint256",
        "numberOfBytes": "32"
      }
    }
  }
}