{
  "address": "0xb21a37d52cAa444Ec1ED846BA31Fb1D2D4888Bc5",
  "abi": [
    {
      "inputs": [
        {
          "internalType": "address",
          "name": "_oracle",
          "type": "address"
        },
        {
          "internalType": "address",
          "name": "_token",
          "type": "address"
        }
      ],
      "stateMutability": "nonpayable",
      "type": "constructor"
    },
    {
      "anonymous": false,
      "inputs": [
        {
          "indexed": false,
          "internalType": "address",
          "name": "token",
          "type": "address"
        },
        {
          "indexed": false,
          "internalType": "uint256",
          "name": "price",
          "type": "uint256"
        },
        {
          "indexed": false,
          "internalType": "uint256",
          "name": "average",
          "type": "uint256"
        }
      ],
      "name": "PriceUpdate",
      "type": "event"
    },
    {
      "inputs": [],
      "name": "BORROWING_RATE",
      "outputs": [
        {
          "internalType": "uint256",
          "name": "",
          "type": "uint256"
        }
      ],
      "stateMutability": "view",
      "type": "function"
    },
    {
      "inputs": [],
      "name": "DECIMAL_PRECISION",
      "outputs": [
        {
          "internalType": "uint256",
          "name": "",
          "type": "uint256"
        }
      ],
      "stateMutability": "view",
      "type": "function"
    },
    {
      "inputs": [],
      "name": "LIQUIDATION_RESERVE",
      "outputs": [
        {
          "internalType": "uint256",
          "name": "",
          "type": "uint256"
        }
      ],
      "stateMutability": "view",
      "type": "function"
    },
    {
      "inputs": [],
      "name": "MAX_BORROWING_RATE",
      "outputs": [
        {
          "internalType": "uint256",
          "name": "",
          "type": "uint256"
        }
      ],
      "stateMutability": "view",
      "type": "function"
    },
    {
      "inputs": [],
      "name": "MAX_INT",
      "outputs": [
        {
          "internalType": "uint256",
          "name": "",
          "type": "uint256"
        }
      ],
      "stateMutability": "view",
      "type": "function"
    },
    {
      "inputs": [],
      "name": "PERCENT",
      "outputs": [
        {
          "internalType": "uint256",
          "name": "",
          "type": "uint256"
        }
      ],
      "stateMutability": "view",
      "type": "function"
    },
    {
      "inputs": [],
      "name": "PERCENT10",
      "outputs": [
        {
          "internalType": "uint256",
          "name": "",
          "type": "uint256"
        }
      ],
      "stateMutability": "view",
      "type": "function"
    },
    {
      "inputs": [],
      "name": "PERCENT_05",
      "outputs": [
        {
          "internalType": "uint256",
          "name": "",
          "type": "uint256"
        }
      ],
      "stateMutability": "view",
      "type": "function"
    },
    {
      "inputs": [],
      "name": "emitPriceSignal",
      "outputs": [],
      "stateMutability": "nonpayable",
      "type": "function"
    },
    {
      "inputs": [],
      "name": "oracle",
      "outputs": [
        {
          "internalType": "contract AggregatorV2V3Interface",
          "name": "",
          "type": "address"
        }
      ],
      "stateMutability": "view",
      "type": "function"
    },
    {
      "inputs": [],
      "name": "precision",
      "outputs": [
        {
          "internalType": "uint256",
          "name": "",
          "type": "uint256"
        }
      ],
      "stateMutability": "view",
      "type": "function"
    },
    {
      "inputs": [],
      "name": "price",
      "outputs": [
        {
          "internalType": "uint256",
          "name": "",
          "type": "uint256"
        }
      ],
      "stateMutability": "view",
      "type": "function"
    },
    {
      "inputs": [],
      "name": "pricePoint",
      "outputs": [
        {
          "internalType": "uint256",
          "name": "",
          "type": "uint256"
        }
      ],
      "stateMutability": "view",
      "type": "function"
    },
    {
      "inputs": [],
      "name": "token",
      "outputs": [
        {
          "internalType": "address",
          "name": "",
          "type": "address"
        }
      ],
      "stateMutability": "view",
      "type": "function"
    }
  ],
  "transactionHash": "0xe07bb6cfa2a8d322902010e480a02180a9104c79ee5b6e8edc8832c07b0fc546",
  "args": [
    "0x79614DabD3CED7c88c111379b31080794e013aaC",
    "0xb45C8730a08e3b4b354b0c2080d9313CCd0b6838"
  ],
  "numDeployments": 1,
  "solcInputHash": "dea2b32fd21416889096b7b2b54df7fd",
  "bytecode": "0x60e060405234801561001057600080fd5b5060405161080238038061080283398101604081905261002f9161020e565b6001600160a01b0382166100995760405162461bcd60e51b815260206004820152602660248201527f653236333762205f6f7261636c65206d757374206e6f7420626520616464726560448201526507373203078360d41b60648201526084015b60405180910390fd5b6001600160a01b0381166100fd5760405162461bcd60e51b815260206004820152602560248201527f653236333762205f746f6b656e206d757374206e6f7420626520616464726573604482015264073203078360dc1b6064820152608401610090565b6001600160a01b0380821660a052821660808190526040805163313ce56760e01b815290516000929163313ce5679160048083019260209291908290030181865afa158015610150573d6000803e3d6000fd5b505050506040513d601f19601f820116820180604052508101906101749190610241565b905060008160ff16116101db5760405162461bcd60e51b815260206004820152602960248201527f65323633376220646563696d616c73206d757374206265206120706f736974696044820152683b3290373ab6b132b960b91b6064820152608401610090565b6101e681600a610367565b60c05250610376915050565b80516001600160a01b038116811461020957600080fd5b919050565b6000806040838503121561022157600080fd5b61022a836101f2565b9150610238602084016101f2565b90509250929050565b60006020828403121561025357600080fd5b815160ff8116811461026457600080fd5b9392505050565b634e487b7160e01b600052601160045260246000fd5b600181815b808511156102bc5781600019048211156102a2576102a261026b565b808516156102af57918102915b93841c9390800290610286565b509250929050565b6000826102d357506001610361565b816102e057506000610361565b81600181146102f657600281146103005761031c565b6001915050610361565b60ff8411156103115761031161026b565b50506001821b610361565b5060208310610133831016604e8410600b841016171561033f575081810a610361565b6103498383610281565b806000190482111561035d5761035d61026b565b0290505b92915050565b600061026460ff8416836102c4565b60805160a05160c0516104486103ba6000396000818161019801526102220152600081816101bf0152610303015260008181610118015261024c01526104486000f3fe608060405234801561001057600080fd5b50600436106100ea5760003560e01c8063ab96f86a1161008c578063ad09014d11610066578063ad09014d14610183578063b85a8b201461018b578063d3b5dc3b14610193578063fc0c546a146101ba57600080fd5b8063ab96f86a14610171578063abdc55411461017b578063aceb2d041461010b57600080fd5b8063923c1eec116100c8578063923c1eec14610152578063a013991c14610161578063a035b1fe14610169578063a20baee61461015257600080fd5b8063098d3228146100ef578063517ef1d71461010b5780637dc0d1d014610113575b600080fd5b6100f860001981565b6040519081526020015b60405180910390f35b6100f86101e1565b61013a7f000000000000000000000000000000000000000000000000000000000000000081565b6040516001600160a01b039091168152602001610102565b6100f8670de0b6b3a764000081565b6100f861020f565b6100f861021e565b6101796102e0565b005b6100f861035c565b6100f8610371565b6100f861039b565b6100f87f000000000000000000000000000000000000000000000000000000000000000081565b61013a7f000000000000000000000000000000000000000000000000000000000000000081565b600260646101f8670de0b6b3a764000060016103ac565b61020291906103d7565b61020c91906103d7565b81565b600061021961021e565b905090565b60007f0000000000000000000000000000000000000000000000000000000000000000670de0b6b3a76400007f00000000000000000000000000000000000000000000000000000000000000006001600160a01b03166350d25bcd6040518163ffffffff1660e01b8152600401602060405180830381865afa1580156102a8573d6000803e3d6000fd5b505050506040513d601f19601f820116820180604052508101906102cc91906103f9565b6102d691906103ac565b61021991906103d7565b7fac7b695c6873047ad50339f850f4ae3f6b8f6ef63ed1a8b22f7d36a1c6bd46f37f000000000000000000000000000000000000000000000000000000000000000061032a61021e565b61033261021e565b604080516001600160a01b03909416845260208401929092529082015260600160405180910390a1565b6064610202670de0b6b3a764000060056103ac565b6064610386670de0b6b3a764000060016103ac565b61039091906103d7565b61020c90600a6103ac565b6064610202670de0b6b3a764000060015b80820281158282048414176103d157634e487b7160e01b600052601160045260246000fd5b92915050565b6000826103f457634e487b7160e01b600052601260045260246000fd5b500490565b60006020828403121561040b57600080fd5b505191905056fea26469706673582212204a04d0ff9c6cd75f360199caf9358b1a71593b5e4f4927f739e9518f87eb1a6a64736f6c63430008110033",
  "devdoc": {
    "kind": "dev",
    "methods": {},
    "version": 1
  },
  "userdoc": {
    "kind": "user",
    "methods": {},
    "version": 1
  },
  "storageLayout": {
    "storage": [],
    "types": null
  }
}