{
  "address": "0x79614DabD3CED7c88c111379b31080794e013aaC",
  "abi": [
    {
      "anonymous": false,
      "inputs": [
        {
          "indexed": true,
          "internalType": "int256",
          "name": "current",
          "type": "int256"
        },
        {
          "indexed": true,
          "internalType": "uint256",
          "name": "roundId",
          "type": "uint256"
        },
        {
          "indexed": false,
          "internalType": "uint256",
          "name": "updatedAt",
          "type": "uint256"
        }
      ],
      "name": "AnswerUpdated",
      "type": "event"
    },
    {
      "anonymous": false,
      "inputs": [
        {
          "indexed": true,
          "internalType": "uint256",
          "name": "roundId",
          "type": "uint256"
        },
        {
          "indexed": true,
          "internalType": "address",
          "name": "startedBy",
          "type": "address"
        },
        {
          "indexed": false,
          "internalType": "uint256",
          "name": "startedAt",
          "type": "uint256"
        }
      ],
      "name": "NewRound",
      "type": "event"
    },
    {
      "inputs": [],
      "name": "decimals",
      "outputs": [
        {
          "internalType": "uint8",
          "name": "",
          "type": "uint8"
        }
      ],
      "stateMutability": "view",
      "type": "function"
    },
    {
      "inputs": [],
      "name": "description",
      "outputs": [
        {
          "internalType": "string",
          "name": "",
          "type": "string"
        }
      ],
      "stateMutability": "view",
      "type": "function"
    },
    {
      "inputs": [
        {
          "internalType": "uint256",
          "name": "roundId",
          "type": "uint256"
        }
      ],
      "name": "getAnswer",
      "outputs": [
        {
          "internalType": "int256",
          "name": "",
          "type": "int256"
        }
      ],
      "stateMutability": "view",
      "type": "function"
    },
    {
      "inputs": [
        {
          "internalType": "uint80",
          "name": "_roundId",
          "type": "uint80"
        }
      ],
      "name": "getRoundData",
      "outputs": [
        {
          "internalType": "uint80",
          "name": "roundId",
          "type": "uint80"
        },
        {
          "internalType": "int256",
          "name": "answer",
          "type": "int256"
        },
        {
          "internalType": "uint256",
          "name": "startedAt",
          "type": "uint256"
        },
        {
          "internalType": "uint256",
          "name": "updatedAt",
          "type": "uint256"
        },
        {
          "internalType": "uint80",
          "name": "answeredInRound",
          "type": "uint80"
        }
      ],
      "stateMutability": "view",
      "type": "function"
    },
    {
      "inputs": [
        {
          "internalType": "uint256",
          "name": "roundId",
          "type": "uint256"
        }
      ],
      "name": "getTimestamp",
      "outputs": [
        {
          "internalType": "uint256",
          "name": "",
          "type": "uint256"
        }
      ],
      "stateMutability": "view",
      "type": "function"
    },
    {
      "inputs": [],
      "name": "latestAnswer",
      "outputs": [
        {
          "internalType": "int256",
          "name": "",
          "type": "int256"
        }
      ],
      "stateMutability": "view",
      "type": "function"
    },
    {
      "inputs": [],
      "name": "latestRound",
      "outputs": [
        {
          "internalType": "uint256",
          "name": "",
          "type": "uint256"
        }
      ],
      "stateMutability": "view",
      "type": "function"
    },
    {
      "inputs": [],
      "name": "latestRoundData",
      "outputs": [
        {
          "internalType": "uint80",
          "name": "roundId",
          "type": "uint80"
        },
        {
          "internalType": "int256",
          "name": "answer",
          "type": "int256"
        },
        {
          "internalType": "uint256",
          "name": "startedAt",
          "type": "uint256"
        },
        {
          "internalType": "uint256",
          "name": "updatedAt",
          "type": "uint256"
        },
        {
          "internalType": "uint80",
          "name": "answeredInRound",
          "type": "uint80"
        }
      ],
      "stateMutability": "view",
      "type": "function"
    },
    {
      "inputs": [],
      "name": "latestTimestamp",
      "outputs": [
        {
          "internalType": "uint256",
          "name": "",
          "type": "uint256"
        }
      ],
      "stateMutability": "view",
      "type": "function"
    },
    {
      "inputs": [],
      "name": "s_answer",
      "outputs": [
        {
          "internalType": "int256",
          "name": "",
          "type": "int256"
        }
      ],
      "stateMutability": "view",
      "type": "function"
    },
    {
      "inputs": [
        {
          "internalType": "uint8",
          "name": "_decimals",
          "type": "uint8"
        }
      ],
      "name": "setDecimals",
      "outputs": [],
      "stateMutability": "nonpayable",
      "type": "function"
    },
    {
      "inputs": [
        {
          "internalType": "int256",
          "name": "answer",
          "type": "int256"
        }
      ],
      "name": "setLatestAnswer",
      "outputs": [],
      "stateMutability": "nonpayable",
      "type": "function"
    },
    {
      "inputs": [],
      "name": "version",
      "outputs": [
        {
          "internalType": "uint256",
          "name": "",
          "type": "uint256"
        }
      ],
      "stateMutability": "view",
      "type": "function"
    }
  ],
  "transactionHash": "0x4fdd667d9b06ad7fa217c39bc46136f4127bb9ebacde0a636c0ca3835c922aea",
  "args": [],
  "numDeployments": 1,
  "solcInputHash": "dea2b32fd21416889096b7b2b54df7fd",
  "bytecode": "0x60c0604052601560809081527f546573742050726963652041676772656761746f72000000000000000000000060a05260029061003c90826100f3565b50600c60035534801561004e57600080fd5b506101b2565b634e487b7160e01b600052604160045260246000fd5b600181811c9082168061007e57607f821691505b60208210810361009e57634e487b7160e01b600052602260045260246000fd5b50919050565b601f8211156100ee57600081815260208120601f850160051c810160208610156100cb5750805b601f850160051c820191505b818110156100ea578281556001016100d7565b5050505b505050565b81516001600160401b0381111561010c5761010c610054565b6101208161011a845461006a565b846100a4565b602080601f831160018114610155576000841561013d5750858301515b600019600386901b1c1916600185901b1785556100ea565b600085815260208120601f198616915b8281101561018457888601518255948401946001909101908401610165565b50858210156101a25787850151600019600388901b60f8161c191681555b5050505050600190811b01905550565b6103f8806101c16000396000f3fe608060405234801561001057600080fd5b50600436106100cf5760003560e01c80637284e4161161008c5780639a6fc8f5116100665780639a6fc8f51461017a578063b5ab58dc146101c4578063b633620c146101d9578063feaf968c146101ec57600080fd5b80637284e4161461013b5780637a1395aa146101505780638205bf6a1461017457600080fd5b806304ea97b0146100d4578063305da2db146100e9578063313ce5671461010557806350d25bcd1461012457806354fd4d501461012c578063668a0f0214610135575b600080fd5b6100e76100e23660046102cb565b600055565b005b6100f260005481565b6040519081526020015b60405180910390f35b6001546101129060ff1681565b60405160ff90911681526020016100fc565b6000546100f2565b6100f260035481565b436100f2565b6101436101f4565b6040516100fc91906102e4565b6100e761015e366004610332565b6001805460ff191660ff92909216919091179055565b426100f2565b61018d61018836600461035c565b610282565b6040805169ffffffffffffffffffff968716815260208101959095528401929092526060830152909116608082015260a0016100fc565b6100f26101d23660046102cb565b5060005490565b6100f26101e73660046102cb565b504290565b61018d6102a8565b6002805461020190610388565b80601f016020809104026020016040519081016040528092919081815260200182805461022d90610388565b801561027a5780601f1061024f5761010080835404028352916020019161027a565b820191906000526020600020905b81548152906001019060200180831161025d57829003601f168201915b505050505081565b600080600080600061029360005490565b60019790965087955060029450859350915050565b60008060008060006102ba6001610282565b945094509450945094509091929394565b6000602082840312156102dd57600080fd5b5035919050565b600060208083528351808285015260005b81811015610311578581018301518582016040015282016102f5565b506000604082860101526040601f19601f8301168501019250505092915050565b60006020828403121561034457600080fd5b813560ff8116811461035557600080fd5b9392505050565b60006020828403121561036e57600080fd5b813569ffffffffffffffffffff8116811461035557600080fd5b600181811c9082168061039c57607f821691505b6020821081036103bc57634e487b7160e01b600052602260045260246000fd5b5091905056fea26469706673582212202e7d37bcc796d3b21dfeef9ad58102eb825ba542be0b8b375c62b7896934bc8164736f6c63430008110033",
  "devdoc": {
    "kind": "dev",
    "methods": {},
    "version": 1
  },
  "userdoc": {
    "kind": "user",
    "methods": {},
    "version": 1
  },
  "storageLayout": {
    "storage": [
      {
        "astId": 12565,
        "contract": "contracts/test/price-aggregator.sol:PriceAggregator",
        "label": "s_answer",
        "offset": 0,
        "slot": "0",
        "type": "t_int256"
      },
      {
        "astId": 12568,
        "contract": "contracts/test/price-aggregator.sol:PriceAggregator",
        "label": "decimals",
        "offset": 0,
        "slot": "1",
        "type": "t_uint8"
      },
      {
        "astId": 12572,
        "contract": "contracts/test/price-aggregator.sol:PriceAggregator",
        "label": "description",
        "offset": 0,
        "slot": "2",
        "type": "t_string_storage"
      },
      {
        "astId": 12576,
        "contract": "contracts/test/price-aggregator.sol:PriceAggregator",
        "label": "version",
        "offset": 0,
        "slot": "3",
        "type": "t_uint256"
      }
    ],
    "types": {
      "t_int256": {
        "encoding": "inplace",
        "label": "int256",
        "numberOfBytes": "32"
      },
      "t_string_storage": {
        "encoding": "bytes",
        "label": "string",
        "numberOfBytes": "32"
      },
      "t_uint256": {
        "encoding": "inplace",
        "label": "uint256",
        "numberOfBytes": "32"
      },
      "t_uint8": {
        "encoding": "inplace",
        "label": "uint8",
        "numberOfBytes": "1"
      }
    }
  }
}