{
  "address": "0xa1620Af6138D2754F7250299DC9024563bd1a5D6",
  "abi": [
    {
      "inputs": [
        {
          "internalType": "address",
          "name": "_oracle",
          "type": "address"
        },
        {
          "internalType": "address",
          "name": "_token",
          "type": "address"
        },
        {
          "internalType": "bytes32",
          "name": "_queryId",
          "type": "bytes32"
        }
      ],
      "stateMutability": "nonpayable",
      "type": "constructor"
    },
    {
      "anonymous": false,
      "inputs": [
        {
          "indexed": false,
          "internalType": "address",
          "name": "token",
          "type": "address"
        },
        {
          "indexed": false,
          "internalType": "uint256",
          "name": "price",
          "type": "uint256"
        },
        {
          "indexed": false,
          "internalType": "uint256",
          "name": "average",
          "type": "uint256"
        }
      ],
      "name": "PriceUpdate",
      "type": "event"
    },
    {
      "inputs": [],
      "name": "emitPriceSignal",
      "outputs": [],
      "stateMutability": "nonpayable",
      "type": "function"
    },
    {
      "inputs": [],
      "name": "oracle",
      "outputs": [
        {
          "internalType": "contract ITellorFeed",
          "name": "",
          "type": "address"
        }
      ],
      "stateMutability": "view",
      "type": "function"
    },
    {
      "inputs": [],
      "name": "price",
      "outputs": [
        {
          "internalType": "uint256",
          "name": "",
          "type": "uint256"
        }
      ],
      "stateMutability": "view",
      "type": "function"
    },
    {
      "inputs": [],
      "name": "pricePoint",
      "outputs": [
        {
          "internalType": "uint256",
          "name": "",
          "type": "uint256"
        }
      ],
      "stateMutability": "view",
      "type": "function"
    },
    {
      "inputs": [],
      "name": "queryId",
      "outputs": [
        {
          "internalType": "bytes32",
          "name": "",
          "type": "bytes32"
        }
      ],
      "stateMutability": "view",
      "type": "function"
    },
    {
      "inputs": [],
      "name": "token",
      "outputs": [
        {
          "internalType": "address",
          "name": "",
          "type": "address"
        }
      ],
      "stateMutability": "view",
      "type": "function"
    }
  ],
  "transactionHash": "0xd24188e40b0ec49ba75837183503a219ad84737049cedfe83cf4b5c5ab34be55",
  "args": [
    "0x8f55D884CAD66B79e1a131f6bCB0e66f4fD84d5B",
    "0x35b2ECE5B1eD6a7a99b83508F8ceEAB8661E0632",
    "0x12906c5e9178631dba86f1f750f7ab7451c61e6357160eb890029b9eac1fb235"
  ],
  "numDeployments": 1,
  "solcInputHash": "bf3d4309507180ad8123e30dbce5d19e",
  "bytecode": "0x60e060405234801561001057600080fd5b5060405161055738038061055783398101604081905261002f91610134565b6001600160a01b0383166100995760405162461bcd60e51b815260206004820152602660248201527f653236333762205f6f7261636c65206d757374206e6f7420626520616464726560448201526507373203078360d41b60648201526084015b60405180910390fd5b6001600160a01b0382166100fd5760405162461bcd60e51b815260206004820152602560248201527f653236333762205f746f6b656e206d757374206e6f7420626520616464726573604482015264073203078360dc1b6064820152608401610090565b6001600160a01b0391821660a052911660805260c052610170565b80516001600160a01b038116811461012f57600080fd5b919050565b60008060006060848603121561014957600080fd5b61015284610118565b925061016060208501610118565b9150604084015190509250925092565b60805160a05160c0516103a66101b160003960008181606c015261013f01526000818160ff015261021001526000818160a6015261016801526103a66000f3fe608060405234801561001057600080fd5b50600436106100625760003560e01c80633f1be4d4146100675780637dc0d1d0146100a1578063a013991c146100e0578063a035b1fe146100e8578063ab96f86a146100f0578063fc0c546a146100fa575b600080fd5b61008e7f000000000000000000000000000000000000000000000000000000000000000081565b6040519081526020015b60405180910390f35b6100c87f000000000000000000000000000000000000000000000000000000000000000081565b6040516001600160a01b039091168152602001610098565b61008e610121565b61008e610130565b6100f86101ed565b005b6100c87f000000000000000000000000000000000000000000000000000000000000000081565b600061012b610130565b905090565b60405163adf1639d60e01b81527f000000000000000000000000000000000000000000000000000000000000000060048201526000907f00000000000000000000000000000000000000000000000000000000000000006001600160a01b03169063adf1639d90602401600060405180830381865afa1580156101b7573d6000803e3d6000fd5b505050506040513d6000823e601f3d908101601f191682016040526101df919081019061027f565b6101e890610349565b919050565b7fac7b695c6873047ad50339f850f4ae3f6b8f6ef63ed1a8b22f7d36a1c6bd46f37f0000000000000000000000000000000000000000000000000000000000000000610237610130565b61023f610130565b604080516001600160a01b03909416845260208401929092529082015260600160405180910390a1565b634e487b7160e01b600052604160045260246000fd5b6000602080838503121561029257600080fd5b825167ffffffffffffffff808211156102aa57600080fd5b818501915085601f8301126102be57600080fd5b8151818111156102d0576102d0610269565b604051601f8201601f19908116603f011681019083821181831017156102f8576102f8610269565b81604052828152888684870101111561031057600080fd5b600093505b828410156103325784840186015181850187015292850192610315565b600086848301015280965050505050505092915050565b8051602080830151919081101561036a576000198160200360031b1b821691505b5091905056fea2646970667358221220e9fe65ad3dace6411dc505b4273ed0ebdfee29bc379dc1b19a67cd6b2c41074364736f6c63430008110033",
  "devdoc": {
    "kind": "dev",
    "methods": {},
    "version": 1
  },
  "userdoc": {
    "kind": "user",
    "methods": {},
    "version": 1
  },
  "storageLayout": {
    "storage": [],
    "types": null
  }
}