{
  "address": "0xEeC2266a0ea9d1970Fe692273839dBBB6A9AE598",
  "abi": [
    {
      "inputs": [
        {
          "internalType": "address",
          "name": "_factory",
          "type": "address"
        },
        {
          "internalType": "address",
          "name": "_token",
          "type": "address"
        }
      ],
      "stateMutability": "nonpayable",
      "type": "constructor"
    },
    {
      "inputs": [],
      "name": "BORROWING_RATE",
      "outputs": [
        {
          "internalType": "uint256",
          "name": "",
          "type": "uint256"
        }
      ],
      "stateMutability": "view",
      "type": "function"
    },
    {
      "inputs": [],
      "name": "DECIMAL_PRECISION",
      "outputs": [
        {
          "internalType": "uint256",
          "name": "",
          "type": "uint256"
        }
      ],
      "stateMutability": "view",
      "type": "function"
    },
    {
      "inputs": [],
      "name": "LIQUIDATION_RESERVE",
      "outputs": [
        {
          "internalType": "uint256",
          "name": "",
          "type": "uint256"
        }
      ],
      "stateMutability": "view",
      "type": "function"
    },
    {
      "inputs": [],
      "name": "MAX_BORROWING_RATE",
      "outputs": [
        {
          "internalType": "uint256",
          "name": "",
          "type": "uint256"
        }
      ],
      "stateMutability": "view",
      "type": "function"
    },
    {
      "inputs": [],
      "name": "MAX_INT",
      "outputs": [
        {
          "internalType": "uint256",
          "name": "",
          "type": "uint256"
        }
      ],
      "stateMutability": "view",
      "type": "function"
    },
    {
      "inputs": [],
      "name": "PERCENT",
      "outputs": [
        {
          "internalType": "uint256",
          "name": "",
          "type": "uint256"
        }
      ],
      "stateMutability": "view",
      "type": "function"
    },
    {
      "inputs": [],
      "name": "PERCENT10",
      "outputs": [
        {
          "internalType": "uint256",
          "name": "",
          "type": "uint256"
        }
      ],
      "stateMutability": "view",
      "type": "function"
    },
    {
      "inputs": [],
      "name": "PERCENT_05",
      "outputs": [
        {
          "internalType": "uint256",
          "name": "",
          "type": "uint256"
        }
      ],
      "stateMutability": "view",
      "type": "function"
    },
    {
      "inputs": [
        {
          "internalType": "address",
          "name": "_trove",
          "type": "address"
        }
      ],
      "name": "approveTrove",
      "outputs": [],
      "stateMutability": "nonpayable",
      "type": "function"
    },
    {
      "inputs": [
        {
          "internalType": "uint256",
          "name": "_unclaimedCollateral",
          "type": "uint256"
        },
        {
          "internalType": "uint256",
          "name": "_unclaimedDebt",
          "type": "uint256"
        }
      ],
      "name": "claimCollateralAndDebt",
      "outputs": [],
      "stateMutability": "nonpayable",
      "type": "function"
    },
    {
      "inputs": [],
      "name": "collateral",
      "outputs": [
        {
          "internalType": "uint256",
          "name": "",
          "type": "uint256"
        }
      ],
      "stateMutability": "view",
      "type": "function"
    },
    {
      "inputs": [],
      "name": "collateralToken",
      "outputs": [
        {
          "internalType": "contract IERC20",
          "name": "",
          "type": "address"
        }
      ],
      "stateMutability": "view",
      "type": "function"
    },
    {
      "inputs": [],
      "name": "debt",
      "outputs": [
        {
          "internalType": "uint256",
          "name": "",
          "type": "uint256"
        }
      ],
      "stateMutability": "view",
      "type": "function"
    },
    {
      "inputs": [],
      "name": "factory",
      "outputs": [
        {
          "internalType": "contract ITroveFactory",
          "name": "",
          "type": "address"
        }
      ],
      "stateMutability": "view",
      "type": "function"
    },
    {
      "inputs": [],
      "name": "liqTokenRate",
      "outputs": [
        {
          "internalType": "uint256",
          "name": "",
          "type": "uint256"
        }
      ],
      "stateMutability": "view",
      "type": "function"
    },
    {
      "inputs": [],
      "name": "liquidate",
      "outputs": [],
      "stateMutability": "nonpayable",
      "type": "function"
    },
    {
      "inputs": [
        {
          "internalType": "address",
          "name": "_trove",
          "type": "address"
        }
      ],
      "name": "unapproveTrove",
      "outputs": [],
      "stateMutability": "nonpayable",
      "type": "function"
    }
  ],
  "transactionHash": "0xeb1af655bd58afdc5024e03b1e0b0ab373bf28b23047e2ccec07d05b3413d330",
  "args": [
    "0x3bB7fFD08f46620beA3a9Ae7F096cF2b213768B3",
    "0x35b2ECE5B1eD6a7a99b83508F8ceEAB8661E0632"
  ],
  "numDeployments": 1,
  "solcInputHash": "bf3d4309507180ad8123e30dbce5d19e",
  "bytecode": "0x60c0604052670de0b6b3a764000060005534801561001c57600080fd5b5060405161101a38038061101a83398101604081905261003b916100de565b6001600160a01b0382161580159061005b57506001600160a01b03811615155b6100ab5760405162461bcd60e51b815260206004820152601860248201527f363531353166206e6f207a65726f206164647265737365730000000000000000604482015260640160405180910390fd5b6001600160a01b039182166080521660a052610111565b80516001600160a01b03811681146100d957600080fd5b919050565b600080604083850312156100f157600080fd5b6100fa836100c2565b9150610108602084016100c2565b90509250929050565b60805160a051610eac61016e6000396000818161019a0152818161022e015281816106df0152818161082f01526108c90152600081816101e10152818161025f015281816106390152818161078a01526108f90152610eac6000f3fe608060405234801561001057600080fd5b506004361061010b5760003560e01c8063a20baee6116100a2578063b2016bd411610071578063b2016bd414610195578063b85a8b20146101d4578063c45a0155146101dc578063d8dfeb4514610203578063fe373cb81461020c57600080fd5b8063a20baee614610176578063abdc554114610185578063aceb2d0414610152578063ad09014d1461018d57600080fd5b8063517ef1d7116100de578063517ef1d71461015257806366501ae51461015a5780636a31b4ca14610163578063923c1eec1461017657600080fd5b8063098d3228146101105780630dca59c11461012c57806328a07025146101355780633f877ca41461013f575b600080fd5b61011960001981565b6040519081526020015b60405180910390f35b61011960025481565b61013d61021f565b005b61013d61014d366004610d02565b61062e565b610119610751565b61011960005481565b61013d610171366004610d02565b61077f565b610119670de0b6b3a764000081565b61011961085e565b610119610873565b6101bc7f000000000000000000000000000000000000000000000000000000000000000081565b6040516001600160a01b039091168152602001610123565b61011961089d565b6101bc7f000000000000000000000000000000000000000000000000000000000000000081565b61011960015481565b61013d61021a366004610d2b565b6108b2565b6040516304b91f7360e51b81527f00000000000000000000000000000000000000000000000000000000000000006001600160a01b0381811660048401527f000000000000000000000000000000000000000000000000000000000000000092600191841690639723ee6090602401602060405180830381865afa1580156102ab573d6000803e3d6000fd5b505050506040513d601f19601f820116820180604052508101906102cf9190610d4d565b116103345760405162461bcd60e51b815260206004820152602a60248201527f633065333520746865206c6173742074726f76652063616e206e6f74206265206044820152691b1a5c5d5a59185d195960b21b60648201526084015b60405180910390fd5b6040516359eaf06760e11b81526001600160a01b03828116600483015233602483015283169063b3d5e0ce90604401602060405180830381865afa158015610380573d6000803e3d6000fd5b505050506040513d601f19601f820116820180604052508101906103a49190610d66565b6104005760405162461bcd60e51b815260206004820152602760248201527f6330653335206d7573742062652063616c6c65642066726f6d20612076616c69604482015266642074726f766560c81b606482015260840161032b565b60003390506000816001600160a01b031663673a1ac26040518163ffffffff1660e01b8152600401602060405180830381865afa158015610445573d6000803e3d6000fd5b505050506040513d601f19601f820116820180604052508101906104699190610d4d565b9050806001600082825461047d9190610d9e565b92505081905550816001600160a01b0316630dca59c16040518163ffffffff1660e01b8152600401602060405180830381865afa1580156104c2573d6000803e3d6000fd5b505050506040513d601f19601f820116820180604052508101906104e69190610d4d565b600260008282546104f79190610d9e565b9091555050604051633f02cd9160e11b81526001600160a01b03848116600483015260009190861690637e059b2290602401602060405180830381865afa158015610546573d6000803e3d6000fd5b505050506040513d601f19601f8201168201806040525081019061056a9190610d4d565b90506105768282610db7565b6000546105839084610dca565b61058d9190610de1565b60008082825461059d9190610d9e565b909155506105b890506001600160a01b038516333085610a0c565b6040516328a0e71b60e01b81526001600160a01b03858116600483015233602483015260006044830152606482018490528616906328a0e71b90608401600060405180830381600087803b15801561060f57600080fd5b505af1158015610623573d6000803e3d6000fd5b505050505050505050565b336001600160a01b037f000000000000000000000000000000000000000000000000000000000000000016146106b85760405162461bcd60e51b815260206004820152602960248201527f3162303233206f6e6c792074686520666163746f727920697320616c6c6f776560448201526819081d1bc818d85b1b60ba1b606482015260840161032b565b60405163095ea7b360e01b81526001600160a01b03828116600483015260001960248301527f0000000000000000000000000000000000000000000000000000000000000000169063095ea7b3906044015b6020604051808303816000875af1158015610729573d6000803e3d6000fd5b505050506040513d601f19601f8201168201806040525081019061074d9190610d66565b5050565b60026064610768670de0b6b3a76400006001610dca565b6107729190610de1565b61077c9190610de1565b81565b336001600160a01b037f000000000000000000000000000000000000000000000000000000000000000016146108095760405162461bcd60e51b815260206004820152602960248201527f6366656333206f6e6c792074686520666163746f727920697320616c6c6f776560448201526819081d1bc818d85b1b60ba1b606482015260840161032b565b60405163095ea7b360e01b81526001600160a01b038281166004830152600060248301527f0000000000000000000000000000000000000000000000000000000000000000169063095ea7b39060440161070a565b6064610772670de0b6b3a76400006005610dca565b6064610888670de0b6b3a76400006001610dca565b6108929190610de1565b61077c90600a610dca565b6064610772670de0b6b3a76400006001610dca565b6040516359eaf06760e11b81526001600160a01b037f00000000000000000000000000000000000000000000000000000000000000008181166004840152336024840152917f00000000000000000000000000000000000000000000000000000000000000009091169063b3d5e0ce90604401602060405180830381865afa158015610942573d6000803e3d6000fd5b505050506040513d601f19601f820116820180604052508101906109669190610d66565b6109c25760405162461bcd60e51b815260206004820152602760248201527f6330653331206d7573742062652063616c6c65642066726f6d20612076616c69604482015266642074726f766560c81b606482015260840161032b565b82600160008282546109d49190610db7565b9250508190555081600260008282546109ed9190610db7565b90915550610a0790506001600160a01b0382163385610a7d565b505050565b6040516001600160a01b0380851660248301528316604482015260648101829052610a779085906323b872dd60e01b906084015b60408051601f198184030181529190526020810180516001600160e01b03166001600160e01b031990931692909217909152610aad565b50505050565b6040516001600160a01b038316602482015260448101829052610a0790849063a9059cbb60e01b90606401610a40565b6000610b02826040518060400160405280602081526020017f5361666545524332303a206c6f772d6c6576656c2063616c6c206661696c6564815250856001600160a01b0316610b7f9092919063ffffffff16565b805190915015610a075780806020019051810190610b209190610d66565b610a075760405162461bcd60e51b815260206004820152602a60248201527f5361666545524332303a204552433230206f7065726174696f6e20646964206e6044820152691bdd081cdd58d8d9595960b21b606482015260840161032b565b6060610b8e8484600085610b98565b90505b9392505050565b606082471015610bf95760405162461bcd60e51b815260206004820152602660248201527f416464726573733a20696e73756666696369656e742062616c616e636520666f6044820152651c8818d85b1b60d21b606482015260840161032b565b6001600160a01b0385163b610c505760405162461bcd60e51b815260206004820152601d60248201527f416464726573733a2063616c6c20746f206e6f6e2d636f6e7472616374000000604482015260640161032b565b600080866001600160a01b03168587604051610c6c9190610e27565b60006040518083038185875af1925050503d8060008114610ca9576040519150601f19603f3d011682016040523d82523d6000602084013e610cae565b606091505b5091509150610cbe828286610cc9565b979650505050505050565b60608315610cd8575081610b91565b825115610ce85782518084602001fd5b8160405162461bcd60e51b815260040161032b9190610e43565b600060208284031215610d1457600080fd5b81356001600160a01b0381168114610b9157600080fd5b60008060408385031215610d3e57600080fd5b50508035926020909101359150565b600060208284031215610d5f57600080fd5b5051919050565b600060208284031215610d7857600080fd5b81518015158114610b9157600080fd5b634e487b7160e01b600052601160045260246000fd5b80820180821115610db157610db1610d88565b92915050565b81810381811115610db157610db1610d88565b8082028115828204841417610db157610db1610d88565b600082610dfe57634e487b7160e01b600052601260045260246000fd5b500490565b60005b83811015610e1e578181015183820152602001610e06565b50506000910152565b60008251610e39818460208701610e03565b9190910192915050565b6020815260008251806020840152610e62816040850160208701610e03565b601f01601f1916919091016040019291505056fea26469706673582212202b823b586de1c00211dac2f8139d2f461029473bdfb92d7bc6c666a3ca08253364736f6c63430008110033",
  "devdoc": {
    "kind": "dev",
    "methods": {
      "approveTrove(address)": {
        "details": "to approve trove, and let it liquidate itself further",
        "params": {
          "_trove": "address of the trove"
        }
      },
      "claimCollateralAndDebt(uint256,uint256)": {
        "details": "to transfer collateral and decrease collateral and debt in the pool",
        "params": {
          "_unclaimedCollateral": "unclaimed collateral calculated in the trove",
          "_unclaimedDebt": "the unclaimed debt calculated in the trove"
        }
      },
      "liquidate()": {
        "details": "liquidates the trove that called it"
      },
      "unapproveTrove(address)": {
        "details": "to unapprove trove, forbid it to liquidate itself further",
        "params": {
          "_trove": "address of the trove"
        }
      }
    },
    "title": "is used in case when stabilityPool is empty or not enough to liquidate trove",
    "version": 1
  },
  "userdoc": {
    "kind": "user",
    "methods": {},
    "version": 1
  },
  "storageLayout": {
    "storage": [
      {
        "astId": 7698,
        "contract": "contracts/community-liquidation-pool.sol:CommunityLiquidationPool",
        "label": "liqTokenRate",
        "offset": 0,
        "slot": "0",
        "type": "t_uint256"
      },
      {
        "astId": 7701,
        "contract": "contracts/community-liquidation-pool.sol:CommunityLiquidationPool",
        "label": "collateral",
        "offset": 0,
        "slot": "1",
        "type": "t_uint256"
      },
      {
        "astId": 7704,
        "contract": "contracts/community-liquidation-pool.sol:CommunityLiquidationPool",
        "label": "debt",
        "offset": 0,
        "slot": "2",
        "type": "t_uint256"
      }
    ],
    "types": {
      "t_uint256": {
        "encoding": "inplace",
        "label": "uint256",
        "numberOfBytes": "32"
      }
    }
  }
}