{
  "address": "0xaBb944b09481583C16306858253c81125A179185",
  "abi": [
    {
      "inputs": [
        {
          "internalType": "address",
          "name": "_vault",
          "type": "address"
        },
        {
          "internalType": "address",
          "name": "_priceFeed",
          "type": "address"
        }
      ],
      "stateMutability": "nonpayable",
      "type": "constructor"
    },
    {
      "anonymous": false,
      "inputs": [
        {
          "indexed": false,
          "internalType": "address",
          "name": "token",
          "type": "address"
        },
        {
          "indexed": false,
          "internalType": "uint256",
          "name": "price",
          "type": "uint256"
        },
        {
          "indexed": false,
          "internalType": "uint256",
          "name": "average",
          "type": "uint256"
        }
      ],
      "name": "PriceUpdate",
      "type": "event"
    },
    {
      "inputs": [],
      "name": "BORROWING_RATE",
      "outputs": [
        {
          "internalType": "uint256",
          "name": "",
          "type": "uint256"
        }
      ],
      "stateMutability": "view",
      "type": "function"
    },
    {
      "inputs": [],
      "name": "DECIMAL_PRECISION",
      "outputs": [
        {
          "internalType": "uint256",
          "name": "",
          "type": "uint256"
        }
      ],
      "stateMutability": "view",
      "type": "function"
    },
    {
      "inputs": [],
      "name": "LIQUIDATION_RESERVE",
      "outputs": [
        {
          "internalType": "uint256",
          "name": "",
          "type": "uint256"
        }
      ],
      "stateMutability": "view",
      "type": "function"
    },
    {
      "inputs": [],
      "name": "MAX_BORROWING_RATE",
      "outputs": [
        {
          "internalType": "uint256",
          "name": "",
          "type": "uint256"
        }
      ],
      "stateMutability": "view",
      "type": "function"
    },
    {
      "inputs": [],
      "name": "MAX_INT",
      "outputs": [
        {
          "internalType": "uint256",
          "name": "",
          "type": "uint256"
        }
      ],
      "stateMutability": "view",
      "type": "function"
    },
    {
      "inputs": [],
      "name": "PERCENT",
      "outputs": [
        {
          "internalType": "uint256",
          "name": "",
          "type": "uint256"
        }
      ],
      "stateMutability": "view",
      "type": "function"
    },
    {
      "inputs": [],
      "name": "PERCENT10",
      "outputs": [
        {
          "internalType": "uint256",
          "name": "",
          "type": "uint256"
        }
      ],
      "stateMutability": "view",
      "type": "function"
    },
    {
      "inputs": [],
      "name": "PERCENT_05",
      "outputs": [
        {
          "internalType": "uint256",
          "name": "",
          "type": "uint256"
        }
      ],
      "stateMutability": "view",
      "type": "function"
    },
    {
      "inputs": [],
      "name": "emitPriceSignal",
      "outputs": [],
      "stateMutability": "nonpayable",
      "type": "function"
    },
    {
      "inputs": [],
      "name": "isToken0",
      "outputs": [
        {
          "internalType": "bool",
          "name": "",
          "type": "bool"
        }
      ],
      "stateMutability": "view",
      "type": "function"
    },
    {
      "inputs": [],
      "name": "precision",
      "outputs": [
        {
          "internalType": "uint256",
          "name": "",
          "type": "uint256"
        }
      ],
      "stateMutability": "view",
      "type": "function"
    },
    {
      "inputs": [],
      "name": "price",
      "outputs": [
        {
          "internalType": "uint256",
          "name": "",
          "type": "uint256"
        }
      ],
      "stateMutability": "view",
      "type": "function"
    },
    {
      "inputs": [],
      "name": "priceFeed",
      "outputs": [
        {
          "internalType": "contract IPriceFeed",
          "name": "",
          "type": "address"
        }
      ],
      "stateMutability": "view",
      "type": "function"
    },
    {
      "inputs": [],
      "name": "pricePoint",
      "outputs": [
        {
          "internalType": "uint256",
          "name": "",
          "type": "uint256"
        }
      ],
      "stateMutability": "view",
      "type": "function"
    },
    {
      "inputs": [],
      "name": "token",
      "outputs": [
        {
          "internalType": "address",
          "name": "",
          "type": "address"
        }
      ],
      "stateMutability": "view",
      "type": "function"
    },
    {
      "inputs": [],
      "name": "vault",
      "outputs": [
        {
          "internalType": "contract IArrakisVault",
          "name": "",
          "type": "address"
        }
      ],
      "stateMutability": "view",
      "type": "function"
    }
  ],
  "transactionHash": "0x5ec08a6bf3fd5e108a36ff3870fbc18f434676fcfef5e62f20549896863ca7f4",
  "args": [
    "0x8B8533471920231Acca16104a0c81fA50D8C9a53",
    "0x686599c91F29F5CaD303cb4DB354458B23ea4eb1"
  ],
  "numDeployments": 1,
  "solcInputHash": "156c4eabd7f481204bd1d14bea565608",
  "bytecode": "0x6101206040523480156200001257600080fd5b5060405162000b0d38038062000b0d8339810160408190526200003591620002b9565b6001600160a01b0382166200009d5760405162461bcd60e51b8152602060048201526024808201527f653236333762207661756c74206d757374206e6f7420626520616464726573736044820152630203078360e41b60648201526084015b60405180910390fd5b6001600160a01b038116620001065760405162461bcd60e51b815260206004820152602860248201527f65323633376220707269636546656564206d757374206e6f7420626520616464604482015267072657373203078360c41b606482015260840162000094565b816001600160a01b03166080816001600160a01b0316815250506000816001600160a01b031663fc0c546a6040518163ffffffff1660e01b8152600401602060405180830381865afa15801562000161573d6000803e3d6000fd5b505050506040513d601f19601f82011682018060405250810190620001879190620002f1565b6001600160a01b0380851660a081905284821660c05260408051630dfe168160e01b81529051939450918416929091630dfe16819160048083019260209291908290030181865afa158015620001e1573d6000803e3d6000fd5b505050506040513d601f19601f82011682018060405250810190620002079190620002f1565b6001600160a01b031614151560e081151581525050806001600160a01b031663313ce5676040518163ffffffff1660e01b8152600401602060405180830381865afa1580156200025b573d6000803e3d6000fd5b505050506040513d601f19601f8201168201806040525081019062000281919062000316565b6200028e90600a62000450565b610100525062000461915050565b80516001600160a01b0381168114620002b457600080fd5b919050565b60008060408385031215620002cd57600080fd5b620002d8836200029c565b9150620002e8602084016200029c565b90509250929050565b6000602082840312156200030457600080fd5b6200030f826200029c565b9392505050565b6000602082840312156200032957600080fd5b815160ff811681146200030f57600080fd5b634e487b7160e01b600052601160045260246000fd5b600181815b80851115620003925781600019048211156200037657620003766200033b565b808516156200038457918102915b93841c939080029062000356565b509250929050565b600082620003ab575060016200044a565b81620003ba575060006200044a565b8160018114620003d35760028114620003de57620003fe565b60019150506200044a565b60ff841115620003f257620003f26200033b565b50506001821b6200044a565b5060208310610133831016604e8410600b841016171562000423575081810a6200044a565b6200042f838362000351565b80600019048211156200044657620004466200033b565b0290505b92915050565b60006200030f60ff8416836200039a565b60805160a05160c05160e0516101005161063d620004d0600039600081816101ae01526103a50152600081816101d501526103cf01526000818161012e015261041401526000818161023301526104d401526000818161020c01528181610297015261031e015261063d6000f3fe608060405234801561001057600080fd5b50600436106101005760003560e01c8063abdc554111610097578063d3b5dc3b11610066578063d3b5dc3b146101a9578063dcf93f32146101d0578063fbfa77cf14610207578063fc0c546a1461022e57600080fd5b8063abdc554114610191578063aceb2d0414610121578063ad09014d14610199578063b85a8b20146101a157600080fd5b8063a013991c116100d3578063a013991c14610177578063a035b1fe1461017f578063a20baee614610168578063ab96f86a1461018757600080fd5b8063098d322814610105578063517ef1d714610121578063741bef1a14610129578063923c1eec14610168575b600080fd5b61010e60001981565b6040519081526020015b60405180910390f35b61010e610255565b6101507f000000000000000000000000000000000000000000000000000000000000000081565b6040516001600160a01b039091168152602001610118565b61010e670de0b6b3a764000081565b61010e610283565b61010e610292565b61018f6104b1565b005b61010e61052d565b61010e610542565b61010e61056c565b61010e7f000000000000000000000000000000000000000000000000000000000000000081565b6101f77f000000000000000000000000000000000000000000000000000000000000000081565b6040519015158152602001610118565b6101507f000000000000000000000000000000000000000000000000000000000000000081565b6101507f000000000000000000000000000000000000000000000000000000000000000081565b6002606461026c670de0b6b3a7640000600161057d565b61027691906105a8565b61028091906105a8565b81565b600061028d610292565b905090565b6000807f00000000000000000000000000000000000000000000000000000000000000006001600160a01b03166318160ddd6040518163ffffffff1660e01b8152600401602060405180830381865afa1580156102f3573d6000803e3d6000fd5b505050506040513d601f19601f8201168201806040525081019061031791906105ca565b90506000807f00000000000000000000000000000000000000000000000000000000000000006001600160a01b0316631322d9546040518163ffffffff1660e01b81526004016040805180830381865afa158015610379573d6000803e3d6000fd5b505050506040513d601f19601f8201168201806040525081019061039d91906105e3565b9150915060007f0000000000000000000000000000000000000000000000000000000000000000670de0b6b3a76400007f00000000000000000000000000000000000000000000000000000000000000006103f857836103fa565b845b610404919061057d565b61040e91906105a8565b905083817f00000000000000000000000000000000000000000000000000000000000000006001600160a01b031663a035b1fe6040518163ffffffff1660e01b8152600401602060405180830381865afa158015610470573d6000803e3d6000fd5b505050506040513d601f19601f8201168201806040525081019061049491906105ca565b61049e919061057d565b6104a891906105a8565b94505050505090565b7fac7b695c6873047ad50339f850f4ae3f6b8f6ef63ed1a8b22f7d36a1c6bd46f37f00000000000000000000000000000000000000000000000000000000000000006104fb610292565b610503610292565b604080516001600160a01b03909416845260208401929092529082015260600160405180910390a1565b6064610276670de0b6b3a7640000600561057d565b6064610557670de0b6b3a7640000600161057d565b61056191906105a8565b61028090600a61057d565b6064610276670de0b6b3a764000060015b80820281158282048414176105a257634e487b7160e01b600052601160045260246000fd5b92915050565b6000826105c557634e487b7160e01b600052601260045260246000fd5b500490565b6000602082840312156105dc57600080fd5b5051919050565b600080604083850312156105f657600080fd5b50508051602090910151909290915056fea2646970667358221220b9e9f32a27c2c9f3bc45dc2ee3b458dc5528cb98eec785ecb682613975d4964d64736f6c63430008110033",
  "devdoc": {
    "kind": "dev",
    "methods": {},
    "version": 1
  },
  "userdoc": {
    "kind": "user",
    "methods": {},
    "version": 1
  },
  "storageLayout": {
    "storage": [],
    "types": null
  }
}