{
  "address": "0xE2056443d0a46a0cc7d8d691e234Ef9005Be0a25",
  "abi": [
    {
      "inputs": [],
      "stateMutability": "nonpayable",
      "type": "constructor"
    },
    {
      "anonymous": false,
      "inputs": [
        {
          "indexed": false,
          "internalType": "address",
          "name": "previousAdmin",
          "type": "address"
        },
        {
          "indexed": false,
          "internalType": "address",
          "name": "newAdmin",
          "type": "address"
        }
      ],
      "name": "AdminChanged",
      "type": "event"
    },
    {
      "anonymous": false,
      "inputs": [
        {
          "indexed": true,
          "internalType": "address",
          "name": "beacon",
          "type": "address"
        }
      ],
      "name": "BeaconUpgraded",
      "type": "event"
    },
    {
      "anonymous": false,
      "inputs": [
        {
          "indexed": false,
          "internalType": "address",
          "name": "_bonqTokenAddress",
          "type": "address"
        }
      ],
      "name": "BonqTokenAddressSet",
      "type": "event"
    },
    {
      "anonymous": false,
      "inputs": [
        {
          "indexed": false,
          "internalType": "address",
          "name": "_factoryAddress",
          "type": "address"
        }
      ],
      "name": "FactoryAddressSet",
      "type": "event"
    },
    {
      "anonymous": false,
      "inputs": [
        {
          "indexed": false,
          "internalType": "uint256",
          "name": "_amount",
          "type": "uint256"
        },
        {
          "indexed": false,
          "internalType": "uint256",
          "name": "_F_StableCoin",
          "type": "uint256"
        },
        {
          "indexed": false,
          "internalType": "bool",
          "name": "_redemptionFee",
          "type": "bool"
        }
      ],
      "name": "FeeTaken",
      "type": "event"
    },
    {
      "anonymous": false,
      "inputs": [
        {
          "indexed": false,
          "internalType": "uint8",
          "name": "version",
          "type": "uint8"
        }
      ],
      "name": "Initialized",
      "type": "event"
    },
    {
      "anonymous": false,
      "inputs": [
        {
          "indexed": true,
          "internalType": "address",
          "name": "previousOwner",
          "type": "address"
        },
        {
          "indexed": true,
          "internalType": "address",
          "name": "newOwner",
          "type": "address"
        }
      ],
      "name": "OwnershipTransferred",
      "type": "event"
    },
    {
      "anonymous": false,
      "inputs": [
        {
          "indexed": false,
          "internalType": "address",
          "name": "_account",
          "type": "address"
        },
        {
          "indexed": false,
          "internalType": "uint256",
          "name": "_stableAmount",
          "type": "uint256"
        },
        {
          "indexed": false,
          "internalType": "address",
          "name": "_troveAddress",
          "type": "address"
        }
      ],
      "name": "RewardRedeemed",
      "type": "event"
    },
    {
      "anonymous": false,
      "inputs": [
        {
          "indexed": false,
          "internalType": "address",
          "name": "_stableCoinAddress",
          "type": "address"
        }
      ],
      "name": "StableCoinAddressSet",
      "type": "event"
    },
    {
      "anonymous": false,
      "inputs": [
        {
          "indexed": true,
          "internalType": "address",
          "name": "_staker",
          "type": "address"
        },
        {
          "indexed": false,
          "internalType": "uint256",
          "name": "_newStake",
          "type": "uint256"
        }
      ],
      "name": "StakeChanged",
      "type": "event"
    },
    {
      "anonymous": false,
      "inputs": [
        {
          "indexed": false,
          "internalType": "address",
          "name": "_staker",
          "type": "address"
        },
        {
          "indexed": false,
          "internalType": "uint256",
          "name": "_F_StableCoin",
          "type": "uint256"
        },
        {
          "indexed": false,
          "internalType": "uint256",
          "name": "_stableGains",
          "type": "uint256"
        }
      ],
      "name": "StakerSnapshotsUpdated",
      "type": "event"
    },
    {
      "anonymous": false,
      "inputs": [
        {
          "indexed": false,
          "internalType": "uint256",
          "name": "_totalBONQStaked",
          "type": "uint256"
        }
      ],
      "name": "TotalBONQStakedUpdated",
      "type": "event"
    },
    {
      "anonymous": false,
      "inputs": [
        {
          "indexed": true,
          "internalType": "address",
          "name": "implementation",
          "type": "address"
        }
      ],
      "name": "Upgraded",
      "type": "event"
    },
    {
      "inputs": [],
      "name": "BORROWING_RATE",
      "outputs": [
        {
          "internalType": "uint256",
          "name": "",
          "type": "uint256"
        }
      ],
      "stateMutability": "view",
      "type": "function"
    },
    {
      "inputs": [],
      "name": "DECIMAL_PRECISION",
      "outputs": [
        {
          "internalType": "uint256",
          "name": "",
          "type": "uint256"
        }
      ],
      "stateMutability": "view",
      "type": "function"
    },
    {
      "inputs": [],
      "name": "F_StableCoin",
      "outputs": [
        {
          "internalType": "uint256",
          "name": "",
          "type": "uint256"
        }
      ],
      "stateMutability": "view",
      "type": "function"
    },
    {
      "inputs": [
        {
          "internalType": "address",
          "name": "",
          "type": "address"
        }
      ],
      "name": "F_StableCoinSnapshots",
      "outputs": [
        {
          "internalType": "uint256",
          "name": "",
          "type": "uint256"
        }
      ],
      "stateMutability": "view",
      "type": "function"
    },
    {
      "inputs": [],
      "name": "LIQUIDATION_RESERVE",
      "outputs": [
        {
          "internalType": "uint256",
          "name": "",
          "type": "uint256"
        }
      ],
      "stateMutability": "view",
      "type": "function"
    },
    {
      "inputs": [],
      "name": "MAX_BORROWING_RATE",
      "outputs": [
        {
          "internalType": "uint256",
          "name": "",
          "type": "uint256"
        }
      ],
      "stateMutability": "view",
      "type": "function"
    },
    {
      "inputs": [],
      "name": "MAX_INT",
      "outputs": [
        {
          "internalType": "uint256",
          "name": "",
          "type": "uint256"
        }
      ],
      "stateMutability": "view",
      "type": "function"
    },
    {
      "inputs": [],
      "name": "NAME",
      "outputs": [
        {
          "internalType": "string",
          "name": "",
          "type": "string"
        }
      ],
      "stateMutability": "view",
      "type": "function"
    },
    {
      "inputs": [],
      "name": "PERCENT",
      "outputs": [
        {
          "internalType": "uint256",
          "name": "",
          "type": "uint256"
        }
      ],
      "stateMutability": "view",
      "type": "function"
    },
    {
      "inputs": [],
      "name": "PERCENT10",
      "outputs": [
        {
          "internalType": "uint256",
          "name": "",
          "type": "uint256"
        }
      ],
      "stateMutability": "view",
      "type": "function"
    },
    {
      "inputs": [],
      "name": "PERCENT_05",
      "outputs": [
        {
          "internalType": "uint256",
          "name": "",
          "type": "uint256"
        }
      ],
      "stateMutability": "view",
      "type": "function"
    },
    {
      "inputs": [],
      "name": "alpha",
      "outputs": [
        {
          "internalType": "uint256",
          "name": "",
          "type": "uint256"
        }
      ],
      "stateMutability": "view",
      "type": "function"
    },
    {
      "inputs": [],
      "name": "baseRate",
      "outputs": [
        {
          "internalType": "uint256",
          "name": "",
          "type": "uint256"
        }
      ],
      "stateMutability": "view",
      "type": "function"
    },
    {
      "inputs": [],
      "name": "beta",
      "outputs": [
        {
          "internalType": "uint256",
          "name": "",
          "type": "uint256"
        }
      ],
      "stateMutability": "view",
      "type": "function"
    },
    {
      "inputs": [],
      "name": "bonqToken",
      "outputs": [
        {
          "internalType": "contract IERC20",
          "name": "",
          "type": "address"
        }
      ],
      "stateMutability": "view",
      "type": "function"
    },
    {
      "inputs": [
        {
          "internalType": "uint256",
          "name": "_currentBaseRate",
          "type": "uint256"
        }
      ],
      "name": "calcDecayedBaseRate",
      "outputs": [
        {
          "internalType": "uint256",
          "name": "",
          "type": "uint256"
        }
      ],
      "stateMutability": "view",
      "type": "function"
    },
    {
      "inputs": [],
      "name": "factory",
      "outputs": [
        {
          "internalType": "contract ITroveFactory",
          "name": "",
          "type": "address"
        }
      ],
      "stateMutability": "view",
      "type": "function"
    },
    {
      "inputs": [
        {
          "internalType": "uint256",
          "name": "_amount",
          "type": "uint256"
        }
      ],
      "name": "getBorrowingFee",
      "outputs": [
        {
          "internalType": "uint256",
          "name": "",
          "type": "uint256"
        }
      ],
      "stateMutability": "view",
      "type": "function"
    },
    {
      "inputs": [],
      "name": "getRewardsTotal",
      "outputs": [
        {
          "internalType": "uint256",
          "name": "",
          "type": "uint256"
        }
      ],
      "stateMutability": "view",
      "type": "function"
    },
    {
      "inputs": [
        {
          "internalType": "address",
          "name": "_user",
          "type": "address"
        }
      ],
      "name": "getUnpaidStableCoinGain",
      "outputs": [
        {
          "internalType": "uint256",
          "name": "",
          "type": "uint256"
        }
      ],
      "stateMutability": "view",
      "type": "function"
    },
    {
      "inputs": [
        {
          "internalType": "uint256",
          "name": "_increase",
          "type": "uint256"
        }
      ],
      "name": "increaseBaseRate",
      "outputs": [
        {
          "internalType": "uint256",
          "name": "",
          "type": "uint256"
        }
      ],
      "stateMutability": "nonpayable",
      "type": "function"
    },
    {
      "inputs": [
        {
          "internalType": "address",
          "name": "_bonqToken",
          "type": "address"
        }
      ],
      "name": "initialize",
      "outputs": [],
      "stateMutability": "nonpayable",
      "type": "function"
    },
    {
      "inputs": [],
      "name": "lastFeeOperationTime",
      "outputs": [
        {
          "internalType": "uint256",
          "name": "",
          "type": "uint256"
        }
      ],
      "stateMutability": "view",
      "type": "function"
    },
    {
      "inputs": [],
      "name": "maxFeeCollateralRatio",
      "outputs": [
        {
          "internalType": "uint256",
          "name": "",
          "type": "uint256"
        }
      ],
      "stateMutability": "view",
      "type": "function"
    },
    {
      "inputs": [],
      "name": "minuteDecayFactor",
      "outputs": [
        {
          "internalType": "uint256",
          "name": "",
          "type": "uint256"
        }
      ],
      "stateMutability": "view",
      "type": "function"
    },
    {
      "inputs": [],
      "name": "name",
      "outputs": [
        {
          "internalType": "string",
          "name": "",
          "type": "string"
        }
      ],
      "stateMutability": "view",
      "type": "function"
    },
    {
      "inputs": [],
      "name": "owner",
      "outputs": [
        {
          "internalType": "address",
          "name": "",
          "type": "address"
        }
      ],
      "stateMutability": "view",
      "type": "function"
    },
    {
      "inputs": [],
      "name": "proxiableUUID",
      "outputs": [
        {
          "internalType": "bytes32",
          "name": "",
          "type": "bytes32"
        }
      ],
      "stateMutability": "view",
      "type": "function"
    },
    {
      "inputs": [
        {
          "internalType": "uint256",
          "name": "_amount",
          "type": "uint256"
        },
        {
          "internalType": "address",
          "name": "_troveAddress",
          "type": "address"
        },
        {
          "internalType": "address",
          "name": "_newNextTrove",
          "type": "address"
        }
      ],
      "name": "redeemReward",
      "outputs": [],
      "stateMutability": "nonpayable",
      "type": "function"
    },
    {
      "inputs": [],
      "name": "renounceOwnership",
      "outputs": [],
      "stateMutability": "nonpayable",
      "type": "function"
    },
    {
      "inputs": [
        {
          "internalType": "uint256",
          "name": "_alpha",
          "type": "uint256"
        }
      ],
      "name": "setAlphaValue",
      "outputs": [],
      "stateMutability": "nonpayable",
      "type": "function"
    },
    {
      "inputs": [
        {
          "internalType": "uint256",
          "name": "_beta",
          "type": "uint256"
        }
      ],
      "name": "setBetaValue",
      "outputs": [],
      "stateMutability": "nonpayable",
      "type": "function"
    },
    {
      "inputs": [
        {
          "internalType": "address",
          "name": "_factoryAddress",
          "type": "address"
        }
      ],
      "name": "setFactory",
      "outputs": [],
      "stateMutability": "nonpayable",
      "type": "function"
    },
    {
      "inputs": [
        {
          "internalType": "uint256",
          "name": "_timestamp",
          "type": "uint256"
        }
      ],
      "name": "setInitialLastFee",
      "outputs": [],
      "stateMutability": "nonpayable",
      "type": "function"
    },
    {
      "inputs": [
        {
          "internalType": "uint256",
          "name": "_maxFeeCollateralRatio",
          "type": "uint256"
        }
      ],
      "name": "setMaxFeeCollateralRatio",
      "outputs": [],
      "stateMutability": "nonpayable",
      "type": "function"
    },
    {
      "inputs": [
        {
          "internalType": "uint256",
          "name": "_newMinuteDecayFactor",
          "type": "uint256"
        }
      ],
      "name": "setMinuteDecayFactor",
      "outputs": [],
      "stateMutability": "nonpayable",
      "type": "function"
    },
    {
      "inputs": [],
      "name": "stableCoin",
      "outputs": [
        {
          "internalType": "contract IERC20",
          "name": "",
          "type": "address"
        }
      ],
      "stateMutability": "view",
      "type": "function"
    },
    {
      "inputs": [
        {
          "internalType": "address",
          "name": "",
          "type": "address"
        }
      ],
      "name": "stableCoinUserGains",
      "outputs": [
        {
          "internalType": "uint256",
          "name": "",
          "type": "uint256"
        }
      ],
      "stateMutability": "view",
      "type": "function"
    },
    {
      "inputs": [
        {
          "internalType": "uint256",
          "name": "_bonqAmount",
          "type": "uint256"
        }
      ],
      "name": "stake",
      "outputs": [],
      "stateMutability": "nonpayable",
      "type": "function"
    },
    {
      "inputs": [
        {
          "internalType": "address",
          "name": "",
          "type": "address"
        }
      ],
      "name": "stakes",
      "outputs": [
        {
          "internalType": "uint256",
          "name": "",
          "type": "uint256"
        }
      ],
      "stateMutability": "view",
      "type": "function"
    },
    {
      "inputs": [
        {
          "internalType": "uint256",
          "name": "_amount",
          "type": "uint256"
        }
      ],
      "name": "takeFees",
      "outputs": [
        {
          "internalType": "bool",
          "name": "",
          "type": "bool"
        }
      ],
      "stateMutability": "nonpayable",
      "type": "function"
    },
    {
      "inputs": [],
      "name": "totalBONQStaked",
      "outputs": [
        {
          "internalType": "uint256",
          "name": "",
          "type": "uint256"
        }
      ],
      "stateMutability": "view",
      "type": "function"
    },
    {
      "inputs": [],
      "name": "totalStake",
      "outputs": [
        {
          "internalType": "uint256",
          "name": "",
          "type": "uint256"
        }
      ],
      "stateMutability": "view",
      "type": "function"
    },
    {
      "inputs": [
        {
          "internalType": "address",
          "name": "newOwner",
          "type": "address"
        }
      ],
      "name": "transferOwnership",
      "outputs": [],
      "stateMutability": "nonpayable",
      "type": "function"
    },
    {
      "inputs": [
        {
          "internalType": "uint256",
          "name": "_bonqAmount",
          "type": "uint256"
        }
      ],
      "name": "unstake",
      "outputs": [],
      "stateMutability": "nonpayable",
      "type": "function"
    },
    {
      "inputs": [],
      "name": "updateStableCoin",
      "outputs": [],
      "stateMutability": "nonpayable",
      "type": "function"
    },
    {
      "inputs": [
        {
          "internalType": "address",
          "name": "newImplementation",
          "type": "address"
        }
      ],
      "name": "upgradeTo",
      "outputs": [],
      "stateMutability": "nonpayable",
      "type": "function"
    },
    {
      "inputs": [
        {
          "internalType": "address",
          "name": "newImplementation",
          "type": "address"
        },
        {
          "internalType": "bytes",
          "name": "data",
          "type": "bytes"
        }
      ],
      "name": "upgradeToAndCall",
      "outputs": [],
      "stateMutability": "payable",
      "type": "function"
    }
  ],
  "transactionHash": "0xc0a0b6edd8beb91f801a42ab44abc0762e49179466eb302fd740794d6cba505f",
  "args": [],
  "numDeployments": 1,
  "solcInputHash": "bf3d4309507180ad8123e30dbce5d19e",
  "bytecode": "0x60a0604052306080523480156200001557600080fd5b506200002062000026565b620000e8565b600054610100900460ff1615620000935760405162461bcd60e51b815260206004820152602760248201527f496e697469616c697a61626c653a20636f6e747261637420697320696e697469604482015266616c697a696e6760c81b606482015260840160405180910390fd5b60005460ff9081161015620000e6576000805460ff191660ff9081179091556040519081527f7f26b83ff96e1f2b6a682f133852f6798a09c465da95921460cefb38474024989060200160405180910390a15b565b6080516125bb6200012060003960008181610f8001528181610fc00152818161105f0152818161109f015261117101526125bb6000f3fe6080604052600436106102935760003560e01c80638b0e9f3f1161015a578063b835f032116100c1578063cbb943591161007a578063cbb9435914610760578063cd16e7f714610790578063d380a37c146107b0578063dabc41a7146107c6578063db1d0fd5146107e6578063f2fde38b146107fc57600080fd5b8063b835f032146106b5578063b85a8b20146106d5578063bc006c38146106ea578063be20e5f114610700578063c45a015514610720578063c4d66de81461074057600080fd5b8063a3f4df7e11610113578063a3f4df7e14610614578063a66ca8f21461064b578063a694fc3a1461066b578063abdc55411461068b578063aceb2d0414610484578063ad09014d146106a057600080fd5b80638b0e9f3f1461057b5780638da5cb5b14610590578063923c1eec146105c2578063992642e5146105de5780639faa3c91146105fe578063a20baee6146105c257600080fd5b806348fd2f5a116101fe5780635bb47808116101b75780635bb47808146104c35780635d1f9d62146104e3578063631203b01461050357806365aedf97146105235780636fb084c414610539578063715018a61461056657600080fd5b806348fd2f5a1461043b5780634f1ef28614610451578063501da27214610464578063517ef1d71461048457806352d1902d146104995780635b13ae08146104ae57600080fd5b80632150efa5116102505780632150efa5146103835780632288437f146103a35780632e17de78146103b85780632fcb6d54146103d85780633659cfe6146103ee578063413b1abf1461040e57600080fd5b806306fb0f6c1461029857806306fdde03146102cb578063098d32281461030857806316934fc41461031e5780631b93740a1461034b5780631f68f20a1461036d575b600080fd5b3480156102a457600080fd5b506102b86102b3366004612198565b61081c565b6040519081526020015b60405180910390f35b3480156102d757600080fd5b5060408051808201909152600b81526a424f4e515374616b696e6760a81b60208201525b6040516102c291906121d5565b34801561031457600080fd5b506102b860001981565b34801561032a57600080fd5b506102b861033936600461221d565b60ce6020526000908152604090205481565b34801561035757600080fd5b5061036b61036636600461223a565b610870565b005b34801561037957600080fd5b506102b860c95481565b34801561038f57600080fd5b5061036b61039e366004612198565b610c82565b3480156103af57600080fd5b5061036b610c8f565b3480156103c457600080fd5b5061036b6103d3366004612198565b610e25565b3480156103e457600080fd5b506102b860cf5481565b3480156103fa57600080fd5b5061036b61040936600461221d565b610f76565b34801561041a57600080fd5b506102b861042936600461221d565b60d26020526000908152604090205481565b34801561044757600080fd5b506102b860d05481565b61036b61045f366004612292565b611055565b34801561047057600080fd5b506102b861047f36600461221d565b611125565b34801561049057600080fd5b506102b8611136565b3480156104a557600080fd5b506102b8611164565b3480156104ba57600080fd5b5060d0546102b8565b3480156104cf57600080fd5b5061036b6104de36600461221d565b611217565b3480156104ef57600080fd5b5061036b6104fe366004612198565b611332565b34801561050f57600080fd5b506102b861051e366004612198565b61133f565b34801561052f57600080fd5b506102b860cd5481565b34801561054557600080fd5b506102b861055436600461221d565b60d36020526000908152604090205481565b34801561057257600080fd5b5061036b6113b5565b34801561058757600080fd5b5060cf546102b8565b34801561059c57600080fd5b506033546001600160a01b03165b6040516001600160a01b0390911681526020016102c2565b3480156105ce57600080fd5b506102b8670de0b6b3a764000081565b3480156105ea57600080fd5b5060d6546105aa906001600160a01b031681565b34801561060a57600080fd5b506102b860cb5481565b34801561062057600080fd5b506102fb6040518060400160405280600b81526020016a424f4e515374616b696e6760a81b81525081565b34801561065757600080fd5b5060d5546105aa906001600160a01b031681565b34801561067757600080fd5b5061036b610686366004612198565b6113c9565b34801561069757600080fd5b506102b8611594565b3480156106ac57600080fd5b506102b86115a9565b3480156106c157600080fd5b5061036b6106d0366004612198565b6115d3565b3480156106e157600080fd5b506102b86115e0565b3480156106f657600080fd5b506102b860ca5481565b34801561070c57600080fd5b5061036b61071b366004612198565b6115f5565b34801561072c57600080fd5b5060d4546105aa906001600160a01b031681565b34801561074c57600080fd5b5061036b61075b36600461221d565b611602565b34801561076c57600080fd5b5061078061077b366004612198565b61175f565b60405190151581526020016102c2565b34801561079c57600080fd5b506102b86107ab366004612198565b611886565b3480156107bc57600080fd5b506102b860d15481565b3480156107d257600080fd5b5061036b6107e1366004612198565b611911565b3480156107f257600080fd5b506102b860cc5481565b34801561080857600080fd5b5061036b61081736600461221d565b61192f565b600080603c60d1544261082f919061236c565b6108399190612395565b9050600061084960ca54836119a5565b9050670de0b6b3a764000061085e82866123a9565b6108689190612395565b949350505050565b61087983611a5a565b60d45460408051637e062a3560e11b81529051339285926001600160a01b039182169263b3d5e0ce9285169163fc0c546a9160048083019260209291908290030181865afa1580156108cf573d6000803e3d6000fd5b505050506040513d601f19601f820116820180604052508101906108f391906123c0565b6040516001600160e01b031960e084901b1681526001600160a01b0391821660048201529087166024820152604401602060405180830381865afa15801561093f573d6000803e3d6000fd5b505050506040513d601f19601f8201168201806040525081019061096391906123dd565b6109c35760405162461bcd60e51b815260206004820152602660248201527f3266663863206d7573742062652063616c6c656420666f7220612076616c69646044820152652074726f766560d01b60648201526084015b60405180910390fd5b610a2f85826001600160a01b0316633746403c6040518163ffffffff1660e01b8152600401602060405180830381865afa158015610a05573d6000803e3d6000fd5b505050506040513d601f19601f82011682018060405250810190610a2991906123ff565b90611aaa565b945084610a3b33611ac2565b1015610a975760405162461bcd60e51b815260206004820152602560248201527f3266663863205f616d6f756e74206d75737420666974207265776172647320616044820152641b5bdd5b9d60da1b60648201526084016109ba565b610aa082611af0565b6001600160a01b038216600090815260d36020526040902054610ac490869061236c565b6001600160a01b03838116600090815260d36020526040908190209290925560d6549151636eb1769f60e11b8152306004820152838216602482015287929091169063dd62ed3e90604401602060405180830381865afa158015610b2c573d6000803e3d6000fd5b505050506040513d601f19601f82011682018060405250810190610b5091906123ff565b1015610bd05760d65460405163095ea7b360e01b81526001600160a01b03838116600483015260001960248301529091169063095ea7b3906044016020604051808303816000875af1158015610baa573d6000803e3d6000fd5b505050506040513d601f19601f82011682018060405250810190610bce91906123dd565b505b60405163acb7081560e01b8152600481018690526001600160a01b03848116602483015282169063acb7081590604401600060405180830381600087803b158015610c1a57600080fd5b505af1158015610c2e573d6000803e3d6000fd5b505060408051338152602081018990526001600160a01b0388168183015290517f554a7c404e78f8dcda2f3ae4ba95a40c05dafc822fb45865a27f0e43dad4edcf9350908190036060019150a15050505050565b610c8a611b5c565b60cd55565b60d65460d4546040805163992642e560e01b815290516001600160a01b03938416939092169163992642e5916004808201926020929091908290030181865afa158015610ce0573d6000803e3d6000fd5b505050506040513d601f19601f82011682018060405250810190610d0491906123c0565b6001600160a01b031603610d5a5760405162461bcd60e51b815260206004820152601760248201527f3465316561206e6f7468696e6720746f2075706461746500000000000000000060448201526064016109ba565b60d460009054906101000a90046001600160a01b03166001600160a01b031663992642e56040518163ffffffff1660e01b8152600401602060405180830381865afa158015610dad573d6000803e3d6000fd5b505050506040513d601f19601f82011682018060405250810190610dd191906123c0565b60d680546001600160a01b0319166001600160a01b039290921691821790556040519081527f8b3e443d01c14c05684786a0273fdb48381417285bd830b7e71354d3ce6016669060200160405180910390a1565b610e2e81611a5a565b33600090815260ce6020526040902054610e4781611bb6565b610e5033611af0565b6000610e5c8383611aaa565b90506000610e6a828461236c565b33600090815260ce6020526040902081905560cf54909150610e8d90839061236c565b60cf8190556040519081527fa3303db2a247bc4a95eedbd499e30c2b0398e6293d3f5f9010e8d7d90cf0f6599060200160405180910390a160d55460405163a9059cbb60e01b8152336004820152602481018490526001600160a01b039091169063a9059cbb906044016020604051808303816000875af1158015610f16573d6000803e3d6000fd5b505050506040513d601f19601f82011682018060405250810190610f3a91906123dd565b5060405181815233907f39df0e5286a3ef2f42a0bf52f32cfe2c58e5b0405f47fe512f2c2439e4cfe2049060200160405180910390a250505050565b6001600160a01b037f0000000000000000000000000000000000000000000000000000000000000000163003610fbe5760405162461bcd60e51b81526004016109ba90612418565b7f00000000000000000000000000000000000000000000000000000000000000006001600160a01b031661100760008051602061253f833981519152546001600160a01b031690565b6001600160a01b03161461102d5760405162461bcd60e51b81526004016109ba90612464565b61103681611c14565b6040805160008082526020820190925261105291839190611c1c565b50565b6001600160a01b037f000000000000000000000000000000000000000000000000000000000000000016300361109d5760405162461bcd60e51b81526004016109ba90612418565b7f00000000000000000000000000000000000000000000000000000000000000006001600160a01b03166110e660008051602061253f833981519152546001600160a01b031690565b6001600160a01b03161461110c5760405162461bcd60e51b81526004016109ba90612464565b61111582611c14565b61112182826001611c1c565b5050565b600061113082611ac2565b92915050565b6002606461114d670de0b6b3a764000060016123a9565b6111579190612395565b6111619190612395565b81565b6000306001600160a01b037f000000000000000000000000000000000000000000000000000000000000000016146112045760405162461bcd60e51b815260206004820152603860248201527f555550535570677261646561626c653a206d757374206e6f742062652063616c60448201527f6c6564207468726f7567682064656c656761746563616c6c000000000000000060648201526084016109ba565b5060008051602061253f83398151915290565b61121f611b5c565b60d480546001600160a01b0319166001600160a01b0383169081179091556040805163992642e560e01b8152905163992642e5916004808201926020929091908290030181865afa158015611278573d6000803e3d6000fd5b505050506040513d601f19601f8201168201806040525081019061129c91906123c0565b60d680546001600160a01b0319166001600160a01b0392831617905560d454604051911681527f9d910c9fad7f6caea97ddebdae1c9588dcbeee40ac58fbea43811e3554b6d7279060200160405180910390a160d6546040516001600160a01b0390911681527f8b3e443d01c14c05684786a0273fdb48381417285bd830b7e71354d3ce6016669060200160405180910390a150565b61133a611b5c565b60cc55565b6000670de0b6b3a76400006113a1606461135a8360056123a9565b6113649190612395565b60c9546002606461137e670de0b6b3a764000060016123a9565b6113889190612395565b6113929190612395565b61139c91906124b0565b611aaa565b6113ab90846123a9565b6111309190612395565b6113bd611b5c565b6113c76000611d8c565b565b6113d281611a5a565b33600081815260ce6020526040908190205460d55491516323b872dd60e01b8152600481019390935230602484015260448301849052916001600160a01b03909116906323b872dd906064016020604051808303816000875af115801561143d573d6000803e3d6000fd5b505050506040513d601f19601f8201168201806040525081019061146191906123dd565b6114ad5760405162461bcd60e51b815260206004820152601a60248201527f3465316561207472616e736665722066726f6d206661696c656400000000000060448201526064016109ba565b60cf5460008190036114e15760d05433600090815260d36020526040812080549091906114db9084906124b0565b90915550505b6114ea33611af0565b60006114f684836124b0565b60cf8190559050600061150985856124b0565b33600090815260ce602052604090819020829055519091507fa3303db2a247bc4a95eedbd499e30c2b0398e6293d3f5f9010e8d7d90cf0f659906115509084815260200190565b60405180910390a160405181815233907f39df0e5286a3ef2f42a0bf52f32cfe2c58e5b0405f47fe512f2c2439e4cfe2049060200160405180910390a25050505050565b6064611157670de0b6b3a764000060056123a9565b60646115be670de0b6b3a764000060016123a9565b6115c89190612395565b61116190600a6123a9565b6115db611b5c565b60ca55565b6064611157670de0b6b3a764000060016123a9565b6115fd611b5c565b60cb55565b600054610100900460ff16158080156116225750600054600160ff909116105b8061163c5750303b15801561163c575060005460ff166001145b61169f5760405162461bcd60e51b815260206004820152602e60248201527f496e697469616c697a61626c653a20636f6e747261637420697320616c72656160448201526d191e481a5b9a5d1a585b1a5e995960921b60648201526084016109ba565b6000805460ff1916600117905580156116c2576000805461ff0019166101001790555b6116ca611dde565b670ddd4b8c6c7d70d860ca5568015af1d78b58c4000060cb5566c6f3b40b6c000060cc556746c6d6faa27e000060cd5560d580546001600160a01b0319166001600160a01b0384161790558015611121576000805461ff0019169055604051600181527f7f26b83ff96e1f2b6a682f133852f6798a09c465da95921460cefb3847402498906020015b60405180910390a15050565b600061176a82611a5a565b60d6546040516323b872dd60e01b8152336004820152306024820152604481018490526001600160a01b03909116906323b872dd906064016020604051808303816000875af11580156117c1573d6000803e3d6000fd5b505050506040513d601f19601f820116820180604052508101906117e591906123dd565b5060cf548281156118105781611803670de0b6b3a7640000866123a9565b61180d9190612395565b90505b60008160d05461182091906124b0565b60d08190554260d15560d45460408051888152602081018490526001600160a01b039092163314908201529091507f62747fbd5ac2f0c08a49c2f926da70c4bb6c33e4db33a42674de054ae5c2dd269060600160405180910390a1506001949350505050565b60d4546000906001600160a01b031633146118f15760405162461bcd60e51b815260206004820152602560248201527f3130626362206f6e6c7920666163746f727920696e6372656173657320626173604482015264655261746560d81b60648201526084016109ba565b8160c9600082825461190391906124b0565b909155505060c95492915050565b611919611b5c565b600081116119275742611929565b805b60d15550565b611937611b5c565b6001600160a01b03811661199c5760405162461bcd60e51b815260206004820152602660248201527f4f776e61626c653a206e6577206f776e657220697320746865207a65726f206160448201526564647265737360d01b60648201526084016109ba565b61105281611d8c565b6000631f5405008211156119bb57631f54050091505b816000036119d25750670de0b6b3a7640000611130565b670de0b6b3a764000083835b6001811115611a46576119f26002826124c3565b600003611a1757611a038283611e0d565b9150611a10600282612395565b90506119de565b611a218284611e0d565b9250611a2d8283611e0d565b91506002611a3c60018361236c565b611a109190612395565b611a508284611e0d565b9695505050505050565b600081116110525760405162461bcd60e51b815260206004820152601d60248201527f386336346220416d6f756e74206d757374206265206e6f6e2d7a65726f00000060448201526064016109ba565b6000818310611ab95781611abb565b825b9392505050565b6000611acd82611e3a565b6001600160a01b038316600090815260d3602052604090205461113091906124b0565b611af981611e90565b60d0546001600160a01b038216600081815260d26020908152604080832085905560d3825291829020548251938452908301849052908201527f6b5cf27595af4428271524e0a5abd2b63f6fee1a61e31970490f5a10e257a1cd90606001611753565b6033546001600160a01b031633146113c75760405162461bcd60e51b815260206004820181905260248201527f4f776e61626c653a2063616c6c6572206973206e6f7420746865206f776e657260448201526064016109ba565b600081116110525760405162461bcd60e51b815260206004820152602560248201527f66636462332055736572206d75737420686176652061206e6f6e2d7a65726f206044820152647374616b6560d81b60648201526084016109ba565b611052611b5c565b7f4910fdfa16fed3260ed0e7147f7cc6da11a60208b5b9406d12a635614ffd91435460ff1615611c5457611c4f83611f2f565b505050565b826001600160a01b03166352d1902d6040518163ffffffff1660e01b8152600401602060405180830381865afa925050508015611cae575060408051601f3d908101601f19168201909252611cab918101906123ff565b60015b611d115760405162461bcd60e51b815260206004820152602e60248201527f45524331393637557067726164653a206e657720696d706c656d656e7461746960448201526d6f6e206973206e6f74205555505360901b60648201526084016109ba565b60008051602061253f8339815191528114611d805760405162461bcd60e51b815260206004820152602960248201527f45524331393637557067726164653a20756e737570706f727465642070726f786044820152681a58589b195555525160ba1b60648201526084016109ba565b50611c4f838383611fcb565b603380546001600160a01b038381166001600160a01b0319831681179093556040519116919082907f8be0079c531659141344cd1fd0a4f28419497f9722a3daafe3b4186f6b6457e090600090a35050565b600054610100900460ff16611e055760405162461bcd60e51b81526004016109ba906124d7565b6113c7611ff6565b600080611e1a83856123a9565b9050670de0b6b3a7640000611e30600282612395565b61085e90836124b0565b6001600160a01b038116600090815260d2602052604081205460d0548290670de0b6b3a764000090611e6d90849061236c565b6001600160a01b038616600090815260ce602052604090205461085e91906123a9565b6001600160a01b038116600090815260ce60205260409020548015611121576001600160a01b038216600090815260d2602052604081205460d054909190670de0b6b3a764000090611ee390849061236c565b611eed90856123a9565b611ef79190612395565b6001600160a01b038516600090815260d36020526040812080549293508392909190611f249084906124b0565b909155505050505050565b6001600160a01b0381163b611f9c5760405162461bcd60e51b815260206004820152602d60248201527f455243313936373a206e657720696d706c656d656e746174696f6e206973206e60448201526c1bdd08184818dbdb9d1c9858dd609a1b60648201526084016109ba565b60008051602061253f83398151915280546001600160a01b0319166001600160a01b0392909216919091179055565b611fd483612026565b600082511180611fe15750805b15611c4f57611ff08383612066565b50505050565b600054610100900460ff1661201d5760405162461bcd60e51b81526004016109ba906124d7565b6113c733611d8c565b61202f81611f2f565b6040516001600160a01b038216907fbc7cd75a20ee27fd9adebab32041f755214dbc6bffa90cc0225b39da2e5c2d3b90600090a250565b60606001600160a01b0383163b6120ce5760405162461bcd60e51b815260206004820152602660248201527f416464726573733a2064656c65676174652063616c6c20746f206e6f6e2d636f6044820152651b9d1c9858dd60d21b60648201526084016109ba565b600080846001600160a01b0316846040516120e99190612522565b600060405180830381855af49150503d8060008114612124576040519150601f19603f3d011682016040523d82523d6000602084013e612129565b606091505b5091509150612151828260405180606001604052806027815260200161255f6027913961215a565b95945050505050565b60608315612169575081611abb565b611abb838381511561217e5781518083602001fd5b8060405162461bcd60e51b81526004016109ba91906121d5565b6000602082840312156121aa57600080fd5b5035919050565b60005b838110156121cc5781810151838201526020016121b4565b50506000910152565b60208152600082518060208401526121f48160408501602087016121b1565b601f01601f19169190910160400192915050565b6001600160a01b038116811461105257600080fd5b60006020828403121561222f57600080fd5b8135611abb81612208565b60008060006060848603121561224f57600080fd5b83359250602084013561226181612208565b9150604084013561227181612208565b809150509250925092565b634e487b7160e01b600052604160045260246000fd5b600080604083850312156122a557600080fd5b82356122b081612208565b9150602083013567ffffffffffffffff808211156122cd57600080fd5b818501915085601f8301126122e157600080fd5b8135818111156122f3576122f361227c565b604051601f8201601f19908116603f0116810190838211818310171561231b5761231b61227c565b8160405282815288602084870101111561233457600080fd5b8260208601602083013760006020848301015280955050505050509250929050565b634e487b7160e01b600052601160045260246000fd5b8181038181111561113057611130612356565b634e487b7160e01b600052601260045260246000fd5b6000826123a4576123a461237f565b500490565b808202811582820484141761113057611130612356565b6000602082840312156123d257600080fd5b8151611abb81612208565b6000602082840312156123ef57600080fd5b81518015158114611abb57600080fd5b60006020828403121561241157600080fd5b5051919050565b6020808252602c908201527f46756e6374696f6e206d7573742062652063616c6c6564207468726f7567682060408201526b19195b1959d85d1958d85b1b60a21b606082015260800190565b6020808252602c908201527f46756e6374696f6e206d7573742062652063616c6c6564207468726f7567682060408201526b6163746976652070726f787960a01b606082015260800190565b8082018082111561113057611130612356565b6000826124d2576124d261237f565b500690565b6020808252602b908201527f496e697469616c697a61626c653a20636f6e7472616374206973206e6f74206960408201526a6e697469616c697a696e6760a81b606082015260800190565b600082516125348184602087016121b1565b919091019291505056fe360894a13ba1a3210667c828492db98dca3e2076cc3735a920a3ca505d382bbc416464726573733a206c6f772d6c6576656c2064656c65676174652063616c6c206661696c6564a26469706673582212208f6e9e644d78f149d6503c7447da92c7733550f3bc45707fd289790fbe9b0eb264736f6c63430008110033",
  "devdoc": {
    "kind": "dev",
    "methods": {
      "calcDecayedBaseRate(uint256)": {
        "details": "calculates the rate dacayed by time passed since last fee, uses `decPow` from BONQMath",
        "params": {
          "_currentBaseRate": "current rate to decay"
        },
        "returns": {
          "_0": "uint256 decayed baseRate in uint256"
        }
      },
      "getBorrowingFee(uint256)": {
        "details": "returns fee from borrowing the amount",
        "params": {
          "_amount": "amount to borrow"
        },
        "returns": {
          "_0": "uint256 resulting fee"
        }
      },
      "getRewardsTotal()": {
        "details": "reads the unpaid rewards of the user"
      },
      "getUnpaidStableCoinGain(address)": {
        "details": "reads the unpaid rewards of the user",
        "params": {
          "_user": "the user to check"
        }
      },
      "increaseBaseRate(uint256)": {
        "details": "updates baseRate",
        "params": {
          "_increase": "value to add to baseRate"
        }
      },
      "owner()": {
        "details": "Returns the address of the current owner."
      },
      "proxiableUUID()": {
        "details": "Implementation of the ERC1822 {proxiableUUID} function. This returns the storage slot used by the implementation. It is used to validate the implementation's compatibility when performing an upgrade. IMPORTANT: A proxy pointing at a proxiable contract should not be considered proxiable itself, because this risks bricking a proxy that upgrades to it, by delegating to itself until out of gas. Thus it is critical that this function revert if invoked through a proxy. This is guaranteed by the `notDelegated` modifier."
      },
      "redeemReward(uint256,address,address)": {
        "details": "to redeem StableCoin rewards, transfers the amount only to repay debt of the Trove",
        "params": {
          "_amount": "amount of StableCoin to repay the debt",
          "_newNextTrove": "hint for the newNextTrove position (next trove)",
          "_troveAddress": "address of the valid trove to repay the debt"
        }
      },
      "renounceOwnership()": {
        "details": "Leaves the contract without owner. It will not be possible to call `onlyOwner` functions anymore. Can only be called by the current owner. NOTE: Renouncing ownership will leave the contract without an owner, thereby removing any functionality that is only available to the owner."
      },
      "setAlphaValue(uint256)": {
        "details": "set the new alpha value",
        "params": {
          "_alpha": "uint256 value"
        }
      },
      "setBetaValue(uint256)": {
        "details": "set the new beta value",
        "params": {
          "_beta": "uint256 value"
        }
      },
      "setFactory(address)": {
        "details": "sets the TroveFactory contract, if address was updated"
      },
      "setInitialLastFee(uint256)": {
        "details": "set timestamp to calculate next decayed rate from",
        "params": {
          "_timestamp": "uint256 in seconds"
        }
      },
      "setMaxFeeCollateralRatio(uint256)": {
        "details": "set the maximum Collateral Ratio threshold to return 100% feeRatio",
        "params": {
          "_maxFeeCollateralRatio": "uint256 value"
        }
      },
      "setMinuteDecayFactor(uint256)": {
        "details": "set the new fee decay factor per minute",
        "params": {
          "_newMinuteDecayFactor": "uint256 value"
        }
      },
      "stake(uint256)": {
        "details": "to stake BONQ",
        "params": {
          "_bonqAmount": "amount of BONQ to stake"
        }
      },
      "takeFees(uint256)": {
        "details": "to pay fee in StableCoin, transfer the amount specified",
        "params": {
          "_amount": "amount of StableCoin to pay as fee"
        }
      },
      "totalStake()": {
        "details": "to get total BONQ stkae amount"
      },
      "transferOwnership(address)": {
        "details": "Transfers ownership of the contract to a new account (`newOwner`). Can only be called by the current owner."
      },
      "unstake(uint256)": {
        "details": "to unstake BONQ",
        "params": {
          "_bonqAmount": "amount of BONQ to unstake"
        }
      },
      "updateStableCoin()": {
        "details": "sets the StableCoin token contract, if address was updated"
      },
      "upgradeTo(address)": {
        "details": "Upgrade the implementation of the proxy to `newImplementation`. Calls {_authorizeUpgrade}. Emits an {Upgraded} event."
      },
      "upgradeToAndCall(address,bytes)": {
        "details": "Upgrade the implementation of the proxy to `newImplementation`, and subsequently execute the function call encoded in `data`. Calls {_authorizeUpgrade}. Emits an {Upgraded} event."
      }
    },
    "title": "BONQ Staking contract, rewards stakers in StableCoin that is used to pay fee",
    "version": 1
  },
  "userdoc": {
    "kind": "user",
    "methods": {
      "increaseBaseRate(uint256)": {
        "notice": "_increase"
      },
      "redeemReward(uint256,address,address)": {
        "notice": "user can redeem StableCoin rewards only to repay the debt of the troves"
      },
      "stake(uint256)": {
        "notice": "If caller has a pre-existing stake, records any accumulated StableCoin gains to them."
      },
      "takeFees(uint256)": {
        "notice": "Unstake the BONQ and send the it back to the caller, and record accumulated StableCoin gains. If requested amount > stake, send their entire stake."
      },
      "unstake(uint256)": {
        "notice": "Unstake the BONQ and send the it back to the caller, and record accumulated StableCoin gains. If requested amount > stake, send their entire stake."
      }
    },
    "version": 1
  },
  "storageLayout": {
    "storage": [
      {
        "astId": 630,
        "contract": "contracts/BONQ-staking.sol:BONQStaking",
        "label": "_initialized",
        "offset": 0,
        "slot": "0",
        "type": "t_uint8"
      },
      {
        "astId": 633,
        "contract": "contracts/BONQ-staking.sol:BONQStaking",
        "label": "_initializing",
        "offset": 1,
        "slot": "0",
        "type": "t_bool"
      },
      {
        "astId": 1453,
        "contract": "contracts/BONQ-staking.sol:BONQStaking",
        "label": "__gap",
        "offset": 0,
        "slot": "1",
        "type": "t_array(t_uint256)50_storage"
      },
      {
        "astId": 113,
        "contract": "contracts/BONQ-staking.sol:BONQStaking",
        "label": "_owner",
        "offset": 0,
        "slot": "51",
        "type": "t_address"
      },
      {
        "astId": 233,
        "contract": "contracts/BONQ-staking.sol:BONQStaking",
        "label": "__gap",
        "offset": 0,
        "slot": "52",
        "type": "t_array(t_uint256)49_storage"
      },
      {
        "astId": 612,
        "contract": "contracts/BONQ-staking.sol:BONQStaking",
        "label": "__gap",
        "offset": 0,
        "slot": "101",
        "type": "t_array(t_uint256)50_storage"
      },
      {
        "astId": 927,
        "contract": "contracts/BONQ-staking.sol:BONQStaking",
        "label": "__gap",
        "offset": 0,
        "slot": "151",
        "type": "t_array(t_uint256)50_storage"
      },
      {
        "astId": 5169,
        "contract": "contracts/BONQ-staking.sol:BONQStaking",
        "label": "baseRate",
        "offset": 0,
        "slot": "201",
        "type": "t_uint256"
      },
      {
        "astId": 5171,
        "contract": "contracts/BONQ-staking.sol:BONQStaking",
        "label": "minuteDecayFactor",
        "offset": 0,
        "slot": "202",
        "type": "t_uint256"
      },
      {
        "astId": 5173,
        "contract": "contracts/BONQ-staking.sol:BONQStaking",
        "label": "beta",
        "offset": 0,
        "slot": "203",
        "type": "t_uint256"
      },
      {
        "astId": 5175,
        "contract": "contracts/BONQ-staking.sol:BONQStaking",
        "label": "alpha",
        "offset": 0,
        "slot": "204",
        "type": "t_uint256"
      },
      {
        "astId": 5177,
        "contract": "contracts/BONQ-staking.sol:BONQStaking",
        "label": "maxFeeCollateralRatio",
        "offset": 0,
        "slot": "205",
        "type": "t_uint256"
      },
      {
        "astId": 5181,
        "contract": "contracts/BONQ-staking.sol:BONQStaking",
        "label": "stakes",
        "offset": 0,
        "slot": "206",
        "type": "t_mapping(t_address,t_uint256)"
      },
      {
        "astId": 5183,
        "contract": "contracts/BONQ-staking.sol:BONQStaking",
        "label": "totalBONQStaked",
        "offset": 0,
        "slot": "207",
        "type": "t_uint256"
      },
      {
        "astId": 5185,
        "contract": "contracts/BONQ-staking.sol:BONQStaking",
        "label": "F_StableCoin",
        "offset": 0,
        "slot": "208",
        "type": "t_uint256"
      },
      {
        "astId": 5187,
        "contract": "contracts/BONQ-staking.sol:BONQStaking",
        "label": "lastFeeOperationTime",
        "offset": 0,
        "slot": "209",
        "type": "t_uint256"
      },
      {
        "astId": 5191,
        "contract": "contracts/BONQ-staking.sol:BONQStaking",
        "label": "F_StableCoinSnapshots",
        "offset": 0,
        "slot": "210",
        "type": "t_mapping(t_address,t_uint256)"
      },
      {
        "astId": 5195,
        "contract": "contracts/BONQ-staking.sol:BONQStaking",
        "label": "stableCoinUserGains",
        "offset": 0,
        "slot": "211",
        "type": "t_mapping(t_address,t_uint256)"
      },
      {
        "astId": 5198,
        "contract": "contracts/BONQ-staking.sol:BONQStaking",
        "label": "factory",
        "offset": 0,
        "slot": "212",
        "type": "t_contract(ITroveFactory)9417"
      },
      {
        "astId": 5201,
        "contract": "contracts/BONQ-staking.sol:BONQStaking",
        "label": "bonqToken",
        "offset": 0,
        "slot": "213",
        "type": "t_contract(IERC20)3472"
      },
      {
        "astId": 5204,
        "contract": "contracts/BONQ-staking.sol:BONQStaking",
        "label": "stableCoin",
        "offset": 0,
        "slot": "214",
        "type": "t_contract(IERC20)3472"
      }
    ],
    "types": {
      "t_address": {
        "encoding": "inplace",
        "label": "address",
        "numberOfBytes": "20"
      },
      "t_array(t_uint256)49_storage": {
        "base": "t_uint256",
        "encoding": "inplace",
        "label": "uint256[49]",
        "numberOfBytes": "1568"
      },
      "t_array(t_uint256)50_storage": {
        "base": "t_uint256",
        "encoding": "inplace",
        "label": "uint256[50]",
        "numberOfBytes": "1600"
      },
      "t_bool": {
        "encoding": "inplace",
        "label": "bool",
        "numberOfBytes": "1"
      },
      "t_contract(IERC20)3472": {
        "encoding": "inplace",
        "label": "contract IERC20",
        "numberOfBytes": "20"
      },
      "t_contract(ITroveFactory)9417": {
        "encoding": "inplace",
        "label": "contract ITroveFactory",
        "numberOfBytes": "20"
      },
      "t_mapping(t_address,t_uint256)": {
        "encoding": "mapping",
        "key": "t_address",
        "label": "mapping(address => uint256)",
        "numberOfBytes": "32",
        "value": "t_uint256"
      },
      "t_uint256": {
        "encoding": "inplace",
        "label": "uint256",
        "numberOfBytes": "32"
      },
      "t_uint8": {
        "encoding": "inplace",
        "label": "uint8",
        "numberOfBytes": "1"
      }
    }
  }
}