{
  "address": "0x78F07Fe87051f8CA8Ba018D6056bC2ff0415C283",
  "abi": [
    {
      "inputs": [
        {
          "internalType": "address",
          "name": "_token",
          "type": "address"
        }
      ],
      "stateMutability": "nonpayable",
      "type": "constructor"
    },
    {
      "anonymous": false,
      "inputs": [
        {
          "indexed": false,
          "internalType": "address",
          "name": "newMinter",
          "type": "address"
        }
      ],
      "name": "MinterAdded",
      "type": "event"
    },
    {
      "anonymous": false,
      "inputs": [
        {
          "indexed": true,
          "internalType": "address",
          "name": "previousOwner",
          "type": "address"
        },
        {
          "indexed": true,
          "internalType": "address",
          "name": "newOwner",
          "type": "address"
        }
      ],
      "name": "OwnershipTransferred",
      "type": "event"
    },
    {
      "inputs": [
        {
          "internalType": "address",
          "name": "_newMinter",
          "type": "address"
        }
      ],
      "name": "addMinter",
      "outputs": [],
      "stateMutability": "nonpayable",
      "type": "function"
    },
    {
      "inputs": [
        {
          "internalType": "address",
          "name": "_recipient",
          "type": "address"
        },
        {
          "internalType": "uint256",
          "name": "_amount",
          "type": "uint256"
        }
      ],
      "name": "mint",
      "outputs": [],
      "stateMutability": "nonpayable",
      "type": "function"
    },
    {
      "inputs": [
        {
          "internalType": "address",
          "name": "",
          "type": "address"
        }
      ],
      "name": "minters",
      "outputs": [
        {
          "internalType": "bool",
          "name": "",
          "type": "bool"
        }
      ],
      "stateMutability": "view",
      "type": "function"
    },
    {
      "inputs": [],
      "name": "owner",
      "outputs": [
        {
          "internalType": "address",
          "name": "",
          "type": "address"
        }
      ],
      "stateMutability": "view",
      "type": "function"
    },
    {
      "inputs": [],
      "name": "renounceOwnership",
      "outputs": [],
      "stateMutability": "nonpayable",
      "type": "function"
    },
    {
      "inputs": [
        {
          "internalType": "address",
          "name": "_minter",
          "type": "address"
        }
      ],
      "name": "revokeMinter",
      "outputs": [],
      "stateMutability": "nonpayable",
      "type": "function"
    },
    {
      "inputs": [],
      "name": "token",
      "outputs": [
        {
          "internalType": "contract IMintableToken",
          "name": "",
          "type": "address"
        }
      ],
      "stateMutability": "view",
      "type": "function"
    },
    {
      "inputs": [
        {
          "internalType": "address",
          "name": "newOwner",
          "type": "address"
        }
      ],
      "name": "transferOwnership",
      "outputs": [],
      "stateMutability": "nonpayable",
      "type": "function"
    },
    {
      "inputs": [
        {
          "internalType": "address",
          "name": "_newOwner",
          "type": "address"
        }
      ],
      "name": "transferTokenOwnership",
      "outputs": [],
      "stateMutability": "nonpayable",
      "type": "function"
    }
  ],
  "transactionHash": "0xc7e7ec5edb5c2ab80b8a5e20e52ece060cc047f852affd705a8a4454080890b1",
  "args": [
    "0x338Eb4d394a4327E5dB80d08628fa56EA2FD4B81"
  ],
  "numDeployments": 1,
  "solcInputHash": "bf3d4309507180ad8123e30dbce5d19e",
  "bytecode": "0x60a060405234801561001057600080fd5b506040516106f73803806106f783398101604081905261002f91610099565b61003833610049565b6001600160a01b03166080526100c9565b600080546001600160a01b038381166001600160a01b0319831681178455604051919092169283917f8be0079c531659141344cd1fd0a4f28419497f9722a3daafe3b4186f6b6457e09190a35050565b6000602082840312156100ab57600080fd5b81516001600160a01b03811681146100c257600080fd5b9392505050565b6080516106056100f260003960008181610163015281816101d701526102e101526106056000f3fe608060405234801561001057600080fd5b50600436106100935760003560e01c8063983b2d5611610066578063983b2d56146100f2578063cfbd488514610105578063f2fde38b14610118578063f46eccc41461012b578063fc0c546a1461015e57600080fd5b806321e6b53d1461009857806340c10f19146100ad578063715018a6146100c05780638da5cb5b146100c8575b600080fd5b6100ab6100a636600461054e565b610185565b005b6100ab6100bb366004610570565b610236565b6100ab610341565b6000546001600160a01b03165b6040516001600160a01b0390911681526020015b60405180910390f35b6100ab61010036600461054e565b610377565b6100ab61011336600461054e565b6103fc565b6100ab61012636600461054e565b610447565b61014e61013936600461054e565b60016020526000908152604090205460ff1681565b60405190151581526020016100e9565b6100d57f000000000000000000000000000000000000000000000000000000000000000081565b6000546001600160a01b031633146101b85760405162461bcd60e51b81526004016101af9061059a565b60405180910390fd5b60405163f2fde38b60e01b81526001600160a01b0382811660048301527f0000000000000000000000000000000000000000000000000000000000000000169063f2fde38b90602401600060405180830381600087803b15801561021b57600080fd5b505af115801561022f573d6000803e3d6000fd5b5050505050565b3360009081526001602052604090205460ff166102bb5760405162461bcd60e51b815260206004820152603f60248201527f4d696e7461626c65546f6b656e4f776e65723a6d696e743a207468652073656e60448201527f646572206d75737420626520696e20746865206d696e74657273206c6973740060648201526084016101af565b6040516340c10f1960e01b81526001600160a01b038381166004830152602482018390527f000000000000000000000000000000000000000000000000000000000000000016906340c10f1990604401600060405180830381600087803b15801561032557600080fd5b505af1158015610339573d6000803e3d6000fd5b505050505050565b6000546001600160a01b0316331461036b5760405162461bcd60e51b81526004016101af9061059a565b61037560006104e2565b565b6000546001600160a01b031633146103a15760405162461bcd60e51b81526004016101af9061059a565b6001600160a01b038116600081815260016020818152604092839020805460ff191690921790915590519182527f6ae172837ea30b801fbfcdd4108aa1d5bf8ff775444fd70256b44e6bf3dfc3f6910160405180910390a150565b6000546001600160a01b031633146104265760405162461bcd60e51b81526004016101af9061059a565b6001600160a01b03166000908152600160205260409020805460ff19169055565b6000546001600160a01b031633146104715760405162461bcd60e51b81526004016101af9061059a565b6001600160a01b0381166104d65760405162461bcd60e51b815260206004820152602660248201527f4f776e61626c653a206e6577206f776e657220697320746865207a65726f206160448201526564647265737360d01b60648201526084016101af565b6104df816104e2565b50565b600080546001600160a01b038381166001600160a01b0319831681178455604051919092169283917f8be0079c531659141344cd1fd0a4f28419497f9722a3daafe3b4186f6b6457e09190a35050565b80356001600160a01b038116811461054957600080fd5b919050565b60006020828403121561056057600080fd5b61056982610532565b9392505050565b6000806040838503121561058357600080fd5b61058c83610532565b946020939093013593505050565b6020808252818101527f4f776e61626c653a2063616c6c6572206973206e6f7420746865206f776e657260408201526060019056fea2646970667358221220a7568641f483b2c494f4142a673210ff895ef00edda54999bdd54e067c1ff5a564736f6c63430008110033",
  "devdoc": {
    "kind": "dev",
    "methods": {
      "addMinter(address)": {
        "details": "adds new minter",
        "params": {
          "_newMinter": "address of new minter"
        }
      },
      "mint(address,uint256)": {
        "details": "mints tokens to the recipient, to be called from owner",
        "params": {
          "_amount": "amount to be minted",
          "_recipient": "address to mint"
        }
      },
      "owner()": {
        "details": "Returns the address of the current owner."
      },
      "renounceOwnership()": {
        "details": "Leaves the contract without owner. It will not be possible to call `onlyOwner` functions anymore. Can only be called by the current owner. NOTE: Renouncing ownership will leave the contract without an owner, thereby removing any functionality that is only available to the owner."
      },
      "revokeMinter(address)": {
        "details": "removes minter from minter list",
        "params": {
          "_minter": "address of the minter"
        }
      },
      "transferOwnership(address)": {
        "details": "Transfers ownership of the contract to a new account (`newOwner`). Can only be called by the current owner."
      }
    },
    "title": "implements owner of the MintableToken contract",
    "version": 1
  },
  "userdoc": {
    "kind": "user",
    "methods": {},
    "version": 1
  },
  "storageLayout": {
    "storage": [
      {
        "astId": 2054,
        "contract": "contracts/mintable-token-owner.sol:MintableTokenOwner",
        "label": "_owner",
        "offset": 0,
        "slot": "0",
        "type": "t_address"
      },
      {
        "astId": 9858,
        "contract": "contracts/mintable-token-owner.sol:MintableTokenOwner",
        "label": "minters",
        "offset": 0,
        "slot": "1",
        "type": "t_mapping(t_address,t_bool)"
      }
    ],
    "types": {
      "t_address": {
        "encoding": "inplace",
        "label": "address",
        "numberOfBytes": "20"
      },
      "t_bool": {
        "encoding": "inplace",
        "label": "bool",
        "numberOfBytes": "1"
      },
      "t_mapping(t_address,t_bool)": {
        "encoding": "mapping",
        "key": "t_address",
        "label": "mapping(address => bool)",
        "numberOfBytes": "32",
        "value": "t_bool"
      }
    }
  }
}