{
  "address": "0xE1e46C14F9E400e928b0ead380B98a9309a2307B",
  "abi": [
    {
      "inputs": [
        {
          "internalType": "address",
          "name": "_factory",
          "type": "address"
        },
        {
          "internalType": "address",
          "name": "_bonqToken",
          "type": "address"
        }
      ],
      "stateMutability": "nonpayable",
      "type": "constructor"
    },
    {
      "anonymous": false,
      "inputs": [
        {
          "indexed": false,
          "internalType": "address",
          "name": "previousAdmin",
          "type": "address"
        },
        {
          "indexed": false,
          "internalType": "address",
          "name": "newAdmin",
          "type": "address"
        }
      ],
      "name": "AdminChanged",
      "type": "event"
    },
    {
      "anonymous": false,
      "inputs": [
        {
          "indexed": false,
          "internalType": "address[]",
          "name": "_path",
          "type": "address[]"
        },
        {
          "indexed": false,
          "internalType": "uint256",
          "name": "_amountIn",
          "type": "uint256"
        },
        {
          "indexed": false,
          "internalType": "uint256",
          "name": "_amountOut",
          "type": "uint256"
        }
      ],
      "name": "Arbitrage",
      "type": "event"
    },
    {
      "anonymous": false,
      "inputs": [
        {
          "indexed": false,
          "internalType": "uint256",
          "name": "_newAmount",
          "type": "uint256"
        }
      ],
      "name": "BONQPerMinuteUpdated",
      "type": "event"
    },
    {
      "anonymous": false,
      "inputs": [
        {
          "indexed": false,
          "internalType": "uint256",
          "name": "issuance",
          "type": "uint256"
        },
        {
          "indexed": false,
          "internalType": "uint256",
          "name": "_totalBONQRewardsLeft",
          "type": "uint256"
        }
      ],
      "name": "BONQRewardIssue",
      "type": "event"
    },
    {
      "anonymous": false,
      "inputs": [
        {
          "indexed": false,
          "internalType": "address",
          "name": "_contributor",
          "type": "address"
        },
        {
          "indexed": false,
          "internalType": "uint256",
          "name": "_amount",
          "type": "uint256"
        }
      ],
      "name": "BONQRewardRedeemed",
      "type": "event"
    },
    {
      "anonymous": false,
      "inputs": [
        {
          "indexed": true,
          "internalType": "address",
          "name": "beacon",
          "type": "address"
        }
      ],
      "name": "BeaconUpgraded",
      "type": "event"
    },
    {
      "anonymous": false,
      "inputs": [
        {
          "indexed": false,
          "internalType": "address",
          "name": "_contributor",
          "type": "address"
        },
        {
          "indexed": false,
          "internalType": "address",
          "name": "_tokenAddress",
          "type": "address"
        },
        {
          "indexed": false,
          "internalType": "uint256",
          "name": "_amount",
          "type": "uint256"
        },
        {
          "indexed": false,
          "internalType": "uint256",
          "name": "_collateralPrice",
          "type": "uint256"
        }
      ],
      "name": "CollateralRewardRedeemed",
      "type": "event"
    },
    {
      "anonymous": false,
      "inputs": [
        {
          "indexed": false,
          "internalType": "address",
          "name": "_contributor",
          "type": "address"
        },
        {
          "indexed": false,
          "internalType": "uint256",
          "name": "_amount",
          "type": "uint256"
        }
      ],
      "name": "Deposit",
      "type": "event"
    },
    {
      "anonymous": false,
      "inputs": [
        {
          "indexed": true,
          "internalType": "address",
          "name": "_depositor",
          "type": "address"
        },
        {
          "indexed": false,
          "internalType": "uint256",
          "name": "_P",
          "type": "uint256"
        },
        {
          "indexed": false,
          "internalType": "uint256",
          "name": "_G",
          "type": "uint256"
        },
        {
          "indexed": false,
          "internalType": "uint256",
          "name": "_newDepositValue",
          "type": "uint256"
        }
      ],
      "name": "DepositSnapshotUpdated",
      "type": "event"
    },
    {
      "anonymous": false,
      "inputs": [
        {
          "indexed": false,
          "internalType": "uint128",
          "name": "_currentEpoch",
          "type": "uint128"
        }
      ],
      "name": "EpochUpdated",
      "type": "event"
    },
    {
      "anonymous": false,
      "inputs": [
        {
          "indexed": false,
          "internalType": "uint256",
          "name": "_G",
          "type": "uint256"
        },
        {
          "indexed": false,
          "internalType": "uint128",
          "name": "_epoch",
          "type": "uint128"
        },
        {
          "indexed": false,
          "internalType": "uint128",
          "name": "_scale",
          "type": "uint128"
        }
      ],
      "name": "G_Updated",
      "type": "event"
    },
    {
      "anonymous": false,
      "inputs": [
        {
          "indexed": false,
          "internalType": "uint8",
          "name": "version",
          "type": "uint8"
        }
      ],
      "name": "Initialized",
      "type": "event"
    },
    {
      "anonymous": false,
      "inputs": [
        {
          "indexed": true,
          "internalType": "address",
          "name": "previousOwner",
          "type": "address"
        },
        {
          "indexed": true,
          "internalType": "address",
          "name": "newOwner",
          "type": "address"
        }
      ],
      "name": "OwnershipTransferred",
      "type": "event"
    },
    {
      "anonymous": false,
      "inputs": [
        {
          "indexed": false,
          "internalType": "uint256",
          "name": "_P",
          "type": "uint256"
        }
      ],
      "name": "P_Updated",
      "type": "event"
    },
    {
      "anonymous": false,
      "inputs": [
        {
          "indexed": false,
          "internalType": "address",
          "name": "_tokenAddress",
          "type": "address"
        },
        {
          "indexed": false,
          "internalType": "uint256",
          "name": "_S",
          "type": "uint256"
        },
        {
          "indexed": false,
          "internalType": "uint128",
          "name": "_epoch",
          "type": "uint128"
        },
        {
          "indexed": false,
          "internalType": "uint128",
          "name": "_scale",
          "type": "uint128"
        }
      ],
      "name": "S_Updated",
      "type": "event"
    },
    {
      "anonymous": false,
      "inputs": [
        {
          "indexed": false,
          "internalType": "uint128",
          "name": "_currentScale",
          "type": "uint128"
        }
      ],
      "name": "ScaleUpdated",
      "type": "event"
    },
    {
      "anonymous": false,
      "inputs": [
        {
          "indexed": false,
          "internalType": "uint256",
          "name": "_newAmount",
          "type": "uint256"
        }
      ],
      "name": "TotalBONQRewardsUpdated",
      "type": "event"
    },
    {
      "anonymous": false,
      "inputs": [
        {
          "indexed": false,
          "internalType": "uint256",
          "name": "_newValue",
          "type": "uint256"
        }
      ],
      "name": "TotalDepositUpdated",
      "type": "event"
    },
    {
      "anonymous": false,
      "inputs": [
        {
          "indexed": true,
          "internalType": "address",
          "name": "implementation",
          "type": "address"
        }
      ],
      "name": "Upgraded",
      "type": "event"
    },
    {
      "anonymous": false,
      "inputs": [
        {
          "indexed": false,
          "internalType": "address",
          "name": "_contributor",
          "type": "address"
        },
        {
          "indexed": false,
          "internalType": "uint256",
          "name": "_amount",
          "type": "uint256"
        }
      ],
      "name": "Withdraw",
      "type": "event"
    },
    {
      "inputs": [],
      "name": "BORROWING_RATE",
      "outputs": [
        {
          "internalType": "uint256",
          "name": "",
          "type": "uint256"
        }
      ],
      "stateMutability": "view",
      "type": "function"
    },
    {
      "inputs": [],
      "name": "DECIMAL_PRECISION",
      "outputs": [
        {
          "internalType": "uint256",
          "name": "",
          "type": "uint256"
        }
      ],
      "stateMutability": "view",
      "type": "function"
    },
    {
      "inputs": [],
      "name": "LIQUIDATION_RESERVE",
      "outputs": [
        {
          "internalType": "uint256",
          "name": "",
          "type": "uint256"
        }
      ],
      "stateMutability": "view",
      "type": "function"
    },
    {
      "inputs": [],
      "name": "MAX_BORROWING_RATE",
      "outputs": [
        {
          "internalType": "uint256",
          "name": "",
          "type": "uint256"
        }
      ],
      "stateMutability": "view",
      "type": "function"
    },
    {
      "inputs": [],
      "name": "MAX_INT",
      "outputs": [
        {
          "internalType": "uint256",
          "name": "",
          "type": "uint256"
        }
      ],
      "stateMutability": "view",
      "type": "function"
    },
    {
      "inputs": [],
      "name": "P",
      "outputs": [
        {
          "internalType": "uint256",
          "name": "",
          "type": "uint256"
        }
      ],
      "stateMutability": "view",
      "type": "function"
    },
    {
      "inputs": [],
      "name": "PERCENT",
      "outputs": [
        {
          "internalType": "uint256",
          "name": "",
          "type": "uint256"
        }
      ],
      "stateMutability": "view",
      "type": "function"
    },
    {
      "inputs": [],
      "name": "PERCENT10",
      "outputs": [
        {
          "internalType": "uint256",
          "name": "",
          "type": "uint256"
        }
      ],
      "stateMutability": "view",
      "type": "function"
    },
    {
      "inputs": [],
      "name": "PERCENT_05",
      "outputs": [
        {
          "internalType": "uint256",
          "name": "",
          "type": "uint256"
        }
      ],
      "stateMutability": "view",
      "type": "function"
    },
    {
      "inputs": [],
      "name": "SCALE_FACTOR",
      "outputs": [
        {
          "internalType": "uint256",
          "name": "",
          "type": "uint256"
        }
      ],
      "stateMutability": "view",
      "type": "function"
    },
    {
      "inputs": [],
      "name": "SECONDS_IN_ONE_MINUTE",
      "outputs": [
        {
          "internalType": "uint256",
          "name": "",
          "type": "uint256"
        }
      ],
      "stateMutability": "view",
      "type": "function"
    },
    {
      "inputs": [
        {
          "internalType": "uint256",
          "name": "_amountIn",
          "type": "uint256"
        },
        {
          "internalType": "address[]",
          "name": "_path",
          "type": "address[]"
        },
        {
          "internalType": "uint24[]",
          "name": "_fees",
          "type": "uint24[]"
        },
        {
          "internalType": "uint256",
          "name": "expiry",
          "type": "uint256"
        }
      ],
      "name": "arbitrage",
      "outputs": [],
      "stateMutability": "nonpayable",
      "type": "function"
    },
    {
      "inputs": [],
      "name": "bonqPerMinute",
      "outputs": [
        {
          "internalType": "uint256",
          "name": "",
          "type": "uint256"
        }
      ],
      "stateMutability": "view",
      "type": "function"
    },
    {
      "inputs": [],
      "name": "bonqToken",
      "outputs": [
        {
          "internalType": "contract IERC20",
          "name": "",
          "type": "address"
        }
      ],
      "stateMutability": "view",
      "type": "function"
    },
    {
      "inputs": [
        {
          "internalType": "address",
          "name": "",
          "type": "address"
        }
      ],
      "name": "collateralToLastErrorOffset",
      "outputs": [
        {
          "internalType": "uint256",
          "name": "",
          "type": "uint256"
        }
      ],
      "stateMutability": "view",
      "type": "function"
    },
    {
      "inputs": [],
      "name": "currentEpoch",
      "outputs": [
        {
          "internalType": "uint128",
          "name": "",
          "type": "uint128"
        }
      ],
      "stateMutability": "view",
      "type": "function"
    },
    {
      "inputs": [],
      "name": "currentScale",
      "outputs": [
        {
          "internalType": "uint128",
          "name": "",
          "type": "uint128"
        }
      ],
      "stateMutability": "view",
      "type": "function"
    },
    {
      "inputs": [
        {
          "internalType": "uint256",
          "name": "_amount",
          "type": "uint256"
        }
      ],
      "name": "deposit",
      "outputs": [],
      "stateMutability": "nonpayable",
      "type": "function"
    },
    {
      "inputs": [
        {
          "internalType": "address",
          "name": "",
          "type": "address"
        }
      ],
      "name": "depositSnapshots",
      "outputs": [
        {
          "internalType": "uint256",
          "name": "P",
          "type": "uint256"
        },
        {
          "internalType": "uint256",
          "name": "G",
          "type": "uint256"
        },
        {
          "internalType": "uint128",
          "name": "scale",
          "type": "uint128"
        },
        {
          "internalType": "uint128",
          "name": "epoch",
          "type": "uint128"
        }
      ],
      "stateMutability": "view",
      "type": "function"
    },
    {
      "inputs": [
        {
          "internalType": "address",
          "name": "",
          "type": "address"
        }
      ],
      "name": "deposits",
      "outputs": [
        {
          "internalType": "uint256",
          "name": "",
          "type": "uint256"
        }
      ],
      "stateMutability": "view",
      "type": "function"
    },
    {
      "inputs": [
        {
          "internalType": "uint128",
          "name": "",
          "type": "uint128"
        },
        {
          "internalType": "uint128",
          "name": "",
          "type": "uint128"
        }
      ],
      "name": "epochToScaleToG",
      "outputs": [
        {
          "internalType": "uint256",
          "name": "",
          "type": "uint256"
        }
      ],
      "stateMutability": "view",
      "type": "function"
    },
    {
      "inputs": [
        {
          "internalType": "uint128",
          "name": "",
          "type": "uint128"
        },
        {
          "internalType": "uint128",
          "name": "",
          "type": "uint128"
        },
        {
          "internalType": "uint256",
          "name": "",
          "type": "uint256"
        }
      ],
      "name": "epochToScaleToTokenToSum",
      "outputs": [
        {
          "internalType": "address",
          "name": "tokenAddress",
          "type": "address"
        },
        {
          "internalType": "uint256",
          "name": "S_value",
          "type": "uint256"
        }
      ],
      "stateMutability": "view",
      "type": "function"
    },
    {
      "inputs": [],
      "name": "factory",
      "outputs": [
        {
          "internalType": "contract ITroveFactory",
          "name": "",
          "type": "address"
        }
      ],
      "stateMutability": "view",
      "type": "function"
    },
    {
      "inputs": [
        {
          "internalType": "address",
          "name": "_token",
          "type": "address"
        },
        {
          "internalType": "address",
          "name": "_depositor",
          "type": "address"
        }
      ],
      "name": "getCollateralReward",
      "outputs": [
        {
          "internalType": "uint256",
          "name": "",
          "type": "uint256"
        }
      ],
      "stateMutability": "view",
      "type": "function"
    },
    {
      "inputs": [
        {
          "internalType": "address",
          "name": "_depositor",
          "type": "address"
        }
      ],
      "name": "getDepositorBONQGain",
      "outputs": [
        {
          "internalType": "uint256",
          "name": "",
          "type": "uint256"
        }
      ],
      "stateMutability": "view",
      "type": "function"
    },
    {
      "inputs": [
        {
          "internalType": "address",
          "name": "staker",
          "type": "address"
        }
      ],
      "name": "getWithdrawableDeposit",
      "outputs": [
        {
          "internalType": "uint256",
          "name": "",
          "type": "uint256"
        }
      ],
      "stateMutability": "view",
      "type": "function"
    },
    {
      "inputs": [],
      "name": "initialize",
      "outputs": [],
      "stateMutability": "nonpayable",
      "type": "function"
    },
    {
      "inputs": [],
      "name": "lastBONQError",
      "outputs": [
        {
          "internalType": "uint256",
          "name": "",
          "type": "uint256"
        }
      ],
      "stateMutability": "view",
      "type": "function"
    },
    {
      "inputs": [],
      "name": "lastStableCoinLossErrorOffset",
      "outputs": [
        {
          "internalType": "uint256",
          "name": "",
          "type": "uint256"
        }
      ],
      "stateMutability": "view",
      "type": "function"
    },
    {
      "inputs": [],
      "name": "latestBONQRewardTime",
      "outputs": [
        {
          "internalType": "uint256",
          "name": "",
          "type": "uint256"
        }
      ],
      "stateMutability": "view",
      "type": "function"
    },
    {
      "inputs": [],
      "name": "liquidate",
      "outputs": [],
      "stateMutability": "nonpayable",
      "type": "function"
    },
    {
      "inputs": [],
      "name": "owner",
      "outputs": [
        {
          "internalType": "address",
          "name": "",
          "type": "address"
        }
      ],
      "stateMutability": "view",
      "type": "function"
    },
    {
      "inputs": [],
      "name": "proxiableUUID",
      "outputs": [
        {
          "internalType": "bytes32",
          "name": "",
          "type": "bytes32"
        }
      ],
      "stateMutability": "view",
      "type": "function"
    },
    {
      "inputs": [],
      "name": "redeemReward",
      "outputs": [],
      "stateMutability": "nonpayable",
      "type": "function"
    },
    {
      "inputs": [],
      "name": "renounceOwnership",
      "outputs": [],
      "stateMutability": "nonpayable",
      "type": "function"
    },
    {
      "inputs": [],
      "name": "router",
      "outputs": [
        {
          "internalType": "contract IUniswapV3Router",
          "name": "",
          "type": "address"
        }
      ],
      "stateMutability": "view",
      "type": "function"
    },
    {
      "inputs": [],
      "name": "setBONQAmountForRewards",
      "outputs": [],
      "stateMutability": "nonpayable",
      "type": "function"
    },
    {
      "inputs": [
        {
          "internalType": "uint256",
          "name": "_bonqPerMinute",
          "type": "uint256"
        }
      ],
      "name": "setBONQPerMinute",
      "outputs": [],
      "stateMutability": "nonpayable",
      "type": "function"
    },
    {
      "inputs": [
        {
          "internalType": "address",
          "name": "_router",
          "type": "address"
        }
      ],
      "name": "setRouter",
      "outputs": [],
      "stateMutability": "nonpayable",
      "type": "function"
    },
    {
      "inputs": [],
      "name": "stableCoin",
      "outputs": [
        {
          "internalType": "contract IMintableToken",
          "name": "",
          "type": "address"
        }
      ],
      "stateMutability": "view",
      "type": "function"
    },
    {
      "inputs": [],
      "name": "totalBONQRewardsLeft",
      "outputs": [
        {
          "internalType": "uint256",
          "name": "",
          "type": "uint256"
        }
      ],
      "stateMutability": "view",
      "type": "function"
    },
    {
      "inputs": [],
      "name": "totalDeposit",
      "outputs": [
        {
          "internalType": "uint256",
          "name": "",
          "type": "uint256"
        }
      ],
      "stateMutability": "view",
      "type": "function"
    },
    {
      "inputs": [
        {
          "internalType": "address",
          "name": "newOwner",
          "type": "address"
        }
      ],
      "name": "transferOwnership",
      "outputs": [],
      "stateMutability": "nonpayable",
      "type": "function"
    },
    {
      "inputs": [
        {
          "internalType": "address",
          "name": "newImplementation",
          "type": "address"
        }
      ],
      "name": "upgradeTo",
      "outputs": [],
      "stateMutability": "nonpayable",
      "type": "function"
    },
    {
      "inputs": [
        {
          "internalType": "address",
          "name": "newImplementation",
          "type": "address"
        },
        {
          "internalType": "bytes",
          "name": "data",
          "type": "bytes"
        }
      ],
      "name": "upgradeToAndCall",
      "outputs": [],
      "stateMutability": "payable",
      "type": "function"
    },
    {
      "inputs": [
        {
          "internalType": "uint256",
          "name": "_amount",
          "type": "uint256"
        }
      ],
      "name": "withdraw",
      "outputs": [],
      "stateMutability": "nonpayable",
      "type": "function"
    }
  ],
  "transactionHash": "0x888c61594b47a9eaf6f797525015c5f50ea675eac35e79b7b467a464c7231dc3",
  "args": [
    "0x3bB7fFD08f46620beA3a9Ae7F096cF2b213768B3",
    "0x91efbe97e08d0ffc7d31381c032d05fad8e25aaa"
  ],
  "numDeployments": 1,
  "solcInputHash": "37c77ee3f4094be8523db51f4ca8f182",
  "bytecode": "0x610100604052306080523480156200001657600080fd5b5060405162004db838038062004db8833981016040819052620000399162000286565b81816001600160a01b038216620000ac5760405162461bcd60e51b815260206004820152602c60248201527f3366383935352074726f766520666163746f7279206d757374206e6f7420626560448201526b02061646472657373203078360a41b60648201526084015b60405180910390fd5b6001600160a01b038116620001165760405162461bcd60e51b815260206004820152602960248201527f33663839353520626f6e7120746f6b656e206d757374206e6f7420626520616460448201526806472657373203078360bc1b6064820152608401620000a3565b6001600160a01b03821660a08190526040805163992642e560e01b8152905163992642e5916004808201926020929091908290030181865afa15801562000161573d6000803e3d6000fd5b505050506040513d601f19601f82011682018060405250810190620001879190620002c5565b6001600160a01b0390811660c052811660e052620001a4620001ae565b50505050620002ec565b600054610100900460ff1615620002185760405162461bcd60e51b815260206004820152602760248201527f496e697469616c697a61626c653a20636f6e747261637420697320696e697469604482015266616c697a696e6760c81b6064820152608401620000a3565b60005460ff90811610156200026b576000805460ff191660ff9081179091556040519081527f7f26b83ff96e1f2b6a682f133852f6798a09c465da95921460cefb38474024989060200160405180910390a15b565b6001600160a01b03811681146200028357600080fd5b50565b600080604083850312156200029a57600080fd5b8251620002a7816200026d565b6020840151909250620002ba816200026d565b809150509250929050565b600060208284031215620002d857600080fd5b8151620002e5816200026d565b9392505050565b60805160a05160c05160e051614a22620003966000396000818161068901528181610fef0152613b650152600081816105d501528181610afa01528181610e04015281816119fd01528181611ab701528181611bbf01528181611d6501528181611f6301526121ae015260008181610753015281816108f101526139ab015260008181610ef801528181610f38015281816110a7015281816110e701526111a80152614a226000f3fe60806040526004361061027d5760003560e01c80638f5706321161014f578063b6b55f25116100c1578063f20c52741161007a578063f20c52741461078d578063f265a517146107ba578063f2fde38b146107da578063f6153ccd146107fa578063f887ea4014610810578063fc7e286d1461083157600080fd5b8063b6b55f25146106d5578063b85a8b20146106f5578063bdca7c3a1461070a578063c0d7865514610721578063c45a015514610741578063ce4b5bbe1461077557600080fd5b8063a20baee611610113578063a20baee6146105a7578063a4e59ac814610656578063a66ca8f214610677578063abdc5541146106ab578063aceb2d0414610357578063ad09014d146106c057600080fd5b80638f57063214610587578063923c1eec146105a7578063992642e5146105c35780639acee675146105f7578063a1fbb7cb1461063657600080fd5b806361ec893d116101f35780637f09a8bf116101ac5780637f09a8bf1461044e5780638129fc1c1461046e57806382e0a5741461048357806386da0824146104bc5780638b8fbd921461053e5780638da5cb5b1461055557600080fd5b806361ec893d146103a157806363cb2d99146103b65780636470b3cd146103cd578063715018a6146103e4578063741f76cd146103f9578063766718081461040e57600080fd5b80633d79e1f3116102455780633d79e1f3146103195780634e10e41f1461032f5780634f1ef28614610344578063517ef1d71461035757806352d1902d1461036c578063585817b21461038157600080fd5b8063098d32281461028257806324975c4d146102ab57806328a07025146102c25780632e1a7d4d146102d95780633659cfe6146102f9575b600080fd5b34801561028e57600080fd5b5061029860001981565b6040519081526020015b60405180910390f35b3480156102b757600080fd5b506102986101025481565b3480156102ce57600080fd5b506102d761085e565b005b3480156102e557600080fd5b506102d76102f4366004614302565b610c0f565b34801561030557600080fd5b506102d7610314366004614330565b610eee565b34801561032557600080fd5b5061029860fd5481565b34801561033b57600080fd5b506102d7610fca565b6102d7610352366004614363565b61109d565b34801561036357600080fd5b5061029861116d565b34801561037857600080fd5b5061029861119b565b34801561038d57600080fd5b5061029861039c366004614427565b61124e565b3480156103ad57600080fd5b50610298603c81565b3480156103c257600080fd5b506102986101005481565b3480156103d957600080fd5b506102986101015481565b3480156103f057600080fd5b506102d761165d565b34801561040557600080fd5b506102d7611671565b34801561041a57600080fd5b506101055461043690600160801b90046001600160801b031681565b6040516001600160801b0390911681526020016102a2565b34801561045a57600080fd5b506102d7610469366004614302565b611770565b34801561047a57600080fd5b506102d76117bd565b34801561048f57600080fd5b5061029861049e36600461447c565b61010760209081526000928352604080842090915290825290205481565b3480156104c857600080fd5b5061050f6104d7366004614330565b60ff602052600090815260409020600181015460028201546003909201549091906001600160801b0380821691600160801b90041684565b6040805194855260208501939093526001600160801b03918216928401929092521660608201526080016102a2565b34801561054a57600080fd5b506102986101045481565b34801561056157600080fd5b506097546001600160a01b03165b6040516001600160a01b0390911681526020016102a2565b34801561059357600080fd5b506102986105a2366004614330565b6118dc565b3480156105b357600080fd5b50610298670de0b6b3a764000081565b3480156105cf57600080fd5b5061056f7f000000000000000000000000000000000000000000000000000000000000000081565b34801561060357600080fd5b506106176106123660046144af565b61199e565b604080516001600160a01b0390931683526020830191909152016102a2565b34801561064257600080fd5b506102d7610651366004614537565b6119f3565b34801561066257600080fd5b5061010554610436906001600160801b031681565b34801561068357600080fd5b5061056f7f000000000000000000000000000000000000000000000000000000000000000081565b3480156106b757600080fd5b50610298611e94565b3480156106cc57600080fd5b50610298611ea9565b3480156106e157600080fd5b506102d76106f0366004614302565b611ed3565b34801561070157600080fd5b50610298612152565b34801561071657600080fd5b506102986101035481565b34801561072d57600080fd5b506102d761073c366004614330565b612167565b34801561074d57600080fd5b5061056f7f000000000000000000000000000000000000000000000000000000000000000081565b34801561078157600080fd5b50610298633b9aca0081565b34801561079957600080fd5b506102986107a8366004614330565b60fc6020526000908152604090205481565b3480156107c657600080fd5b506102986107d5366004614330565b61221e565b3480156107e657600080fd5b506102d76107f5366004614330565b612306565b34801561080657600080fd5b5061029860fb5481565b34801561081c57600080fd5b506101085461056f906001600160a01b031681565b34801561083d57600080fd5b5061029861084c366004614330565b60fe6020526000908152604090205481565b60003390506000816001600160a01b031663fc0c546a6040518163ffffffff1660e01b8152600401602060405180830381865afa1580156108a3573d6000803e3d6000fd5b505050506040513d601f19601f820116820180604052508101906108c791906145b9565b6040516359eaf06760e11b81526001600160a01b03808316600483015233602483015291925082917f0000000000000000000000000000000000000000000000000000000000000000919082169063b3d5e0ce90604401602060405180830381865afa15801561093b573d6000803e3d6000fd5b505050506040513d601f19601f8201168201806040525081019061095f91906145d6565b6109d65760405162461bcd60e51b815260206004820152603a60248201527f53746162696c697479506f6f6c3a6c69717569646174653a206d75737420626560448201527f2063616c6c65642066726f6d20612076616c69642074726f766500000000000060648201526084015b60405180910390fd5b6000846001600160a01b0316630dca59c16040518163ffffffff1660e01b8152600401602060405180830381865afa158015610a16573d6000803e3d6000fd5b505050506040513d601f19601f82011682018060405250810190610a3a91906145f8565b9050600060fb5490506000866001600160a01b031663d8dfeb456040518163ffffffff1660e01b8152600401602060405180830381865afa158015610a83573d6000803e3d6000fd5b505050506040513d601f19601f82011682018060405250810190610aa791906145f8565b9050610abe6001600160a01b03871688308461237c565b600080610acd878487876123ed565b91509150610adc8783836124ec565b610ae46127bb565b604051630852cd8d60e31b8152600481018690527f00000000000000000000000000000000000000000000000000000000000000006001600160a01b0316906342966c6890602401600060405180830381600087803b158015610b4657600080fd5b505af1158015610b5a573d6000803e3d6000fd5b5050505060008585610b6c9190614627565b60fb8190556040518181529091506000805160206149868339815191529060200160405180910390a16040516328a0e71b60e01b81526001600160a01b038a81166004830152336024830152306044830152606482018690528816906328a0e71b90608401600060405180830381600087803b158015610beb57600080fd5b505af1158015610bff573d6000803e3d6000fd5b5050505050505050505050505050565b610c176127d0565b33600090815260fe602052604090205481610c8a5760405162461bcd60e51b815260206004820152602d60248201527f6636633861207769746864726177616c20616d6f756e74206d7573742062652060448201526c0626967676572207468616e203609c1b60648201526084016109cd565b60008111610cda5760405162461bcd60e51b815260206004820152601960248201527f6636633861207573657220686173206e6f206465706f7369740000000000000060448201526064016109cd565b610ce2612829565b33600090815260ff602090815260408083208151815460c09481028201850190935260a08101838152909391928492849190879085015b82821015610d61576000848152602090819020604080518082019091526002850290910180546001600160a01b03168252600190810154828401529083529092019101610d19565b5050509082525060018201546020820152600282015460408201526003909101546001600160801b038082166060840152600160801b9091041660809091015290506000610daf8383612841565b90506000610dbd8286612948565b90506000610dcb8284614627565b90508160fb54610ddb9190614627565b60fb55610de83382612960565b60405163a9059cbb60e01b8152336004820152602481018390527f00000000000000000000000000000000000000000000000000000000000000006001600160a01b03169063a9059cbb906044016020604051808303816000875af1158015610e55573d6000803e3d6000fd5b505050506040513d601f19601f82011682018060405250810190610e7991906145d6565b5060408051338152602081018490527f884edad9ce6fa2440d8a54cc123490eb96d2768479d49ff9c7366125a9424364910160405180910390a160008051602061498683398151915260fb54604051610ed491815260200190565b60405180910390a15050505050610eeb600160c955565b50565b6001600160a01b037f0000000000000000000000000000000000000000000000000000000000000000163003610f365760405162461bcd60e51b81526004016109cd9061463a565b7f00000000000000000000000000000000000000000000000000000000000000006001600160a01b0316610f7f6000805160206149a6833981519152546001600160a01b031690565b6001600160a01b031614610fa55760405162461bcd60e51b81526004016109cd90614686565b610fae81612b16565b60408051600080825260208201909252610eeb91839190612b1e565b610fd2612c89565b610fda6127bb565b6040516370a0823160e01b81523060048201527f00000000000000000000000000000000000000000000000000000000000000006001600160a01b0316906370a0823190602401602060405180830381865afa15801561103e573d6000803e3d6000fd5b505050506040513d601f19601f8201168201806040525081019061106291906145f8565b6101018190556040519081527f64fbb1ce6061dc744c2611b4abe882accd85d60f61e2dded771a672def68f6a99060200160405180910390a1565b6001600160a01b037f00000000000000000000000000000000000000000000000000000000000000001630036110e55760405162461bcd60e51b81526004016109cd9061463a565b7f00000000000000000000000000000000000000000000000000000000000000006001600160a01b031661112e6000805160206149a6833981519152546001600160a01b031690565b6001600160a01b0316146111545760405162461bcd60e51b81526004016109cd90614686565b61115d82612b16565b61116982826001612b1e565b5050565b60026064611184670de0b6b3a764000060016146d2565b61118e91906146e9565b61119891906146e9565b81565b6000306001600160a01b037f0000000000000000000000000000000000000000000000000000000000000000161461123b5760405162461bcd60e51b815260206004820152603860248201527f555550535570677261646561626c653a206d757374206e6f742062652063616c60448201527f6c6564207468726f7567682064656c656761746563616c6c000000000000000060648201526084016109cd565b506000805160206149a683398151915290565b6001600160a01b038116600090815260ff602090815260408083208151815460c09481028201850190935260a08101838152859491938492849190879085015b828210156112d6576000848152602090819020604080518082019091526002850290910180546001600160a01b0316825260019081015482840152908352909201910161128e565b50505090825250600182015460208083019190915260028301546040808401919091526003909301546001600160801b03808216606080860191909152600160801b90920481166080948501526001600160a01b038916600090815260fe84528581205494870151928701518383168252610106855286822092811682529184528581208054875181870281018701909852808852979850949692959194909391929091849084015b828210156113c7576000848152602090819020604080518082019091526002850290910180546001600160a01b0316825260019081015482840152908352909201910161137f565b5050825160408051808201909152600080825260208201529394509291506113ec9050565b60005b82816001600160801b0316101561145e57600084826001600160801b03168151811061141d5761141d61470b565b602002602001015190508b6001600160a01b031681600001516001600160a01b03160361144b57915061145e565b508061145681614721565b9150506113ef565b5080516001600160a01b031661147e576000975050505050505050611657565b6000805b8851516001600160801b03821610156114fb5760008960000151826001600160801b0316815181106114b6576114b661470b565b602002602001015190508c6001600160a01b031681600001516001600160a01b0316036114e8576020015191506114fb565b50806114f381614721565b915050611482565b506001600160801b03861660009081526101066020526040812081611521886001614747565b6001600160801b03166001600160801b03168152602001908152602001600020805480602002602001604051908101604052809291908181526020016000905b828210156115a9576000848152602090819020604080518082019091526002850290910180546001600160a01b03168252600190810154828401529083529092019101611561565b505050509050600080600090505b8251816001600160801b0316101561162b57600083826001600160801b0316815181106115e6576115e661470b565b602002602001015190508e6001600160a01b031681600001516001600160a01b0316036116185760200151915061162b565b508061162381614721565b9150506115b7565b5060008a60200151905060006116488b8760200151858886612ce3565b9c505050505050505050505050505b92915050565b611665612c89565b61166f6000612d45565b565b33600090815260ff602090815260408083208151815460c09481028201850190935260a08101838152909391928492849190879085015b828210156116f0576000848152602090819020604080518082019091526002850290910180546001600160a01b031682526001908101548284015290835290920191016116a8565b50505090825250600182015460208083019190915260028301546040808401919091526003909301546001600160801b038082166060850152600160801b9091041660809092019190915233600090815260fe909152908120549192506117578284612841565b9050611761612829565b61176b3382612960565b505050565b611778612c89565b6117806127bb565b6101008190556040518181527f27679badf916b7174ea9371b7885300a8a4dfd4ac0c4f02dc062977c54b21407906020015b60405180910390a150565b600054610100900460ff16158080156117dd5750600054600160ff909116105b806117f75750303b1580156117f7575060005460ff166001145b61185a5760405162461bcd60e51b815260206004820152602e60248201527f496e697469616c697a61626c653a20636f6e747261637420697320616c72656160448201526d191e481a5b9a5d1a585b1a5e995960921b60648201526084016109cd565b6000805460ff19166001179055801561187d576000805461ff0019166101001790555b611885612d97565b61188d612dc6565b670de0b6b3a7640000610104558015610eeb576000805461ff0019169055604051600181527f7f26b83ff96e1f2b6a682f133852f6798a09c465da95921460cefb3847402498906020016117b2565b6101015460fb54600091908115806118f5575061010054155b806118fe575080155b1561190d575060009392505050565b6000603c61010254426119209190614627565b61192a91906146e9565b6101005461193891906146d2565b9050808310156119455750815b60008261010354670de0b6b3a76400008461196091906146d2565b61196a9190614767565b61197491906146e9565b90506000610104548261198791906146d2565b90506119938782612df5565b979650505050505050565b61010660205282600052604060002060205281600052604060002081815481106119c757600080fd5b6000918252602090912060029091020180546001909101546001600160a01b0390911693509150839050565b6119fb6127d0565b7f00000000000000000000000000000000000000000000000000000000000000006001600160a01b031685856000818110611a3857611a3861470b565b9050602002016020810190611a4d9190614330565b6001600160a01b031614611aad5760405162461bcd60e51b815260206004820152602160248201527f6561666538206d757374207374617274207769746820737461626c6520636f696044820152603760f91b60648201526084016109cd565b6001600160a01b037f0000000000000000000000000000000000000000000000000000000000000000168585611ae4600182614627565b818110611af357611af361470b565b9050602002016020810190611b089190614330565b6001600160a01b031614611b5e5760405162461bcd60e51b815260206004820152601f60248201527f6561666538206d75737420656e64207769746820737461626c6520636f696e0060448201526064016109cd565b80421080611b6a575080155b611ba75760405162461bcd60e51b815260206004820152600e60248201526d393238353220746f6f206c61746560901b60448201526064016109cd565b6040516370a0823160e01b81523060048201526000907f00000000000000000000000000000000000000000000000000000000000000006001600160a01b0316906370a0823190602401602060405180830381865afa158015611c0e573d6000803e3d6000fd5b505050506040513d601f19601f82011682018060405250810190611c3291906145f8565b905060006040518060800160405280611cae89898080602002602001604051908101604052809392919081815260200183836020028082843760009201919091525050604080516020808d0282810182019093528c82529093508c92508b91829185019084908082843760009201919091525061303d92505050565b8152306020820152604081018a9052606001611ccb8a6001614767565b90526101085460405163b858183f60e01b81529192506001600160a01b03169063b858183f90611cff9084906004016147ca565b6020604051808303816000875af1158015611d1e573d6000803e3d6000fd5b505050506040513d601f19601f82011682018060405250810190611d4291906145f8565b506040516370a0823160e01b815230600482015260009083906001600160a01b037f000000000000000000000000000000000000000000000000000000000000000016906370a0823190602401602060405180830381865afa158015611dac573d6000803e3d6000fd5b505050506040513d601f19601f82011682018060405250810190611dd091906145f8565b611dda9190614627565b9050611e0760fb54670de0b6b3a764000083611df691906146d2565b611e0091906146e9565b600061311d565b60008160fb54611e179190614767565b90508060fb819055507fc0323ca472aa54f0eabab59b3978b426af5bf1e0aa8a4b76aa9d9cc16cd7411089898c85604051611e559493929190614818565b60405180910390a16040518181526000805160206149868339815191529060200160405180910390a150505050611e8c600160c955565b505050505050565b606461118e670de0b6b3a764000060056146d2565b6064611ebe670de0b6b3a764000060016146d2565b611ec891906146e9565b61119890600a6146d2565b611edb6127d0565b60008111611f415760405162461bcd60e51b815260206004820152602d60248201527f6438376331206465706f73697420616d6f756e74206d7573742062652062696760448201526c676572207468616e207a65726f60981b60648201526084016109cd565b6040516323b872dd60e01b8152336004820152306024820152604481018290527f00000000000000000000000000000000000000000000000000000000000000006001600160a01b0316906323b872dd906064016020604051808303816000875af1158015611fb4573d6000803e3d6000fd5b505050506040513d601f19601f82011682018060405250810190611fd891906145d6565b5033600090815260fe6020526040902054611ff1612829565b33600090815260ff602090815260408083208151815460c09481028201850190935260a08101838152909391928492849190879085015b82821015612070576000848152602090819020604080518082019091526002850290910180546001600160a01b03168252600190810154828401529083529092019101612028565b5050509082525060018201546020820152600282015460408201526003909101546001600160801b038082166060840152600160801b90910416608090910152905060006120be8383612841565b905060008460fb546120d09190614767565b60fb81905590506120ea336120e58785614767565b612960565b60408051338152602081018790527fe1fffcc4923d04b559f4d29a8bfc6cda04eb5b0d3c460751c2402c5c5cc9109c910160405180910390a16040518181526000805160206149868339815191529060200160405180910390a150505050610eeb600160c955565b606461118e670de0b6b3a764000060016146d2565b61216f612c89565b61010880546001600160a01b0319166001600160a01b0383811691821790925560405163095ea7b360e01b8152600481019190915260001960248201527f00000000000000000000000000000000000000000000000000000000000000009091169063095ea7b3906044015b6020604051808303816000875af11580156121fa573d6000803e3d6000fd5b505050506040513d601f19601f8201168201806040525081019061116991906145d6565b6001600160a01b038116600090815260fe602090815260408083205460ff83528184208251815460c09581028201860190945260a0810184815292948694919384929091849190879085015b828210156122b2576000848152602090819020604080518082019091526002850290910180546001600160a01b0316825260019081015482840152908352909201910161226a565b5050509082525060018201546020820152600282015460408201526003909101546001600160801b038082166060840152600160801b9091041660809091015290506122fe8282612841565b949350505050565b61230e612c89565b6001600160a01b0381166123735760405162461bcd60e51b815260206004820152602660248201527f4f776e61626c653a206e6577206f776e657220697320746865207a65726f206160448201526564647265737360d01b60648201526084016109cd565b610eeb81612d45565b6040516001600160a01b03808516602483015283166044820152606481018290526123e79085906323b872dd60e01b906084015b60408051601f198184030181529190526020810180516001600160e01b03166001600160e01b031990931692909217909152613389565b50505050565b6001600160a01b038416600090815260fc60205260408120548190819061241c670de0b6b3a7640000886146d2565b6124269190614767565b90508385111561243857612438614870565b83850361245457600060fd55670de0b6b3a764000091506124a9565b60fd5460009061246c670de0b6b3a7640000886146d2565b6124769190614627565b905061248285826146e9565b61248d906001614767565b92508061249a86856146d2565b6124a49190614627565b60fd55505b6124b384826146e9565b92506124bf84846146d2565b6124c99082614627565b6001600160a01b038816600090815260fc60205260409020555094509492505050565b670de0b6b3a764000081111561250457612504614870565b610105546001600160801b03600160801b820481166000818152610106602090815260408083209490951680835293815284822080548651818402810184019097528087529495939492938493849384939190849084015b828210156125a4576000848152602090819020604080518082019091526002850290910180546001600160a01b0316825260019081015482840152908352909201910161255c565b50505050905060005b8151816001600160801b0316101561264a57896001600160a01b031682826001600160801b0316815181106125e4576125e461470b565b6020026020010151600001516001600160a01b0316036126385781816001600160801b0316815181106126195761261961470b565b6020026020010151602001519450806001600160801b03169350600192505b8061264281614721565b9150506125ad565b506000610104548961265c91906146d2565b9050600061266a8287614767565b905082516000148061267a575083155b156126f95760408051808201825260208082018481526001600160a01b038f811684526001600160801b038c811660009081526101068552868120918f168152908452948520805460018082018355918752939095209351600290930290930180546001600160a01b031916929093169190911782555191015561274a565b6001600160801b03808816600090815261010660209081526040808320938c168352929052208054829190879081106127345761273461470b565b9060005260206000209060020201600101819055505b604080516001600160a01b038d168152602081018390526001600160801b03898116828401528a16606082015290517fe799d8213ffd47c58af0bad222f3f83a7bacf689130d897017d6c2cb9346e8cb9181900360800190a16127ae89600161311d565b5050505050505050505050565b60006127c561345b565b9050610eeb81613527565b600260c954036128225760405162461bcd60e51b815260206004820152601f60248201527f5265656e7472616e637947756172643a207265656e7472616e742063616c6c0060448201526064016109cd565b600260c955565b61283161361c565b6128396127bb565b61166f613633565b6020810151610105546080830151600092916001600160801b03600160801b909104811691161015612877576000915050611657565b606083015161010554600091829161289891906001600160801b0316614886565b9050600083156128a857836128b2565b670de0b6b3a76400005b9050816001600160801b03166000036128e6578061010454886128d591906146d2565b6128df91906146e9565b925061291b565b816001600160801b031660010361291657633b9aca0081610104548961290c91906146d2565b6128d591906146e9565b600092505b612929633b9aca00886146e9565b83101561293d576000945050505050611657565b509095945050505050565b60008183106129575781612959565b825b9392505050565b6001600160a01b038216600090815260fe60205260408120829055819003612a0f576001600160a01b038216600090815260ff60205260408120906129a58282614243565b506000600182018190556002820181905560039091018190556040805182815260208101839052908101919091526001600160a01b038316907f2d6cc0bcdf72c9486f6451bde6b80f44066f4558f77f44dbfedbe7d8b295225a9060600160405180910390a25050565b610105546001600160801b03600160801b82048116600081815261010660209081526040808320949095168083529381528482206101045484845261010783528684208685528352868420546001600160a01b038a16855260ff90935295909220825493959293612a8291908590614264565b506001600160a01b038716600081815260ff602090815260409182902060018101869055600281018590556001600160801b03898116600160801b029089161760039091015581518581529081018490529081018890527f2d6cc0bcdf72c9486f6451bde6b80f44066f4558f77f44dbfedbe7d8b295225a9060600160405180910390a250505050505050565b600160c955565b610eeb612c89565b7f4910fdfa16fed3260ed0e7147f7cc6da11a60208b5b9406d12a635614ffd91435460ff1615612b515761176b83613691565b826001600160a01b03166352d1902d6040518163ffffffff1660e01b8152600401602060405180830381865afa925050508015612bab575060408051601f3d908101601f19168201909252612ba8918101906145f8565b60015b612c0e5760405162461bcd60e51b815260206004820152602e60248201527f45524331393637557067726164653a206e657720696d706c656d656e7461746960448201526d6f6e206973206e6f74205555505360901b60648201526084016109cd565b6000805160206149a68339815191528114612c7d5760405162461bcd60e51b815260206004820152602960248201527f45524331393637557067726164653a20756e737570706f727465642070726f786044820152681a58589b195555525160ba1b60648201526084016109cd565b5061176b83838361372d565b6097546001600160a01b0316331461166f5760405162461bcd60e51b815260206004820181905260248201527f4f776e61626c653a2063616c6c6572206973206e6f7420746865206f776e657260448201526064016109cd565b600080612cf08487614627565b90506000612d02633b9aca00876146e9565b90506000670de0b6b3a764000085612d1a8486614767565b612d24908c6146d2565b612d2e91906146e9565b612d3891906146e9565b9998505050505050505050565b609780546001600160a01b038381166001600160a01b0319831681179093556040519116919082907f8be0079c531659141344cd1fd0a4f28419497f9722a3daafe3b4186f6b6457e090600090a35050565b600054610100900460ff16612dbe5760405162461bcd60e51b81526004016109cd906148a6565b61166f613752565b600054610100900460ff16612ded5760405162461bcd60e51b81526004016109cd906148a6565b61166f613782565b6001600160a01b038216600090815260fe6020526040812054808203612e1f576000915050611657565b6001600160a01b038416600090815260ff602090815260408083208151815460c09481028201850190935260a08101838152909391928492849190879085015b82821015612ea7576000848152602090819020604080518082019091526002850290910180546001600160a01b03168252600190810154828401529083529092019101612e5f565b5050509082525060018281015460208084019190915260028401546040808501919091526003909401546001600160801b03808216606080870191909152600160801b90920481166080958601529386018051851660009081526101078085528782209389018051881683529385528782205492519096168152949092529383209351949550939192918391612f3d9190614747565b6001600160801b039081168252602082019290925260400160002054610105546080860151919350600160801b90048216911603612fd8576101055460608401516001600160801b03918216911603612f9d57612f9a8683614767565b91505b6101055460608401516001600160801b0390911690612fbd906001614747565b6001600160801b031603612fd857612fd58682614767565b90505b6000612fe8633b9aca00836146e9565b6040850151612ff79085614627565b6130019190614767565b9050670de0b6b3a76400008460200151828761301d91906146d2565b61302791906146e9565b61303191906146e9565b98975050505050505050565b6060826000815181106130525761305261470b565b6020026020010151604051602001613082919060609190911b6bffffffffffffffffffffffff1916815260140190565b604051602081830303815290604052905060005b825181101561311657818382815181106130b2576130b261470b565b6020026020010151858360016130c89190614767565b815181106130d8576130d861470b565b60200260200101516040516020016130f2939291906148f1565b6040516020818303038152906040529150808061310e9061493d565b915050613096565b5092915050565b6000811561313e5761313783670de0b6b3a7640000614627565b9050613153565b61315083670de0b6b3a7640000614767565b90505b61010454600082810361324557600161010560108282829054906101000a90046001600160801b03166131869190614747565b82546101009290920a6001600160801b0381810219909316918316021790915561010554604051600160801b90910490911681527fb50f0f59e7cb5b421dc77581c3a9919e3806e076e5fa78a874c3f120cb7d874d915060200160405180910390a161010580546fffffffffffffffffffffffffffffffff19169055604051600081527f1f9dfc70cd666adb18a39d60a797518f7b4febf4b6e24ef37d44f6e1e7219fbe9060200160405180910390a150670de0b6b3a7640000613339565b633b9aca00670de0b6b3a764000061325d85856146d2565b61326791906146e9565b101561331957670de0b6b3a7640000633b9aca0061328585856146d2565b61328f91906146d2565b61329991906146e9565b61010580549192506001916000906132bb9084906001600160801b0316614747565b82546101009290920a6001600160801b0381810219909316918316021790915561010554604051911681527f1f9dfc70cd666adb18a39d60a797518f7b4febf4b6e24ef37d44f6e1e7219fbe915060200160405180910390a1613339565b670de0b6b3a764000061332c84846146d2565b61333691906146e9565b90505b6000811161334957613349614870565b6101048190556040518181527fc1a9618cb59ebca77cbdbc2949f126823c407ff13edb285fd0262519a9c18e8c9060200160405180910390a15050505050565b60006133de826040518060400160405280602081526020017f5361666545524332303a206c6f772d6c6576656c2063616c6c206661696c6564815250856001600160a01b03166137a99092919063ffffffff16565b80519091501561176b57808060200190518101906133fc91906145d6565b61176b5760405162461bcd60e51b815260206004820152602a60248201527f5361666545524332303a204552433230206f7065726174696f6e20646964206e6044820152691bdd081cdd58d8d9595960b21b60648201526084016109cd565b610101546000904290801580613472575061010054155b8061347d575060fb54155b1561348d57506101025550600090565b6000603c61010254846134a09190614627565b6134aa91906146e9565b9050600081610100546134bd91906146d2565b9050808310156134ca5750815b60006134d68285614627565b61010181905561010286905560408051848152602081018390529192507fcf1338ecfbea82a9ebfbaf2f9fa49a500ddcca22ec88d9fe2c84a5601248d864910160405180910390a150949350505050565b60fb54801580613535575081155b1561353e575050565b600061354a83836137b8565b90506000610104548261355d91906146d2565b610105546001600160801b03600160801b820481166000818152610107602090815260408083209490951680835293905292832054939450929091906135a4908590614767565b6001600160801b03848116600081815261010760209081526040808320948816808452948252918290208590558151858152908101929092528101919091529091507f2d6127771b164a9cc8827d24b5955db2a77e7a81dac389107ebb8bce9fb649689060600160405180910390a150505050505050565b3360006136288261380d565b905061116981613918565b3360006136408282612df5565b905061364b81613b49565b604080516001600160a01b0384168152602081018390527f898b572eba5d52befcd5b916206be8f29ca2d14157171cdfe0e55381568816cf910160405180910390a15050565b6001600160a01b0381163b6136fe5760405162461bcd60e51b815260206004820152602d60248201527f455243313936373a206e657720696d706c656d656e746174696f6e206973206e60448201526c1bdd08184818dbdb9d1c9858dd609a1b60648201526084016109cd565b6000805160206149a683398151915280546001600160a01b0319166001600160a01b0392909216919091179055565b61373683613b9c565b6000825111806137435750805b1561176b576123e78383613bdc565b600054610100900460ff166137795760405162461bcd60e51b81526004016109cd906148a6565b61166f33612d45565b600054610100900460ff16612b0f5760405162461bcd60e51b81526004016109cd906148a6565b60606122fe8484600085613cc7565b60008061010354670de0b6b3a7640000856137d391906146d2565b6137dd9190614767565b905060006137eb84836146e9565b90506137f784826146d2565b6138019083614627565b61010355949350505050565b6001600160a01b038116600090815260fe60205260408120546060918190036138395750606092915050565b6001600160a01b038316600090815260ff602090815260408083208151815460c09481028201850190935260a08101838152909391928492849190879085015b828210156138c1576000848152602090819020604080518082019091526002850290910180546001600160a01b03168252600190810154828401529083529092019101613879565b5050509082525060018201546020820152600282015460408201526003909101546001600160801b038082166060840152600160801b909104166080909101529050600061390f8383613ded565b95945050505050565b60005b8151811015611169578181815181106139365761393661470b565b60200260200101516020015160000315613b3757600082828151811061395e5761395e61470b565b60200260200101516000015190506139a7338484815181106139825761398261470b565b602002602001015160200151836001600160a01b03166141979092919063ffffffff16565b60007f00000000000000000000000000000000000000000000000000000000000000006001600160a01b031663938573956040518163ffffffff1660e01b8152600401602060405180830381865afa158015613a07573d6000803e3d6000fd5b505050506040513d601f19601f82011682018060405250810190613a2b91906145b9565b6040516384ba3f6960e01b81526001600160a01b03848116600483015291909116906384ba3f6990602401602060405180830381865afa158015613a73573d6000803e3d6000fd5b505050506040513d601f19601f82011682018060405250810190613a9791906145f8565b90507fae50f1116d6a837d81b66006e2fdc600eab77f20a211584e64034c706bcc933633858581518110613acd57613acd61470b565b602002602001015160000151868681518110613aeb57613aeb61470b565b60200260200101516020015184604051613b2c94939291906001600160a01b0394851681529290931660208301526040820152606081019190915260800190565b60405180910390a150505b80613b418161493d565b91505061391b565b60405163a9059cbb60e01b8152336004820152602481018290527f00000000000000000000000000000000000000000000000000000000000000006001600160a01b03169063a9059cbb906044016121db565b613ba581613691565b6040516001600160a01b038216907fbc7cd75a20ee27fd9adebab32041f755214dbc6bffa90cc0225b39da2e5c2d3b90600090a250565b60606001600160a01b0383163b613c445760405162461bcd60e51b815260206004820152602660248201527f416464726573733a2064656c65676174652063616c6c20746f206e6f6e2d636f6044820152651b9d1c9858dd60d21b60648201526084016109cd565b600080846001600160a01b031684604051613c5f9190614956565b600060405180830381855af49150503d8060008114613c9a576040519150601f19603f3d011682016040523d82523d6000602084013e613c9f565b606091505b509150915061390f82826040518060600160405280602781526020016149c6602791396141c7565b606082471015613d285760405162461bcd60e51b815260206004820152602660248201527f416464726573733a20696e73756666696369656e742062616c616e636520666f6044820152651c8818d85b1b60d21b60648201526084016109cd565b6001600160a01b0385163b613d7f5760405162461bcd60e51b815260206004820152601d60248201527f416464726573733a2063616c6c20746f206e6f6e2d636f6e747261637400000060448201526064016109cd565b600080866001600160a01b03168587604051613d9b9190614956565b60006040518083038185875af1925050503d8060008114613dd8576040519150601f19603f3d011682016040523d82523d6000602084013e613ddd565b606091505b50915091506119938282866141e0565b60808101516060828101516001600160801b03808416600090815261010660209081526040808320938516835292815282822080548451818402810184019095528085529596959293929091849084015b82821015613e86576000848152602090819020604080518082019091526002850290910180546001600160a01b03168252600190810154828401529083529092019101613e3e565b50505050905060008151905060008167ffffffffffffffff811115613ead57613ead61434d565b604051908082528060200260200182016040528015613ef257816020015b6040805180820190915260008082526020820152815260200190600190039081613ecb5790505b50905060005b82816001600160801b0316101561418b57600084826001600160801b031681518110613f2657613f2661470b565b60200260200101519050600080600090505b8a51516001600160801b0382161015613fb55760008b60000151826001600160801b031681518110613f6c57613f6c61470b565b6020026020010151905083600001516001600160a01b031681600001516001600160a01b031603613fa257602001519150613fb5565b5080613fad81614721565b915050613f38565b506001600160801b03881660009081526101066020526040812081613fdb8a6001614747565b6001600160801b03166001600160801b03168152602001908152602001600020805480602002602001604051908101604052809291908181526020016000905b82821015614063576000848152602090819020604080518082019091526002850290910180546001600160a01b0316825260019081015482840152908352909201910161401b565b505050509050600080600090505b8251816001600160801b031610156140e957600083826001600160801b0316815181106140a0576140a061470b565b6020026020010151905085600001516001600160a01b031681600001516001600160a01b0316036140d6576020015191506140e9565b50806140e181614721565b915050614071565b5060008c6020015190506141048e8660200151848785612ce3565b87876001600160801b03168151811061411f5761411f61470b565b60200260200101516020018181525050846000015187876001600160801b03168151811061414f5761414f61470b565b6020026020010151600001906001600160a01b031690816001600160a01b0316815250505050505050808061418390614721565b915050613ef8565b50979650505050505050565b6040516001600160a01b03831660248201526044810182905261176b90849063a9059cbb60e01b906064016123b0565b606083156141d6575081612959565b6129598383614219565b606083156141ef575081612959565b8251156141ff5782518084602001fd5b8160405162461bcd60e51b81526004016109cd9190614972565b8151156142295781518083602001fd5b8060405162461bcd60e51b81526004016109cd9190614972565b5080546000825560020290600052602060002090810190610eeb91906142dc565b8280548282559060005260206000209060020281019282156142cc5760005260206000209160020282015b828111156142cc57825482546001600160a01b0319166001600160a01b03909116178255600180840154908301556002928301929091019061428f565b506142d89291506142dc565b5090565b5b808211156142d85780546001600160a01b0319168155600060018201556002016142dd565b60006020828403121561431457600080fd5b5035919050565b6001600160a01b0381168114610eeb57600080fd5b60006020828403121561434257600080fd5b81356129598161431b565b634e487b7160e01b600052604160045260246000fd5b6000806040838503121561437657600080fd5b82356143818161431b565b9150602083013567ffffffffffffffff8082111561439e57600080fd5b818501915085601f8301126143b257600080fd5b8135818111156143c4576143c461434d565b604051601f8201601f19908116603f011681019083821181831017156143ec576143ec61434d565b8160405282815288602084870101111561440557600080fd5b8260208601602083013760006020848301015280955050505050509250929050565b6000806040838503121561443a57600080fd5b82356144458161431b565b915060208301356144558161431b565b809150509250929050565b80356001600160801b038116811461447757600080fd5b919050565b6000806040838503121561448f57600080fd5b61449883614460565b91506144a660208401614460565b90509250929050565b6000806000606084860312156144c457600080fd5b6144cd84614460565b92506144db60208501614460565b9150604084013590509250925092565b60008083601f8401126144fd57600080fd5b50813567ffffffffffffffff81111561451557600080fd5b6020830191508360208260051b850101111561453057600080fd5b9250929050565b6000806000806000806080878903121561455057600080fd5b86359550602087013567ffffffffffffffff8082111561456f57600080fd5b61457b8a838b016144eb565b9097509550604089013591508082111561459457600080fd5b506145a189828a016144eb565b979a9699509497949695606090950135949350505050565b6000602082840312156145cb57600080fd5b81516129598161431b565b6000602082840312156145e857600080fd5b8151801515811461295957600080fd5b60006020828403121561460a57600080fd5b5051919050565b634e487b7160e01b600052601160045260246000fd5b8181038181111561165757611657614611565b6020808252602c908201527f46756e6374696f6e206d7573742062652063616c6c6564207468726f7567682060408201526b19195b1959d85d1958d85b1b60a21b606082015260800190565b6020808252602c908201527f46756e6374696f6e206d7573742062652063616c6c6564207468726f7567682060408201526b6163746976652070726f787960a01b606082015260800190565b808202811582820484141761165757611657614611565b60008261470657634e487b7160e01b600052601260045260246000fd5b500490565b634e487b7160e01b600052603260045260246000fd5b60006001600160801b0380831681810361473d5761473d614611565b6001019392505050565b6001600160801b0381811683821601908082111561311657613116614611565b8082018082111561165757611657614611565b60005b8381101561479557818101518382015260200161477d565b50506000910152565b600081518084526147b681602086016020860161477a565b601f01601f19169290920160200192915050565b6020815260008251608060208401526147e660a084018261479e565b905060018060a01b03602085015116604084015260408401516060840152606084015160808401528091505092915050565b6060808252810184905260008560808301825b8781101561485b57823561483e8161431b565b6001600160a01b031682526020928301929091019060010161482b565b50602084019590955250506040015292915050565b634e487b7160e01b600052600160045260246000fd5b6001600160801b0382811682821603908082111561311657613116614611565b6020808252602b908201527f496e697469616c697a61626c653a20636f6e7472616374206973206e6f74206960408201526a6e697469616c697a696e6760a81b606082015260800190565b6000845161490381846020890161477a565b60e89490941b6001600160e81b0319169190930190815260609190911b6bffffffffffffffffffffffff1916600382015260170192915050565b60006001820161494f5761494f614611565b5060010190565b6000825161496881846020870161477a565b9190910192915050565b602081526000612959602083018461479e56fedd57620b2ca30631ceaca34cdc5bed54a6cf855f32428b9bbd0fcb2c997b9559360894a13ba1a3210667c828492db98dca3e2076cc3735a920a3ca505d382bbc416464726573733a206c6f772d6c6576656c2064656c65676174652063616c6c206661696c6564a26469706673582212207e97d0dfbb1a792be959dd76df0e2e1d39601bc4dfd335bd5591b61de1b2792064736f6c63430008110033",
  "devdoc": {
    "kind": "dev",
    "methods": {
      "arbitrage(uint256,address[],uint24[],uint256)": {
        "details": "use the DEX router to trigger a swap that starts and ends with the stable coin and yields more coins than itrequied as input. This function could be subject to a reentrant attack from a malicious token in the DEX",
        "params": {
          "_amountIn": "start amount",
          "_fees": "calldata[] fees array in correct order",
          "_path": "calldata[]"
        }
      },
      "deposit(uint256)": {
        "details": "to deposit StableCoin into StabilityPool this must be protected against a reentrant attack from the arbitrage",
        "params": {
          "_amount": "amount to deposit"
        }
      },
      "getCollateralReward(address,address)": {
        "details": "gets collateral reward of msg.sender",
        "params": {
          "_token": "collateral token address"
        }
      },
      "getDepositorBONQGain(address)": {
        "details": "gets BONQ reward of _depositor",
        "params": {
          "_depositor": "user address"
        }
      },
      "getWithdrawableDeposit(address)": {
        "details": "gets current deposit of msg.sender"
      },
      "liquidate()": {
        "details": "liquidates trove, must be called from that trovethis function does not provide an opportunity for a reentrancy attack even though it would make the arbitragefail because of the lowering of the stablecoin balance"
      },
      "owner()": {
        "details": "Returns the address of the current owner."
      },
      "proxiableUUID()": {
        "details": "Implementation of the ERC1822 {proxiableUUID} function. This returns the storage slot used by the implementation. It is used to validate the implementation's compatibility when performing an upgrade. IMPORTANT: A proxy pointing at a proxiable contract should not be considered proxiable itself, because this risks bricking a proxy that upgrades to it, by delegating to itself until out of gas. Thus it is critical that this function revert if invoked through a proxy. This is guaranteed by the `notDelegated` modifier."
      },
      "redeemReward()": {
        "details": "to withdraw collateral rewards earned after liquidationsthis function does not provide an opportunity for a reentrancy attack"
      },
      "renounceOwnership()": {
        "details": "Leaves the contract without owner. It will not be possible to call `onlyOwner` functions anymore. Can only be called by the current owner. NOTE: Renouncing ownership will leave the contract without an owner, thereby removing any functionality that is only available to the owner."
      },
      "setBONQAmountForRewards()": {
        "details": "sets total amount of BONQ to be rewarded (pays per minute until reaches the amount rewarded)"
      },
      "setBONQPerMinute(uint256)": {
        "details": "sets amount of BONQ per minute for rewards"
      },
      "setRouter(address)": {
        "details": "set the DEX router to be used for arbitrage functions"
      },
      "transferOwnership(address)": {
        "details": "Transfers ownership of the contract to a new account (`newOwner`). Can only be called by the current owner."
      },
      "upgradeTo(address)": {
        "details": "Upgrade the implementation of the proxy to `newImplementation`. Calls {_authorizeUpgrade}. Emits an {Upgraded} event."
      },
      "upgradeToAndCall(address,bytes)": {
        "details": "Upgrade the implementation of the proxy to `newImplementation`, and subsequently execute the function call encoded in `data`. Calls {_authorizeUpgrade}. Emits an {Upgraded} event."
      },
      "withdraw(uint256)": {
        "details": "to withdraw StableCoin that was not spent if this function is called in a reentrantway during arbitrage  itwould skew the token allocation and must be protected against",
        "params": {
          "_amount": "amount to withdraw"
        }
      }
    },
    "title": "is used to liquidate troves and reward depositors with collateral redeemed",
    "version": 1
  },
  "userdoc": {
    "kind": "user",
    "methods": {
      "liquidate()": {
        "notice": "must be called by the valid trove"
      }
    },
    "version": 1
  },
  "storageLayout": {
    "storage": [
      {
        "astId": 630,
        "contract": "contracts/stability-pool-uniswap.sol:StabilityPoolUniswap",
        "label": "_initialized",
        "offset": 0,
        "slot": "0",
        "type": "t_uint8"
      },
      {
        "astId": 633,
        "contract": "contracts/stability-pool-uniswap.sol:StabilityPoolUniswap",
        "label": "_initializing",
        "offset": 1,
        "slot": "0",
        "type": "t_bool"
      },
      {
        "astId": 612,
        "contract": "contracts/stability-pool-uniswap.sol:StabilityPoolUniswap",
        "label": "__gap",
        "offset": 0,
        "slot": "1",
        "type": "t_array(t_uint256)50_storage"
      },
      {
        "astId": 927,
        "contract": "contracts/stability-pool-uniswap.sol:StabilityPoolUniswap",
        "label": "__gap",
        "offset": 0,
        "slot": "51",
        "type": "t_array(t_uint256)50_storage"
      },
      {
        "astId": 1453,
        "contract": "contracts/stability-pool-uniswap.sol:StabilityPoolUniswap",
        "label": "__gap",
        "offset": 0,
        "slot": "101",
        "type": "t_array(t_uint256)50_storage"
      },
      {
        "astId": 113,
        "contract": "contracts/stability-pool-uniswap.sol:StabilityPoolUniswap",
        "label": "_owner",
        "offset": 0,
        "slot": "151",
        "type": "t_address"
      },
      {
        "astId": 233,
        "contract": "contracts/stability-pool-uniswap.sol:StabilityPoolUniswap",
        "label": "__gap",
        "offset": 0,
        "slot": "152",
        "type": "t_array(t_uint256)49_storage"
      },
      {
        "astId": 1069,
        "contract": "contracts/stability-pool-uniswap.sol:StabilityPoolUniswap",
        "label": "_status",
        "offset": 0,
        "slot": "201",
        "type": "t_uint256"
      },
      {
        "astId": 1127,
        "contract": "contracts/stability-pool-uniswap.sol:StabilityPoolUniswap",
        "label": "__gap",
        "offset": 0,
        "slot": "202",
        "type": "t_array(t_uint256)49_storage"
      },
      {
        "astId": 10917,
        "contract": "contracts/stability-pool-uniswap.sol:StabilityPoolUniswap",
        "label": "totalDeposit",
        "offset": 0,
        "slot": "251",
        "type": "t_uint256"
      },
      {
        "astId": 10921,
        "contract": "contracts/stability-pool-uniswap.sol:StabilityPoolUniswap",
        "label": "collateralToLastErrorOffset",
        "offset": 0,
        "slot": "252",
        "type": "t_mapping(t_address,t_uint256)"
      },
      {
        "astId": 10923,
        "contract": "contracts/stability-pool-uniswap.sol:StabilityPoolUniswap",
        "label": "lastStableCoinLossErrorOffset",
        "offset": 0,
        "slot": "253",
        "type": "t_uint256"
      },
      {
        "astId": 10927,
        "contract": "contracts/stability-pool-uniswap.sol:StabilityPoolUniswap",
        "label": "deposits",
        "offset": 0,
        "slot": "254",
        "type": "t_mapping(t_address,t_uint256)"
      },
      {
        "astId": 10932,
        "contract": "contracts/stability-pool-uniswap.sol:StabilityPoolUniswap",
        "label": "depositSnapshots",
        "offset": 0,
        "slot": "255",
        "type": "t_mapping(t_address,t_struct(Snapshots)10899_storage)"
      },
      {
        "astId": 10934,
        "contract": "contracts/stability-pool-uniswap.sol:StabilityPoolUniswap",
        "label": "bonqPerMinute",
        "offset": 0,
        "slot": "256",
        "type": "t_uint256"
      },
      {
        "astId": 10936,
        "contract": "contracts/stability-pool-uniswap.sol:StabilityPoolUniswap",
        "label": "totalBONQRewardsLeft",
        "offset": 0,
        "slot": "257",
        "type": "t_uint256"
      },
      {
        "astId": 10938,
        "contract": "contracts/stability-pool-uniswap.sol:StabilityPoolUniswap",
        "label": "latestBONQRewardTime",
        "offset": 0,
        "slot": "258",
        "type": "t_uint256"
      },
      {
        "astId": 10940,
        "contract": "contracts/stability-pool-uniswap.sol:StabilityPoolUniswap",
        "label": "lastBONQError",
        "offset": 0,
        "slot": "259",
        "type": "t_uint256"
      },
      {
        "astId": 10942,
        "contract": "contracts/stability-pool-uniswap.sol:StabilityPoolUniswap",
        "label": "P",
        "offset": 0,
        "slot": "260",
        "type": "t_uint256"
      },
      {
        "astId": 10950,
        "contract": "contracts/stability-pool-uniswap.sol:StabilityPoolUniswap",
        "label": "currentScale",
        "offset": 0,
        "slot": "261",
        "type": "t_uint128"
      },
      {
        "astId": 10952,
        "contract": "contracts/stability-pool-uniswap.sol:StabilityPoolUniswap",
        "label": "currentEpoch",
        "offset": 16,
        "slot": "261",
        "type": "t_uint128"
      },
      {
        "astId": 10960,
        "contract": "contracts/stability-pool-uniswap.sol:StabilityPoolUniswap",
        "label": "epochToScaleToTokenToSum",
        "offset": 0,
        "slot": "262",
        "type": "t_mapping(t_uint128,t_mapping(t_uint128,t_array(t_struct(TokenToS)10881_storage)dyn_storage))"
      },
      {
        "astId": 10966,
        "contract": "contracts/stability-pool-uniswap.sol:StabilityPoolUniswap",
        "label": "epochToScaleToG",
        "offset": 0,
        "slot": "263",
        "type": "t_mapping(t_uint128,t_mapping(t_uint128,t_uint256))"
      },
      {
        "astId": 13135,
        "contract": "contracts/stability-pool-uniswap.sol:StabilityPoolUniswap",
        "label": "router",
        "offset": 0,
        "slot": "264",
        "type": "t_contract(IUniswapV3Router)9537"
      }
    ],
    "types": {
      "t_address": {
        "encoding": "inplace",
        "label": "address",
        "numberOfBytes": "20"
      },
      "t_array(t_struct(TokenToS)10881_storage)dyn_storage": {
        "base": "t_struct(TokenToS)10881_storage",
        "encoding": "dynamic_array",
        "label": "struct StabilityPoolBase.TokenToS[]",
        "numberOfBytes": "32"
      },
      "t_array(t_uint256)49_storage": {
        "base": "t_uint256",
        "encoding": "inplace",
        "label": "uint256[49]",
        "numberOfBytes": "1568"
      },
      "t_array(t_uint256)50_storage": {
        "base": "t_uint256",
        "encoding": "inplace",
        "label": "uint256[50]",
        "numberOfBytes": "1600"
      },
      "t_bool": {
        "encoding": "inplace",
        "label": "bool",
        "numberOfBytes": "1"
      },
      "t_contract(IUniswapV3Router)9537": {
        "encoding": "inplace",
        "label": "contract IUniswapV3Router",
        "numberOfBytes": "20"
      },
      "t_mapping(t_address,t_struct(Snapshots)10899_storage)": {
        "encoding": "mapping",
        "key": "t_address",
        "label": "mapping(address => struct StabilityPoolBase.Snapshots)",
        "numberOfBytes": "32",
        "value": "t_struct(Snapshots)10899_storage"
      },
      "t_mapping(t_address,t_uint256)": {
        "encoding": "mapping",
        "key": "t_address",
        "label": "mapping(address => uint256)",
        "numberOfBytes": "32",
        "value": "t_uint256"
      },
      "t_mapping(t_uint128,t_array(t_struct(TokenToS)10881_storage)dyn_storage)": {
        "encoding": "mapping",
        "key": "t_uint128",
        "label": "mapping(uint128 => struct StabilityPoolBase.TokenToS[])",
        "numberOfBytes": "32",
        "value": "t_array(t_struct(TokenToS)10881_storage)dyn_storage"
      },
      "t_mapping(t_uint128,t_mapping(t_uint128,t_array(t_struct(TokenToS)10881_storage)dyn_storage))": {
        "encoding": "mapping",
        "key": "t_uint128",
        "label": "mapping(uint128 => mapping(uint128 => struct StabilityPoolBase.TokenToS[]))",
        "numberOfBytes": "32",
        "value": "t_mapping(t_uint128,t_array(t_struct(TokenToS)10881_storage)dyn_storage)"
      },
      "t_mapping(t_uint128,t_mapping(t_uint128,t_uint256))": {
        "encoding": "mapping",
        "key": "t_uint128",
        "label": "mapping(uint128 => mapping(uint128 => uint256))",
        "numberOfBytes": "32",
        "value": "t_mapping(t_uint128,t_uint256)"
      },
      "t_mapping(t_uint128,t_uint256)": {
        "encoding": "mapping",
        "key": "t_uint128",
        "label": "mapping(uint128 => uint256)",
        "numberOfBytes": "32",
        "value": "t_uint256"
      },
      "t_struct(Snapshots)10899_storage": {
        "encoding": "inplace",
        "label": "struct StabilityPoolBase.Snapshots",
        "members": [
          {
            "astId": 10890,
            "contract": "contracts/stability-pool-uniswap.sol:StabilityPoolUniswap",
            "label": "tokenToSArray",
            "offset": 0,
            "slot": "0",
            "type": "t_array(t_struct(TokenToS)10881_storage)dyn_storage"
          },
          {
            "astId": 10892,
            "contract": "contracts/stability-pool-uniswap.sol:StabilityPoolUniswap",
            "label": "P",
            "offset": 0,
            "slot": "1",
            "type": "t_uint256"
          },
          {
            "astId": 10894,
            "contract": "contracts/stability-pool-uniswap.sol:StabilityPoolUniswap",
            "label": "G",
            "offset": 0,
            "slot": "2",
            "type": "t_uint256"
          },
          {
            "astId": 10896,
            "contract": "contracts/stability-pool-uniswap.sol:StabilityPoolUniswap",
            "label": "scale",
            "offset": 0,
            "slot": "3",
            "type": "t_uint128"
          },
          {
            "astId": 10898,
            "contract": "contracts/stability-pool-uniswap.sol:StabilityPoolUniswap",
            "label": "epoch",
            "offset": 16,
            "slot": "3",
            "type": "t_uint128"
          }
        ],
        "numberOfBytes": "128"
      },
      "t_struct(TokenToS)10881_storage": {
        "encoding": "inplace",
        "label": "struct StabilityPoolBase.TokenToS",
        "members": [
          {
            "astId": 10878,
            "contract": "contracts/stability-pool-uniswap.sol:StabilityPoolUniswap",
            "label": "tokenAddress",
            "offset": 0,
            "slot": "0",
            "type": "t_address"
          },
          {
            "astId": 10880,
            "contract": "contracts/stability-pool-uniswap.sol:StabilityPoolUniswap",
            "label": "S_value",
            "offset": 0,
            "slot": "1",
            "type": "t_uint256"
          }
        ],
        "numberOfBytes": "64"
      },
      "t_uint128": {
        "encoding": "inplace",
        "label": "uint128",
        "numberOfBytes": "16"
      },
      "t_uint256": {
        "encoding": "inplace",
        "label": "uint256",
        "numberOfBytes": "32"
      },
      "t_uint8": {
        "encoding": "inplace",
        "label": "uint8",
        "numberOfBytes": "1"
      }
    }
  }
}