{
  "address": "0xC93ba6594AfcAf1DF61088F764175579F2EF3963",
  "abi": [
    {
      "inputs": [
        {
          "internalType": "address",
          "name": "_factory",
          "type": "address"
        }
      ],
      "stateMutability": "nonpayable",
      "type": "constructor"
    },
    {
      "anonymous": false,
      "inputs": [
        {
          "indexed": false,
          "internalType": "address",
          "name": "trove",
          "type": "address"
        },
        {
          "indexed": false,
          "internalType": "uint256",
          "name": "debt",
          "type": "uint256"
        },
        {
          "indexed": false,
          "internalType": "uint256",
          "name": "collateral",
          "type": "uint256"
        }
      ],
      "name": "Liquidated",
      "type": "event"
    },
    {
      "anonymous": false,
      "inputs": [
        {
          "indexed": true,
          "internalType": "address",
          "name": "previousOwner",
          "type": "address"
        },
        {
          "indexed": true,
          "internalType": "address",
          "name": "newOwner",
          "type": "address"
        }
      ],
      "name": "OwnershipTransferred",
      "type": "event"
    },
    {
      "anonymous": false,
      "inputs": [
        {
          "indexed": true,
          "internalType": "bytes32",
          "name": "role",
          "type": "bytes32"
        },
        {
          "indexed": true,
          "internalType": "bytes32",
          "name": "previousAdminRole",
          "type": "bytes32"
        },
        {
          "indexed": true,
          "internalType": "bytes32",
          "name": "newAdminRole",
          "type": "bytes32"
        }
      ],
      "name": "RoleAdminChanged",
      "type": "event"
    },
    {
      "anonymous": false,
      "inputs": [
        {
          "indexed": true,
          "internalType": "bytes32",
          "name": "role",
          "type": "bytes32"
        },
        {
          "indexed": true,
          "internalType": "address",
          "name": "account",
          "type": "address"
        },
        {
          "indexed": true,
          "internalType": "address",
          "name": "sender",
          "type": "address"
        }
      ],
      "name": "RoleGranted",
      "type": "event"
    },
    {
      "anonymous": false,
      "inputs": [
        {
          "indexed": true,
          "internalType": "bytes32",
          "name": "role",
          "type": "bytes32"
        },
        {
          "indexed": true,
          "internalType": "address",
          "name": "account",
          "type": "address"
        },
        {
          "indexed": true,
          "internalType": "address",
          "name": "sender",
          "type": "address"
        }
      ],
      "name": "RoleRevoked",
      "type": "event"
    },
    {
      "inputs": [],
      "name": "BORROWING_RATE",
      "outputs": [
        {
          "internalType": "uint256",
          "name": "",
          "type": "uint256"
        }
      ],
      "stateMutability": "view",
      "type": "function"
    },
    {
      "inputs": [],
      "name": "DECIMAL_PRECISION",
      "outputs": [
        {
          "internalType": "uint256",
          "name": "",
          "type": "uint256"
        }
      ],
      "stateMutability": "view",
      "type": "function"
    },
    {
      "inputs": [],
      "name": "DEFAULT_ADMIN_ROLE",
      "outputs": [
        {
          "internalType": "bytes32",
          "name": "",
          "type": "bytes32"
        }
      ],
      "stateMutability": "view",
      "type": "function"
    },
    {
      "inputs": [],
      "name": "LIQUIDATION_RESERVE",
      "outputs": [
        {
          "internalType": "uint256",
          "name": "",
          "type": "uint256"
        }
      ],
      "stateMutability": "view",
      "type": "function"
    },
    {
      "inputs": [],
      "name": "MAX_BORROWING_RATE",
      "outputs": [
        {
          "internalType": "uint256",
          "name": "",
          "type": "uint256"
        }
      ],
      "stateMutability": "view",
      "type": "function"
    },
    {
      "inputs": [],
      "name": "MAX_INT",
      "outputs": [
        {
          "internalType": "uint256",
          "name": "",
          "type": "uint256"
        }
      ],
      "stateMutability": "view",
      "type": "function"
    },
    {
      "inputs": [],
      "name": "OWNER_ROLE",
      "outputs": [
        {
          "internalType": "bytes32",
          "name": "",
          "type": "bytes32"
        }
      ],
      "stateMutability": "view",
      "type": "function"
    },
    {
      "inputs": [],
      "name": "PERCENT",
      "outputs": [
        {
          "internalType": "uint256",
          "name": "",
          "type": "uint256"
        }
      ],
      "stateMutability": "view",
      "type": "function"
    },
    {
      "inputs": [],
      "name": "PERCENT10",
      "outputs": [
        {
          "internalType": "uint256",
          "name": "",
          "type": "uint256"
        }
      ],
      "stateMutability": "view",
      "type": "function"
    },
    {
      "inputs": [],
      "name": "PERCENT_05",
      "outputs": [
        {
          "internalType": "uint256",
          "name": "",
          "type": "uint256"
        }
      ],
      "stateMutability": "view",
      "type": "function"
    },
    {
      "inputs": [],
      "name": "TOKEN_PRECISION",
      "outputs": [
        {
          "internalType": "uint256",
          "name": "",
          "type": "uint256"
        }
      ],
      "stateMutability": "view",
      "type": "function"
    },
    {
      "inputs": [
        {
          "internalType": "address",
          "name": "_newOwner",
          "type": "address"
        }
      ],
      "name": "addOwner",
      "outputs": [],
      "stateMutability": "nonpayable",
      "type": "function"
    },
    {
      "inputs": [],
      "name": "arbitrageParticipation",
      "outputs": [
        {
          "internalType": "bool",
          "name": "",
          "type": "bool"
        }
      ],
      "stateMutability": "view",
      "type": "function"
    },
    {
      "inputs": [],
      "name": "arbitrageState",
      "outputs": [
        {
          "internalType": "contract IArbitragePool",
          "name": "arbitragePool",
          "type": "address"
        },
        {
          "internalType": "contract IMintableToken",
          "name": "apToken",
          "type": "address"
        },
        {
          "internalType": "uint256",
          "name": "lastApPrice",
          "type": "uint256"
        }
      ],
      "stateMutability": "view",
      "type": "function"
    },
    {
      "inputs": [
        {
          "internalType": "address",
          "name": "_recipient",
          "type": "address"
        },
        {
          "internalType": "uint256",
          "name": "_amount",
          "type": "uint256"
        },
        {
          "internalType": "address",
          "name": "_newNextTrove",
          "type": "address"
        }
      ],
      "name": "borrow",
      "outputs": [],
      "stateMutability": "nonpayable",
      "type": "function"
    },
    {
      "inputs": [
        {
          "internalType": "address",
          "name": "_recipient",
          "type": "address"
        },
        {
          "internalType": "uint256",
          "name": "_amount",
          "type": "uint256"
        },
        {
          "internalType": "address",
          "name": "_newNextTrove",
          "type": "address"
        },
        {
          "internalType": "address",
          "name": "_routerAddress",
          "type": "address"
        },
        {
          "internalType": "address[]",
          "name": "_path",
          "type": "address[]"
        },
        {
          "internalType": "uint256",
          "name": "_maxSlippage",
          "type": "uint256"
        },
        {
          "internalType": "uint256",
          "name": "_deadline",
          "type": "uint256"
        }
      ],
      "name": "borrowAndSwap",
      "outputs": [],
      "stateMutability": "nonpayable",
      "type": "function"
    },
    {
      "inputs": [],
      "name": "collateral",
      "outputs": [
        {
          "internalType": "uint256",
          "name": "",
          "type": "uint256"
        }
      ],
      "stateMutability": "view",
      "type": "function"
    },
    {
      "inputs": [],
      "name": "collateralValue",
      "outputs": [
        {
          "internalType": "uint256",
          "name": "",
          "type": "uint256"
        }
      ],
      "stateMutability": "view",
      "type": "function"
    },
    {
      "inputs": [],
      "name": "collateralization",
      "outputs": [
        {
          "internalType": "uint256",
          "name": "",
          "type": "uint256"
        }
      ],
      "stateMutability": "view",
      "type": "function"
    },
    {
      "inputs": [],
      "name": "debt",
      "outputs": [
        {
          "internalType": "uint256",
          "name": "",
          "type": "uint256"
        }
      ],
      "stateMutability": "view",
      "type": "function"
    },
    {
      "inputs": [
        {
          "internalType": "address",
          "name": "_recipient",
          "type": "address"
        },
        {
          "internalType": "uint256",
          "name": "_amount",
          "type": "uint256"
        },
        {
          "internalType": "address",
          "name": "_newNextTrove",
          "type": "address"
        }
      ],
      "name": "decreaseCollateral",
      "outputs": [],
      "stateMutability": "nonpayable",
      "type": "function"
    },
    {
      "inputs": [],
      "name": "factory",
      "outputs": [
        {
          "internalType": "contract ITroveFactory",
          "name": "",
          "type": "address"
        }
      ],
      "stateMutability": "view",
      "type": "function"
    },
    {
      "inputs": [
        {
          "internalType": "bytes32",
          "name": "role",
          "type": "bytes32"
        }
      ],
      "name": "getRoleAdmin",
      "outputs": [
        {
          "internalType": "bytes32",
          "name": "",
          "type": "bytes32"
        }
      ],
      "stateMutability": "view",
      "type": "function"
    },
    {
      "inputs": [
        {
          "internalType": "bytes32",
          "name": "role",
          "type": "bytes32"
        },
        {
          "internalType": "uint256",
          "name": "index",
          "type": "uint256"
        }
      ],
      "name": "getRoleMember",
      "outputs": [
        {
          "internalType": "address",
          "name": "",
          "type": "address"
        }
      ],
      "stateMutability": "view",
      "type": "function"
    },
    {
      "inputs": [
        {
          "internalType": "bytes32",
          "name": "role",
          "type": "bytes32"
        }
      ],
      "name": "getRoleMemberCount",
      "outputs": [
        {
          "internalType": "uint256",
          "name": "",
          "type": "uint256"
        }
      ],
      "stateMutability": "view",
      "type": "function"
    },
    {
      "inputs": [
        {
          "internalType": "bytes32",
          "name": "role",
          "type": "bytes32"
        },
        {
          "internalType": "address",
          "name": "account",
          "type": "address"
        }
      ],
      "name": "grantRole",
      "outputs": [],
      "stateMutability": "nonpayable",
      "type": "function"
    },
    {
      "inputs": [
        {
          "internalType": "bytes32",
          "name": "role",
          "type": "bytes32"
        },
        {
          "internalType": "address",
          "name": "account",
          "type": "address"
        }
      ],
      "name": "hasRole",
      "outputs": [
        {
          "internalType": "bool",
          "name": "",
          "type": "bool"
        }
      ],
      "stateMutability": "view",
      "type": "function"
    },
    {
      "inputs": [
        {
          "internalType": "uint256",
          "name": "_amount",
          "type": "uint256"
        },
        {
          "internalType": "address",
          "name": "_newNextTrove",
          "type": "address"
        }
      ],
      "name": "increaseCollateral",
      "outputs": [],
      "stateMutability": "nonpayable",
      "type": "function"
    },
    {
      "inputs": [
        {
          "internalType": "address",
          "name": "_token",
          "type": "address"
        },
        {
          "internalType": "address",
          "name": "_troveOwner",
          "type": "address"
        }
      ],
      "name": "initialize",
      "outputs": [],
      "stateMutability": "nonpayable",
      "type": "function"
    },
    {
      "inputs": [],
      "name": "liqTokenRateSnapshot",
      "outputs": [
        {
          "internalType": "uint256",
          "name": "",
          "type": "uint256"
        }
      ],
      "stateMutability": "view",
      "type": "function"
    },
    {
      "inputs": [],
      "name": "liquidate",
      "outputs": [],
      "stateMutability": "nonpayable",
      "type": "function"
    },
    {
      "inputs": [],
      "name": "liquidationReserve",
      "outputs": [
        {
          "internalType": "uint256",
          "name": "",
          "type": "uint256"
        }
      ],
      "stateMutability": "view",
      "type": "function"
    },
    {
      "inputs": [],
      "name": "mcr",
      "outputs": [
        {
          "internalType": "uint256",
          "name": "",
          "type": "uint256"
        }
      ],
      "stateMutability": "view",
      "type": "function"
    },
    {
      "inputs": [],
      "name": "netDebt",
      "outputs": [
        {
          "internalType": "uint256",
          "name": "",
          "type": "uint256"
        }
      ],
      "stateMutability": "view",
      "type": "function"
    },
    {
      "inputs": [],
      "name": "owner",
      "outputs": [
        {
          "internalType": "address",
          "name": "",
          "type": "address"
        }
      ],
      "stateMutability": "view",
      "type": "function"
    },
    {
      "inputs": [],
      "name": "recordedCollateral",
      "outputs": [
        {
          "internalType": "uint256",
          "name": "",
          "type": "uint256"
        }
      ],
      "stateMutability": "view",
      "type": "function"
    },
    {
      "inputs": [
        {
          "internalType": "address",
          "name": "_recipient",
          "type": "address"
        },
        {
          "internalType": "address",
          "name": "_newNextTrove",
          "type": "address"
        }
      ],
      "name": "redeem",
      "outputs": [
        {
          "internalType": "uint256",
          "name": "_stableAmount",
          "type": "uint256"
        },
        {
          "internalType": "uint256",
          "name": "_collateralRecieved",
          "type": "uint256"
        }
      ],
      "stateMutability": "nonpayable",
      "type": "function"
    },
    {
      "inputs": [
        {
          "internalType": "address",
          "name": "_ownerToRemove",
          "type": "address"
        }
      ],
      "name": "removeOwner",
      "outputs": [],
      "stateMutability": "nonpayable",
      "type": "function"
    },
    {
      "inputs": [],
      "name": "renounceOwnership",
      "outputs": [],
      "stateMutability": "nonpayable",
      "type": "function"
    },
    {
      "inputs": [
        {
          "internalType": "bytes32",
          "name": "role",
          "type": "bytes32"
        },
        {
          "internalType": "address",
          "name": "account",
          "type": "address"
        }
      ],
      "name": "renounceRole",
      "outputs": [],
      "stateMutability": "nonpayable",
      "type": "function"
    },
    {
      "inputs": [
        {
          "internalType": "uint256",
          "name": "_amount",
          "type": "uint256"
        },
        {
          "internalType": "address",
          "name": "_newNextTrove",
          "type": "address"
        }
      ],
      "name": "repay",
      "outputs": [],
      "stateMutability": "nonpayable",
      "type": "function"
    },
    {
      "inputs": [
        {
          "internalType": "bytes32",
          "name": "role",
          "type": "bytes32"
        },
        {
          "internalType": "address",
          "name": "account",
          "type": "address"
        }
      ],
      "name": "revokeRole",
      "outputs": [],
      "stateMutability": "nonpayable",
      "type": "function"
    },
    {
      "inputs": [
        {
          "internalType": "bool",
          "name": "_state",
          "type": "bool"
        }
      ],
      "name": "setArbitrageParticipation",
      "outputs": [],
      "stateMutability": "nonpayable",
      "type": "function"
    },
    {
      "inputs": [
        {
          "internalType": "bytes4",
          "name": "interfaceId",
          "type": "bytes4"
        }
      ],
      "name": "supportsInterface",
      "outputs": [
        {
          "internalType": "bool",
          "name": "",
          "type": "bool"
        }
      ],
      "stateMutability": "view",
      "type": "function"
    },
    {
      "inputs": [],
      "name": "token",
      "outputs": [
        {
          "internalType": "contract IERC20",
          "name": "",
          "type": "address"
        }
      ],
      "stateMutability": "view",
      "type": "function"
    },
    {
      "inputs": [
        {
          "internalType": "address",
          "name": "_newOwner",
          "type": "address"
        }
      ],
      "name": "transferOwnership",
      "outputs": [],
      "stateMutability": "nonpayable",
      "type": "function"
    },
    {
      "inputs": [
        {
          "internalType": "address",
          "name": "_token",
          "type": "address"
        },
        {
          "internalType": "address",
          "name": "_recipient",
          "type": "address"
        }
      ],
      "name": "transferToken",
      "outputs": [],
      "stateMutability": "nonpayable",
      "type": "function"
    },
    {
      "inputs": [],
      "name": "unclaimedArbitrageReward",
      "outputs": [
        {
          "internalType": "uint256",
          "name": "",
          "type": "uint256"
        }
      ],
      "stateMutability": "view",
      "type": "function"
    },
    {
      "inputs": [],
      "name": "unclaimedCollateralRewardAndDebt",
      "outputs": [
        {
          "internalType": "uint256",
          "name": "",
          "type": "uint256"
        },
        {
          "internalType": "uint256",
          "name": "",
          "type": "uint256"
        }
      ],
      "stateMutability": "view",
      "type": "function"
    }
  ],
  "transactionHash": "0xb365df11df66fdac95133542cdcdbef7e44dfae9c1938624d6384f80c5ac570e",
  "args": [
    "0x3bB7fFD08f46620beA3a9Ae7F096cF2b213768B3"
  ],
  "numDeployments": 1,
  "solcInputHash": "bf3d4309507180ad8123e30dbce5d19e",
  "bytecode": "0x60a06040523480156200001157600080fd5b50604051620052b4380380620052b48339810160408190526200003491620000a1565b6200003f3362000051565b6001600160a01b0316608052620000d3565b600080546001600160a01b038381166001600160a01b0319831681178455604051919092169283917f8be0079c531659141344cd1fd0a4f28419497f9722a3daafe3b4186f6b6457e09190a35050565b600060208284031215620000b457600080fd5b81516001600160a01b0381168114620000cc57600080fd5b9392505050565b6080516150b462000200600039600081816105530152818161075e0152818161087d0152818161090101528181610a0b01528181610b6901528181610be601528181610cc601528181610ea101528181610f3b0152818161125a0152818161148f0152818161155701528181611643015281816116d30152818161186301528181611a2801528181611b0a01528181611baa01528181611c9201528181611e9d0152818161242e015281816126cc01528181612749015281816127e0015281816128db015281816129b301528181612b3d01528181612d990152818161311401528181613468015281816135a001528181613639015281816136770152818161392a01528181613c9b01528181613d3401528181613dff01528181613f670152613fda01526150b46000f3fe608060405234801561001057600080fd5b50600436106102bb5760003560e01c80639010d07c11610182578063b8caedc4116100e9578063d547741f116100a2578063e58378bb1161007c578063e58378bb146105bc578063eaca974b146105d1578063f2fde38b146105da578063fc0c546a146105ed57600080fd5b8063d547741f14610599578063d8dfeb45146105ac578063d91d2f60146105b457600080fd5b8063b8caedc41461051e578063bba06f2714610526578063c45a01551461054e578063c661689414610575578063c8c33edc1461057e578063ca15c8731461058657600080fd5b8063a217fddf1161013b578063a217fddf146104eb578063abdc5541146104f3578063acb70815146104fb578063aceb2d04146103d7578063ad09014d1461050e578063b85a8b201461051657600080fd5b80639010d07c1461049b57806391d14854146104ae578063923c1eec146104c1578063964080ce146104d057806397828c02146104e3578063a20baee6146104c157600080fd5b80633c7034a3116102265780636c665a55116101df5780636c665a551461042c5780636d3db2541461043f5780637065cb4814610452578063715018a6146104655780637d4113c91461046d5780638da5cb5b1461047657600080fd5b80633c7034a31461039e578063485cc955146103b157806348ae238f146103c4578063517ef1d7146103d75780635b8462d9146103df578063673a1ac21461042357600080fd5b8063249db00c11610278578063249db00c1461035357806328a07025146103605780632f2ff15d14610368578063315330291461037b57806336568abe146103835780633746403c1461039657600080fd5b806301ffc9a7146102c0578063098d3228146102e85780630dca59c1146102ff578063173825d91461030757806323cb70f81461031c578063248a9ca31461032f575b600080fd5b6102d36102ce366004614a22565b610600565b60405190151581526020015b60405180910390f35b6102f160001981565b6040519081526020016102df565b6102f161062b565b61031a610315366004614a61565b61064d565b005b61031a61032a366004614a7e565b610717565b6102f161033d366004614aae565b6000908152600160208190526040909120015490565b6009546102d39060ff1681565b61031a610802565b61031a610376366004614a7e565b610f02565b6102f1610f2e565b61031a610391366004614a7e565b611049565b6102f16110c7565b61031a6103ac366004614ac7565b6110de565b61031a6103bf366004614b09565b6112fe565b61031a6103d2366004614b09565b6117cf565b6102f16119c4565b600a54600b54600c546103fd926001600160a01b0390811692169083565b604080516001600160a01b039485168152939092166020840152908201526060016102df565b6102f160075481565b61031a61043a366004614ac7565b6119f2565b61031a61044d366004614b37565b611bfd565b61031a610460366004614a61565b611d22565b61031a611d6e565b6102f160085481565b6000546001600160a01b03165b6040516001600160a01b0390911681526020016102df565b6104836104a9366004614bff565b611dd4565b6102d36104bc366004614a7e565b611df3565b6102f1670de0b6b3a764000081565b61031a6104de366004614c2f565b611e1e565b6102f1612299565b6102f1600081565b6102f16123ba565b61031a610509366004614a7e565b6123cf565b6102f161279d565b6102f16127c7565b6102f16127dc565b610539610534366004614b09565b6128cd565b604080519283526020830191909152016102df565b6104837f000000000000000000000000000000000000000000000000000000000000000081565b6102f160045481565b610539612d70565b6102f1610594366004614aae565b612e80565b61031a6105a7366004614a7e565b612e97565b6102f1612ebe565b6102f1613069565b6102f160008051602061505f83398151915281565b6102f160065481565b61031a6105e8366004614a61565b6130aa565b600354610483906001600160a01b031681565b60006001600160e01b03198216635a05180f60e01b1480610625575061062582613138565b92915050565b600080610636612d70565b915050806005546106479190614c62565b91505090565b61066560008051602061505f83398151915233611df3565b61068a5760405162461bcd60e51b815260040161068190614c75565b60405180910390fd5b806001600160a01b03166106a66000546001600160a01b031690565b6001600160a01b0316036106fc5760405162461bcd60e51b815260206004820152601e60248201527f363034653320646f206e6f742072656d6f7665206d61696e206f776e657200006044820152606401610681565b61071460008051602061505f8339815191528261316d565b50565b6003546001600160a01b0316821561073e5761073e6001600160a01b03821633308661318f565b6000610748613200565b6005549091501561075c5761075c8361351a565b7f00000000000000000000000000000000000000000000000000000000000000006001600160a01b031663e04a3e908383610795613667565b6040516001600160e01b031960e086901b1681526001600160a01b039093166004840152602483019190915260448201526064015b600060405180830381600087803b1580156107e457600080fd5b505af11580156107f8573d6000803e3d6000fd5b5050505050505050565b61080a613200565b506108136127dc565b61081b613667565b1061085f5760405162461bcd60e51b81526020600482015260146024820152731a1a9a331a1021a91036bab9ba10363a1026a1a960611b6044820152606401610681565b6000600360009054906101000a90046001600160a01b0316905060007f00000000000000000000000000000000000000000000000000000000000000006001600160a01b031663048c661d6040518163ffffffff1660e01b8152600401602060405180830381865afa1580156108d9573d6000803e3d6000fd5b505050506040513d601f19601f820116820180604052508101906108fd9190614cb8565b90507f00000000000000000000000000000000000000000000000000000000000000006001600160a01b031663992642e56040518163ffffffff1660e01b8152600401602060405180830381865afa15801561095d573d6000803e3d6000fd5b505050506040513d601f19601f820116820180604052508101906109819190614cb8565b6001600160a01b031663095ea7b3336006546040518363ffffffff1660e01b81526004016109b0929190614cd5565b6020604051808303816000875af11580156109cf573d6000803e3d6000fd5b505050506040513d601f19601f820116820180604052508101906109f39190614cee565b5060095460ff1615610a0957610a096000611e1e565b7f00000000000000000000000000000000000000000000000000000000000000006001600160a01b0316635c975abb6040518163ffffffff1660e01b8152600401602060405180830381865afa158015610a67573d6000803e3d6000fd5b505050506040513d601f19601f82011682018060405250810190610a8b9190614cee565b158015610aa65750670de0b6b3a7640000610aa4613667565b115b8015610b1a5750610ab561062b565b816001600160a01b031663f6153ccd6040518163ffffffff1660e01b8152600401602060405180830381865afa158015610af3573d6000803e3d6000fd5b505050506040513d601f19601f82011682018060405250810190610b179190614d0b565b10155b15610ca457600754610b38906001600160a01b038416908390613778565b600754604051636757634d60e01b81526001600160a01b0384811660048301526024820192909252600060448201527f000000000000000000000000000000000000000000000000000000000000000090911690636757634d90606401600060405180830381600087803b158015610baf57600080fd5b505af1158015610bc3573d6000803e3d6000fd5b5050600554604051631bd6899160e31b81526004810191909152600060248201527f00000000000000000000000000000000000000000000000000000000000000006001600160a01b0316925063deb44c889150604401600060405180830381600087803b158015610c3457600080fd5b505af1158015610c48573d6000803e3d6000fd5b50505050806001600160a01b03166328a070256040518163ffffffff1660e01b8152600401600060405180830381600087803b158015610c8757600080fd5b505af1158015610c9b573d6000803e3d6000fd5b50505050610e0f565b604051633770395560e21b81526001600160a01b0383811660048301526000917f00000000000000000000000000000000000000000000000000000000000000009091169063ddc0e55490602401602060405180830381865afa158015610d0f573d6000803e3d6000fd5b505050506040513d601f19601f82011682018060405250810190610d339190614cb8565b9050610d5581600754856001600160a01b03166137789092919063ffffffff16565b806001600160a01b03166328a070256040518163ffffffff1660e01b8152600401600060405180830381600087803b158015610d9057600080fd5b505af1158015610da4573d6000803e3d6000fd5b50505050806001600160a01b03166366501ae56040518163ffffffff1660e01b8152600401602060405180830381865afa158015610de6573d6000803e3d6000fd5b505050506040513d601f19601f82011682018060405250810190610e0a9190614d0b565b600855505b60065460056000828254610e239190614d24565b90915550506005546007546040805130815260208101939093528201527f09c223cfcd8c93e245f558f5f8de755fc0930fd9bc257441155ef5d54a170e0f9060600160405180910390a1600060058190556006819055600755604051638225052760e01b81526001600160a01b0383811660048301523060248301527f000000000000000000000000000000000000000000000000000000000000000016906382250527906044015b600060405180830381600087803b158015610ee657600080fd5b505af1158015610efa573d6000803e3d6000fd5b505050505050565b60008281526001602081905260409091200154610f1f813361387c565b610f2983836138e0565b505050565b6000670de0b6b3a76400007f00000000000000000000000000000000000000000000000000000000000000006001600160a01b031663938573956040518163ffffffff1660e01b8152600401602060405180830381865afa158015610f97573d6000803e3d6000fd5b505050506040513d601f19601f82011682018060405250810190610fbb9190614cb8565b6003546040516384ba3f6960e01b81526001600160a01b0391821660048201529116906384ba3f6990602401602060405180830381865afa158015611004573d6000803e3d6000fd5b505050506040513d601f19601f820116820180604052508101906110289190614d0b565b611030612ebe565b61103a9190614d37565b6110449190614d4e565b905090565b6001600160a01b03811633146110b95760405162461bcd60e51b815260206004820152602f60248201527f416363657373436f6e74726f6c3a2063616e206f6e6c792072656e6f756e636560448201526e103937b632b9903337b91039b2b63360891b6064820152608401610681565b6110c3828261316d565b5050565b60006006546110d461062b565b6110449190614d24565b6110f660008051602061505f83398151915233611df3565b6111125760405162461bcd60e51b815260040161068190614c75565b61111a613902565b6003546009546001600160a01b039091169060ff161561122657600a5460405163053342c960e11b81526001600160a01b0383811660048301526000921690630a66859290602401602060405180830381865afa15801561117f573d6000803e3d6000fd5b505050506040513d601f19601f820116820180604052508101906111a39190614d0b565b6111b5670de0b6b3a764000086614d37565b6111bf9190614d4e565b600a5460405163f3fef3a360e01b81529192506001600160a01b03169063f3fef3a3906111f29085908590600401614cd5565b600060405180830381600087803b15801561120c57600080fd5b505af1158015611220573d6000803e3d6000fd5b50505050505b61123a6001600160a01b0382168585613b95565b6000611244613200565b60055490915015611258576112588361351a565b7f00000000000000000000000000000000000000000000000000000000000000006001600160a01b031663e04a3e908383611291613667565b6040516001600160e01b031960e086901b1681526001600160a01b03909316600484015260248301919091526044820152606401600060405180830381600087803b1580156112df57600080fd5b505af11580156112f3573d6000803e3d6000fd5b505050505050505050565b600054600160a81b900460ff1661132257600054600160a01b900460ff1615611326565b303b155b6113895760405162461bcd60e51b815260206004820152602e60248201527f496e697469616c697a61626c653a20636f6e747261637420697320616c72656160448201526d191e481a5b9a5d1a585b1a5e995960921b6064820152608401610681565b600054600160a81b900460ff161580156113b3576000805461ffff60a01b191661010160a01b1790555b6001600160a01b0383166114175760405162461bcd60e51b815260206004820152602560248201527f343166653638205f746f6b656e206d757374206e6f7420626520616464726573604482015264073203078360dc1b6064820152608401610681565b6001600160a01b0382166114805760405162461bcd60e51b815260206004820152602a60248201527f343166653638205f74726f76654f776e6572206d757374206e6f7420626520616044820152690646472657373203078360b41b6064820152608401610681565b61148982613bb4565b6114b3827f0000000000000000000000000000000000000000000000000000000000000000613c04565b600380546001600160a01b0319166001600160a01b0385169081179091556040805163313ce56760e01b8152905163313ce567916004808201926020929091908290030181865afa15801561150c573d6000803e3d6000fd5b505050506040513d601f19601f820116820180604052508101906115309190614d70565b61153b90600a614e77565b6004908155604051633770395560e21b81526001600160a01b037f0000000000000000000000000000000000000000000000000000000000000000169163ddc0e55491611599918791016001600160a01b0391909116815260200190565b602060405180830381865afa1580156115b6573d6000803e3d6000fd5b505050506040513d601f19601f820116820180604052508101906115da9190614cb8565b6001600160a01b03166366501ae56040518163ffffffff1660e01b8152600401602060405180830381865afa158015611617573d6000803e3d6000fd5b505050506040513d601f19601f8201168201806040525081019061163b9190614d0b565b6008819055507f00000000000000000000000000000000000000000000000000000000000000006001600160a01b031663992642e56040518163ffffffff1660e01b8152600401602060405180830381865afa15801561169f573d6000803e3d6000fd5b505050506040513d601f19601f820116820180604052508101906116c39190614cb8565b6001600160a01b031663095ea7b37f00000000000000000000000000000000000000000000000000000000000000006001600160a01b031663469048406040518163ffffffff1660e01b8152600401602060405180830381865afa15801561172f573d6000803e3d6000fd5b505050506040513d601f19601f820116820180604052508101906117539190614cb8565b6000196040518363ffffffff1660e01b8152600401611773929190614cd5565b6020604051808303816000875af1158015611792573d6000803e3d6000fd5b505050506040513d601f19601f820116820180604052508101906117b69190614cee565b508015610f29576000805460ff60a81b19169055505050565b6117e760008051602061505f83398151915233611df3565b6118035760405162461bcd60e51b815260040161068190614c75565b6003546001600160a01b03908116908316036118615760405162461bcd60e51b815260206004820152601f60248201527f37613831302063616e2774207472616e7366657220636f6c6c61746572616c006044820152606401610681565b7f00000000000000000000000000000000000000000000000000000000000000006001600160a01b031663992642e56040518163ffffffff1660e01b8152600401602060405180830381865afa1580156118bf573d6000803e3d6000fd5b505050506040513d601f19601f820116820180604052508101906118e39190614cb8565b6001600160a01b0316826001600160a01b0316036119435760405162461bcd60e51b815260206004820181905260248201527f37613831302063616e2774207472616e7366657220737461626c6520636f696e6044820152606401610681565b6040516370a0823160e01b81523060048201526000906001600160a01b038416906370a0823190602401602060405180830381865afa15801561198a573d6000803e3d6000fd5b505050506040513d601f19601f820116820180604052508101906119ae9190614d0b565b9050610f296001600160a01b0384168383613b95565b600260646119db670de0b6b3a76400006001614d37565b6119e59190614d4e565b6119ef9190614d4e565b81565b611a0a60008051602061505f83398151915233611df3565b611a265760405162461bcd60e51b815260040161068190614c75565b7f00000000000000000000000000000000000000000000000000000000000000006001600160a01b0316635c975abb6040518163ffffffff1660e01b8152600401602060405180830381865afa158015611a84573d6000803e3d6000fd5b505050506040513d601f19601f82011682018060405250810190611aa89190614cee565b15611af55760405162461bcd60e51b815260206004820152601d60248201527f63666134622054726f766520466163746f7279206973207061757365640000006044820152606401610681565b6000611b018383613c34565b9050611b9a84847f00000000000000000000000000000000000000000000000000000000000000006001600160a01b031663992642e56040518163ffffffff1660e01b8152600401602060405180830381865afa158015611b66573d6000803e3d6000fd5b505050506040513d601f19601f82011682018060405250810190611b8a9190614cb8565b6001600160a01b03169190613b95565b6003546005546001600160a01b037f00000000000000000000000000000000000000000000000000000000000000008116926379a71baf92911690611bdd613667565b856040518563ffffffff1660e01b81526004016107ca9493929190614e86565b611c1560008051602061505f83398151915233611df3565b611c315760405162461bcd60e51b815260040161068190614c75565b6000611c3d8888613c34565b9050611c828989888888808060200260200160405190810160405280939291908181526020018383602002808284376000920191909152508a9250899150613fd39050565b6003546005546001600160a01b037f00000000000000000000000000000000000000000000000000000000000000008116926379a71baf92911690611cc5613667565b856040518563ffffffff1660e01b8152600401611ce59493929190614e86565b600060405180830381600087803b158015611cff57600080fd5b505af1158015611d13573d6000803e3d6000fd5b50505050505050505050505050565b611d3a60008051602061505f83398151915233611df3565b611d565760405162461bcd60e51b815260040161068190614c75565b61071460008051602061505f833981519152826138e0565b6000546001600160a01b03163314611dc85760405162461bcd60e51b815260206004820181905260248201527f4f776e61626c653a2063616c6c6572206973206e6f7420746865206f776e65726044820152606401610681565b611dd26000613bb4565b565b6000828152600260205260408120611dec908361413a565b9392505050565b60009182526001602090815260408084206001600160a01b0393909316845291905290205460ff1690565b611e3660008051602061505f83398151915233611df3565b611e525760405162461bcd60e51b815260040161068190614c75565b60095460ff1615158115151461071457611e6a613200565b506003546009805460ff1916831515179055604080516307452ffb60e31b815290516001600160a01b03928316926000927f000000000000000000000000000000000000000000000000000000000000000090911691633a297fd8916004808201926020929091908290030181865afa158015611eeb573d6000803e3d6000fd5b505050506040513d601f19601f82011682018060405250810190611f0f9190614cb8565b9050821561218357611f2d6001600160a01b03831682600019613778565b604051634b1c143560e01b81526001600160a01b03838116600483015260009190831690634b1c1435906024016020604051808303816000875af1158015611f79573d6000803e3d6000fd5b505050506040513d601f19601f82011682018060405250810190611f9d9190614cb8565b60405163095ea7b360e01b81529091506001600160a01b0382169063095ea7b390611fd090859060001990600401614cd5565b6020604051808303816000875af1158015611fef573d6000803e3d6000fd5b505050506040513d601f19601f820116820180604052508101906120139190614cee565b50600a80546001600160a01b038481166001600160a01b031992831617909255600b805484841692169190911790556040516370a0823160e01b81523060048201526000918516906370a0823190602401602060405180830381865afa158015612081573d6000803e3d6000fd5b505050506040513d601f19601f820116820180604052508101906120a59190614d0b565b9050801561210e576040516311f9fbc960e21b81526001600160a01b038416906347e7ef24906120db9087908590600401614cd5565b600060405180830381600087803b1580156120f557600080fd5b505af1158015612109573d6000803e3d6000fd5b505050505b60405163053342c960e11b81526001600160a01b038581166004830152841690630a66859290602401602060405180830381865afa158015612154573d6000803e3d6000fd5b505050506040513d601f19601f820116820180604052508101906121789190614d0b565b600c5550610f299050565b6121986001600160a01b038316826000613778565b600b546040516370a0823160e01b81523060048201526000916001600160a01b0316906370a0823190602401602060405180830381865afa1580156121e1573d6000803e3d6000fd5b505050506040513d601f19601f820116820180604052508101906122059190614d0b565b9050801561227257600a5460405163f3fef3a360e01b81526001600160a01b039091169063f3fef3a39061223f9086908590600401614cd5565b600060405180830381600087803b15801561225957600080fd5b505af115801561226d573d6000803e3d6000fd5b505050505b50600a80546001600160a01b0319908116909155600b805490911690556000600c55505050565b600b546040516370a0823160e01b815230600482015260009182916001600160a01b03909116906370a0823190602401602060405180830381865afa1580156122e6573d6000803e3d6000fd5b505050506040513d601f19601f8201168201806040525081019061230a9190614d0b565b600a5460035460405163053342c960e11b81526001600160a01b039182166004820152929350600092911690630a66859290602401602060405180830381865afa15801561235c573d6000803e3d6000fd5b505050506040513d601f19601f820116820180604052508101906123809190614d0b565b600c549091506000906123939083614d24565b9050670de0b6b3a76400006123a88285614d37565b6123b29190614d4e565b935050505090565b60646119e5670de0b6b3a76400006005614d37565b6123d7613200565b5060006005541161242a5760405162461bcd60e51b815260206004820152601c60248201527f65333762322064656274206d757374206265206774207468616e2030000000006044820152606401610681565b60007f00000000000000000000000000000000000000000000000000000000000000006001600160a01b031663992642e56040518163ffffffff1660e01b8152600401602060405180830381865afa15801561248a573d6000803e3d6000fd5b505050506040513d601f19601f820116820180604052508101906124ae9190614cb8565b60065490915083156124ee576124d2816005546124cb9190614d24565b8590614146565b93506124e96001600160a01b03831633308761318f565b6125c1565b6040516370a0823160e01b815230600482015261256f9082906001600160a01b038516906370a0823190602401602060405180830381865afa158015612538573d6000803e3d6000fd5b505050506040513d601f19601f8201168201806040525081019061255c9190614d0b565b6125669190614d24565b60055490614146565b9350600084116125c15760405162461bcd60e51b815260206004820152601860248201527f653337623220696e73756666696369656e742066756e647300000000000000006044820152606401610681565b604051630852cd8d60e31b8152600481018590526001600160a01b038316906342966c6890602401600060405180830381600087803b15801561260357600080fd5b505af1158015612617573d6000803e3d6000fd5b50505050836005600082825461262d9190614d24565b90915550506005548190036126af57604051630852cd8d60e31b8152600481018290526001600160a01b038316906342966c6890602401600060405180830381600087803b15801561267e57600080fd5b505af1158015612692573d6000803e3d6000fd5b5050505080846126a29190614c62565b6000600581905560065593505b604051631bd6899160e31b815260048101859052600060248201527f00000000000000000000000000000000000000000000000000000000000000006001600160a01b03169063deb44c8890604401600060405180830381600087803b15801561271857600080fd5b505af115801561272c573d6000803e3d6000fd5b505050506127398361351a565b6003546005546001600160a01b037f00000000000000000000000000000000000000000000000000000000000000008116926379a71baf9291169061277c613667565b60006040518563ffffffff1660e01b81526004016107ca9493929190614e86565b60646127b2670de0b6b3a76400006001614d37565b6127bc9190614d4e565b6119ef90600a614d37565b60646119e5670de0b6b3a76400006001614d37565b60007f00000000000000000000000000000000000000000000000000000000000000006001600160a01b031663938573956040518163ffffffff1660e01b8152600401602060405180830381865afa15801561283c573d6000803e3d6000fd5b505050506040513d601f19601f820116820180604052508101906128609190614cb8565b60035460405163aa41911f60e01b81526001600160a01b03918216600482015291169063aa41911f90602401602060405180830381865afa1580156128a9573d6000803e3d6000fd5b505050506040513d601f19601f820116820180604052508101906110449190614d0b565b600080336001600160a01b037f000000000000000000000000000000000000000000000000000000000000000016146129485760405162461bcd60e51b815260206004820181905260248201527f3132313061206f6e6c792063616c6c61626c652066726f6d20666163746f72796044820152606401610681565b612950613902565b612958613667565b6129606127dc565b11156129ae5760405162461bcd60e51b815260206004820152601960248201527f653935376620544352206d75737420626520677465204d4352000000000000006044820152606401610681565b6006547f00000000000000000000000000000000000000000000000000000000000000006001600160a01b031663992642e56040518163ffffffff1660e01b8152600401602060405180830381865afa158015612a0f573d6000803e3d6000fd5b505050506040513d601f19601f82011682018060405250810190612a339190614cb8565b6040516370a0823160e01b81523060048201526001600160a01b0391909116906370a0823190602401602060405180830381865afa158015612a79573d6000803e3d6000fd5b505050506040513d601f19601f82011682018060405250810190612a9d9190614d0b565b612aa79190614d24565b91506001600160a01b03831615612ac857612ac06110c7565b821115612ad3565b612ad06110c7565b82145b612b1f5760405162461bcd60e51b815260206004820181905260248201527f653935376620616d6f756e7420213d206465627420616e64206e6f2068696e746044820152606401610681565b6000600360009054906101000a90046001600160a01b0316905060007f00000000000000000000000000000000000000000000000000000000000000006001600160a01b031663938573956040518163ffffffff1660e01b8152600401602060405180830381865afa158015612b99573d6000803e3d6000fd5b505050506040513d601f19601f82011682018060405250810190612bbd9190614cb8565b6040516384ba3f6960e01b81526001600160a01b03848116600483015291909116906384ba3f6990602401602060405180830381865afa158015612c05573d6000803e3d6000fd5b505050506040513d601f19601f82011682018060405250810190612c299190614d0b565b612c3b670de0b6b3a764000086614d37565b612c459190614d4e565b60095490915060ff1615612d4557600a5460405163053342c960e11b81526001600160a01b0384811660048301526000921690630a66859290602401602060405180830381865afa158015612c9e573d6000803e3d6000fd5b505050506040513d601f19601f82011682018060405250810190612cc29190614d0b565b612cd4670de0b6b3a764000084614d37565b612cde9190614d4e565b600a5460405163f3fef3a360e01b81529192506001600160a01b03169063f3fef3a390612d119086908590600401614cd5565b600060405180830381600087803b158015612d2b57600080fd5b505af1158015612d3f573d6000803e3d6000fd5b50505050505b612d596001600160a01b0383168783613b95565b809250612d676000866123cf565b50509250929050565b600354604051633770395560e21b81526001600160a01b039182166004820152600091829182917f0000000000000000000000000000000000000000000000000000000000000000169063ddc0e55490602401602060405180830381865afa158015612de0573d6000803e3d6000fd5b505050506040513d601f19601f82011682018060405250810190612e049190614cb8565b90506000816001600160a01b03166366501ae56040518163ffffffff1660e01b8152600401602060405180830381865afa158015612e46573d6000803e3d6000fd5b505050506040513d601f19601f82011682018060405250810190612e6a9190614d0b565b9050612e76828261415c565b9350935050509091565b6000818152600260205260408120610625906142ea565b60008281526001602081905260409091200154612eb4813361387c565b610f29838361316d565b600080612ec9612d70565b506003546040516370a0823160e01b815230600482015291925060009183916001600160a01b0316906370a0823190602401602060405180830381865afa158015612f18573d6000803e3d6000fd5b505050506040513d601f19601f82011682018060405250810190612f3c9190614d0b565b612f469190614c62565b60095490915060ff161561062557600b546040516370a0823160e01b81523060048201526000916001600160a01b0316906370a0823190602401602060405180830381865afa158015612f9d573d6000803e3d6000fd5b505050506040513d601f19601f82011682018060405250810190612fc19190614d0b565b600a5460035460405163053342c960e11b81526001600160a01b039182166004820152929350600092911690630a66859290602401602060405180830381865afa158015613013573d6000803e3d6000fd5b505050506040513d601f19601f820116820180604052508101906130379190614d0b565b9050670de0b6b3a764000061304c8284614d37565b6130569190614d4e565b6130609084614c62565b94505050505090565b60008061307461062b565b905080156130a15780613085610f2e565b61309790670de0b6b3a7640000614d37565b6106479190614d4e565b60001991505090565b6130b3816142f4565b60006130cc60008051602061505f833981519152612e80565b90505b801561310d576130fb60008051602061505f8339815191526130f6816104a9600186614d24565b61316d565b8061310581614eac565b9150506130cf565b50610714817f0000000000000000000000000000000000000000000000000000000000000000613c04565b60006001600160e01b03198216637965db0b60e01b148061062557506301ffc9a760e01b6001600160e01b0319831614610625565b61317782826143bc565b6000828152600260205260409020610f299082614423565b6040516001600160a01b03808516602483015283166044820152606481018290526131fa9085906323b872dd60e01b906084015b60408051601f198184030181529190526020810180516001600160e01b03166001600160e01b031990931692909217909152614438565b50505050565b600061320a613902565b6007546003546009546001600160a01b039091169060009060ff16156133e7576040516370a0823160e01b81523060048201526000906001600160a01b038416906370a0823190602401602060405180830381865afa158015613271573d6000803e3d6000fd5b505050506040513d601f19601f820116820180604052508101906132959190614d0b565b9050801561330257600a546040516311f9fbc960e21b81526001600160a01b03909116906347e7ef24906132cf9086908590600401614cd5565b600060405180830381600087803b1580156132e957600080fd5b505af11580156132fd573d6000803e3d6000fd5b505050505b600b546040516370a0823160e01b81523060048201526001600160a01b03909116906370a0823190602401602060405180830381865afa15801561334a573d6000803e3d6000fd5b505050506040513d601f19601f8201168201806040525081019061336e9190614d0b565b600a5460405163053342c960e11b81526001600160a01b038681166004830152929450911690630a66859290602401602060405180830381865afa1580156133ba573d6000803e3d6000fd5b505050506040513d601f19601f820116820180604052508101906133de9190614d0b565b600c5550613452565b6040516370a0823160e01b81523060048201526001600160a01b038316906370a0823190602401602060405180830381865afa15801561342b573d6000803e3d6000fd5b505050506040513d601f19601f8201168201806040525081019061344f9190614d0b565b90505b6007819055828114611dec576001600160a01b037f000000000000000000000000000000000000000000000000000000000000000016636757634d836134988487614146565b6134a2858861450a565b6134ac9190614d24565b6040516001600160e01b031960e085901b1681526001600160a01b0390921660048301526024820152858410156044820152606401600060405180830381600087803b1580156134fb57600080fd5b505af115801561350f573d6000803e3d6000fd5b505050509392505050565b6135226127dc565b61352a613667565b10156135785760405162461bcd60e51b815260206004820152601760248201527f343136373020544352206d757374206265203e204d43520000000000000000006044820152606401610681565b6003546040516304b91f7360e51b81526001600160a01b0391821660048201819052916001917f000000000000000000000000000000000000000000000000000000000000000090911690639723ee6090602401602060405180830381865afa1580156135e9573d6000803e3d6000fd5b505050506040513d601f19601f8201168201806040525081019061360d9190614d0b565b11156110c35760405162037da560e31b81526001600160a01b03828116600483015283811660248301527f00000000000000000000000000000000000000000000000000000000000000001690621bed2890604401610ecc565b60055460009015613771576005547f00000000000000000000000000000000000000000000000000000000000000006001600160a01b031663938573956040518163ffffffff1660e01b8152600401602060405180830381865afa1580156136d3573d6000803e3d6000fd5b505050506040513d601f19601f820116820180604052508101906136f79190614cb8565b6003546040516384ba3f6960e01b81526001600160a01b0391821660048201529116906384ba3f6990602401602060405180830381865afa158015613740573d6000803e3d6000fd5b505050506040513d601f19601f820116820180604052508101906137649190614d0b565b60075461103a9190614d37565b5060001990565b8015806137f25750604051636eb1769f60e11b81523060048201526001600160a01b03838116602483015284169063dd62ed3e90604401602060405180830381865afa1580156137cc573d6000803e3d6000fd5b505050506040513d601f19601f820116820180604052508101906137f09190614d0b565b155b61385d5760405162461bcd60e51b815260206004820152603660248201527f5361666545524332303a20617070726f76652066726f6d206e6f6e2d7a65726f60448201527520746f206e6f6e2d7a65726f20616c6c6f77616e636560501b6064820152608401610681565b610f298363095ea7b360e01b84846040516024016131c3929190614cd5565b6138868282611df3565b6110c35761389e816001600160a01b03166014614519565b6138a9836020614519565b6040516020016138ba929190614ee7565b60408051601f198184030181529082905262461bcd60e51b825261068191600401614f5c565b6138ea82826146b5565b6000828152600260205260409020610f299082614720565b600354604051633770395560e21b81526001600160a01b0391821660048201819052916000917f00000000000000000000000000000000000000000000000000000000000000009091169063ddc0e55490602401602060405180830381865afa158015613973573d6000803e3d6000fd5b505050506040513d601f19601f820116820180604052508101906139979190614cb8565b90506000816001600160a01b03166366501ae56040518163ffffffff1660e01b8152600401602060405180830381865afa1580156139d9573d6000803e3d6000fd5b505050506040513d601f19601f820116820180604052508101906139fd9190614d0b565b9050600080613a0c848461415c565b90925090508115613b8e57604051631fc6e79760e31b815260048101839052602481018290526001600160a01b0385169063fe373cb890604401600060405180830381600087803b158015613a6057600080fd5b505af1158015613a74573d6000803e3d6000fd5b505050508160076000828254613a8a9190614c62565b925050819055508060056000828254613aa39190614c62565b9091555050600883905560095460ff1615613b8e57600a546040516311f9fbc960e21b81526001600160a01b03909116906347e7ef2490613aea9088908690600401614cd5565b600060405180830381600087803b158015613b0457600080fd5b505af1158015613b18573d6000803e3d6000fd5b5050600a5460405163053342c960e11b81526001600160a01b0389811660048301529091169250630a6685929150602401602060405180830381865afa158015613b66573d6000803e3d6000fd5b505050506040513d601f19601f82011682018060405250810190613b8a9190614d0b565b600c555b5050505050565b610f298363a9059cbb60e01b84846040516024016131c3929190614cd5565b600080546001600160a01b038381166001600160a01b0319831681178455604051919092169283917f8be0079c531659141344cd1fd0a4f28419497f9722a3daafe3b4186f6b6457e09190a35050565b613c1c60008051602061505f833981519152836138e0565b6110c360008051602061505f833981519152826138e0565b6000670de0b6b3a7640000831015613c8e5760405162461bcd60e51b815260206004820152601f60248201527f636232396320616d6f756e74206d757374206265206774203120746f6b656e006044820152606401610681565b613c96613200565b5060007f00000000000000000000000000000000000000000000000000000000000000006001600160a01b031663469048406040518163ffffffff1660e01b8152600401602060405180830381865afa158015613cf7573d6000803e3d6000fd5b505050506040513d601f19601f82011682018060405250810190613d1b9190614cb8565b604051630631203b60e41b8152600481018690529091507f00000000000000000000000000000000000000000000000000000000000000006001600160a01b03169063631203b090602401602060405180830381865afa158015613d83573d6000803e3d6000fd5b505050506040513d601f19601f82011682018060405250810190613da79190614d0b565b91506000613db58386614c62565b9050600654600003613ddc57670de0b6b3a76400006006819055613dd99082614c62565b90505b8060056000828254613dee9190614c62565b90915550613dfd90508461351a565b7f00000000000000000000000000000000000000000000000000000000000000006001600160a01b031663a3e676106040518163ffffffff1660e01b8152600401602060405180830381865afa158015613e5b573d6000803e3d6000fd5b505050506040513d601f19601f82011682018060405250810190613e7f9190614cb8565b6001600160a01b03166340c10f1930836040518363ffffffff1660e01b8152600401613eac929190614cd5565b600060405180830381600087803b158015613ec657600080fd5b505af1158015613eda573d6000803e3d6000fd5b505060405163cbb9435960e01b8152600481018690526001600160a01b038516925063cbb9435991506024016020604051808303816000875af1158015613f25573d6000803e3d6000fd5b505050506040513d601f19601f82011682018060405250810190613f499190614cee565b50604051631bd6899160e31b815260048101829052600160248201527f00000000000000000000000000000000000000000000000000000000000000006001600160a01b03169063deb44c8890604401600060405180830381600087803b158015613fb357600080fd5b505af1158015613fc7573d6000803e3d6000fd5b50505050505092915050565b60008490507f00000000000000000000000000000000000000000000000000000000000000006001600160a01b031663992642e56040518163ffffffff1660e01b8152600401602060405180830381865afa158015614036573d6000803e3d6000fd5b505050506040513d601f19601f8201168201806040525081019061405a9190614cb8565b6001600160a01b031663095ea7b386886040518363ffffffff1660e01b8152600401614087929190614cd5565b6020604051808303816000875af11580156140a6573d6000803e3d6000fd5b505050506040513d601f19601f820116820180604052508101906140ca9190614cee565b506040516338ed173960e01b81526001600160a01b038216906338ed1739906140ff908990879089908d908990600401614f8f565b600060405180830381600087803b15801561411957600080fd5b505af115801561412d573d6000803e3d6000fd5b5050505050505050505050565b6000611dec8383614735565b60008183106141555781611dec565b5090919050565b60085460009081908180828611156142de576000876001600160a01b031663d8dfeb456040518163ffffffff1660e01b8152600401602060405180830381865afa1580156141ae573d6000803e3d6000fd5b505050506040513d601f19601f820116820180604052508101906141d29190614d0b565b905080156142dc5760075480856141e98a83614d37565b6141f39190614d4e565b6141fd9190614d24565b9350886001600160a01b031663d8dfeb456040518163ffffffff1660e01b8152600401602060405180830381865afa15801561423d573d6000803e3d6000fd5b505050506040513d601f19601f820116820180604052508101906142619190614d0b565b848a6001600160a01b0316630dca59c16040518163ffffffff1660e01b8152600401602060405180830381865afa1580156142a0573d6000803e3d6000fd5b505050506040513d601f19601f820116820180604052508101906142c49190614d0b565b6142ce9190614d37565b6142d89190614d4e565b9250505b505b90969095509350505050565b6000610625825490565b6000546001600160a01b0316331461434e5760405162461bcd60e51b815260206004820181905260248201527f4f776e61626c653a2063616c6c6572206973206e6f7420746865206f776e65726044820152606401610681565b6001600160a01b0381166143b35760405162461bcd60e51b815260206004820152602660248201527f4f776e61626c653a206e6577206f776e657220697320746865207a65726f206160448201526564647265737360d01b6064820152608401610681565b61071481613bb4565b6143c68282611df3565b156110c35760008281526001602090815260408083206001600160a01b0385168085529252808320805460ff1916905551339285917ff6391f5c32d9c69d2a47ea670b442974b53935d1edc7fd64eb21e047a839171b9190a45050565b6000611dec836001600160a01b03841661475f565b600061448d826040518060400160405280602081526020017f5361666545524332303a206c6f772d6c6576656c2063616c6c206661696c6564815250856001600160a01b03166148529092919063ffffffff16565b805190915015610f2957808060200190518101906144ab9190614cee565b610f295760405162461bcd60e51b815260206004820152602a60248201527f5361666545524332303a204552433230206f7065726174696f6e20646964206e6044820152691bdd081cdd58d8d9595960b21b6064820152608401610681565b60008183116141555781611dec565b60606000614528836002614d37565b614533906002614c62565b67ffffffffffffffff81111561454b5761454b615000565b6040519080825280601f01601f191660200182016040528015614575576020820181803683370190505b509050600360fc1b8160008151811061459057614590615016565b60200101906001600160f81b031916908160001a905350600f60fb1b816001815181106145bf576145bf615016565b60200101906001600160f81b031916908160001a90535060006145e3846002614d37565b6145ee906001614c62565b90505b6001811115614666576f181899199a1a9b1b9c1cb0b131b232b360811b85600f166010811061462257614622615016565b1a60f81b82828151811061463857614638615016565b60200101906001600160f81b031916908160001a90535060049490941c9361465f81614eac565b90506145f1565b508315611dec5760405162461bcd60e51b815260206004820181905260248201527f537472696e67733a20686578206c656e67746820696e73756666696369656e746044820152606401610681565b6146bf8282611df3565b6110c35760008281526001602081815260408084206001600160a01b0386168086529252808420805460ff19169093179092559051339285917f2f8788117e7eff1d82e926ec794901d17c78024a50270940304540a733656f0d9190a45050565b6000611dec836001600160a01b038416614869565b600082600001828154811061474c5761474c615016565b9060005260206000200154905092915050565b60008181526001830160205260408120548015614848576000614783600183614d24565b855490915060009061479790600190614d24565b90508181146147fc5760008660000182815481106147b7576147b7615016565b90600052602060002001549050808760000184815481106147da576147da615016565b6000918252602080832090910192909255918252600188019052604090208390555b855486908061480d5761480d61502c565b600190038181906000526020600020016000905590558560010160008681526020019081526020016000206000905560019350505050610625565b6000915050610625565b606061486184846000856148b8565b949350505050565b60008181526001830160205260408120546148b057508154600181810184556000848152602080822090930184905584548482528286019093526040902091909155610625565b506000610625565b6060824710156149195760405162461bcd60e51b815260206004820152602660248201527f416464726573733a20696e73756666696369656e742062616c616e636520666f6044820152651c8818d85b1b60d21b6064820152608401610681565b6001600160a01b0385163b6149705760405162461bcd60e51b815260206004820152601d60248201527f416464726573733a2063616c6c20746f206e6f6e2d636f6e74726163740000006044820152606401610681565b600080866001600160a01b0316858760405161498c9190615042565b60006040518083038185875af1925050503d80600081146149c9576040519150601f19603f3d011682016040523d82523d6000602084013e6149ce565b606091505b50915091506149de8282866149e9565b979650505050505050565b606083156149f8575081611dec565b825115614a085782518084602001fd5b8160405162461bcd60e51b81526004016106819190614f5c565b600060208284031215614a3457600080fd5b81356001600160e01b031981168114611dec57600080fd5b6001600160a01b038116811461071457600080fd5b600060208284031215614a7357600080fd5b8135611dec81614a4c565b60008060408385031215614a9157600080fd5b823591506020830135614aa381614a4c565b809150509250929050565b600060208284031215614ac057600080fd5b5035919050565b600080600060608486031215614adc57600080fd5b8335614ae781614a4c565b9250602084013591506040840135614afe81614a4c565b809150509250925092565b60008060408385031215614b1c57600080fd5b8235614b2781614a4c565b91506020830135614aa381614a4c565b60008060008060008060008060e0898b031215614b5357600080fd5b8835614b5e81614a4c565b9750602089013596506040890135614b7581614a4c565b95506060890135614b8581614a4c565b9450608089013567ffffffffffffffff80821115614ba257600080fd5b818b0191508b601f830112614bb657600080fd5b813581811115614bc557600080fd5b8c60208260051b8501011115614bda57600080fd5b999c989b50969995986020919091019790965060a08601359560c00135945092505050565b60008060408385031215614c1257600080fd5b50508035926020909101359150565b801515811461071457600080fd5b600060208284031215614c4157600080fd5b8135611dec81614c21565b634e487b7160e01b600052601160045260246000fd5b8082018082111561062557610625614c4c565b60208082526023908201527f63666133622061646472657373206973206d697373696e67204f574e45525f526040820152624f4c4560e81b606082015260800190565b600060208284031215614cca57600080fd5b8151611dec81614a4c565b6001600160a01b03929092168252602082015260400190565b600060208284031215614d0057600080fd5b8151611dec81614c21565b600060208284031215614d1d57600080fd5b5051919050565b8181038181111561062557610625614c4c565b808202811582820484141761062557610625614c4c565b600082614d6b57634e487b7160e01b600052601260045260246000fd5b500490565b600060208284031215614d8257600080fd5b815160ff81168114611dec57600080fd5b600181815b80851115614dce578160001904821115614db457614db4614c4c565b80851615614dc157918102915b93841c9390800290614d98565b509250929050565b600082614de557506001610625565b81614df257506000610625565b8160018114614e085760028114614e1257614e2e565b6001915050610625565b60ff841115614e2357614e23614c4c565b50506001821b610625565b5060208310610133831016604e8410600b8410161715614e51575081810a610625565b614e5b8383614d93565b8060001904821115614e6f57614e6f614c4c565b029392505050565b6000611dec60ff841683614dd6565b6001600160a01b0394909416845260208401929092526040830152606082015260800190565b600081614ebb57614ebb614c4c565b506000190190565b60005b83811015614ede578181015183820152602001614ec6565b50506000910152565b7f416363657373436f6e74726f6c3a206163636f756e7420000000000000000000815260008351614f1f816017850160208801614ec3565b7001034b99036b4b9b9b4b733903937b6329607d1b6017918401918201528351614f50816028840160208801614ec3565b01602801949350505050565b6020815260008251806020840152614f7b816040850160208701614ec3565b601f01601f19169190910160400192915050565b600060a082018783526020878185015260a0604085015281875180845260c086019150828901935060005b81811015614fdf5784516001600160a01b031683529383019391830191600101614fba565b50506001600160a01b03969096166060850152505050608001529392505050565b634e487b7160e01b600052604160045260246000fd5b634e487b7160e01b600052603260045260246000fd5b634e487b7160e01b600052603160045260246000fd5b60008251615054818460208701614ec3565b919091019291505056feb19546dff01e856fb3f010c267a7b1c60363cf8a4664e21cc89c26224620214ea2646970667358221220c6a75cafe009f4674d9ce6256ccbf6df63bc98abbe434a1c295674fbc71525bb64736f6c63430008110033",
  "devdoc": {
    "kind": "dev",
    "methods": {
      "addOwner(address)": {
        "details": "add an address to the list of owners",
        "params": {
          "_newOwner": "the address of the new owner"
        }
      },
      "borrow(address,uint256,address)": {
        "details": "mint some stable coins and pay the issuance fee. The transaction will fail if the resulting ICR < MCR",
        "params": {
          "_amount": "the value of the minting",
          "_newNextTrove": "is the trove that we think will be the next one in the list. This might be off in case there were some other list changing transactions",
          "_recipient": "is the address to which the newly minted tokens will be transferred"
        }
      },
      "borrowAndSwap(address,uint256,address,address,address[],uint256,uint256)": {
        "details": "mint some stable coins and pay the issuance fee. The transaction will fail if the resulting ICR < MCR",
        "params": {
          "_amount": "the value of the minting",
          "_deadline": "DEX router operation deadline",
          "_maxSlippage": "DEX router max slippage, the minimum value that can be received after swap",
          "_newNextTrove": "is the trove that we think will be the next one in the list. This might be off in case there were some other list changing transactions",
          "_path": "DEX router swap path, consists of tokens addresses",
          "_recipient": "is the address to which the newly minted tokens will be transferred",
          "_routerAddress": "DEX router contract address"
        }
      },
      "collateral()": {
        "details": "this function will return the actual collateral (balance of the collateral token) including any liquidation rewards from community liquidation"
      },
      "collateralValue()": {
        "details": "the value of the collateral * the current price as returned by the price feed contract for the collateral token"
      },
      "collateralization()": {
        "details": "the Individual Collateralisation Ratio (ICR) of the trove"
      },
      "debt()": {
        "details": "this function will return the actual debt including any liquidation liabilities from community liquidation"
      },
      "decreaseCollateral(address,uint256,address)": {
        "details": "send some or all of the balance of the trove to an arbitrary address. Only the owner of the trove can do this as long as the debt is Zero, the transfer is performed without further checks. once the debt is not zero, the trove position in the trove list is changed to keep the list ordered by collateralisation ratio",
        "params": {
          "_amount": "amount of collateral",
          "_newNextTrove": "hint for next trove after reorder",
          "_recipient": "the address which will receive the tokens"
        }
      },
      "getRoleAdmin(bytes32)": {
        "details": "Returns the admin role that controls `role`. See {grantRole} and {revokeRole}. To change a role's admin, use {_setRoleAdmin}."
      },
      "getRoleMember(bytes32,uint256)": {
        "details": "Returns one of the accounts that have `role`. `index` must be a value between 0 and {getRoleMemberCount}, non-inclusive. Role bearers are not sorted in any particular way, and their ordering may change at any point. WARNING: When using {getRoleMember} and {getRoleMemberCount}, make sure you perform all queries on the same block. See the following https://forum.openzeppelin.com/t/iterating-over-elements-on-enumerableset-in-openzeppelin-contracts/2296[forum post] for more information."
      },
      "getRoleMemberCount(bytes32)": {
        "details": "Returns the number of accounts that have `role`. Can be used together with {getRoleMember} to enumerate all bearers of a role."
      },
      "grantRole(bytes32,address)": {
        "details": "Grants `role` to `account`. If `account` had not been already granted `role`, emits a {RoleGranted} event. Requirements: - the caller must have ``role``'s admin role."
      },
      "hasRole(bytes32,address)": {
        "details": "Returns `true` if `account` has been granted `role`."
      },
      "increaseCollateral(uint256,address)": {
        "details": "there are two options to increase the collateral: 1. transfer the tokens to the trove and call increaseCollateral with amount = 0 2. grant the trove permission to transfer from your account and call increaseCollateral with amount > 0",
        "params": {
          "_amount": "a positive amount to transfer from the sender's account or zero",
          "_newNextTrove": "once the trove is better collateralised, its position in the list will change, the caller should indicate the new position in order to reduce gas consumption"
        }
      },
      "liquidate()": {
        "details": "is called to liquidate the trove, if ICR < MCR then all the collateral is sent to the liquidation pool and the debt is forgiven the msg.sender is allowed to transfer the liquidation reserve out of the trove"
      },
      "mcr()": {
        "details": "the Minimum Collateralisation Ratio for this trove as set in the Token to Price Feed contract."
      },
      "netDebt()": {
        "details": "the net debt is the debt minus the liquidation reserve"
      },
      "redeem(address,address)": {
        "details": "is called to redeem StableCoin for token, called by factory when MCR > ICR, amount of StableCoin is taken from balance and must be <= netDebt. uses priceFeed to calculate collateral amount. returns amount of StableCoin used and collateral recieved",
        "params": {
          "_newNextTrove": "hint for next trove after reorder, if it's not full redemption",
          "_recipient": "the address which recieves redeemed token"
        }
      },
      "removeOwner(address)": {
        "details": "add an address to the list of owners",
        "params": {
          "_ownerToRemove": "the address of the new owner"
        }
      },
      "renounceOwnership()": {
        "details": "Leaves the contract without owner. It will not be possible to call `onlyOwner` functions anymore. Can only be called by the current owner. NOTE: Renouncing ownership will leave the contract without an owner, thereby removing any functionality that is only available to the owner."
      },
      "renounceRole(bytes32,address)": {
        "details": "Revokes `role` from the calling account. Roles are often managed via {grantRole} and {revokeRole}: this function's purpose is to provide a mechanism for accounts to lose their privileges if they are compromised (such as when a trusted device is misplaced). If the calling account had been revoked `role`, emits a {RoleRevoked} event. Requirements: - the caller must be `account`."
      },
      "repay(uint256,address)": {
        "details": "repay a portion of the debt by either sending some stable coins to the trove or allowing the trove to take tokens out of your balance",
        "params": {
          "_amount": "the amount of stable coins to reduce the debt with",
          "_newNextTrove": "is the trove that we think will be the next one in the list. This might be off in case there were some other list changing transactions"
        }
      },
      "revokeRole(bytes32,address)": {
        "details": "Revokes `role` from `account`. If `account` had been granted `role`, emits a {RoleRevoked} event. Requirements: - the caller must have ``role``'s admin role."
      },
      "setArbitrageParticipation(bool)": {
        "details": "configuration function to enable or disable collateral participation in ArbitragePool",
        "params": {
          "_state": "true/false to turn the state on/off"
        }
      },
      "supportsInterface(bytes4)": {
        "details": "See {IERC165-supportsInterface}."
      },
      "transferOwnership(address)": {
        "details": "transfers user's trove ownership after revoking other roles from other addresses",
        "params": {
          "_newOwner": "the address of the new owner"
        }
      },
      "transferToken(address,address)": {
        "details": "security function to make sure that if tokens are sent to the trove by mistake, they're not lost. It will always send the entire balance This function can not be used to transfer the collateral token",
        "params": {
          "_recipient": "the address the transfer should go to",
          "_token": "the ERC20 to transfer"
        }
      },
      "unclaimedArbitrageReward()": {
        "details": "the reward in the liquidation pool which has not been claimed yet"
      },
      "unclaimedCollateralRewardAndDebt()": {
        "details": "the reward in the liquidation pool which has not been claimed yet"
      }
    },
    "version": 1
  },
  "userdoc": {
    "kind": "user",
    "methods": {},
    "version": 1
  },
  "storageLayout": {
    "storage": [
      {
        "astId": 2054,
        "contract": "contracts/trove.sol:Trove",
        "label": "_owner",
        "offset": 0,
        "slot": "0",
        "type": "t_address"
      },
      {
        "astId": 2607,
        "contract": "contracts/trove.sol:Trove",
        "label": "_initialized",
        "offset": 20,
        "slot": "0",
        "type": "t_bool"
      },
      {
        "astId": 2610,
        "contract": "contracts/trove.sol:Trove",
        "label": "_initializing",
        "offset": 21,
        "slot": "0",
        "type": "t_bool"
      },
      {
        "astId": 1539,
        "contract": "contracts/trove.sol:Trove",
        "label": "_roles",
        "offset": 0,
        "slot": "1",
        "type": "t_mapping(t_bytes32,t_struct(RoleData)1534_storage)"
      },
      {
        "astId": 1842,
        "contract": "contracts/trove.sol:Trove",
        "label": "_roleMembers",
        "offset": 0,
        "slot": "2",
        "type": "t_mapping(t_bytes32,t_struct(AddressSet)4823_storage)"
      },
      {
        "astId": 17118,
        "contract": "contracts/trove.sol:Trove",
        "label": "token",
        "offset": 0,
        "slot": "3",
        "type": "t_contract(IERC20)3472"
      },
      {
        "astId": 17121,
        "contract": "contracts/trove.sol:Trove",
        "label": "TOKEN_PRECISION",
        "offset": 0,
        "slot": "4",
        "type": "t_uint256"
      },
      {
        "astId": 17123,
        "contract": "contracts/trove.sol:Trove",
        "label": "_debt",
        "offset": 0,
        "slot": "5",
        "type": "t_uint256"
      },
      {
        "astId": 17125,
        "contract": "contracts/trove.sol:Trove",
        "label": "liquidationReserve",
        "offset": 0,
        "slot": "6",
        "type": "t_uint256"
      },
      {
        "astId": 17128,
        "contract": "contracts/trove.sol:Trove",
        "label": "recordedCollateral",
        "offset": 0,
        "slot": "7",
        "type": "t_uint256"
      },
      {
        "astId": 17130,
        "contract": "contracts/trove.sol:Trove",
        "label": "liqTokenRateSnapshot",
        "offset": 0,
        "slot": "8",
        "type": "t_uint256"
      },
      {
        "astId": 17132,
        "contract": "contracts/trove.sol:Trove",
        "label": "arbitrageParticipation",
        "offset": 0,
        "slot": "9",
        "type": "t_bool"
      },
      {
        "astId": 17135,
        "contract": "contracts/trove.sol:Trove",
        "label": "arbitrageState",
        "offset": 0,
        "slot": "10",
        "type": "t_struct(ArbitrageState)17110_storage"
      }
    ],
    "types": {
      "t_address": {
        "encoding": "inplace",
        "label": "address",
        "numberOfBytes": "20"
      },
      "t_array(t_bytes32)dyn_storage": {
        "base": "t_bytes32",
        "encoding": "dynamic_array",
        "label": "bytes32[]",
        "numberOfBytes": "32"
      },
      "t_bool": {
        "encoding": "inplace",
        "label": "bool",
        "numberOfBytes": "1"
      },
      "t_bytes32": {
        "encoding": "inplace",
        "label": "bytes32",
        "numberOfBytes": "32"
      },
      "t_contract(IArbitragePool)8567": {
        "encoding": "inplace",
        "label": "contract IArbitragePool",
        "numberOfBytes": "20"
      },
      "t_contract(IERC20)3472": {
        "encoding": "inplace",
        "label": "contract IERC20",
        "numberOfBytes": "20"
      },
      "t_contract(IMintableToken)8747": {
        "encoding": "inplace",
        "label": "contract IMintableToken",
        "numberOfBytes": "20"
      },
      "t_mapping(t_address,t_bool)": {
        "encoding": "mapping",
        "key": "t_address",
        "label": "mapping(address => bool)",
        "numberOfBytes": "32",
        "value": "t_bool"
      },
      "t_mapping(t_bytes32,t_struct(AddressSet)4823_storage)": {
        "encoding": "mapping",
        "key": "t_bytes32",
        "label": "mapping(bytes32 => struct EnumerableSet.AddressSet)",
        "numberOfBytes": "32",
        "value": "t_struct(AddressSet)4823_storage"
      },
      "t_mapping(t_bytes32,t_struct(RoleData)1534_storage)": {
        "encoding": "mapping",
        "key": "t_bytes32",
        "label": "mapping(bytes32 => struct AccessControl.RoleData)",
        "numberOfBytes": "32",
        "value": "t_struct(RoleData)1534_storage"
      },
      "t_mapping(t_bytes32,t_uint256)": {
        "encoding": "mapping",
        "key": "t_bytes32",
        "label": "mapping(bytes32 => uint256)",
        "numberOfBytes": "32",
        "value": "t_uint256"
      },
      "t_struct(AddressSet)4823_storage": {
        "encoding": "inplace",
        "label": "struct EnumerableSet.AddressSet",
        "members": [
          {
            "astId": 4822,
            "contract": "contracts/trove.sol:Trove",
            "label": "_inner",
            "offset": 0,
            "slot": "0",
            "type": "t_struct(Set)4522_storage"
          }
        ],
        "numberOfBytes": "64"
      },
      "t_struct(ArbitrageState)17110_storage": {
        "encoding": "inplace",
        "label": "struct Trove.ArbitrageState",
        "members": [
          {
            "astId": 17104,
            "contract": "contracts/trove.sol:Trove",
            "label": "arbitragePool",
            "offset": 0,
            "slot": "0",
            "type": "t_contract(IArbitragePool)8567"
          },
          {
            "astId": 17107,
            "contract": "contracts/trove.sol:Trove",
            "label": "apToken",
            "offset": 0,
            "slot": "1",
            "type": "t_contract(IMintableToken)8747"
          },
          {
            "astId": 17109,
            "contract": "contracts/trove.sol:Trove",
            "label": "lastApPrice",
            "offset": 0,
            "slot": "2",
            "type": "t_uint256"
          }
        ],
        "numberOfBytes": "96"
      },
      "t_struct(RoleData)1534_storage": {
        "encoding": "inplace",
        "label": "struct AccessControl.RoleData",
        "members": [
          {
            "astId": 1531,
            "contract": "contracts/trove.sol:Trove",
            "label": "members",
            "offset": 0,
            "slot": "0",
            "type": "t_mapping(t_address,t_bool)"
          },
          {
            "astId": 1533,
            "contract": "contracts/trove.sol:Trove",
            "label": "adminRole",
            "offset": 0,
            "slot": "1",
            "type": "t_bytes32"
          }
        ],
        "numberOfBytes": "64"
      },
      "t_struct(Set)4522_storage": {
        "encoding": "inplace",
        "label": "struct EnumerableSet.Set",
        "members": [
          {
            "astId": 4517,
            "contract": "contracts/trove.sol:Trove",
            "label": "_values",
            "offset": 0,
            "slot": "0",
            "type": "t_array(t_bytes32)dyn_storage"
          },
          {
            "astId": 4521,
            "contract": "contracts/trove.sol:Trove",
            "label": "_indexes",
            "offset": 0,
            "slot": "1",
            "type": "t_mapping(t_bytes32,t_uint256)"
          }
        ],
        "numberOfBytes": "64"
      },
      "t_uint256": {
        "encoding": "inplace",
        "label": "uint256",
        "numberOfBytes": "32"
      }
    }
  }
}