{
  "address": "0x11d455366ba5D590e7838c4CEcE9aCC95C567e46",
  "abi": [
    {
      "anonymous": false,
      "inputs": [
        {
          "indexed": false,
          "internalType": "address",
          "name": "previousAdmin",
          "type": "address"
        },
        {
          "indexed": false,
          "internalType": "address",
          "name": "newAdmin",
          "type": "address"
        }
      ],
      "name": "AdminChanged",
      "type": "event"
    },
    {
      "anonymous": false,
      "inputs": [
        {
          "indexed": true,
          "internalType": "address",
          "name": "beacon",
          "type": "address"
        }
      ],
      "name": "BeaconUpgraded",
      "type": "event"
    },
    {
      "anonymous": false,
      "inputs": [
        {
          "indexed": false,
          "internalType": "address",
          "name": "token",
          "type": "address"
        },
        {
          "indexed": false,
          "internalType": "uint256",
          "name": "totalCollateral",
          "type": "uint256"
        }
      ],
      "name": "CollateralUpdate",
      "type": "event"
    },
    {
      "anonymous": false,
      "inputs": [
        {
          "indexed": false,
          "internalType": "address",
          "name": "collateral",
          "type": "address"
        },
        {
          "indexed": false,
          "internalType": "uint256",
          "name": "totalDebt",
          "type": "uint256"
        }
      ],
      "name": "DebtUpdate",
      "type": "event"
    },
    {
      "anonymous": false,
      "inputs": [
        {
          "indexed": false,
          "internalType": "uint8",
          "name": "version",
          "type": "uint8"
        }
      ],
      "name": "Initialized",
      "type": "event"
    },
    {
      "anonymous": false,
      "inputs": [
        {
          "indexed": false,
          "internalType": "address",
          "name": "trove",
          "type": "address"
        },
        {
          "indexed": false,
          "internalType": "address",
          "name": "token",
          "type": "address"
        },
        {
          "indexed": false,
          "internalType": "address",
          "name": "owner",
          "type": "address"
        }
      ],
      "name": "NewTrove",
      "type": "event"
    },
    {
      "anonymous": false,
      "inputs": [
        {
          "indexed": true,
          "internalType": "address",
          "name": "previousOwner",
          "type": "address"
        },
        {
          "indexed": true,
          "internalType": "address",
          "name": "newOwner",
          "type": "address"
        }
      ],
      "name": "OwnershipTransferred",
      "type": "event"
    },
    {
      "anonymous": false,
      "inputs": [
        {
          "indexed": false,
          "internalType": "address",
          "name": "account",
          "type": "address"
        }
      ],
      "name": "Paused",
      "type": "event"
    },
    {
      "anonymous": false,
      "inputs": [
        {
          "indexed": false,
          "internalType": "address",
          "name": "token",
          "type": "address"
        },
        {
          "indexed": false,
          "internalType": "uint256",
          "name": "stableAmount",
          "type": "uint256"
        },
        {
          "indexed": false,
          "internalType": "uint256",
          "name": "tokenAmount",
          "type": "uint256"
        },
        {
          "indexed": false,
          "internalType": "uint256",
          "name": "stableUnspent",
          "type": "uint256"
        },
        {
          "indexed": false,
          "internalType": "uint256",
          "name": "startBaseRate",
          "type": "uint256"
        },
        {
          "indexed": false,
          "internalType": "uint256",
          "name": "finishBaseRate",
          "type": "uint256"
        },
        {
          "indexed": false,
          "internalType": "address",
          "name": "lastTroveRedeemed",
          "type": "address"
        }
      ],
      "name": "Redemption",
      "type": "event"
    },
    {
      "anonymous": false,
      "inputs": [
        {
          "indexed": false,
          "internalType": "address",
          "name": "trove",
          "type": "address"
        },
        {
          "indexed": false,
          "internalType": "address",
          "name": "token",
          "type": "address"
        },
        {
          "indexed": false,
          "internalType": "uint256",
          "name": "newAmount",
          "type": "uint256"
        },
        {
          "indexed": false,
          "internalType": "uint256",
          "name": "newCollateralization",
          "type": "uint256"
        }
      ],
      "name": "TroveCollateralUpdate",
      "type": "event"
    },
    {
      "anonymous": false,
      "inputs": [
        {
          "indexed": false,
          "internalType": "address",
          "name": "trove",
          "type": "address"
        },
        {
          "indexed": false,
          "internalType": "address",
          "name": "actor",
          "type": "address"
        },
        {
          "indexed": false,
          "internalType": "address",
          "name": "token",
          "type": "address"
        },
        {
          "indexed": false,
          "internalType": "uint256",
          "name": "newAmount",
          "type": "uint256"
        },
        {
          "indexed": false,
          "internalType": "uint256",
          "name": "baseRate",
          "type": "uint256"
        },
        {
          "indexed": false,
          "internalType": "uint256",
          "name": "newCollateralization",
          "type": "uint256"
        },
        {
          "indexed": false,
          "internalType": "uint256",
          "name": "feePaid",
          "type": "uint256"
        }
      ],
      "name": "TroveDebtUpdate",
      "type": "event"
    },
    {
      "anonymous": false,
      "inputs": [
        {
          "indexed": false,
          "internalType": "address",
          "name": "previousImplementation",
          "type": "address"
        },
        {
          "indexed": false,
          "internalType": "address",
          "name": "newImplementation",
          "type": "address"
        }
      ],
      "name": "TroveImplementationSet",
      "type": "event"
    },
    {
      "anonymous": false,
      "inputs": [
        {
          "indexed": false,
          "internalType": "address",
          "name": "token",
          "type": "address"
        },
        {
          "indexed": false,
          "internalType": "address",
          "name": "trove",
          "type": "address"
        },
        {
          "indexed": false,
          "internalType": "address",
          "name": "referenceTrove",
          "type": "address"
        },
        {
          "indexed": false,
          "internalType": "bool",
          "name": "before",
          "type": "bool"
        }
      ],
      "name": "TroveInserted",
      "type": "event"
    },
    {
      "anonymous": false,
      "inputs": [
        {
          "indexed": false,
          "internalType": "address",
          "name": "trove",
          "type": "address"
        },
        {
          "indexed": false,
          "internalType": "address",
          "name": "collateralToken",
          "type": "address"
        },
        {
          "indexed": false,
          "internalType": "uint256",
          "name": "priceAtLiquidation",
          "type": "uint256"
        },
        {
          "indexed": false,
          "internalType": "address",
          "name": "stabilityPoolLiquidation",
          "type": "address"
        },
        {
          "indexed": false,
          "internalType": "uint256",
          "name": "collateral",
          "type": "uint256"
        }
      ],
      "name": "TroveLiquidated",
      "type": "event"
    },
    {
      "anonymous": false,
      "inputs": [
        {
          "indexed": false,
          "internalType": "address",
          "name": "trove",
          "type": "address"
        }
      ],
      "name": "TroveRemoved",
      "type": "event"
    },
    {
      "anonymous": false,
      "inputs": [
        {
          "indexed": false,
          "internalType": "address",
          "name": "account",
          "type": "address"
        }
      ],
      "name": "Unpaused",
      "type": "event"
    },
    {
      "anonymous": false,
      "inputs": [
        {
          "indexed": true,
          "internalType": "address",
          "name": "implementation",
          "type": "address"
        }
      ],
      "name": "Upgraded",
      "type": "event"
    },
    {
      "inputs": [],
      "name": "BORROWING_RATE",
      "outputs": [
        {
          "internalType": "uint256",
          "name": "",
          "type": "uint256"
        }
      ],
      "stateMutability": "view",
      "type": "function"
    },
    {
      "inputs": [],
      "name": "DECIMAL_PRECISION",
      "outputs": [
        {
          "internalType": "uint256",
          "name": "",
          "type": "uint256"
        }
      ],
      "stateMutability": "view",
      "type": "function"
    },
    {
      "inputs": [],
      "name": "LIQUIDATION_RESERVE",
      "outputs": [
        {
          "internalType": "uint256",
          "name": "",
          "type": "uint256"
        }
      ],
      "stateMutability": "view",
      "type": "function"
    },
    {
      "inputs": [],
      "name": "MAX_BORROWING_RATE",
      "outputs": [
        {
          "internalType": "uint256",
          "name": "",
          "type": "uint256"
        }
      ],
      "stateMutability": "view",
      "type": "function"
    },
    {
      "inputs": [],
      "name": "MAX_INT",
      "outputs": [
        {
          "internalType": "uint256",
          "name": "",
          "type": "uint256"
        }
      ],
      "stateMutability": "view",
      "type": "function"
    },
    {
      "inputs": [],
      "name": "PERCENT",
      "outputs": [
        {
          "internalType": "uint256",
          "name": "",
          "type": "uint256"
        }
      ],
      "stateMutability": "view",
      "type": "function"
    },
    {
      "inputs": [],
      "name": "PERCENT10",
      "outputs": [
        {
          "internalType": "uint256",
          "name": "",
          "type": "uint256"
        }
      ],
      "stateMutability": "view",
      "type": "function"
    },
    {
      "inputs": [],
      "name": "PERCENT_05",
      "outputs": [
        {
          "internalType": "uint256",
          "name": "",
          "type": "uint256"
        }
      ],
      "stateMutability": "view",
      "type": "function"
    },
    {
      "inputs": [],
      "name": "WETHContract",
      "outputs": [
        {
          "internalType": "contract IWETH",
          "name": "",
          "type": "address"
        }
      ],
      "stateMutability": "view",
      "type": "function"
    },
    {
      "inputs": [],
      "name": "arbitragePool",
      "outputs": [
        {
          "internalType": "address",
          "name": "",
          "type": "address"
        }
      ],
      "stateMutability": "view",
      "type": "function"
    },
    {
      "inputs": [
        {
          "internalType": "address",
          "name": "_token",
          "type": "address"
        },
        {
          "internalType": "address",
          "name": "_trove",
          "type": "address"
        }
      ],
      "name": "containsTrove",
      "outputs": [
        {
          "internalType": "bool",
          "name": "",
          "type": "bool"
        }
      ],
      "stateMutability": "view",
      "type": "function"
    },
    {
      "inputs": [
        {
          "internalType": "address",
          "name": "_token",
          "type": "address"
        }
      ],
      "name": "createTrove",
      "outputs": [
        {
          "internalType": "contract ITrove",
          "name": "trove",
          "type": "address"
        }
      ],
      "stateMutability": "nonpayable",
      "type": "function"
    },
    {
      "inputs": [
        {
          "internalType": "address",
          "name": "_token",
          "type": "address"
        },
        {
          "internalType": "uint256",
          "name": "_collateralAmount",
          "type": "uint256"
        },
        {
          "internalType": "address",
          "name": "_recipient",
          "type": "address"
        },
        {
          "internalType": "uint256",
          "name": "_borrowAmount",
          "type": "uint256"
        },
        {
          "internalType": "address",
          "name": "_nextTrove",
          "type": "address"
        }
      ],
      "name": "createTroveAndBorrow",
      "outputs": [],
      "stateMutability": "nonpayable",
      "type": "function"
    },
    {
      "inputs": [
        {
          "internalType": "address",
          "name": "_token",
          "type": "address"
        },
        {
          "internalType": "address",
          "name": "_trove",
          "type": "address"
        },
        {
          "internalType": "address",
          "name": "stabilityPoolLiquidation",
          "type": "address"
        },
        {
          "internalType": "uint256",
          "name": "collateral",
          "type": "uint256"
        }
      ],
      "name": "emitLiquidationEvent",
      "outputs": [],
      "stateMutability": "nonpayable",
      "type": "function"
    },
    {
      "inputs": [
        {
          "internalType": "address",
          "name": "_token",
          "type": "address"
        },
        {
          "internalType": "uint256",
          "name": "_newAmount",
          "type": "uint256"
        },
        {
          "internalType": "uint256",
          "name": "_newCollateralization",
          "type": "uint256"
        }
      ],
      "name": "emitTroveCollateralUpdate",
      "outputs": [],
      "stateMutability": "nonpayable",
      "type": "function"
    },
    {
      "inputs": [
        {
          "internalType": "address",
          "name": "_token",
          "type": "address"
        },
        {
          "internalType": "uint256",
          "name": "_newAmount",
          "type": "uint256"
        },
        {
          "internalType": "uint256",
          "name": "_newCollateralization",
          "type": "uint256"
        },
        {
          "internalType": "uint256",
          "name": "_feePaid",
          "type": "uint256"
        }
      ],
      "name": "emitTroveDebtUpdate",
      "outputs": [],
      "stateMutability": "nonpayable",
      "type": "function"
    },
    {
      "inputs": [],
      "name": "feeRecipient",
      "outputs": [
        {
          "internalType": "contract IFeeRecipient",
          "name": "",
          "type": "address"
        }
      ],
      "stateMutability": "view",
      "type": "function"
    },
    {
      "inputs": [
        {
          "internalType": "address",
          "name": "_token",
          "type": "address"
        }
      ],
      "name": "firstTrove",
      "outputs": [
        {
          "internalType": "address",
          "name": "",
          "type": "address"
        }
      ],
      "stateMutability": "view",
      "type": "function"
    },
    {
      "inputs": [
        {
          "internalType": "uint256",
          "name": "_amount",
          "type": "uint256"
        }
      ],
      "name": "getBorrowingFee",
      "outputs": [
        {
          "internalType": "uint256",
          "name": "",
          "type": "uint256"
        }
      ],
      "stateMutability": "view",
      "type": "function"
    },
    {
      "inputs": [
        {
          "internalType": "uint256",
          "name": "_feeRatio",
          "type": "uint256"
        },
        {
          "internalType": "uint256",
          "name": "_amount",
          "type": "uint256"
        }
      ],
      "name": "getRedemptionAmount",
      "outputs": [
        {
          "internalType": "uint256",
          "name": "",
          "type": "uint256"
        }
      ],
      "stateMutability": "pure",
      "type": "function"
    },
    {
      "inputs": [
        {
          "internalType": "uint256",
          "name": "_feeRatio",
          "type": "uint256"
        },
        {
          "internalType": "uint256",
          "name": "_amount",
          "type": "uint256"
        }
      ],
      "name": "getRedemptionFee",
      "outputs": [
        {
          "internalType": "uint256",
          "name": "",
          "type": "uint256"
        }
      ],
      "stateMutability": "pure",
      "type": "function"
    },
    {
      "inputs": [
        {
          "internalType": "address",
          "name": "_trove",
          "type": "address"
        }
      ],
      "name": "getRedemptionFeeRatio",
      "outputs": [
        {
          "internalType": "uint256",
          "name": "",
          "type": "uint256"
        }
      ],
      "stateMutability": "view",
      "type": "function"
    },
    {
      "inputs": [
        {
          "internalType": "address",
          "name": "_trove",
          "type": "address"
        },
        {
          "internalType": "address",
          "name": "_newNextTrove",
          "type": "address"
        }
      ],
      "name": "increaseCollateralNative",
      "outputs": [],
      "stateMutability": "payable",
      "type": "function"
    },
    {
      "inputs": [
        {
          "internalType": "address",
          "name": "_stableCoin",
          "type": "address"
        },
        {
          "internalType": "address",
          "name": "_feeRecipient",
          "type": "address"
        }
      ],
      "name": "initialize",
      "outputs": [],
      "stateMutability": "nonpayable",
      "type": "function"
    },
    {
      "inputs": [
        {
          "internalType": "address",
          "name": "_token",
          "type": "address"
        },
        {
          "internalType": "address",
          "name": "_newNextTrove",
          "type": "address"
        }
      ],
      "name": "insertTrove",
      "outputs": [],
      "stateMutability": "nonpayable",
      "type": "function"
    },
    {
      "inputs": [
        {
          "internalType": "address",
          "name": "_token",
          "type": "address"
        }
      ],
      "name": "lastTrove",
      "outputs": [
        {
          "internalType": "address",
          "name": "",
          "type": "address"
        }
      ],
      "stateMutability": "view",
      "type": "function"
    },
    {
      "inputs": [
        {
          "internalType": "address",
          "name": "_token",
          "type": "address"
        }
      ],
      "name": "liquidationPool",
      "outputs": [
        {
          "internalType": "contract ILiquidationPool",
          "name": "",
          "type": "address"
        }
      ],
      "stateMutability": "view",
      "type": "function"
    },
    {
      "inputs": [],
      "name": "name",
      "outputs": [
        {
          "internalType": "string",
          "name": "",
          "type": "string"
        }
      ],
      "stateMutability": "view",
      "type": "function"
    },
    {
      "inputs": [
        {
          "internalType": "address",
          "name": "_token",
          "type": "address"
        },
        {
          "internalType": "address",
          "name": "_trove",
          "type": "address"
        }
      ],
      "name": "nextTrove",
      "outputs": [
        {
          "internalType": "address",
          "name": "",
          "type": "address"
        }
      ],
      "stateMutability": "view",
      "type": "function"
    },
    {
      "inputs": [],
      "name": "owner",
      "outputs": [
        {
          "internalType": "address",
          "name": "",
          "type": "address"
        }
      ],
      "stateMutability": "view",
      "type": "function"
    },
    {
      "inputs": [],
      "name": "paused",
      "outputs": [
        {
          "internalType": "bool",
          "name": "",
          "type": "bool"
        }
      ],
      "stateMutability": "view",
      "type": "function"
    },
    {
      "inputs": [
        {
          "internalType": "address",
          "name": "_token",
          "type": "address"
        },
        {
          "internalType": "address",
          "name": "_trove",
          "type": "address"
        }
      ],
      "name": "prevTrove",
      "outputs": [
        {
          "internalType": "address",
          "name": "",
          "type": "address"
        }
      ],
      "stateMutability": "view",
      "type": "function"
    },
    {
      "inputs": [],
      "name": "proxiableUUID",
      "outputs": [
        {
          "internalType": "bytes32",
          "name": "",
          "type": "bytes32"
        }
      ],
      "stateMutability": "view",
      "type": "function"
    },
    {
      "inputs": [
        {
          "internalType": "address",
          "name": "_collateralToken",
          "type": "address"
        },
        {
          "internalType": "uint256",
          "name": "_stableAmount",
          "type": "uint256"
        },
        {
          "internalType": "uint256",
          "name": "_maxRate",
          "type": "uint256"
        },
        {
          "internalType": "uint256",
          "name": "_lastTroveCurrentICR",
          "type": "uint256"
        },
        {
          "internalType": "address",
          "name": "_lastTroveNewPositionHint",
          "type": "address"
        }
      ],
      "name": "redeemStableCoinForCollateral",
      "outputs": [],
      "stateMutability": "nonpayable",
      "type": "function"
    },
    {
      "inputs": [
        {
          "internalType": "address",
          "name": "_token",
          "type": "address"
        },
        {
          "internalType": "address",
          "name": "_trove",
          "type": "address"
        }
      ],
      "name": "removeTrove",
      "outputs": [],
      "stateMutability": "nonpayable",
      "type": "function"
    },
    {
      "inputs": [],
      "name": "renounceOwnership",
      "outputs": [],
      "stateMutability": "nonpayable",
      "type": "function"
    },
    {
      "inputs": [
        {
          "internalType": "address",
          "name": "_arbitragePool",
          "type": "address"
        }
      ],
      "name": "setArbitragePool",
      "outputs": [],
      "stateMutability": "nonpayable",
      "type": "function"
    },
    {
      "inputs": [
        {
          "internalType": "address",
          "name": "_feeRecipient",
          "type": "address"
        }
      ],
      "name": "setFeeRecipient",
      "outputs": [],
      "stateMutability": "nonpayable",
      "type": "function"
    },
    {
      "inputs": [
        {
          "internalType": "address",
          "name": "_token",
          "type": "address"
        },
        {
          "internalType": "address",
          "name": "_liquidationPool",
          "type": "address"
        }
      ],
      "name": "setLiquidationPool",
      "outputs": [],
      "stateMutability": "nonpayable",
      "type": "function"
    },
    {
      "inputs": [
        {
          "internalType": "address",
          "name": "_stabilityPool",
          "type": "address"
        }
      ],
      "name": "setStabilityPool",
      "outputs": [],
      "stateMutability": "nonpayable",
      "type": "function"
    },
    {
      "inputs": [],
      "name": "setTokenOwner",
      "outputs": [],
      "stateMutability": "nonpayable",
      "type": "function"
    },
    {
      "inputs": [
        {
          "internalType": "address",
          "name": "_tokenPriceFeed",
          "type": "address"
        }
      ],
      "name": "setTokenPriceFeed",
      "outputs": [],
      "stateMutability": "nonpayable",
      "type": "function"
    },
    {
      "inputs": [
        {
          "internalType": "address",
          "name": "_troveImplementation",
          "type": "address"
        }
      ],
      "name": "setTroveImplementation",
      "outputs": [],
      "stateMutability": "nonpayable",
      "type": "function"
    },
    {
      "inputs": [
        {
          "internalType": "address",
          "name": "_WETH",
          "type": "address"
        },
        {
          "internalType": "address",
          "name": "_liquidationPool",
          "type": "address"
        }
      ],
      "name": "setWETH",
      "outputs": [],
      "stateMutability": "nonpayable",
      "type": "function"
    },
    {
      "inputs": [],
      "name": "stabilityPool",
      "outputs": [
        {
          "internalType": "contract IStabilityPoolBase",
          "name": "",
          "type": "address"
        }
      ],
      "stateMutability": "view",
      "type": "function"
    },
    {
      "inputs": [],
      "name": "stableCoin",
      "outputs": [
        {
          "internalType": "contract IMintableToken",
          "name": "",
          "type": "address"
        }
      ],
      "stateMutability": "view",
      "type": "function"
    },
    {
      "inputs": [],
      "name": "togglePause",
      "outputs": [],
      "stateMutability": "nonpayable",
      "type": "function"
    },
    {
      "inputs": [
        {
          "internalType": "address",
          "name": "_token",
          "type": "address"
        }
      ],
      "name": "tokenCollateralization",
      "outputs": [
        {
          "internalType": "uint256",
          "name": "",
          "type": "uint256"
        }
      ],
      "stateMutability": "view",
      "type": "function"
    },
    {
      "inputs": [],
      "name": "tokenOwner",
      "outputs": [
        {
          "internalType": "contract IMintableTokenOwner",
          "name": "",
          "type": "address"
        }
      ],
      "stateMutability": "view",
      "type": "function"
    },
    {
      "inputs": [],
      "name": "tokenToPriceFeed",
      "outputs": [
        {
          "internalType": "contract ITokenPriceFeed",
          "name": "",
          "type": "address"
        }
      ],
      "stateMutability": "view",
      "type": "function"
    },
    {
      "inputs": [
        {
          "internalType": "address",
          "name": "_token",
          "type": "address"
        }
      ],
      "name": "totalCollateral",
      "outputs": [
        {
          "internalType": "uint256",
          "name": "",
          "type": "uint256"
        }
      ],
      "stateMutability": "view",
      "type": "function"
    },
    {
      "inputs": [],
      "name": "totalDebt",
      "outputs": [
        {
          "internalType": "uint256",
          "name": "",
          "type": "uint256"
        }
      ],
      "stateMutability": "view",
      "type": "function"
    },
    {
      "inputs": [
        {
          "internalType": "address",
          "name": "_token",
          "type": "address"
        }
      ],
      "name": "totalDebtForToken",
      "outputs": [
        {
          "internalType": "uint256",
          "name": "",
          "type": "uint256"
        }
      ],
      "stateMutability": "view",
      "type": "function"
    },
    {
      "inputs": [
        {
          "internalType": "address",
          "name": "newOwner",
          "type": "address"
        }
      ],
      "name": "transferOwnership",
      "outputs": [],
      "stateMutability": "nonpayable",
      "type": "function"
    },
    {
      "inputs": [
        {
          "internalType": "address",
          "name": "_newOwner",
          "type": "address"
        }
      ],
      "name": "transferTokenOwnerOwnership",
      "outputs": [],
      "stateMutability": "nonpayable",
      "type": "function"
    },
    {
      "inputs": [
        {
          "internalType": "address",
          "name": "_newOwner",
          "type": "address"
        }
      ],
      "name": "transferTokenOwnership",
      "outputs": [],
      "stateMutability": "nonpayable",
      "type": "function"
    },
    {
      "inputs": [
        {
          "internalType": "address",
          "name": "_token",
          "type": "address"
        }
      ],
      "name": "troveCount",
      "outputs": [
        {
          "internalType": "uint256",
          "name": "",
          "type": "uint256"
        }
      ],
      "stateMutability": "view",
      "type": "function"
    },
    {
      "inputs": [],
      "name": "troveImplementation",
      "outputs": [
        {
          "internalType": "address",
          "name": "",
          "type": "address"
        }
      ],
      "stateMutability": "view",
      "type": "function"
    },
    {
      "inputs": [
        {
          "internalType": "address",
          "name": "_token",
          "type": "address"
        },
        {
          "internalType": "uint256",
          "name": "_amount",
          "type": "uint256"
        },
        {
          "internalType": "bool",
          "name": "_increase",
          "type": "bool"
        }
      ],
      "name": "updateTotalCollateral",
      "outputs": [],
      "stateMutability": "nonpayable",
      "type": "function"
    },
    {
      "inputs": [
        {
          "internalType": "uint256",
          "name": "_amount",
          "type": "uint256"
        },
        {
          "internalType": "bool",
          "name": "_borrow",
          "type": "bool"
        }
      ],
      "name": "updateTotalDebt",
      "outputs": [],
      "stateMutability": "nonpayable",
      "type": "function"
    },
    {
      "inputs": [
        {
          "internalType": "address",
          "name": "newImplementation",
          "type": "address"
        }
      ],
      "name": "upgradeTo",
      "outputs": [],
      "stateMutability": "nonpayable",
      "type": "function"
    },
    {
      "inputs": [
        {
          "internalType": "address",
          "name": "newImplementation",
          "type": "address"
        },
        {
          "internalType": "bytes",
          "name": "data",
          "type": "bytes"
        }
      ],
      "name": "upgradeToAndCall",
      "outputs": [],
      "stateMutability": "payable",
      "type": "function"
    }
  ],
  "transactionHash": "0xd34036bbb89a28b65cef89193c1f6fa61d2e147401aa6de3d34321dbe4e2e524",
  "args": [],
  "numDeployments": 1,
  "solcInputHash": "0ad91dfc9da538af5d7b10d9f4978a6e",
  "bytecode": "0x60a0604052306080523480156200001557600080fd5b506200002062000026565b620000e8565b600054610100900460ff1615620000935760405162461bcd60e51b815260206004820152602760248201527f496e697469616c697a61626c653a20636f6e747261637420697320696e697469604482015266616c697a696e6760c81b606482015260840160405180910390fd5b60005460ff9081161015620000e6576000805460ff191660ff9081179091556040519081527f7f26b83ff96e1f2b6a682f133852f6798a09c465da95921460cefb38474024989060200160405180910390a15b565b6080516154c062000120600039600081816115b6015281816115f601528181611b9401528181611bd40152611c9501526154c06000f3fe6080604052600436106103ac5760003560e01c806379a71baf116101e7578063abdc55411161010d578063c7089e43116100a0578063e74b981b1161006f578063e74b981b14610b03578063e7b3615414610b23578063f2fde38b14610b43578063fc7b9c1814610b6357600080fd5b8063c7089e4314610a67578063ddc0e55414610a87578063deb44c8814610ac3578063e04a3e9014610ae357600080fd5b8063b85a8b20116100dc578063b85a8b20146109fc578063c11aeb3914610a11578063c4ae316814610a32578063c531b26614610a4757600080fd5b8063abdc5541146109b2578063aceb2d04146106a8578063ad09014d146109c7578063b3d5e0ce146109dc57600080fd5b8063914a1ac91161018557806398d721e01161015457806398d721e014610951578063992642e514610971578063a20baee6146108dc578063a3e676101461099257600080fd5b8063914a1ac9146108bb578063923c1eec146108dc57806393857395146108f85780639723ee601461091857600080fd5b806381519ef4116101c157806381519ef41461083d578063822505271461085d57806385ad91751461087d5780638da5cb5b1461089d57600080fd5b806379a71baf146107c75780637e059b22146107e757806380b0dcc91461081d57600080fd5b80633f6e0719116102d757806352d1902d1161026a57806365d7ddc41161023957806365d7ddc4146107365780636757634d1461075657806369e5e6e014610776578063715018a6146107b257600080fd5b806352d1902d146106bd57806356e71857146106d25780635c975abb146106f2578063631203b01461071657600080fd5b80634d31a2af116102a65780634d31a2af146106555780634e2f663c146106755780634f1ef28614610695578063517ef1d7146106a857600080fd5b80633f6e0719146105e15780634690484014610601578063485cc955146106225780634a7402fb1461064257600080fd5b806321e6b53d1161034f5780633659cfe61161031e5780633659cfe6146105615780633a297fd8146105815780633e78cf73146105a15780633eebf7b9146105c157600080fd5b806321e6b53d146104e157806328a0e71b146105015780632aaed16a146105215780632bcf77411461054157600080fd5b8063098d32281161038b578063098d32281461044f5780630f2f114614610473578063142af9a21461049357806314ac36d1146104cc57600080fd5b80621bed28146103b1578063048c661d146103d357806306fdde0314610410575b600080fd5b3480156103bd57600080fd5b506103d16103cc366004614e19565b610b7a565b005b3480156103df57600080fd5b5060fb546103f3906001600160a01b031681565b6040516001600160a01b0390911681526020015b60405180910390f35b34801561041c57600080fd5b50604080518082018252601081526f4f726967696e616c20466163746f727960801b602082015290516104079190614e76565b34801561045b57600080fd5b5061046560001981565b604051908152602001610407565b34801561047f57600080fd5b5061046561048e366004614ea9565b611151565b34801561049f57600080fd5b506104656104ae366004614ecb565b6001600160a01b0316600090815260fd602052604090206001015490565b3480156104d857600080fd5b506103d1611179565b3480156104ed57600080fd5b506103d16104fc366004614ecb565b6113d3565b34801561050d57600080fd5b506103d161051c366004614ee8565b61143e565b34801561052d57600080fd5b506103d161053c366004614ecb565b61150f565b34801561054d57600080fd5b506103d161055c366004614ecb565b611539565b34801561056d57600080fd5b506103d161057c366004614ecb565b6115ac565b34801561058d57600080fd5b5060fc546103f3906001600160a01b031681565b3480156105ad57600080fd5b506103d16105bc366004614ecb565b611688565b3480156105cd57600080fd5b506104656105dc366004614ea9565b6116b2565b3480156105ed57600080fd5b506103f36105fc366004614ecb565b6116d8565b34801561060d57600080fd5b50610102546103f3906001600160a01b031681565b34801561062e57600080fd5b506103d161063d366004614e19565b6116f9565b6103d1610650366004614e19565b6118b1565b34801561066157600080fd5b50610465610670366004614ecb565b611b14565b34801561068157600080fd5b506103d1610690366004614ecb565b611b50565b6103d16106a3366004614f4f565b611b8a565b3480156106b457600080fd5b50610465611c5a565b3480156106c957600080fd5b50610465611c88565b3480156106de57600080fd5b506103d16106ed366004614e19565b611d3b565b3480156106fe57600080fd5b5060c95460ff165b6040519015158152602001610407565b34801561072257600080fd5b50610465610731366004615013565b611d74565b34801561074257600080fd5b506103d1610751366004614e19565b611de3565b34801561076257600080fd5b506103d161077136600461503a565b611e6b565b34801561078257600080fd5b506103f3610791366004614ecb565b6001600160a01b03908116600090815260fd60205260409020600301541690565b3480156107be57600080fd5b506103d1611f52565b3480156107d357600080fd5b506103d16107e236600461507c565b611f66565b3480156107f357600080fd5b50610465610802366004614ecb565b6001600160a01b0316600090815260fd602052604090205490565b34801561082957600080fd5b506103d16108383660046150b7565b61204a565b34801561084957600080fd5b506103f3610858366004614e19565b61214f565b34801561086957600080fd5b506103d1610878366004614e19565b612180565b34801561088957600080fd5b50610465610898366004614ecb565b61271b565b3480156108a957600080fd5b506097546001600160a01b03166103f3565b3480156108c757600080fd5b50610101546103f3906001600160a01b031681565b3480156108e857600080fd5b50610465670de0b6b3a764000081565b34801561090457600080fd5b5060ff546103f3906001600160a01b031681565b34801561092457600080fd5b50610465610933366004614ecb565b6001600160a01b0316600090815260fd602052604090206005015490565b34801561095d57600080fd5b506103d161096c366004614ecb565b6128f3565b34801561097d57600080fd5b50610100546103f3906001600160a01b031681565b34801561099e57600080fd5b5060fe546103f3906001600160a01b031681565b3480156109be57600080fd5b5061046561291d565b3480156109d357600080fd5b50610465612932565b3480156109e857600080fd5b506107066109f7366004614e19565b61295c565b348015610a0857600080fd5b5061046561298f565b348015610a1d57600080fd5b50610104546103f3906001600160a01b031681565b348015610a3e57600080fd5b506103d16129a4565b348015610a5357600080fd5b506103d1610a62366004615116565b6129c7565b348015610a7357600080fd5b506103f3610a82366004614e19565b612f8e565b348015610a9357600080fd5b506103f3610aa2366004614ecb565b6001600160a01b03908116600090815260fd60205260409020600201541690565b348015610acf57600080fd5b506103d1610ade36600461515e565b612fbc565b348015610aef57600080fd5b506103d1610afe366004615183565b61315e565b348015610b0f57600080fd5b506103d1610b1e366004614ecb565b6131ab565b348015610b2f57600080fd5b506103f3610b3e366004614ecb565b613244565b348015610b4f57600080fd5b506103d1610b5e366004614ecb565b613727565b348015610b6f57600080fd5b506104656101035481565b8133610b86828261295c565b610bab5760405162461bcd60e51b8152600401610ba2906151b8565b60405180910390fd5b610bb5848461295c565b80610bc757506001600160a01b038316155b610c315760405162461bcd60e51b815260206004820152603560248201527f3361363639207468652074726f76652068696e74206d757374206578697374206044820152740696e20746865206c697374206f722062652030783605c1b6064820152608401610ba2565b6001600160a01b038316610c60576001600160a01b03808516600090815260fd60205260409020600301541692505b336001600160a01b03841603610cac576000610c7c858561214f565b9050806001600160a01b0316846001600160a01b031603610ca657610ca18585612f8e565b610ca8565b805b9350505b6001600160a01b038416600090815260fd6020526040902033908490600190610cd8906003018461379d565b610d3b5760405162461bcd60e51b815260206004820152602e60248201527f33613636392074726f766520636f756c64206e6f742062652072656d6f76656460448201526d08199c9bdb481d1a19481b1a5cdd60921b6064820152608401610ba2565b826001600160a01b0316630dca59c16040518163ffffffff1660e01b8152600401602060405180830381865afa158015610d79573d6000803e3d6000fd5b505050506040513d601f19601f82011682018060405250810190610d9d919061520b565b600003610e40576001600160a01b038716600090815260fd60205260408120610dce9160039091019085908061398c565b610dea5760405162461bcd60e51b8152600401610ba290615224565b604080516001600160a01b038981168252851660208201526000818301819052606082015290517ff41ecc43fd86bebfc7d02efecacb0a49ee2df40df4ee0bc7fbe9325576c2fdd19181900360800190a1611148565b6000836001600160a01b031663d91d2f606040518163ffffffff1660e01b8152600401602060405180830381865afa158015610e80573d6000803e3d6000fd5b505050506040513d601f19601f82011682018060405250810190610ea4919061520b565b90506000836001600160a01b031663d91d2f606040518163ffffffff1660e01b8152600401602060405180830381865afa158015610ee6573d6000803e3d6000fd5b505050506040513d601f19601f82011682018060405250810190610f0a919061520b565b9050818110610fde57610f1c896116d8565b6001600160a01b0316886001600160a01b031614610fd9575b610f3f8985612f8e565b9350836001600160a01b031663d91d2f606040518163ffffffff1660e01b8152600401602060405180830381865afa158015610f7f573d6000803e3d6000fd5b505050506040513d601f19601f82011682018060405250810190610fa3919061520b565b90508181118015610fd457506001600160a01b03808a16600090815260fd6020526040902060040154858216911614155b610f35575b6110aa565b6001600160a01b03898116600090815260fd60205260409020600301548982169116146110aa575b611010898561214f565b9350836001600160a01b031663d91d2f606040518163ffffffff1660e01b8152600401602060405180830381865afa158015611050573d6000803e3d6000fd5b505050506040513d601f19601f82011682018060405250810190611074919061520b565b905081811080156110a557506001600160a01b03808a16600090815260fd6020526040902060030154858216911614155b611006575b6001600160a01b038916600090815260fd6020526040902082821193506110d69060030186868661398c565b6110f25760405162461bcd60e51b8152600401610ba290615224565b604080516001600160a01b038b811682528781166020830152861681830152841515606082015290517ff41ecc43fd86bebfc7d02efecacb0a49ee2df40df4ee0bc7fbe9325576c2fdd19181900360800190a150505b50505050505050565b6000670de0b6b3a76400006111668484615287565b611170919061529e565b90505b92915050565b611181613cd5565b6101005460408051638da5cb5b60e01b815290516001600160a01b03909216918291638da5cb5b9160048083019260209291908290030181865afa1580156111cd573d6000803e3d6000fd5b505050506040513d601f19601f820116820180604052508101906111f191906152c0565b60fe80546001600160a01b0319166001600160a01b0392831690811790915560408051637e062a3560e11b815290519284169263fc0c546a916004808201926020929091908290030181865afa15801561124f573d6000803e3d6000fd5b505050506040513d601f19601f8201168201806040525081019061127391906152c0565b6001600160a01b0316146112e75760405162461bcd60e51b815260206004820152603560248201527f34313634322074686520537461626c65436f696e206d757374206265206f776e60448201527432b210313c903a3432903a37b5b2b71037bbb732b960591b6064820152608401610ba2565b60fe5460408051638da5cb5b60e01b8152905130926001600160a01b031691638da5cb5b9160048083019260209291908290030181865afa158015611330573d6000803e3d6000fd5b505050506040513d601f19601f8201168201806040525081019061135491906152c0565b6001600160a01b0316146113d05760405162461bcd60e51b815260206004820152603860248201527f3431363432207468697320636f6e7472616374206d757374206265207468652060448201527f6f776e6572206f662074686520746f6b656e206f776e657200000000000000006064820152608401610ba2565b50565b6113db613cd5565b60fe546040516321e6b53d60e01b81526001600160a01b038381166004830152909116906321e6b53d906024015b600060405180830381600087803b15801561142357600080fd5b505af1158015611437573d6000803e3d6000fd5b5050505050565b60ff546040516384ba3f6960e01b81526001600160a01b0380871660048301527f02bc4d5cd45896d0a40a3c1d56314df3d795dcd0457cfff43d579b1df4a08e309286928892909116906384ba3f6990602401602060405180830381865afa1580156114ae573d6000803e3d6000fd5b505050506040513d601f19601f820116820180604052508101906114d2919061520b565b604080516001600160a01b039485168152928416602084015282015290841660608201526080810183905260a0015b60405180910390a150505050565b611517613cd5565b60fc80546001600160a01b0319166001600160a01b0392909216919091179055565b611541613cd5565b61010454604080516001600160a01b03928316815291831660208301527fb11f992e0256b743c656e4155a7c973abdb563505a0fe01ac94e5053aea0f225910160405180910390a161010480546001600160a01b0319166001600160a01b0392909216919091179055565b6001600160a01b037f00000000000000000000000000000000000000000000000000000000000000001630036115f45760405162461bcd60e51b8152600401610ba2906152dd565b7f00000000000000000000000000000000000000000000000000000000000000006001600160a01b031661163d600080516020615444833981519152546001600160a01b031690565b6001600160a01b0316146116635760405162461bcd60e51b8152600401610ba290615329565b61166c81613d2f565b604080516000808252602082019092526113d091839190613d37565b611690613cd5565b60ff80546001600160a01b0319166001600160a01b0392909216919091179055565b60006116c683670de0b6b3a7640000615375565b611166670de0b6b3a764000084615287565b6001600160a01b03908116600090815260fd60205260409020600401541690565b600054610100900460ff16158080156117195750600054600160ff909116105b806117335750303b158015611733575060005460ff166001145b6117965760405162461bcd60e51b815260206004820152602e60248201527f496e697469616c697a61626c653a20636f6e747261637420697320616c72656160448201526d191e481a5b9a5d1a585b1a5e995960921b6064820152608401610ba2565b6000805460ff1916600117905580156117b9576000805461ff0019166101001790555b6117c1613ea2565b6117c9613ed1565b61010080546001600160a01b038581166001600160a01b03199283168117909355610102805491861691909216811790915560405163095ea7b360e01b81526004810191909152600019602482015263095ea7b3906044016020604051808303816000875af1158015611840573d6000803e3d6000fd5b505050506040513d601f19601f820116820180604052508101906118649190615388565b5080156118ac576000805461ff0019169055604051600181527f7f26b83ff96e1f2b6a682f133852f6798a09c465da95921460cefb3847402498906020015b60405180910390a15b505050565b6101015460408051637e062a3560e11b8152905184926001600160a01b039081169283929185169163fc0c546a916004808201926020929091908290030181865afa158015611904573d6000803e3d6000fd5b505050506040513d601f19601f8201168201806040525081019061192891906152c0565b6001600160a01b03161461197e5760405162461bcd60e51b815260206004820152601760248201527f6238323832206e6f7420612076616c69642074726f76650000000000000000006044820152606401610ba2565b806001600160a01b031663d0e30db0346040518263ffffffff1660e01b81526004016000604051808303818588803b1580156119b957600080fd5b505af11580156119cd573d6000803e3d6000fd5b50506101015460405163a9059cbb60e01b81526001600160a01b038981166004830152346024830152909116935063a9059cbb925060440190506020604051808303816000875af1158015611a26573d6000803e3d6000fd5b505050506040513d601f19601f82011682018060405250810190611a4a9190615388565b611aac5760405162461bcd60e51b815260206004820152602d60248201527f623832383220636f756c64206e6f74207472616e73666572207468652072657160448201526c1d595cdd195908185b5bdd5b9d609a1b6064820152608401610ba2565b6040516304796e1f60e31b8152600060048201526001600160a01b0384811660248301528316906323cb70f890604401600060405180830381600087803b158015611af657600080fd5b505af1158015611b0a573d6000803e3d6000fd5b5050505050505050565b6001600160a01b038116600090815260fd6020526040812060018101549054611b4690670de0b6b3a764000090615287565b611173919061529e565b611b58613cd5565b60fe5460405163f2fde38b60e01b81526001600160a01b0383811660048301529091169063f2fde38b90602401611409565b6001600160a01b037f0000000000000000000000000000000000000000000000000000000000000000163003611bd25760405162461bcd60e51b8152600401610ba2906152dd565b7f00000000000000000000000000000000000000000000000000000000000000006001600160a01b0316611c1b600080516020615444833981519152546001600160a01b031690565b6001600160a01b031614611c415760405162461bcd60e51b8152600401610ba290615329565b611c4a82613d2f565b611c5682826001613d37565b5050565b60026064611c71670de0b6b3a76400006001615287565b611c7b919061529e565b611c85919061529e565b81565b6000306001600160a01b037f00000000000000000000000000000000000000000000000000000000000000001614611d285760405162461bcd60e51b815260206004820152603860248201527f555550535570677261646561626c653a206d757374206e6f742062652063616c60448201527f6c6564207468726f7567682064656c656761746563616c6c00000000000000006064820152608401610ba2565b5060008051602061544483398151915290565b611d43613cd5565b6001600160a01b03918216600090815260fd6020526040902060020180546001600160a01b03191691909216179055565b61010254604051630631203b60e41b8152600481018390526000916001600160a01b03169063631203b090602401602060405180830381865afa158015611dbf573d6000803e3d6000fd5b505050506040513d601f19601f82011682018060405250810190611173919061520b565b611deb613cd5565b610101546001600160a01b031615611e455760405162461bcd60e51b815260206004820152601f60248201527f636439663320574554482063616e206f6e6c7920626520736574206f6e6365006044820152606401610ba2565b61010180546001600160a01b0319166001600160a01b038416179055611c568282611d3b565b8233611e77828261295c565b611e935760405162461bcd60e51b8152600401610ba2906151b8565b8215611ecc576001600160a01b038516600090815260fd602052604081208054869290611ec1908490615375565b90915550611efa9050565b6001600160a01b038516600090815260fd602052604081208054869290611ef49084906153a5565b90915550505b6001600160a01b038516600081815260fd6020908152604091829020548251938452908301527fa7397a34065f9b23fc4f24516f72718d02d2ec2a5a58e2903ca1150bcc0fa10b910160405180910390a15050505050565b611f5a613cd5565b611f646000613f00565b565b7fc699869172ddb8efd1d3379b969fec6a7a23e5d91d2389d8b896c773708a240e3332868661010260009054906101000a90046001600160a01b03166001600160a01b0316631f68f20a6040518163ffffffff1660e01b8152600401602060405180830381865afa158015611fdf573d6000803e3d6000fd5b505050506040513d601f19601f82011682018060405250810190612003919061520b565b604080516001600160a01b039687168152948616602086015292909416918301919091526060820152608081019190915260a0810184905260c0810183905260e001611501565b600061205586613244565b905061206c6001600160a01b038716338388613f52565b6040516304796e1f60e31b815260006004820181905260248201526001600160a01b038216906323cb70f890604401600060405180830381600087803b1580156120b557600080fd5b505af11580156120c9573d6000803e3d6000fd5b50505050670de0b6b3a7640000831061214757604051636c665a5560e01b81526001600160a01b038581166004830152602482018590528381166044830152821690636c665a5590606401600060405180830381600087803b15801561212e57600080fd5b505af1158015612142573d6000803e3d6000fd5b505050505b505050505050565b6001600160a01b03918216600090815260fd6020908152604080832093851683526006909301905220600101541690565b818161218c828261295c565b6121a85760405162461bcd60e51b8152600401610ba2906151b8565b6000839050336001600160a01b0316816001600160a01b0316638da5cb5b6040518163ffffffff1660e01b8152600401602060405180830381865afa1580156121f5573d6000803e3d6000fd5b505050506040513d601f19601f8201168201806040525081019061221991906152c0565b6001600160a01b0316148061223657506001600160a01b03841633145b6122a85760405162461bcd60e51b815260206004820152603760248201527f3137336661206f6e6c7920746865206f776e65722063616e2072656d6f76652060448201527f7468652074726f76652066726f6d20746865206c6973740000000000000000006064820152608401610ba2565b806001600160a01b0316630dca59c16040518163ffffffff1660e01b8152600401602060405180830381865afa1580156122e6573d6000803e3d6000fd5b505050506040513d601f19601f8201168201806040525081019061230a919061520b565b1561236e5760405162461bcd60e51b815260206004820152602e60248201527f3137336661207265706179207468652064656274206265666f72652072656d6f60448201526d76696e67207468652074726f766560901b6064820152608401610ba2565b6000816001600160a01b031663fc0c546a6040518163ffffffff1660e01b8152600401602060405180830381865afa1580156123ae573d6000803e3d6000fd5b505050506040513d601f19601f820116820180604052508101906123d291906152c0565b604051634b20406760e11b8152600060048201529091506001600160a01b0383169063964080ce90602401600060405180830381600087803b15801561241757600080fd5b505af115801561242b573d6000803e3d6000fd5b50506040516370a0823160e01b81526001600160a01b03888116600483015260009350841691506370a0823190602401602060405180830381865afa158015612478573d6000803e3d6000fd5b505050506040513d601f19601f8201168201806040525081019061249c919061520b565b9050801561257d57826001600160a01b0316633c7034a3846001600160a01b0316638da5cb5b6040518163ffffffff1660e01b8152600401602060405180830381865afa1580156124f1573d6000803e3d6000fd5b505050506040513d601f19601f8201168201806040525081019061251591906152c0565b6040516001600160e01b031960e084901b1681526001600160a01b0390911660048201526024810184905260006044820152606401600060405180830381600087803b15801561256457600080fd5b505af1158015612578573d6000803e3d6000fd5b505050505b6001600160a01b038716600090815260fd602052604090206125a2906003018761379d565b6126055760405162461bcd60e51b815260206004820152602e60248201527f31373366612074726f766520636f756c64206e6f742062652072656d6f76656460448201526d08199c9bdb481d1a19481b1a5cdd60921b6064820152608401610ba2565b60fe5460405163cfbd488560e01b81526001600160a01b0388811660048301529091169063cfbd488590602401600060405180830381600087803b15801561264c57600080fd5b505af1158015612660573d6000803e3d6000fd5b505050506001600160a01b03878116600090815260fd602052604090819020600201549051633518da6560e11b81528883166004820152911690636a31b4ca90602401600060405180830381600087803b1580156126bd57600080fd5b505af11580156126d1573d6000803e3d6000fd5b50506040516001600160a01b03891681527f56df94b000d5de0883743a2b4328178bc012bed334409fdace98ae5b36d6a91a9250602001905060405180910390a150505050505050565b600080826001600160a01b031663fc0c546a6040518163ffffffff1660e01b8152600401602060405180830381865afa15801561275c573d6000803e3d6000fd5b505050506040513d601f19601f8201168201806040525081019061278091906152c0565b9050600060ff60009054906101000a90046001600160a01b031690506000612872856001600160a01b031663d91d2f606040518163ffffffff1660e01b8152600401602060405180830381865afa1580156127df573d6000803e3d6000fd5b505050506040513d601f19601f82011682018060405250810190612803919061520b565b60405163aa41911f60e01b81526001600160a01b03868116600483015285169063aa41911f90602401602060405180830381865afa158015612849573d6000803e3d6000fd5b505050506040513d601f19601f8201168201806040525081019061286d919061520b565b613fb2565b604051630241336f60e21b81526001600160a01b0385811660048301529192506128ea91841690630904cdbc90602401602060405180830381865afa1580156128bf573d6000803e3d6000fd5b505050506040513d601f19601f820116820180604052508101906128e3919061520b565b829061413e565b95945050505050565b6128fb613cd5565b60fb80546001600160a01b0319166001600160a01b0392909216919091179055565b6064611c7b670de0b6b3a76400006005615287565b6064612947670de0b6b3a76400006001615287565b612951919061529e565b611c8590600a615287565b6001600160a01b03918216600090815260fd60209081526040808320938516835260069093019052206001015416151590565b6064611c7b670de0b6b3a76400006001615287565b6129ac613cd5565b60c95460ff16156129bf57611f64614154565b611f646141a6565b610100546001600160a01b0316670de0b6b3a76400006129e6876116d8565b6001600160a01b031663d91d2f606040518163ffffffff1660e01b8152600401602060405180830381865afa158015612a23573d6000803e3d6000fd5b505050506040513d601f19601f82011682018060405250810190612a47919061520b565b11612aba5760405162461bcd60e51b815260206004820152603f60248201527f61376639392066697273742074726f766520697320756e646572636f6c6c617460448201527f6572616c6973656420616e64206d757374206265206c697175696461746564006064820152608401610ba2565b6040516370a0823160e01b815233600482015285906001600160a01b038316906370a0823190602401602060405180830381865afa158015612b00573d6000803e3d6000fd5b505050506040513d601f19601f82011682018060405250810190612b24919061520b565b1015612b725760405162461bcd60e51b815260206004820152601f60248201527f613766393920696e73756666696369656e7420466961742062616c616e6365006044820152606401610ba2565b604051636eb1769f60e11b815233600482015230602482015285906001600160a01b0383169063dd62ed3e90604401602060405180830381865afa158015612bbe573d6000803e3d6000fd5b505050506040513d601f19601f82011682018060405250810190612be2919061520b565b1015612c455760405162461bcd60e51b815260206004820152602c60248201527f613766393920537461626c65436f696e206973206e6f7420617070726f76656460448201526b20666f7220666163746f727960a01b6064820152608401610ba2565b610102546001600160a01b0316612c5a614d9b565b6001600160a01b038816815260808101879052612c76886116d8565b6001600160a01b031660a0820152612c8e81876141e3565b9050612c9c818787876143ae565b606081015190915015611b0a5760408181015190516323b872dd60e01b815233600482015230602482015260448101919091526001600160a01b038416906323b872dd906064016020604051808303816000875af1158015612d02573d6000803e3d6000fd5b505050506040513d601f19601f82011682018060405250810190612d269190615388565b50604081810151905163cbb9435960e01b815260048101919091526001600160a01b0383169063cbb94359906024016020604051808303816000875af1158015612d74573d6000803e3d6000fd5b505050506040513d601f19601f82011682018060405250810190612d989190615388565b506000826001600160a01b0316631f68f20a6040518163ffffffff1660e01b8152600401602060405180830381865afa158015612dd9573d6000803e3d6000fd5b505050506040513d601f19601f82011682018060405250810190612dfd919061520b565b90506000836001600160a01b031663cd16e7f7866001600160a01b03166318160ddd6040518163ffffffff1660e01b8152600401602060405180830381865afa158015612e4e573d6000803e3d6000fd5b505050506040513d601f19601f82011682018060405250810190612e72919061520b565b670de0b6b3a76400008660200151612e8a9190615287565b612e94919061529e565b6040518263ffffffff1660e01b8152600401612eb291815260200190565b6020604051808303816000875af1158015612ed1573d6000803e3d6000fd5b505050506040513d601f19601f82011682018060405250810190612ef5919061520b565b90507f9485a67cba0aacb19621a77dcac069765b67928a650316d414b368154e673e248a84602001518560600151866080015186868960c00151604051612f7a97969594939291906001600160a01b039788168152602081019690965260408601949094526060850192909252608084015260a083015290911660c082015260e00190565b60405180910390a150505050505050505050565b6001600160a01b03918216600090815260fd6020908152604080832093851683526006909301905220541690565b60003390506000816001600160a01b031663fc0c546a6040518163ffffffff1660e01b8152600401602060405180830381865afa158015613001573d6000803e3d6000fd5b505050506040513d601f19601f8201168201806040525081019061302591906152c0565b9050613031813361295c565b61307d5760405162461bcd60e51b815260206004820152601760248201527f6662666435206e6f7420612076616c69642074726f76650000000000000000006044820152606401610ba2565b82156130d1578361010360008282546130969190615375565b90915550506001600160a01b038116600090815260fd6020526040812060010180548692906130c6908490615375565b9091555061311a9050565b8361010360008282546130e491906153a5565b90915550506001600160a01b038116600090815260fd6020526040812060010180548692906131149084906153a5565b90915550505b61010354604080516001600160a01b038416815260208101929092527ff95b4220419afa063ecabab77276c7ed0a3c7175e2f140babd24e56208ce58a29101611501565b604080513381526001600160a01b0385166020820152908101839052606081018290527f91aae5057d63fa752409cbc2eaaebd6e31f0beac641e40f0e762b135a62e8479906080016118a3565b6131b3613cd5565b61010280546001600160a01b0319166001600160a01b038381169182179092556101005460405163095ea7b360e01b8152600481019290925260001960248301529091169063095ea7b3906044016020604051808303816000875af1158015613220573d6000803e3d6000fd5b505050506040513d601f19601f82011682018060405250810190611c569190615388565b60fe546000906001600160a01b0316806132aa5760405162461bcd60e51b815260206004820152602160248201527f36366331302074686520746f6b656e206f776e6572206d7573742062652073656044820152601d60fa1b6064820152608401610ba2565b306001600160a01b0316816001600160a01b0316638da5cb5b6040518163ffffffff1660e01b8152600401602060405180830381865afa1580156132f2573d6000803e3d6000fd5b505050506040513d601f19601f8201168201806040525081019061331691906152c0565b6001600160a01b0316146133925760405162461bcd60e51b815260206004820152603760248201527f36366331302074686520746f6b656e206f776e65722773206f776e6572206d7560448201527f7374206265207468652074726f766520666163746f72790000000000000000006064820152608401610ba2565b60ff54604051639878cbb360e01b81526001600160a01b0385811660048301526000921690639878cbb390602401602060405180830381865afa1580156133dd573d6000803e3d6000fd5b505050506040513d601f19601f8201168201806040525081019061340191906152c0565b6001600160a01b0316036134665760405162461bcd60e51b815260206004820152602660248201527f36366331302074686520746f6b656e2070726963652066656564206d757374206044820152651899481cd95d60d21b6064820152608401610ba2565b61010454604051733d602d80600a3d3981f3363d3d373d3d3d363d7360601b81526bffffffffffffffffffffffff19606083901b1660148201526e5af43d82803e903d91602b57fd5bf360881b60288201526000916001600160a01b03169060378184f09250506001600160a01b03821661351c5760405162461bcd60e51b8152602060048201526016602482015275115490cc4c4d8dce8818dc99585d194819985a5b195960521b6044820152606401610ba2565b60405163485cc95560e01b81526001600160a01b038681166004830152336024830152929450849283169063485cc95590604401600060405180830381600087803b15801561356a57600080fd5b505af115801561357e573d6000803e3d6000fd5b5050506001600160a01b038616600090815260fd602052604081206135aa92506003019084908061398c565b6136095760405162461bcd60e51b815260206004820152602a60248201527f36366331302074726f766520636f756c64206e6f7420626520616464656420746044820152691bc81d1a19481b1a5cdd60b21b6064820152608401610ba2565b6001600160a01b03858116600090815260fd602052604090819020600201549051630fe1df2960e21b81528483166004820152911690633f877ca490602401600060405180830381600087803b15801561366257600080fd5b505af1158015613676573d6000803e3d6000fd5b5050604051634c1d96ab60e11b81526001600160a01b0385811660048301528616925063983b2d569150602401600060405180830381600087803b1580156136bd57600080fd5b505af11580156136d1573d6000803e3d6000fd5b5050604080516001600160a01b03868116825289166020820152338183015290517fd73cf983c0299e0b942c23588e67dbf06af623c7a611345b2fa509a38c6c1ed09350908190036060019150a1505050919050565b61372f613cd5565b6001600160a01b0381166137945760405162461bcd60e51b815260206004820152602660248201527f4f776e61626c653a206e6577206f776e657220697320746865207a65726f206160448201526564647265737360d01b6064820152608401610ba2565b6113d081613f00565b6001600160a01b0380821660009081526003840160209081526040808320815180830190925280548516825260010154909316908301819052909190156139825783546001600160a01b038481169116148015613809575060018401546001600160a01b038481169116145b1561382e5783546001600160a01b03199081168555600185018054909116905561392e565b60018401546001600160a01b039081169084160361388c576020808201516001600160a01b0316600081815260038701909252604090912080546001600160a01b03199081168317909155600186018054909116909117905561392e565b83546001600160a01b03908116908416036138e057805184546001600160a01b039091166001600160a01b03199182168117865560008181526003870160205260409020600101805490921617905561392e565b60208082015182516001600160a01b0391821660008181526003890190945260408085208054949093166001600160a01b031994851681179093559184529220600101805490911690911790555b6001600160a01b0383166000908152600385016020526040902080546001600160a01b03199081168255600191820180549091169055600285015461397391906153a5565b60028501555060019050611173565b5060009392505050565b60006001600160a01b03831615806139c257506001600160a01b0383811660009081526003870160205260409020600101541615155b613a0e5760405162461bcd60e51b815260206004820152601f60248201527f3739643364205f726566206e6569746865722076616c6964206e6f72203078006044820152606401610ba2565b6001600160a01b03808516600090815260038701602052604090208054909116613cc75785546001600160a01b0316613a815780546001600160a01b0386166001600160a01b03199182168117835560018084018054841683179055880180548316821790558754909116178655613ca8565b828015613aae57506001600160a01b0384161580613aae575060018601546001600160a01b038581169116145b15613b0c57600180870180546001600160a01b03908116600081815260038b01602052604090208054928a166001600160a01b0319938416811790915585548316811786559385018054831690911790558154169091179055613ca8565b82158015613b3757506001600160a01b0384161580613b37575085546001600160a01b038581169116145b15613b935785546001600160a01b0390811660008181526003890160205260409020600190810180546001600160a01b0319908116948a1694851790915584548116909217845583018054821683179055875416178655613ca8565b6001600160a01b038085166000908152600388016020908152604091829020825180840190935280548416835260010154909216918101919091528315613c3b57805182546001600160a01b039182166001600160a01b0319918216178455600180850180548985169084168117909155600090815260038b01602052604080822080548c871690861681179091558651909516825290200180549091169091179055613ca6565b81546001600160a01b038087166001600160a01b031992831681178555602080850180516001808901805492871692881692909217909155600093845260038d01909252604080842090920180548c8616908716811790915590519093168252902080549092161790555b505b6002860154613cb8906001615375565b60028701555060019050613ccd565b60009150505b949350505050565b6097546001600160a01b03163314611f645760405162461bcd60e51b815260206004820181905260248201527f4f776e61626c653a2063616c6c6572206973206e6f7420746865206f776e65726044820152606401610ba2565b6113d0613cd5565b7f4910fdfa16fed3260ed0e7147f7cc6da11a60208b5b9406d12a635614ffd91435460ff1615613d6a576118ac836145da565b826001600160a01b03166352d1902d6040518163ffffffff1660e01b8152600401602060405180830381865afa925050508015613dc4575060408051601f3d908101601f19168201909252613dc19181019061520b565b60015b613e275760405162461bcd60e51b815260206004820152602e60248201527f45524331393637557067726164653a206e657720696d706c656d656e7461746960448201526d6f6e206973206e6f74205555505360901b6064820152608401610ba2565b6000805160206154448339815191528114613e965760405162461bcd60e51b815260206004820152602960248201527f45524331393637557067726164653a20756e737570706f727465642070726f786044820152681a58589b195555525160ba1b6064820152608401610ba2565b506118ac838383614676565b600054610100900460ff16613ec95760405162461bcd60e51b8152600401610ba2906153b8565b611f6461469b565b600054610100900460ff16613ef85760405162461bcd60e51b8152600401610ba2906153b8565b611f646146cb565b609780546001600160a01b038381166001600160a01b0319831681179093556040519116919082907f8be0079c531659141344cd1fd0a4f28419497f9722a3daafe3b4186f6b6457e090600090a35050565b604080516001600160a01b0385811660248301528416604482015260648082018490528251808303909101815260849091019091526020810180516001600160e01b03166323b872dd60e01b179052613fac9085906146fe565b50505050565b600080613fd3613fc384600f615287565b613fcd85876153a5565b9061413e565b9050600083670de0b6b3a764000081613fec8580615287565b613ff6919061529e565b6140009190615287565b61400a919061529e565b90506000614021670de0b6b3a7640000602c615287565b61402c86602d615287565b61403691906153a5565b9050600081670de0b6b3a76400006064614051826001615287565b61405b919061529e565b61406690600a615287565b6140709190615287565b61407a919061529e565b905060006064614093670de0b6b3a76400006001615287565b61409d919061529e565b82116140d357600260646140ba670de0b6b3a76400006001615287565b6140c4919061529e565b6140ce919061529e565b614108565b600260646140ea670de0b6b3a76400006001615287565b6140f4919061529e565b6140fe919061529e565b61410890836153a5565b9050808361411e670de0b6b3a764000087615287565b614128919061529e565b6141329190615375565b98975050505050505050565b600081831061414d5781611170565b5090919050565b61415c6147d0565b60c9805460ff191690557f5db9ee0a495bf2e6ff9c91a7834c1ba4fdd244a5e8aa4e537bd38aeae4b073aa335b6040516001600160a01b03909116815260200160405180910390a1565b6141ae614819565b60c9805460ff191660011790557f62e78cea01bee320cd4e420270b5ea74000d11b0c9f74754ebdbfc544b05a2586141893390565b6141eb614d9b565b60a08301516101025460408051630fb4790560e11b815290516000926001600160a01b031691631f68f20a9160048083019260209291908290030181865afa15801561423b573d6000803e3d6000fd5b505050506040513d601f19601f8201168201806040525081019061425f919061520b565b61426c8660a0015161271b565b6142769190615375565b905060006142888287608001516116b2565b90505b826001600160a01b0316633746403c6040518163ffffffff1660e01b8152600401602060405180830381865afa1580156142c9573d6000803e3d6000fd5b505050506040513d601f19601f820116820180604052508101906142ed919061520b565b600010801561435d575080836001600160a01b0316633746403c6040518163ffffffff1660e01b8152600401602060405180830381865afa158015614336573d6000803e3d6000fd5b505050506040513d601f19601f8201168201806040525081019061435a919061520b565b11155b801561436857508482105b156143a457614377868361485f565b95506143868660a0015161271b565b91506143968287608001516116b2565b90508560a00151925061428b565b5093949350505050565b6143b6614d9b565b60a08501516101025460408051630fb4790560e11b815290516000926001600160a01b031691631f68f20a9160048083019260209291908290030181865afa158015614406573d6000803e3d6000fd5b505050506040513d601f19601f8201168201806040525081019061442a919061520b565b6144378860a0015161271b565b6144419190615375565b905084826001600160a01b031663d91d2f606040518163ffffffff1660e01b8152600401602060405180830381865afa158015614482573d6000803e3d6000fd5b505050506040513d601f19601f820116820180604052508101906144a6919061520b565b1480156144b257508581105b156145cf5760006145316144ca838a608001516116b2565b846001600160a01b0316633746403c6040518163ffffffff1660e01b8152600401602060405180830381865afa158015614508573d6000803e3d6000fd5b505050506040513d601f19601f8201168201806040525081019061452c919061520b565b61413e565b9050600080614546338b60a00151858a614925565b91509150818a60200181815161455c9190615375565b905250600061456b8584611151565b9050808b60400181815161457f9190615375565b90525061458c8184615375565b8b60800181815161459d91906153a5565b90525060608b0180518391906145b4908390615375565b905250505060a08901516001600160a01b031660c08a015250505b509495945050505050565b6001600160a01b0381163b6146475760405162461bcd60e51b815260206004820152602d60248201527f455243313936373a206e657720696d706c656d656e746174696f6e206973206e60448201526c1bdd08184818dbdb9d1c9858dd609a1b6064820152608401610ba2565b60008051602061544483398151915280546001600160a01b0319166001600160a01b0392909216919091179055565b61467f83614a2e565b60008251118061468c5750805b156118ac57613fac8383614a6e565b600054610100900460ff166146c25760405162461bcd60e51b8152600401610ba2906153b8565b611f6433613f00565b600054610100900460ff166146f25760405162461bcd60e51b8152600401610ba2906153b8565b60c9805460ff19169055565b6000614753826040518060400160405280602081526020017f5361666545524332303a206c6f772d6c6576656c2063616c6c206661696c6564815250856001600160a01b0316614b599092919063ffffffff16565b8051909150156118ac57808060200190518101906147719190615388565b6118ac5760405162461bcd60e51b815260206004820152602a60248201527f5361666545524332303a204552433230206f7065726174696f6e20646964206e6044820152691bdd081cdd58d8d9595960b21b6064820152608401610ba2565b60c95460ff16611f645760405162461bcd60e51b815260206004820152601460248201527314185d5cd8589b194e881b9bdd081c185d5cd95960621b6044820152606401610ba2565b60c95460ff1615611f645760405162461bcd60e51b815260206004820152601060248201526f14185d5cd8589b194e881c185d5cd95960821b6044820152606401610ba2565b614867614d9b565b600061487b84600001518560a0015161214f565b905060008061488e338760a00151614b72565b9150915081866020018181516148a49190615375565b90525060006148b38684611151565b905080876040018181516148c79190615375565b9052506148d48184615375565b876080018181516148e591906153a5565b9052506060870180518391906148fc908390615375565b90525050505060a0840180516001600160a01b0390811660c08701529190911690525090919050565b610100546040516323b872dd60e01b81526001600160a01b03868116600483015280861660248301526044820185905260009283928792909116906323b872dd906064016020604051808303816000875af1158015614988573d6000803e3d6000fd5b505050506040513d601f19601f820116820180604052508101906149ac9190615388565b5060405163bba06f2760e01b81526001600160a01b038881166004830152858116602483015282169063bba06f279060440160408051808303816000875af11580156149fc573d6000803e3d6000fd5b505050506040513d601f19601f82011682018060405250810190614a209190615403565b925092505094509492505050565b614a37816145da565b6040516001600160a01b038216907fbc7cd75a20ee27fd9adebab32041f755214dbc6bffa90cc0225b39da2e5c2d3b90600090a250565b60606001600160a01b0383163b614ad65760405162461bcd60e51b815260206004820152602660248201527f416464726573733a2064656c65676174652063616c6c20746f206e6f6e2d636f6044820152651b9d1c9858dd60d21b6064820152608401610ba2565b600080846001600160a01b031684604051614af19190615427565b600060405180830381855af49150503d8060008114614b2c576040519150601f19603f3d011682016040523d82523d6000602084013e614b31565b606091505b50915091506128ea828260405180606001604052806027815260200161546460279139614bee565b6060614b688484600085614c07565b90505b9392505050565b600080614be38484856001600160a01b0316633746403c6040518163ffffffff1660e01b8152600401602060405180830381865afa158015614bb8573d6000803e3d6000fd5b505050506040513d601f19601f82011682018060405250810190614bdc919061520b565b6000614925565b915091509250929050565b60608315614bfd575081614b6b565b614b6b8383614d38565b606082471015614c685760405162461bcd60e51b815260206004820152602660248201527f416464726573733a20696e73756666696369656e742062616c616e636520666f6044820152651c8818d85b1b60d21b6064820152608401610ba2565b6001600160a01b0385163b614cbf5760405162461bcd60e51b815260206004820152601d60248201527f416464726573733a2063616c6c20746f206e6f6e2d636f6e74726163740000006044820152606401610ba2565b600080866001600160a01b03168587604051614cdb9190615427565b60006040518083038185875af1925050503d8060008114614d18576040519150601f19603f3d011682016040523d82523d6000602084013e614d1d565b606091505b5091509150614d2d828286614d62565b979650505050505050565b815115614d485781518083602001fd5b8060405162461bcd60e51b8152600401610ba29190614e76565b60608315614d71575081614b6b565b825115614d815782518084602001fd5b8160405162461bcd60e51b8152600401610ba29190614e76565b60405180610100016040528060006001600160a01b031681526020016000815260200160008152602001600081526020016000815260200160006001600160a01b0316815260200160006001600160a01b0316815260200160006001600160a01b031681525090565b6001600160a01b03811681146113d057600080fd5b60008060408385031215614e2c57600080fd5b8235614e3781614e04565b91506020830135614e4781614e04565b809150509250929050565b60005b83811015614e6d578181015183820152602001614e55565b50506000910152565b6020815260008251806020840152614e95816040850160208701614e52565b601f01601f19169190910160400192915050565b60008060408385031215614ebc57600080fd5b50508035926020909101359150565b600060208284031215614edd57600080fd5b8135614b6b81614e04565b60008060008060808587031215614efe57600080fd5b8435614f0981614e04565b93506020850135614f1981614e04565b92506040850135614f2981614e04565b9396929550929360600135925050565b634e487b7160e01b600052604160045260246000fd5b60008060408385031215614f6257600080fd5b8235614f6d81614e04565b9150602083013567ffffffffffffffff80821115614f8a57600080fd5b818501915085601f830112614f9e57600080fd5b813581811115614fb057614fb0614f39565b604051601f8201601f19908116603f01168101908382118183101715614fd857614fd8614f39565b81604052828152886020848701011115614ff157600080fd5b8260208601602083013760006020848301015280955050505050509250929050565b60006020828403121561502557600080fd5b5035919050565b80151581146113d057600080fd5b60008060006060848603121561504f57600080fd5b833561505a81614e04565b92506020840135915060408401356150718161502c565b809150509250925092565b6000806000806080858703121561509257600080fd5b843561509d81614e04565b966020860135965060408601359560600135945092505050565b600080600080600060a086880312156150cf57600080fd5b85356150da81614e04565b94506020860135935060408601356150f181614e04565b925060608601359150608086013561510881614e04565b809150509295509295909350565b600080600080600060a0868803121561512e57600080fd5b853561513981614e04565b9450602086013593506040860135925060608601359150608086013561510881614e04565b6000806040838503121561517157600080fd5b823591506020830135614e478161502c565b60008060006060848603121561519857600080fd5b83356151a381614e04565b95602085013595506040909401359392505050565b60208082526033908201527f6639666163207468652074726f766520686173206e6f74206265656e20637265604082015272617465642062792074686520666163746f727960681b606082015260800190565b60006020828403121561521d57600080fd5b5051919050565b6020808252602d908201527f33613636392074726f766520636f756c64206e6f7420626520696e736572746560408201526c19081a5b881d1a19481b1a5cdd609a1b606082015260800190565b634e487b7160e01b600052601160045260246000fd5b808202811582820484141761117357611173615271565b6000826152bb57634e487b7160e01b600052601260045260246000fd5b500490565b6000602082840312156152d257600080fd5b8151614b6b81614e04565b6020808252602c908201527f46756e6374696f6e206d7573742062652063616c6c6564207468726f7567682060408201526b19195b1959d85d1958d85b1b60a21b606082015260800190565b6020808252602c908201527f46756e6374696f6e206d7573742062652063616c6c6564207468726f7567682060408201526b6163746976652070726f787960a01b606082015260800190565b8082018082111561117357611173615271565b60006020828403121561539a57600080fd5b8151614b6b8161502c565b8181038181111561117357611173615271565b6020808252602b908201527f496e697469616c697a61626c653a20636f6e7472616374206973206e6f74206960408201526a6e697469616c697a696e6760a81b606082015260800190565b6000806040838503121561541657600080fd5b505080516020909101519092909150565b60008251615439818460208701614e52565b919091019291505056fe360894a13ba1a3210667c828492db98dca3e2076cc3735a920a3ca505d382bbc416464726573733a206c6f772d6c6576656c2064656c65676174652063616c6c206661696c6564a26469706673582212203479665d2d9718757af7bd5143ee5544d9f41be2824595d1c8bc823a5accc10c64736f6c63430008110033",
  "devdoc": {
    "kind": "dev",
    "methods": {
      "containsTrove(address,address)": {
        "details": "returns and checks if such trove exists for this token"
      },
      "createTrove(address)": {
        "details": "creates a trove if the token is supported",
        "params": {
          "_token": "any supported token address"
        }
      },
      "createTroveAndBorrow(address,uint256,address,uint256,address)": {
        "details": "creates a trove with collateral and borrows from it",
        "params": {
          "_borrowAmount": "the value of the minting",
          "_collateralAmount": "a positive amount of collateral to transfer from the sender's account or zero",
          "_nextTrove": "is the trove that we think will be the next one in the list. This might be off in case there were some other list changing transactions",
          "_recipient": "is the address to which the newly minted tokens will be transferred",
          "_token": "any supported token address"
        }
      },
      "emitLiquidationEvent(address,address,address,uint256)": {
        "details": "to emit Liquidation event, to be called from a trove after liquidation.",
        "params": {
          "_token": "address of token",
          "_trove": "address of the Trove",
          "collateral": "uint256 amount of collateral",
          "stabilityPoolLiquidation": "address of StabilityPool, 0x0 if Community LiquidationPool"
        }
      },
      "emitTroveCollateralUpdate(address,uint256,uint256)": {
        "details": "to emit Collateral update event, to be called from trove",
        "params": {
          "_newAmount": "new trove's Collateral value",
          "_newCollateralization": "new trove's collateralization value",
          "_token": "address of token"
        }
      },
      "emitTroveDebtUpdate(address,uint256,uint256,uint256)": {
        "details": "to emit Trove's debt update event, to be called from trove",
        "params": {
          "_newAmount": "new trove's debt value",
          "_newCollateralization": "new trove's collateralization value",
          "_token": "address of token"
        }
      },
      "firstTrove(address)": {
        "details": "returns the first trove by minimal collaterization ratio"
      },
      "getBorrowingFee(uint256)": {
        "details": "returns fee from borrowing the amount"
      },
      "getRedemptionAmount(uint256,uint256)": {
        "details": "returns amount to be used in redemption excluding fee,"
      },
      "getRedemptionFee(uint256,uint256)": {
        "details": "returns fee from redeeming the amount"
      },
      "getRedemptionFeeRatio(address)": {
        "details": "returns fee from redeeming the amount"
      },
      "increaseCollateralNative(address,address)": {
        "details": "deposits native token into trove after wrapping the ETH (EWT, AVAX, etc) into WETH (WEWT, WAVAX, etc)",
        "params": {
          "_newNextTrove": "hint for next trove position",
          "_trove": "tove to be deposited in"
        }
      },
      "insertTrove(address,address)": {
        "details": "insert a trove in the sorted list of troves. the troves must be sorted by collateralisation ratio CR the sender must be the trove which will be inserted in the list",
        "params": {
          "_newNextTrove": "is the trove before which the trove will be added"
        }
      },
      "lastTrove(address)": {
        "details": "returns the last trove by maximum collaterization ratio"
      },
      "liquidationPool(address)": {
        "details": "returns contract address of LiquidationPool for specific token"
      },
      "nextTrove(address,address)": {
        "details": "returns the next trove by collaterization ratio"
      },
      "owner()": {
        "details": "Returns the address of the current owner."
      },
      "paused()": {
        "details": "Returns true if the contract is paused, and false otherwise."
      },
      "prevTrove(address,address)": {
        "details": "returns the previous trove by collaterization ratio"
      },
      "proxiableUUID()": {
        "details": "Implementation of the ERC1822 {proxiableUUID} function. This returns the storage slot used by the implementation. It is used to validate the implementation's compatibility when performing an upgrade. IMPORTANT: A proxy pointing at a proxiable contract should not be considered proxiable itself, because this risks bricking a proxy that upgrades to it, by delegating to itself until out of gas. Thus it is critical that this function revert if invoked through a proxy. This is guaranteed by the `notDelegated` modifier."
      },
      "redeemStableCoinForCollateral(address,uint256,uint256,uint256,address)": {
        "details": "redeem desired StableCoin amount for desired collateral tokens",
        "params": {
          "_lastTroveCurrentICR": "ICR of the last trove to be redeemed, if matches then the hint is working and it redeems",
          "_lastTroveNewPositionHint": "hint for the of the nextNewTrove after redemption for the latest trove",
          "_maxRate": "is max fee (in % with 1e18 precision) allowed to pay",
          "_stableAmount": "the desired amount of StableCoin to pay for redemption"
        }
      },
      "removeTrove(address,address)": {
        "details": "remove a trove from the list and send any remaining token balance to the owner",
        "params": {
          "_trove": "is the trove which will be removed"
        }
      },
      "renounceOwnership()": {
        "details": "Leaves the contract without owner. It will not be possible to call `onlyOwner` functions anymore. Can only be called by the current owner. NOTE: Renouncing ownership will leave the contract without an owner, thereby removing any functionality that is only available to the owner."
      },
      "setArbitragePool(address)": {
        "details": "sets contract address of ArbitragePool"
      },
      "setFeeRecipient(address)": {
        "details": "sets contract address of FeeRecipient"
      },
      "setLiquidationPool(address,address)": {
        "details": "sets contract address of LiquidationPool for specific token"
      },
      "setStabilityPool(address)": {
        "details": "sets contract address of StabilityPool"
      },
      "setTokenOwner()": {
        "details": "sets address of the contract for stableCoin issuance"
      },
      "setTokenPriceFeed(address)": {
        "details": "sets contract address of TokenPriceFeed"
      },
      "setWETH(address,address)": {
        "details": "sets contract address of Wrapped native token, along with liquidationPool"
      },
      "togglePause()": {
        "details": "toggles the pause state of the contract if the contract is paused borrowing is disabled and liquidation with Stability Pool is impossible (Community liquidations still allowed)"
      },
      "tokenCollateralization(address)": {
        "details": "returns total collateral ratio averaged between troves for specific token"
      },
      "totalCollateral(address)": {
        "details": "returns total collateral among all troves for specific token"
      },
      "totalDebtForToken(address)": {
        "details": "returns total debt among all troves for specific token"
      },
      "transferOwnership(address)": {
        "details": "Transfers ownership of the contract to a new account (`newOwner`). Can only be called by the current owner."
      },
      "transferTokenOwnerOwnership(address)": {
        "details": "transfers contract ownership this function is used when a new TroveFactory version is deployed and the same tokens are used. We transfer the ownership of the TokenOwner contract and the new TroveFactory is able to add minters"
      },
      "transferTokenOwnership(address)": {
        "details": "transfers contract ownership this function is used when a new TroveFactory version is deployed and the same tokens are used. We transfer the ownership of the TokenOwner contract and the new TroveFactory is able to add minters"
      },
      "troveCount(address)": {
        "details": "returns the number of troves for specific token"
      },
      "updateTotalCollateral(address,uint256,bool)": {
        "details": "function to be called from trove to update total collateral value of all troves of this tokens",
        "params": {
          "_increase": "bool that indicates \"+\" or \"-\" operation"
        }
      },
      "updateTotalDebt(uint256,bool)": {
        "details": "function to be called from trove to change totalDebt",
        "params": {
          "_borrow": "indicates if it is borrow or repay/liquidatin"
        }
      },
      "upgradeTo(address)": {
        "details": "Upgrade the implementation of the proxy to `newImplementation`. Calls {_authorizeUpgrade}. Emits an {Upgraded} event."
      },
      "upgradeToAndCall(address,bytes)": {
        "details": "Upgrade the implementation of the proxy to `newImplementation`, and subsequently execute the function call encoded in `data`. Calls {_authorizeUpgrade}. Emits an {Upgraded} event."
      }
    },
    "version": 1
  },
  "userdoc": {
    "kind": "user",
    "methods": {},
    "version": 1
  },
  "storageLayout": {
    "storage": [
      {
        "astId": 630,
        "contract": "contracts/original-trove-factory.sol:OriginalTroveFactory",
        "label": "_initialized",
        "offset": 0,
        "slot": "0",
        "type": "t_uint8"
      },
      {
        "astId": 633,
        "contract": "contracts/original-trove-factory.sol:OriginalTroveFactory",
        "label": "_initializing",
        "offset": 1,
        "slot": "0",
        "type": "t_bool"
      },
      {
        "astId": 612,
        "contract": "contracts/original-trove-factory.sol:OriginalTroveFactory",
        "label": "__gap",
        "offset": 0,
        "slot": "1",
        "type": "t_array(t_uint256)50_storage"
      },
      {
        "astId": 927,
        "contract": "contracts/original-trove-factory.sol:OriginalTroveFactory",
        "label": "__gap",
        "offset": 0,
        "slot": "51",
        "type": "t_array(t_uint256)50_storage"
      },
      {
        "astId": 1453,
        "contract": "contracts/original-trove-factory.sol:OriginalTroveFactory",
        "label": "__gap",
        "offset": 0,
        "slot": "101",
        "type": "t_array(t_uint256)50_storage"
      },
      {
        "astId": 113,
        "contract": "contracts/original-trove-factory.sol:OriginalTroveFactory",
        "label": "_owner",
        "offset": 0,
        "slot": "151",
        "type": "t_address"
      },
      {
        "astId": 233,
        "contract": "contracts/original-trove-factory.sol:OriginalTroveFactory",
        "label": "__gap",
        "offset": 0,
        "slot": "152",
        "type": "t_array(t_uint256)49_storage"
      },
      {
        "astId": 949,
        "contract": "contracts/original-trove-factory.sol:OriginalTroveFactory",
        "label": "_paused",
        "offset": 0,
        "slot": "201",
        "type": "t_bool"
      },
      {
        "astId": 1054,
        "contract": "contracts/original-trove-factory.sol:OriginalTroveFactory",
        "label": "__gap",
        "offset": 0,
        "slot": "202",
        "type": "t_array(t_uint256)49_storage"
      },
      {
        "astId": 15203,
        "contract": "contracts/original-trove-factory.sol:OriginalTroveFactory",
        "label": "stabilityPool",
        "offset": 0,
        "slot": "251",
        "type": "t_contract(IStabilityPoolBase)9135"
      },
      {
        "astId": 15206,
        "contract": "contracts/original-trove-factory.sol:OriginalTroveFactory",
        "label": "arbitragePool",
        "offset": 0,
        "slot": "252",
        "type": "t_address"
      },
      {
        "astId": 15211,
        "contract": "contracts/original-trove-factory.sol:OriginalTroveFactory",
        "label": "_troves",
        "offset": 0,
        "slot": "253",
        "type": "t_mapping(t_address,t_struct(TroveList)15181_storage)"
      },
      {
        "astId": 15215,
        "contract": "contracts/original-trove-factory.sol:OriginalTroveFactory",
        "label": "tokenOwner",
        "offset": 0,
        "slot": "254",
        "type": "t_contract(IMintableTokenOwner)8974"
      },
      {
        "astId": 15219,
        "contract": "contracts/original-trove-factory.sol:OriginalTroveFactory",
        "label": "tokenToPriceFeed",
        "offset": 0,
        "slot": "255",
        "type": "t_contract(ITokenPriceFeed)9242"
      },
      {
        "astId": 15223,
        "contract": "contracts/original-trove-factory.sol:OriginalTroveFactory",
        "label": "stableCoin",
        "offset": 0,
        "slot": "256",
        "type": "t_contract(IMintableToken)8938"
      },
      {
        "astId": 15226,
        "contract": "contracts/original-trove-factory.sol:OriginalTroveFactory",
        "label": "WETHContract",
        "offset": 0,
        "slot": "257",
        "type": "t_contract(IWETH)9637"
      },
      {
        "astId": 15230,
        "contract": "contracts/original-trove-factory.sol:OriginalTroveFactory",
        "label": "feeRecipient",
        "offset": 0,
        "slot": "258",
        "type": "t_contract(IFeeRecipient)8858"
      },
      {
        "astId": 15233,
        "contract": "contracts/original-trove-factory.sol:OriginalTroveFactory",
        "label": "totalDebt",
        "offset": 0,
        "slot": "259",
        "type": "t_uint256"
      },
      {
        "astId": 15235,
        "contract": "contracts/original-trove-factory.sol:OriginalTroveFactory",
        "label": "troveImplementation",
        "offset": 0,
        "slot": "260",
        "type": "t_address"
      }
    ],
    "types": {
      "t_address": {
        "encoding": "inplace",
        "label": "address",
        "numberOfBytes": "20"
      },
      "t_array(t_uint256)49_storage": {
        "base": "t_uint256",
        "encoding": "inplace",
        "label": "uint256[49]",
        "numberOfBytes": "1568"
      },
      "t_array(t_uint256)50_storage": {
        "base": "t_uint256",
        "encoding": "inplace",
        "label": "uint256[50]",
        "numberOfBytes": "1600"
      },
      "t_bool": {
        "encoding": "inplace",
        "label": "bool",
        "numberOfBytes": "1"
      },
      "t_contract(IFeeRecipient)8858": {
        "encoding": "inplace",
        "label": "contract IFeeRecipient",
        "numberOfBytes": "20"
      },
      "t_contract(ILiquidationPool)8897": {
        "encoding": "inplace",
        "label": "contract ILiquidationPool",
        "numberOfBytes": "20"
      },
      "t_contract(IMintableToken)8938": {
        "encoding": "inplace",
        "label": "contract IMintableToken",
        "numberOfBytes": "20"
      },
      "t_contract(IMintableTokenOwner)8974": {
        "encoding": "inplace",
        "label": "contract IMintableTokenOwner",
        "numberOfBytes": "20"
      },
      "t_contract(IStabilityPoolBase)9135": {
        "encoding": "inplace",
        "label": "contract IStabilityPoolBase",
        "numberOfBytes": "20"
      },
      "t_contract(ITokenPriceFeed)9242": {
        "encoding": "inplace",
        "label": "contract ITokenPriceFeed",
        "numberOfBytes": "20"
      },
      "t_contract(IWETH)9637": {
        "encoding": "inplace",
        "label": "contract IWETH",
        "numberOfBytes": "20"
      },
      "t_mapping(t_address,t_struct(EntryLink)19561_storage)": {
        "encoding": "mapping",
        "key": "t_address",
        "label": "mapping(address => struct LinkedAddressList.EntryLink)",
        "numberOfBytes": "32",
        "value": "t_struct(EntryLink)19561_storage"
      },
      "t_mapping(t_address,t_struct(TroveList)15181_storage)": {
        "encoding": "mapping",
        "key": "t_address",
        "label": "mapping(address => struct TroveFactory.TroveList)",
        "numberOfBytes": "32",
        "value": "t_struct(TroveList)15181_storage"
      },
      "t_struct(EntryLink)19561_storage": {
        "encoding": "inplace",
        "label": "struct LinkedAddressList.EntryLink",
        "members": [
          {
            "astId": 19558,
            "contract": "contracts/original-trove-factory.sol:OriginalTroveFactory",
            "label": "prev",
            "offset": 0,
            "slot": "0",
            "type": "t_address"
          },
          {
            "astId": 19560,
            "contract": "contracts/original-trove-factory.sol:OriginalTroveFactory",
            "label": "next",
            "offset": 0,
            "slot": "1",
            "type": "t_address"
          }
        ],
        "numberOfBytes": "64"
      },
      "t_struct(List)19573_storage": {
        "encoding": "inplace",
        "label": "struct LinkedAddressList.List",
        "members": [
          {
            "astId": 19563,
            "contract": "contracts/original-trove-factory.sol:OriginalTroveFactory",
            "label": "_last",
            "offset": 0,
            "slot": "0",
            "type": "t_address"
          },
          {
            "astId": 19565,
            "contract": "contracts/original-trove-factory.sol:OriginalTroveFactory",
            "label": "_first",
            "offset": 0,
            "slot": "1",
            "type": "t_address"
          },
          {
            "astId": 19567,
            "contract": "contracts/original-trove-factory.sol:OriginalTroveFactory",
            "label": "_size",
            "offset": 0,
            "slot": "2",
            "type": "t_uint256"
          },
          {
            "astId": 19572,
            "contract": "contracts/original-trove-factory.sol:OriginalTroveFactory",
            "label": "_values",
            "offset": 0,
            "slot": "3",
            "type": "t_mapping(t_address,t_struct(EntryLink)19561_storage)"
          }
        ],
        "numberOfBytes": "128"
      },
      "t_struct(TroveList)15181_storage": {
        "encoding": "inplace",
        "label": "struct TroveFactory.TroveList",
        "members": [
          {
            "astId": 15172,
            "contract": "contracts/original-trove-factory.sol:OriginalTroveFactory",
            "label": "totalCollateral",
            "offset": 0,
            "slot": "0",
            "type": "t_uint256"
          },
          {
            "astId": 15174,
            "contract": "contracts/original-trove-factory.sol:OriginalTroveFactory",
            "label": "totalDebt",
            "offset": 0,
            "slot": "1",
            "type": "t_uint256"
          },
          {
            "astId": 15177,
            "contract": "contracts/original-trove-factory.sol:OriginalTroveFactory",
            "label": "liquidationPool",
            "offset": 0,
            "slot": "2",
            "type": "t_contract(ILiquidationPool)8897"
          },
          {
            "astId": 15180,
            "contract": "contracts/original-trove-factory.sol:OriginalTroveFactory",
            "label": "list",
            "offset": 0,
            "slot": "3",
            "type": "t_struct(List)19573_storage"
          }
        ],
        "numberOfBytes": "224"
      },
      "t_uint256": {
        "encoding": "inplace",
        "label": "uint256",
        "numberOfBytes": "32"
      },
      "t_uint8": {
        "encoding": "inplace",
        "label": "uint8",
        "numberOfBytes": "1"
      }
    }
  }
}