{
  "address": "0xe1E771dFBF2046CAc51b3256F4e09fa0b9118822",
  "abi": [
    {
      "inputs": [
        {
          "internalType": "address",
          "name": "_factory",
          "type": "address"
        }
      ],
      "stateMutability": "nonpayable",
      "type": "constructor"
    },
    {
      "anonymous": false,
      "inputs": [
        {
          "indexed": false,
          "internalType": "address",
          "name": "trove",
          "type": "address"
        },
        {
          "indexed": false,
          "internalType": "uint256",
          "name": "debt",
          "type": "uint256"
        },
        {
          "indexed": false,
          "internalType": "uint256",
          "name": "collateral",
          "type": "uint256"
        }
      ],
      "name": "Liquidated",
      "type": "event"
    },
    {
      "anonymous": false,
      "inputs": [
        {
          "indexed": true,
          "internalType": "address",
          "name": "previousOwner",
          "type": "address"
        },
        {
          "indexed": true,
          "internalType": "address",
          "name": "newOwner",
          "type": "address"
        }
      ],
      "name": "OwnershipTransferred",
      "type": "event"
    },
    {
      "anonymous": false,
      "inputs": [
        {
          "indexed": true,
          "internalType": "bytes32",
          "name": "role",
          "type": "bytes32"
        },
        {
          "indexed": true,
          "internalType": "bytes32",
          "name": "previousAdminRole",
          "type": "bytes32"
        },
        {
          "indexed": true,
          "internalType": "bytes32",
          "name": "newAdminRole",
          "type": "bytes32"
        }
      ],
      "name": "RoleAdminChanged",
      "type": "event"
    },
    {
      "anonymous": false,
      "inputs": [
        {
          "indexed": true,
          "internalType": "bytes32",
          "name": "role",
          "type": "bytes32"
        },
        {
          "indexed": true,
          "internalType": "address",
          "name": "account",
          "type": "address"
        },
        {
          "indexed": true,
          "internalType": "address",
          "name": "sender",
          "type": "address"
        }
      ],
      "name": "RoleGranted",
      "type": "event"
    },
    {
      "anonymous": false,
      "inputs": [
        {
          "indexed": true,
          "internalType": "bytes32",
          "name": "role",
          "type": "bytes32"
        },
        {
          "indexed": true,
          "internalType": "address",
          "name": "account",
          "type": "address"
        },
        {
          "indexed": true,
          "internalType": "address",
          "name": "sender",
          "type": "address"
        }
      ],
      "name": "RoleRevoked",
      "type": "event"
    },
    {
      "inputs": [],
      "name": "BORROWING_RATE",
      "outputs": [
        {
          "internalType": "uint256",
          "name": "",
          "type": "uint256"
        }
      ],
      "stateMutability": "view",
      "type": "function"
    },
    {
      "inputs": [],
      "name": "DECIMAL_PRECISION",
      "outputs": [
        {
          "internalType": "uint256",
          "name": "",
          "type": "uint256"
        }
      ],
      "stateMutability": "view",
      "type": "function"
    },
    {
      "inputs": [],
      "name": "DEFAULT_ADMIN_ROLE",
      "outputs": [
        {
          "internalType": "bytes32",
          "name": "",
          "type": "bytes32"
        }
      ],
      "stateMutability": "view",
      "type": "function"
    },
    {
      "inputs": [],
      "name": "LIQUIDATION_RESERVE",
      "outputs": [
        {
          "internalType": "uint256",
          "name": "",
          "type": "uint256"
        }
      ],
      "stateMutability": "view",
      "type": "function"
    },
    {
      "inputs": [],
      "name": "MAX_BORROWING_RATE",
      "outputs": [
        {
          "internalType": "uint256",
          "name": "",
          "type": "uint256"
        }
      ],
      "stateMutability": "view",
      "type": "function"
    },
    {
      "inputs": [],
      "name": "MAX_INT",
      "outputs": [
        {
          "internalType": "uint256",
          "name": "",
          "type": "uint256"
        }
      ],
      "stateMutability": "view",
      "type": "function"
    },
    {
      "inputs": [],
      "name": "OWNER_ROLE",
      "outputs": [
        {
          "internalType": "bytes32",
          "name": "",
          "type": "bytes32"
        }
      ],
      "stateMutability": "view",
      "type": "function"
    },
    {
      "inputs": [],
      "name": "PERCENT",
      "outputs": [
        {
          "internalType": "uint256",
          "name": "",
          "type": "uint256"
        }
      ],
      "stateMutability": "view",
      "type": "function"
    },
    {
      "inputs": [],
      "name": "PERCENT10",
      "outputs": [
        {
          "internalType": "uint256",
          "name": "",
          "type": "uint256"
        }
      ],
      "stateMutability": "view",
      "type": "function"
    },
    {
      "inputs": [],
      "name": "PERCENT_05",
      "outputs": [
        {
          "internalType": "uint256",
          "name": "",
          "type": "uint256"
        }
      ],
      "stateMutability": "view",
      "type": "function"
    },
    {
      "inputs": [],
      "name": "TOKEN_PRECISION",
      "outputs": [
        {
          "internalType": "uint256",
          "name": "",
          "type": "uint256"
        }
      ],
      "stateMutability": "view",
      "type": "function"
    },
    {
      "inputs": [
        {
          "internalType": "address",
          "name": "_newOwner",
          "type": "address"
        }
      ],
      "name": "addOwner",
      "outputs": [],
      "stateMutability": "nonpayable",
      "type": "function"
    },
    {
      "inputs": [],
      "name": "arbitrageParticipation",
      "outputs": [
        {
          "internalType": "bool",
          "name": "",
          "type": "bool"
        }
      ],
      "stateMutability": "view",
      "type": "function"
    },
    {
      "inputs": [],
      "name": "arbitrageState",
      "outputs": [
        {
          "internalType": "contract IArbitragePool",
          "name": "arbitragePool",
          "type": "address"
        },
        {
          "internalType": "contract IMintableToken",
          "name": "apToken",
          "type": "address"
        },
        {
          "internalType": "uint256",
          "name": "lastApPrice",
          "type": "uint256"
        }
      ],
      "stateMutability": "view",
      "type": "function"
    },
    {
      "inputs": [
        {
          "internalType": "address",
          "name": "_recipient",
          "type": "address"
        },
        {
          "internalType": "uint256",
          "name": "_amount",
          "type": "uint256"
        },
        {
          "internalType": "address",
          "name": "_newNextTrove",
          "type": "address"
        }
      ],
      "name": "borrow",
      "outputs": [],
      "stateMutability": "nonpayable",
      "type": "function"
    },
    {
      "inputs": [],
      "name": "collateral",
      "outputs": [
        {
          "internalType": "uint256",
          "name": "",
          "type": "uint256"
        }
      ],
      "stateMutability": "view",
      "type": "function"
    },
    {
      "inputs": [],
      "name": "collateralValue",
      "outputs": [
        {
          "internalType": "uint256",
          "name": "",
          "type": "uint256"
        }
      ],
      "stateMutability": "view",
      "type": "function"
    },
    {
      "inputs": [],
      "name": "collateralization",
      "outputs": [
        {
          "internalType": "uint256",
          "name": "",
          "type": "uint256"
        }
      ],
      "stateMutability": "view",
      "type": "function"
    },
    {
      "inputs": [],
      "name": "debt",
      "outputs": [
        {
          "internalType": "uint256",
          "name": "",
          "type": "uint256"
        }
      ],
      "stateMutability": "view",
      "type": "function"
    },
    {
      "inputs": [
        {
          "internalType": "address",
          "name": "_recipient",
          "type": "address"
        },
        {
          "internalType": "uint256",
          "name": "_amount",
          "type": "uint256"
        },
        {
          "internalType": "address",
          "name": "_newNextTrove",
          "type": "address"
        }
      ],
      "name": "decreaseCollateral",
      "outputs": [],
      "stateMutability": "nonpayable",
      "type": "function"
    },
    {
      "inputs": [],
      "name": "factory",
      "outputs": [
        {
          "internalType": "contract ITroveFactory",
          "name": "",
          "type": "address"
        }
      ],
      "stateMutability": "view",
      "type": "function"
    },
    {
      "inputs": [
        {
          "internalType": "bytes32",
          "name": "role",
          "type": "bytes32"
        }
      ],
      "name": "getRoleAdmin",
      "outputs": [
        {
          "internalType": "bytes32",
          "name": "",
          "type": "bytes32"
        }
      ],
      "stateMutability": "view",
      "type": "function"
    },
    {
      "inputs": [
        {
          "internalType": "bytes32",
          "name": "role",
          "type": "bytes32"
        },
        {
          "internalType": "uint256",
          "name": "index",
          "type": "uint256"
        }
      ],
      "name": "getRoleMember",
      "outputs": [
        {
          "internalType": "address",
          "name": "",
          "type": "address"
        }
      ],
      "stateMutability": "view",
      "type": "function"
    },
    {
      "inputs": [
        {
          "internalType": "bytes32",
          "name": "role",
          "type": "bytes32"
        }
      ],
      "name": "getRoleMemberCount",
      "outputs": [
        {
          "internalType": "uint256",
          "name": "",
          "type": "uint256"
        }
      ],
      "stateMutability": "view",
      "type": "function"
    },
    {
      "inputs": [
        {
          "internalType": "bytes32",
          "name": "role",
          "type": "bytes32"
        },
        {
          "internalType": "address",
          "name": "account",
          "type": "address"
        }
      ],
      "name": "grantRole",
      "outputs": [],
      "stateMutability": "nonpayable",
      "type": "function"
    },
    {
      "inputs": [
        {
          "internalType": "bytes32",
          "name": "role",
          "type": "bytes32"
        },
        {
          "internalType": "address",
          "name": "account",
          "type": "address"
        }
      ],
      "name": "hasRole",
      "outputs": [
        {
          "internalType": "bool",
          "name": "",
          "type": "bool"
        }
      ],
      "stateMutability": "view",
      "type": "function"
    },
    {
      "inputs": [
        {
          "internalType": "uint256",
          "name": "_amount",
          "type": "uint256"
        },
        {
          "internalType": "address",
          "name": "_newNextTrove",
          "type": "address"
        }
      ],
      "name": "increaseCollateral",
      "outputs": [],
      "stateMutability": "nonpayable",
      "type": "function"
    },
    {
      "inputs": [
        {
          "internalType": "address",
          "name": "_token",
          "type": "address"
        },
        {
          "internalType": "address",
          "name": "_troveOwner",
          "type": "address"
        }
      ],
      "name": "initialize",
      "outputs": [],
      "stateMutability": "nonpayable",
      "type": "function"
    },
    {
      "inputs": [],
      "name": "liqTokenRateSnapshot",
      "outputs": [
        {
          "internalType": "uint256",
          "name": "",
          "type": "uint256"
        }
      ],
      "stateMutability": "view",
      "type": "function"
    },
    {
      "inputs": [],
      "name": "liquidate",
      "outputs": [],
      "stateMutability": "nonpayable",
      "type": "function"
    },
    {
      "inputs": [],
      "name": "liquidationReserve",
      "outputs": [
        {
          "internalType": "uint256",
          "name": "",
          "type": "uint256"
        }
      ],
      "stateMutability": "view",
      "type": "function"
    },
    {
      "inputs": [],
      "name": "mcr",
      "outputs": [
        {
          "internalType": "uint256",
          "name": "",
          "type": "uint256"
        }
      ],
      "stateMutability": "view",
      "type": "function"
    },
    {
      "inputs": [],
      "name": "netDebt",
      "outputs": [
        {
          "internalType": "uint256",
          "name": "",
          "type": "uint256"
        }
      ],
      "stateMutability": "view",
      "type": "function"
    },
    {
      "inputs": [],
      "name": "owner",
      "outputs": [
        {
          "internalType": "address",
          "name": "",
          "type": "address"
        }
      ],
      "stateMutability": "view",
      "type": "function"
    },
    {
      "inputs": [],
      "name": "recordedCollateral",
      "outputs": [
        {
          "internalType": "uint256",
          "name": "",
          "type": "uint256"
        }
      ],
      "stateMutability": "view",
      "type": "function"
    },
    {
      "inputs": [
        {
          "internalType": "address",
          "name": "_recipient",
          "type": "address"
        },
        {
          "internalType": "address",
          "name": "_newNextTrove",
          "type": "address"
        }
      ],
      "name": "redeem",
      "outputs": [
        {
          "internalType": "uint256",
          "name": "_stableAmount",
          "type": "uint256"
        },
        {
          "internalType": "uint256",
          "name": "_collateralRecieved",
          "type": "uint256"
        }
      ],
      "stateMutability": "nonpayable",
      "type": "function"
    },
    {
      "inputs": [
        {
          "internalType": "address",
          "name": "_ownerToRemove",
          "type": "address"
        }
      ],
      "name": "removeOwner",
      "outputs": [],
      "stateMutability": "nonpayable",
      "type": "function"
    },
    {
      "inputs": [],
      "name": "renounceOwnership",
      "outputs": [],
      "stateMutability": "nonpayable",
      "type": "function"
    },
    {
      "inputs": [
        {
          "internalType": "bytes32",
          "name": "role",
          "type": "bytes32"
        },
        {
          "internalType": "address",
          "name": "account",
          "type": "address"
        }
      ],
      "name": "renounceRole",
      "outputs": [],
      "stateMutability": "nonpayable",
      "type": "function"
    },
    {
      "inputs": [
        {
          "internalType": "uint256",
          "name": "_amount",
          "type": "uint256"
        },
        {
          "internalType": "address",
          "name": "_newNextTrove",
          "type": "address"
        }
      ],
      "name": "repay",
      "outputs": [],
      "stateMutability": "nonpayable",
      "type": "function"
    },
    {
      "inputs": [
        {
          "internalType": "bytes32",
          "name": "role",
          "type": "bytes32"
        },
        {
          "internalType": "address",
          "name": "account",
          "type": "address"
        }
      ],
      "name": "revokeRole",
      "outputs": [],
      "stateMutability": "nonpayable",
      "type": "function"
    },
    {
      "inputs": [
        {
          "internalType": "bool",
          "name": "_state",
          "type": "bool"
        }
      ],
      "name": "setArbitrageParticipation",
      "outputs": [],
      "stateMutability": "nonpayable",
      "type": "function"
    },
    {
      "inputs": [
        {
          "internalType": "bytes4",
          "name": "interfaceId",
          "type": "bytes4"
        }
      ],
      "name": "supportsInterface",
      "outputs": [
        {
          "internalType": "bool",
          "name": "",
          "type": "bool"
        }
      ],
      "stateMutability": "view",
      "type": "function"
    },
    {
      "inputs": [],
      "name": "token",
      "outputs": [
        {
          "internalType": "contract IERC20",
          "name": "",
          "type": "address"
        }
      ],
      "stateMutability": "view",
      "type": "function"
    },
    {
      "inputs": [
        {
          "internalType": "address",
          "name": "_newOwner",
          "type": "address"
        }
      ],
      "name": "transferOwnership",
      "outputs": [],
      "stateMutability": "nonpayable",
      "type": "function"
    },
    {
      "inputs": [
        {
          "internalType": "address",
          "name": "_token",
          "type": "address"
        },
        {
          "internalType": "address",
          "name": "_recipient",
          "type": "address"
        }
      ],
      "name": "transferToken",
      "outputs": [],
      "stateMutability": "nonpayable",
      "type": "function"
    },
    {
      "inputs": [],
      "name": "unclaimedArbitrageReward",
      "outputs": [
        {
          "internalType": "uint256",
          "name": "",
          "type": "uint256"
        }
      ],
      "stateMutability": "view",
      "type": "function"
    },
    {
      "inputs": [],
      "name": "unclaimedCollateralRewardAndDebt",
      "outputs": [
        {
          "internalType": "uint256",
          "name": "",
          "type": "uint256"
        },
        {
          "internalType": "uint256",
          "name": "",
          "type": "uint256"
        }
      ],
      "stateMutability": "view",
      "type": "function"
    }
  ],
  "transactionHash": "0xd20c83cbfcbe44a6645fbde9405d5e7b377894153bc0a8832954da9f84f8c782",
  "args": [
    "0x3bB7fFD08f46620beA3a9Ae7F096cF2b213768B3"
  ],
  "numDeployments": 1,
  "solcInputHash": "0ad91dfc9da538af5d7b10d9f4978a6e",
  "bytecode": "0x60a06040523480156200001157600080fd5b5060405162004ee338038062004ee38339810160408190526200003491620000a1565b6200003f3362000051565b6001600160a01b0316608052620000d3565b600080546001600160a01b038381166001600160a01b0319831681178455604051919092169283917f8be0079c531659141344cd1fd0a4f28419497f9722a3daafe3b4186f6b6457e09190a35050565b600060208284031215620000b457600080fd5b81516001600160a01b0381168114620000cc57600080fd5b9392505050565b608051614cf8620001eb60003960008181610525015281816107300152818161084f015281816108d3015281816109dd01528181610b3b01528181610bb801528181610c9801528181610e7301528181610f0d0152818161122f015281816114640152818161152c01528181611618015281816116a801528181611838015281816119fd01528181611adf01528181611b7f01528181611d6d015281816122fe0152818161259c01528181612619015281816126cf015281816127ca015281816128a201528181612a3801528181612ca30152818161301e01528181613372015281816134aa01528181613543015281816135810152818161385401528181613bc501528181613d090152613e710152614cf86000f3fe608060405234801561001057600080fd5b50600436106102a05760003560e01c806391d1485411610167578063bba06f27116100ce578063d8dfeb4511610087578063d8dfeb451461057e578063d91d2f6014610586578063e58378bb1461058e578063eaca974b146105a3578063f2fde38b146105ac578063fc0c546a146105bf57600080fd5b8063bba06f27146104f8578063c45a015514610520578063c661689414610547578063c8c33edc14610550578063ca15c87314610558578063d547741f1461056b57600080fd5b8063abdc554111610120578063abdc5541146104c5578063acb70815146104cd578063aceb2d04146103bc578063ad09014d146104e0578063b85a8b20146104e8578063b8caedc4146104f057600080fd5b806391d1485414610480578063923c1eec14610493578063964080ce146104a257806397828c02146104b5578063a20baee614610493578063a217fddf146104bd57600080fd5b80633c7034a31161020b5780636c665a55116101c45780636c665a55146104115780637065cb4814610424578063715018a6146104375780637d4113c91461043f5780638da5cb5b146104485780639010d07c1461046d57600080fd5b80633c7034a314610383578063485cc9551461039657806348ae238f146103a9578063517ef1d7146103bc5780635b8462d9146103c4578063673a1ac21461040857600080fd5b8063249db00c1161025d578063249db00c1461033857806328a07025146103455780632f2ff15d1461034d578063315330291461036057806336568abe146103685780633746403c1461037b57600080fd5b806301ffc9a7146102a5578063098d3228146102cd5780630dca59c1146102e4578063173825d9146102ec57806323cb70f814610301578063248a9ca314610314575b600080fd5b6102b86102b33660046147c5565b6105d2565b60405190151581526020015b60405180910390f35b6102d660001981565b6040519081526020016102c4565b6102d66105fd565b6102ff6102fa366004614804565b61061f565b005b6102ff61030f366004614821565b6106e9565b6102d6610322366004614851565b6000908152600160208190526040909120015490565b6009546102b89060ff1681565b6102ff6107d4565b6102ff61035b366004614821565b610ed4565b6102d6610f00565b6102ff610376366004614821565b611023565b6102d66110a1565b6102ff61039136600461486a565b6110b8565b6102ff6103a43660046148ac565b6112d3565b6102ff6103b73660046148ac565b6117a4565b6102d6611999565b600a54600b54600c546103e2926001600160a01b0390811692169083565b604080516001600160a01b039485168152939092166020840152908201526060016102c4565b6102d660075481565b6102ff61041f36600461486a565b6119c7565b6102ff610432366004614804565b611bf2565b6102ff611c3e565b6102d660085481565b6000546001600160a01b03165b6040516001600160a01b0390911681526020016102c4565b61045561047b3660046148da565b611ca4565b6102b861048e366004614821565b611cc3565b6102d6670de0b6b3a764000081565b6102ff6104b036600461490a565b611cee565b6102d6612169565b6102d6600081565b6102d661228a565b6102ff6104db366004614821565b61229f565b6102d661268c565b6102d66126b6565b6102d66126cb565b61050b6105063660046148ac565b6127bc565b604080519283526020830191909152016102c4565b6104557f000000000000000000000000000000000000000000000000000000000000000081565b6102d660045481565b61050b612c7a565b6102d6610566366004614851565b612d8a565b6102ff610579366004614821565b612da1565b6102d6612dc8565b6102d6612f73565b6102d6600080516020614ca383398151915281565b6102d660065481565b6102ff6105ba366004614804565b612fb4565b600354610455906001600160a01b031681565b60006001600160e01b03198216635a05180f60e01b14806105f757506105f782613042565b92915050565b600080610608612c7a565b91505080600554610619919061493d565b91505090565b610637600080516020614ca383398151915233611cc3565b61065c5760405162461bcd60e51b815260040161065390614950565b60405180910390fd5b806001600160a01b03166106786000546001600160a01b031690565b6001600160a01b0316036106ce5760405162461bcd60e51b815260206004820152601e60248201527f363034653320646f206e6f742072656d6f7665206d61696e206f776e657200006044820152606401610653565b6106e6600080516020614ca383398151915282613077565b50565b6003546001600160a01b03168215610710576107106001600160a01b038216333086613099565b600061071a61310a565b6005549091501561072e5761072e83613424565b7f00000000000000000000000000000000000000000000000000000000000000006001600160a01b031663e04a3e908383610767613571565b6040516001600160e01b031960e086901b1681526001600160a01b039093166004840152602483019190915260448201526064015b600060405180830381600087803b1580156107b657600080fd5b505af11580156107ca573d6000803e3d6000fd5b5050505050505050565b6107dc61310a565b506107e56126cb565b6107ed613571565b106108315760405162461bcd60e51b81526020600482015260146024820152731a1a9a331a1021a91036bab9ba10363a1026a1a960611b6044820152606401610653565b6000600360009054906101000a90046001600160a01b0316905060007f00000000000000000000000000000000000000000000000000000000000000006001600160a01b031663048c661d6040518163ffffffff1660e01b8152600401602060405180830381865afa1580156108ab573d6000803e3d6000fd5b505050506040513d601f19601f820116820180604052508101906108cf9190614993565b90507f00000000000000000000000000000000000000000000000000000000000000006001600160a01b031663992642e56040518163ffffffff1660e01b8152600401602060405180830381865afa15801561092f573d6000803e3d6000fd5b505050506040513d601f19601f820116820180604052508101906109539190614993565b6001600160a01b031663095ea7b3336006546040518363ffffffff1660e01b81526004016109829291906149b0565b6020604051808303816000875af11580156109a1573d6000803e3d6000fd5b505050506040513d601f19601f820116820180604052508101906109c591906149c9565b5060095460ff16156109db576109db6000611cee565b7f00000000000000000000000000000000000000000000000000000000000000006001600160a01b0316635c975abb6040518163ffffffff1660e01b8152600401602060405180830381865afa158015610a39573d6000803e3d6000fd5b505050506040513d601f19601f82011682018060405250810190610a5d91906149c9565b158015610a785750670de0b6b3a7640000610a76613571565b115b8015610aec5750610a876105fd565b816001600160a01b031663f6153ccd6040518163ffffffff1660e01b8152600401602060405180830381865afa158015610ac5573d6000803e3d6000fd5b505050506040513d601f19601f82011682018060405250810190610ae991906149e6565b10155b15610c7657600754610b0a906001600160a01b038416908390613680565b600754604051636757634d60e01b81526001600160a01b0384811660048301526024820192909252600060448201527f000000000000000000000000000000000000000000000000000000000000000090911690636757634d90606401600060405180830381600087803b158015610b8157600080fd5b505af1158015610b95573d6000803e3d6000fd5b5050600554604051631bd6899160e31b81526004810191909152600060248201527f00000000000000000000000000000000000000000000000000000000000000006001600160a01b0316925063deb44c889150604401600060405180830381600087803b158015610c0657600080fd5b505af1158015610c1a573d6000803e3d6000fd5b50505050806001600160a01b03166328a070256040518163ffffffff1660e01b8152600401600060405180830381600087803b158015610c5957600080fd5b505af1158015610c6d573d6000803e3d6000fd5b50505050610de1565b604051633770395560e21b81526001600160a01b0383811660048301526000917f00000000000000000000000000000000000000000000000000000000000000009091169063ddc0e55490602401602060405180830381865afa158015610ce1573d6000803e3d6000fd5b505050506040513d601f19601f82011682018060405250810190610d059190614993565b9050610d2781600754856001600160a01b03166136809092919063ffffffff16565b806001600160a01b03166328a070256040518163ffffffff1660e01b8152600401600060405180830381600087803b158015610d6257600080fd5b505af1158015610d76573d6000803e3d6000fd5b50505050806001600160a01b03166366501ae56040518163ffffffff1660e01b8152600401602060405180830381865afa158015610db8573d6000803e3d6000fd5b505050506040513d601f19601f82011682018060405250810190610ddc91906149e6565b600855505b60065460056000828254610df591906149ff565b90915550506005546007546040805130815260208101939093528201527f09c223cfcd8c93e245f558f5f8de755fc0930fd9bc257441155ef5d54a170e0f9060600160405180910390a1600060058190556006819055600755604051638225052760e01b81526001600160a01b0383811660048301523060248301527f000000000000000000000000000000000000000000000000000000000000000016906382250527906044015b600060405180830381600087803b158015610eb857600080fd5b505af1158015610ecc573d6000803e3d6000fd5b505050505050565b60008281526001602081905260409091200154610ef18133613784565b610efb83836137e8565b505050565b6000670de0b6b3a76400007f00000000000000000000000000000000000000000000000000000000000000006001600160a01b031663938573956040518163ffffffff1660e01b8152600401602060405180830381865afa158015610f69573d6000803e3d6000fd5b505050506040513d601f19601f82011682018060405250810190610f8d9190614993565b6003546040516384ba3f6960e01b81526001600160a01b0391821660048201529116906384ba3f6990602401602060405180830381865afa158015610fd6573d6000803e3d6000fd5b505050506040513d601f19601f82011682018060405250810190610ffa91906149e6565b61100a611005612dc8565b61380a565b6110149190614a12565b61101e9190614a29565b905090565b6001600160a01b03811633146110935760405162461bcd60e51b815260206004820152602f60248201527f416363657373436f6e74726f6c3a2063616e206f6e6c792072656e6f756e636560448201526e103937b632b9903337b91039b2b63360891b6064820152608401610653565b61109d8282613077565b5050565b60006006546110ae6105fd565b61101e91906149ff565b6110d0600080516020614ca383398151915233611cc3565b6110ec5760405162461bcd60e51b815260040161065390614950565b6110f461382c565b6003546009546001600160a01b039091169060ff16156111fb57600a5460405163053342c960e11b81526001600160a01b0383811660048301526000921690630a66859290602401602060405180830381865afa158015611159573d6000803e3d6000fd5b505050506040513d601f19601f8201168201806040525081019061117d91906149e6565b60045461118a9086614a12565b6111949190614a29565b600a5460405163f3fef3a360e01b81529192506001600160a01b03169063f3fef3a3906111c790859085906004016149b0565b600060405180830381600087803b1580156111e157600080fd5b505af11580156111f5573d6000803e3d6000fd5b50505050505b61120f6001600160a01b0382168585613abf565b600061121961310a565b6005549091501561122d5761122d83613424565b7f00000000000000000000000000000000000000000000000000000000000000006001600160a01b031663e04a3e908383611266613571565b6040516001600160e01b031960e086901b1681526001600160a01b03909316600484015260248301919091526044820152606401600060405180830381600087803b1580156112b457600080fd5b505af11580156112c8573d6000803e3d6000fd5b505050505050505050565b600054600160a81b900460ff166112f757600054600160a01b900460ff16156112fb565b303b155b61135e5760405162461bcd60e51b815260206004820152602e60248201527f496e697469616c697a61626c653a20636f6e747261637420697320616c72656160448201526d191e481a5b9a5d1a585b1a5e995960921b6064820152608401610653565b600054600160a81b900460ff16158015611388576000805461ffff60a01b191661010160a01b1790555b6001600160a01b0383166113ec5760405162461bcd60e51b815260206004820152602560248201527f343166653638205f746f6b656e206d757374206e6f7420626520616464726573604482015264073203078360dc1b6064820152608401610653565b6001600160a01b0382166114555760405162461bcd60e51b815260206004820152602a60248201527f343166653638205f74726f76654f776e6572206d757374206e6f7420626520616044820152690646472657373203078360b41b6064820152608401610653565b61145e82613ade565b611488827f0000000000000000000000000000000000000000000000000000000000000000613b2e565b600380546001600160a01b0319166001600160a01b0385169081179091556040805163313ce56760e01b8152905163313ce567916004808201926020929091908290030181865afa1580156114e1573d6000803e3d6000fd5b505050506040513d601f19601f820116820180604052508101906115059190614a4b565b61151090600a614b52565b6004908155604051633770395560e21b81526001600160a01b037f0000000000000000000000000000000000000000000000000000000000000000169163ddc0e5549161156e918791016001600160a01b0391909116815260200190565b602060405180830381865afa15801561158b573d6000803e3d6000fd5b505050506040513d601f19601f820116820180604052508101906115af9190614993565b6001600160a01b03166366501ae56040518163ffffffff1660e01b8152600401602060405180830381865afa1580156115ec573d6000803e3d6000fd5b505050506040513d601f19601f8201168201806040525081019061161091906149e6565b6008819055507f00000000000000000000000000000000000000000000000000000000000000006001600160a01b031663992642e56040518163ffffffff1660e01b8152600401602060405180830381865afa158015611674573d6000803e3d6000fd5b505050506040513d601f19601f820116820180604052508101906116989190614993565b6001600160a01b031663095ea7b37f00000000000000000000000000000000000000000000000000000000000000006001600160a01b031663469048406040518163ffffffff1660e01b8152600401602060405180830381865afa158015611704573d6000803e3d6000fd5b505050506040513d601f19601f820116820180604052508101906117289190614993565b6000196040518363ffffffff1660e01b81526004016117489291906149b0565b6020604051808303816000875af1158015611767573d6000803e3d6000fd5b505050506040513d601f19601f8201168201806040525081019061178b91906149c9565b508015610efb576000805460ff60a81b19169055505050565b6117bc600080516020614ca383398151915233611cc3565b6117d85760405162461bcd60e51b815260040161065390614950565b6003546001600160a01b03908116908316036118365760405162461bcd60e51b815260206004820152601f60248201527f37613831302063616e2774207472616e7366657220636f6c6c61746572616c006044820152606401610653565b7f00000000000000000000000000000000000000000000000000000000000000006001600160a01b031663992642e56040518163ffffffff1660e01b8152600401602060405180830381865afa158015611894573d6000803e3d6000fd5b505050506040513d601f19601f820116820180604052508101906118b89190614993565b6001600160a01b0316826001600160a01b0316036119185760405162461bcd60e51b815260206004820181905260248201527f37613831302063616e2774207472616e7366657220737461626c6520636f696e6044820152606401610653565b6040516370a0823160e01b81523060048201526000906001600160a01b038416906370a0823190602401602060405180830381865afa15801561195f573d6000803e3d6000fd5b505050506040513d601f19601f8201168201806040525081019061198391906149e6565b9050610efb6001600160a01b0384168383613abf565b600260646119b0670de0b6b3a76400006001614a12565b6119ba9190614a29565b6119c49190614a29565b81565b6119df600080516020614ca383398151915233611cc3565b6119fb5760405162461bcd60e51b815260040161065390614950565b7f00000000000000000000000000000000000000000000000000000000000000006001600160a01b0316635c975abb6040518163ffffffff1660e01b8152600401602060405180830381865afa158015611a59573d6000803e3d6000fd5b505050506040513d601f19601f82011682018060405250810190611a7d91906149c9565b15611aca5760405162461bcd60e51b815260206004820152601d60248201527f63666134622054726f766520466163746f7279206973207061757365640000006044820152606401610653565b6000611ad68383613b5e565b9050611b6f84847f00000000000000000000000000000000000000000000000000000000000000006001600160a01b031663992642e56040518163ffffffff1660e01b8152600401602060405180830381865afa158015611b3b573d6000803e3d6000fd5b505050506040513d601f19601f82011682018060405250810190611b5f9190614993565b6001600160a01b03169190613abf565b6003546005546001600160a01b037f00000000000000000000000000000000000000000000000000000000000000008116926379a71baf92911690611bb2613571565b6040516001600160e01b031960e086901b1681526001600160a01b039093166004840152602483019190915260448201526064810184905260840161079c565b611c0a600080516020614ca383398151915233611cc3565b611c265760405162461bcd60e51b815260040161065390614950565b6106e6600080516020614ca3833981519152826137e8565b6000546001600160a01b03163314611c985760405162461bcd60e51b815260206004820181905260248201527f4f776e61626c653a2063616c6c6572206973206e6f7420746865206f776e65726044820152606401610653565b611ca26000613ade565b565b6000828152600260205260408120611cbc9083613edd565b9392505050565b60009182526001602090815260408084206001600160a01b0393909316845291905290205460ff1690565b611d06600080516020614ca383398151915233611cc3565b611d225760405162461bcd60e51b815260040161065390614950565b60095460ff161515811515146106e657611d3a61310a565b506003546009805460ff1916831515179055604080516307452ffb60e31b815290516001600160a01b03928316926000927f000000000000000000000000000000000000000000000000000000000000000090911691633a297fd8916004808201926020929091908290030181865afa158015611dbb573d6000803e3d6000fd5b505050506040513d601f19601f82011682018060405250810190611ddf9190614993565b9050821561205357611dfd6001600160a01b03831682600019613680565b604051634b1c143560e01b81526001600160a01b03838116600483015260009190831690634b1c1435906024016020604051808303816000875af1158015611e49573d6000803e3d6000fd5b505050506040513d601f19601f82011682018060405250810190611e6d9190614993565b60405163095ea7b360e01b81529091506001600160a01b0382169063095ea7b390611ea0908590600019906004016149b0565b6020604051808303816000875af1158015611ebf573d6000803e3d6000fd5b505050506040513d601f19601f82011682018060405250810190611ee391906149c9565b50600a80546001600160a01b038481166001600160a01b031992831617909255600b805484841692169190911790556040516370a0823160e01b81523060048201526000918516906370a0823190602401602060405180830381865afa158015611f51573d6000803e3d6000fd5b505050506040513d601f19601f82011682018060405250810190611f7591906149e6565b90508015611fde576040516311f9fbc960e21b81526001600160a01b038416906347e7ef2490611fab90879085906004016149b0565b600060405180830381600087803b158015611fc557600080fd5b505af1158015611fd9573d6000803e3d6000fd5b505050505b60405163053342c960e11b81526001600160a01b038581166004830152841690630a66859290602401602060405180830381865afa158015612024573d6000803e3d6000fd5b505050506040513d601f19601f8201168201806040525081019061204891906149e6565b600c5550610efb9050565b6120686001600160a01b038316826000613680565b600b546040516370a0823160e01b81523060048201526000916001600160a01b0316906370a0823190602401602060405180830381865afa1580156120b1573d6000803e3d6000fd5b505050506040513d601f19601f820116820180604052508101906120d591906149e6565b9050801561214257600a5460405163f3fef3a360e01b81526001600160a01b039091169063f3fef3a39061210f90869085906004016149b0565b600060405180830381600087803b15801561212957600080fd5b505af115801561213d573d6000803e3d6000fd5b505050505b50600a80546001600160a01b0319908116909155600b805490911690556000600c55505050565b600b546040516370a0823160e01b815230600482015260009182916001600160a01b03909116906370a0823190602401602060405180830381865afa1580156121b6573d6000803e3d6000fd5b505050506040513d601f19601f820116820180604052508101906121da91906149e6565b600a5460035460405163053342c960e11b81526001600160a01b039182166004820152929350600092911690630a66859290602401602060405180830381865afa15801561222c573d6000803e3d6000fd5b505050506040513d601f19601f8201168201806040525081019061225091906149e6565b600c5490915060009061226390836149ff565b9050670de0b6b3a76400006122788285614a12565b6122829190614a29565b935050505090565b60646119ba670de0b6b3a76400006005614a12565b6122a761310a565b506000600554116122fa5760405162461bcd60e51b815260206004820152601c60248201527f65333762322064656274206d757374206265206774207468616e2030000000006044820152606401610653565b60007f00000000000000000000000000000000000000000000000000000000000000006001600160a01b031663992642e56040518163ffffffff1660e01b8152600401602060405180830381865afa15801561235a573d6000803e3d6000fd5b505050506040513d601f19601f8201168201806040525081019061237e9190614993565b60065490915083156123be576123a28160055461239b91906149ff565b8590613ee9565b93506123b96001600160a01b038316333087613099565b612491565b6040516370a0823160e01b815230600482015261243f9082906001600160a01b038516906370a0823190602401602060405180830381865afa158015612408573d6000803e3d6000fd5b505050506040513d601f19601f8201168201806040525081019061242c91906149e6565b61243691906149ff565b60055490613ee9565b9350600084116124915760405162461bcd60e51b815260206004820152601860248201527f653337623220696e73756666696369656e742066756e647300000000000000006044820152606401610653565b604051630852cd8d60e31b8152600481018590526001600160a01b038316906342966c6890602401600060405180830381600087803b1580156124d357600080fd5b505af11580156124e7573d6000803e3d6000fd5b5050505083600560008282546124fd91906149ff565b909155505060055481900361257f57604051630852cd8d60e31b8152600481018290526001600160a01b038316906342966c6890602401600060405180830381600087803b15801561254e57600080fd5b505af1158015612562573d6000803e3d6000fd5b505050508084612572919061493d565b6000600581905560065593505b604051631bd6899160e31b815260048101859052600060248201527f00000000000000000000000000000000000000000000000000000000000000006001600160a01b03169063deb44c8890604401600060405180830381600087803b1580156125e857600080fd5b505af11580156125fc573d6000803e3d6000fd5b5050505061260983613424565b6003546005546001600160a01b037f00000000000000000000000000000000000000000000000000000000000000008116926379a71baf9291169061264c613571565b6040516001600160e01b031960e086901b1681526001600160a01b039093166004840152602483019190915260448201526000606482015260840161079c565b60646126a1670de0b6b3a76400006001614a12565b6126ab9190614a29565b6119c490600a614a12565b60646119ba670de0b6b3a76400006001614a12565b60007f00000000000000000000000000000000000000000000000000000000000000006001600160a01b031663938573956040518163ffffffff1660e01b8152600401602060405180830381865afa15801561272b573d6000803e3d6000fd5b505050506040513d601f19601f8201168201806040525081019061274f9190614993565b60035460405163aa41911f60e01b81526001600160a01b03918216600482015291169063aa41911f90602401602060405180830381865afa158015612798573d6000803e3d6000fd5b505050506040513d601f19601f8201168201806040525081019061101e91906149e6565b600080336001600160a01b037f000000000000000000000000000000000000000000000000000000000000000016146128375760405162461bcd60e51b815260206004820181905260248201527f3132313061206f6e6c792063616c6c61626c652066726f6d20666163746f72796044820152606401610653565b61283f61382c565b612847613571565b61284f6126cb565b111561289d5760405162461bcd60e51b815260206004820152601960248201527f653935376620544352206d75737420626520677465204d4352000000000000006044820152606401610653565b6006547f00000000000000000000000000000000000000000000000000000000000000006001600160a01b031663992642e56040518163ffffffff1660e01b8152600401602060405180830381865afa1580156128fe573d6000803e3d6000fd5b505050506040513d601f19601f820116820180604052508101906129229190614993565b6040516370a0823160e01b81523060048201526001600160a01b0391909116906370a0823190602401602060405180830381865afa158015612968573d6000803e3d6000fd5b505050506040513d601f19601f8201168201806040525081019061298c91906149e6565b61299691906149ff565b91506001600160a01b038316156129b7576129af6110a1565b8211156129c2565b6129bf6110a1565b82145b612a0e5760405162461bcd60e51b815260206004820181905260248201527f653935376620616d6f756e7420213d206465627420616e64206e6f2068696e746044820152606401610653565b6000600360009054906101000a90046001600160a01b031690506000670de0b6b3a76400006004547f00000000000000000000000000000000000000000000000000000000000000006001600160a01b031663938573956040518163ffffffff1660e01b8152600401602060405180830381865afa158015612a94573d6000803e3d6000fd5b505050506040513d601f19601f82011682018060405250810190612ab89190614993565b6040516384ba3f6960e01b81526001600160a01b03868116600483015291909116906384ba3f6990602401602060405180830381865afa158015612b00573d6000803e3d6000fd5b505050506040513d601f19601f82011682018060405250810190612b2491906149e6565b612b36670de0b6b3a764000088614a12565b612b409190614a29565b612b4a9190614a12565b612b549190614a29565b60095490915060ff1615612c4f57600a5460405163053342c960e11b81526001600160a01b0384811660048301526000921690630a66859290602401602060405180830381865afa158015612bad573d6000803e3d6000fd5b505050506040513d601f19601f82011682018060405250810190612bd191906149e6565b600454612bde9084614a12565b612be89190614a29565b600a5460405163f3fef3a360e01b81529192506001600160a01b03169063f3fef3a390612c1b90869085906004016149b0565b600060405180830381600087803b158015612c3557600080fd5b505af1158015612c49573d6000803e3d6000fd5b50505050505b612c636001600160a01b0383168783613abf565b809250612c7160008661229f565b50509250929050565b600354604051633770395560e21b81526001600160a01b039182166004820152600091829182917f0000000000000000000000000000000000000000000000000000000000000000169063ddc0e55490602401602060405180830381865afa158015612cea573d6000803e3d6000fd5b505050506040513d601f19601f82011682018060405250810190612d0e9190614993565b90506000816001600160a01b03166366501ae56040518163ffffffff1660e01b8152600401602060405180830381865afa158015612d50573d6000803e3d6000fd5b505050506040513d601f19601f82011682018060405250810190612d7491906149e6565b9050612d808282613eff565b9350935050509091565b60008181526002602052604081206105f79061408d565b60008281526001602081905260409091200154612dbe8133613784565b610efb8383613077565b600080612dd3612c7a565b506003546040516370a0823160e01b815230600482015291925060009183916001600160a01b0316906370a0823190602401602060405180830381865afa158015612e22573d6000803e3d6000fd5b505050506040513d601f19601f82011682018060405250810190612e4691906149e6565b612e50919061493d565b60095490915060ff16156105f757600b546040516370a0823160e01b81523060048201526000916001600160a01b0316906370a0823190602401602060405180830381865afa158015612ea7573d6000803e3d6000fd5b505050506040513d601f19601f82011682018060405250810190612ecb91906149e6565b600a5460035460405163053342c960e11b81526001600160a01b039182166004820152929350600092911690630a66859290602401602060405180830381865afa158015612f1d573d6000803e3d6000fd5b505050506040513d601f19601f82011682018060405250810190612f4191906149e6565b9050670de0b6b3a7640000612f568284614a12565b612f609190614a29565b612f6a908461493d565b94505050505090565b600080612f7e6105fd565b90508015612fab5780612f8f610f00565b612fa190670de0b6b3a7640000614a12565b6106199190614a29565b60001991505090565b612fbd81614097565b6000612fd6600080516020614ca3833981519152612d8a565b90505b801561301757613005600080516020614ca38339815191526130008161047b6001866149ff565b613077565b8061300f81614b61565b915050612fd9565b506106e6817f0000000000000000000000000000000000000000000000000000000000000000613b2e565b60006001600160e01b03198216637965db0b60e01b14806105f757506301ffc9a760e01b6001600160e01b03198316146105f7565b613081828261415f565b6000828152600260205260409020610efb90826141c6565b6040516001600160a01b03808516602483015283166044820152606481018290526131049085906323b872dd60e01b906084015b60408051601f198184030181529190526020810180516001600160e01b03166001600160e01b0319909316929092179091526141db565b50505050565b600061311461382c565b6007546003546009546001600160a01b039091169060009060ff16156132f1576040516370a0823160e01b81523060048201526000906001600160a01b038416906370a0823190602401602060405180830381865afa15801561317b573d6000803e3d6000fd5b505050506040513d601f19601f8201168201806040525081019061319f91906149e6565b9050801561320c57600a546040516311f9fbc960e21b81526001600160a01b03909116906347e7ef24906131d990869085906004016149b0565b600060405180830381600087803b1580156131f357600080fd5b505af1158015613207573d6000803e3d6000fd5b505050505b600b546040516370a0823160e01b81523060048201526001600160a01b03909116906370a0823190602401602060405180830381865afa158015613254573d6000803e3d6000fd5b505050506040513d601f19601f8201168201806040525081019061327891906149e6565b600a5460405163053342c960e11b81526001600160a01b038681166004830152929450911690630a66859290602401602060405180830381865afa1580156132c4573d6000803e3d6000fd5b505050506040513d601f19601f820116820180604052508101906132e891906149e6565b600c555061335c565b6040516370a0823160e01b81523060048201526001600160a01b038316906370a0823190602401602060405180830381865afa158015613335573d6000803e3d6000fd5b505050506040513d601f19601f8201168201806040525081019061335991906149e6565b90505b6007819055828114611cbc576001600160a01b037f000000000000000000000000000000000000000000000000000000000000000016636757634d836133a28487613ee9565b6133ac85886142ad565b6133b691906149ff565b6040516001600160e01b031960e085901b1681526001600160a01b0390921660048301526024820152858410156044820152606401600060405180830381600087803b15801561340557600080fd5b505af1158015613419573d6000803e3d6000fd5b505050509392505050565b61342c6126cb565b613434613571565b10156134825760405162461bcd60e51b815260206004820152601760248201527f343136373020544352206d757374206265203e204d43520000000000000000006044820152606401610653565b6003546040516304b91f7360e51b81526001600160a01b0391821660048201819052916001917f000000000000000000000000000000000000000000000000000000000000000090911690639723ee6090602401602060405180830381865afa1580156134f3573d6000803e3d6000fd5b505050506040513d601f19601f8201168201806040525081019061351791906149e6565b111561109d5760405162037da560e31b81526001600160a01b03828116600483015283811660248301527f00000000000000000000000000000000000000000000000000000000000000001690621bed2890604401610e9e565b60055460009015613679576005547f00000000000000000000000000000000000000000000000000000000000000006001600160a01b031663938573956040518163ffffffff1660e01b8152600401602060405180830381865afa1580156135dd573d6000803e3d6000fd5b505050506040513d601f19601f820116820180604052508101906136019190614993565b6003546040516384ba3f6960e01b81526001600160a01b0391821660048201529116906384ba3f6990602401602060405180830381865afa15801561364a573d6000803e3d6000fd5b505050506040513d601f19601f8201168201806040525081019061366e91906149e6565b61100a60075461380a565b5060001990565b8015806136fa5750604051636eb1769f60e11b81523060048201526001600160a01b03838116602483015284169063dd62ed3e90604401602060405180830381865afa1580156136d4573d6000803e3d6000fd5b505050506040513d601f19601f820116820180604052508101906136f891906149e6565b155b6137655760405162461bcd60e51b815260206004820152603660248201527f5361666545524332303a20617070726f76652066726f6d206e6f6e2d7a65726f60448201527520746f206e6f6e2d7a65726f20616c6c6f77616e636560501b6064820152608401610653565b610efb8363095ea7b360e01b84846040516024016130cd9291906149b0565b61378e8282611cc3565b61109d576137a6816001600160a01b031660146142bc565b6137b18360206142bc565b6040516020016137c2929190614b9c565b60408051601f198184030181529082905262461bcd60e51b825261065391600401614c11565b6137f28282614458565b6000828152600260205260409020610efb90826144c3565b600454600090613822670de0b6b3a764000084614a12565b6105f79190614a29565b600354604051633770395560e21b81526001600160a01b0391821660048201819052916000917f00000000000000000000000000000000000000000000000000000000000000009091169063ddc0e55490602401602060405180830381865afa15801561389d573d6000803e3d6000fd5b505050506040513d601f19601f820116820180604052508101906138c19190614993565b90506000816001600160a01b03166366501ae56040518163ffffffff1660e01b8152600401602060405180830381865afa158015613903573d6000803e3d6000fd5b505050506040513d601f19601f8201168201806040525081019061392791906149e6565b90506000806139368484613eff565b90925090508115613ab857604051631fc6e79760e31b815260048101839052602481018290526001600160a01b0385169063fe373cb890604401600060405180830381600087803b15801561398a57600080fd5b505af115801561399e573d6000803e3d6000fd5b5050505081600760008282546139b4919061493d565b9250508190555080600560008282546139cd919061493d565b9091555050600883905560095460ff1615613ab857600a546040516311f9fbc960e21b81526001600160a01b03909116906347e7ef2490613a1490889086906004016149b0565b600060405180830381600087803b158015613a2e57600080fd5b505af1158015613a42573d6000803e3d6000fd5b5050600a5460405163053342c960e11b81526001600160a01b0389811660048301529091169250630a6685929150602401602060405180830381865afa158015613a90573d6000803e3d6000fd5b505050506040513d601f19601f82011682018060405250810190613ab491906149e6565b600c555b5050505050565b610efb8363a9059cbb60e01b84846040516024016130cd9291906149b0565b600080546001600160a01b038381166001600160a01b0319831681178455604051919092169283917f8be0079c531659141344cd1fd0a4f28419497f9722a3daafe3b4186f6b6457e09190a35050565b613b46600080516020614ca3833981519152836137e8565b61109d600080516020614ca3833981519152826137e8565b6000670de0b6b3a7640000831015613bb85760405162461bcd60e51b815260206004820152601f60248201527f636232396320616d6f756e74206d757374206265206774203120746f6b656e006044820152606401610653565b613bc061310a565b5060007f00000000000000000000000000000000000000000000000000000000000000006001600160a01b031663469048406040518163ffffffff1660e01b8152600401602060405180830381865afa158015613c21573d6000803e3d6000fd5b505050506040513d601f19601f82011682018060405250810190613c459190614993565b604051630631203b60e41b8152600481018690529091506001600160a01b0382169063631203b090602401602060405180830381865afa158015613c8d573d6000803e3d6000fd5b505050506040513d601f19601f82011682018060405250810190613cb191906149e6565b91506000613cbf838661493d565b9050600654600003613ce657670de0b6b3a76400006006819055613ce3908261493d565b90505b8060056000828254613cf8919061493d565b90915550613d07905084613424565b7f00000000000000000000000000000000000000000000000000000000000000006001600160a01b031663a3e676106040518163ffffffff1660e01b8152600401602060405180830381865afa158015613d65573d6000803e3d6000fd5b505050506040513d601f19601f82011682018060405250810190613d899190614993565b6001600160a01b03166340c10f1930836040518363ffffffff1660e01b8152600401613db69291906149b0565b600060405180830381600087803b158015613dd057600080fd5b505af1158015613de4573d6000803e3d6000fd5b505060405163cbb9435960e01b8152600481018690526001600160a01b038516925063cbb9435991506024016020604051808303816000875af1158015613e2f573d6000803e3d6000fd5b505050506040513d601f19601f82011682018060405250810190613e5391906149c9565b50604051631bd6899160e31b815260048101829052600160248201527f00000000000000000000000000000000000000000000000000000000000000006001600160a01b03169063deb44c8890604401600060405180830381600087803b158015613ebd57600080fd5b505af1158015613ed1573d6000803e3d6000fd5b50505050505092915050565b6000611cbc83836144d8565b6000818310613ef85781611cbc565b5090919050565b6008546000908190818082861115614081576000876001600160a01b031663d8dfeb456040518163ffffffff1660e01b8152600401602060405180830381865afa158015613f51573d6000803e3d6000fd5b505050506040513d601f19601f82011682018060405250810190613f7591906149e6565b9050801561407f576007548085613f8c8a83614a12565b613f969190614a29565b613fa091906149ff565b9350886001600160a01b031663d8dfeb456040518163ffffffff1660e01b8152600401602060405180830381865afa158015613fe0573d6000803e3d6000fd5b505050506040513d601f19601f8201168201806040525081019061400491906149e6565b848a6001600160a01b0316630dca59c16040518163ffffffff1660e01b8152600401602060405180830381865afa158015614043573d6000803e3d6000fd5b505050506040513d601f19601f8201168201806040525081019061406791906149e6565b6140719190614a12565b61407b9190614a29565b9250505b505b90969095509350505050565b60006105f7825490565b6000546001600160a01b031633146140f15760405162461bcd60e51b815260206004820181905260248201527f4f776e61626c653a2063616c6c6572206973206e6f7420746865206f776e65726044820152606401610653565b6001600160a01b0381166141565760405162461bcd60e51b815260206004820152602660248201527f4f776e61626c653a206e6577206f776e657220697320746865207a65726f206160448201526564647265737360d01b6064820152608401610653565b6106e681613ade565b6141698282611cc3565b1561109d5760008281526001602090815260408083206001600160a01b0385168085529252808320805460ff1916905551339285917ff6391f5c32d9c69d2a47ea670b442974b53935d1edc7fd64eb21e047a839171b9190a45050565b6000611cbc836001600160a01b038416614502565b6000614230826040518060400160405280602081526020017f5361666545524332303a206c6f772d6c6576656c2063616c6c206661696c6564815250856001600160a01b03166145f59092919063ffffffff16565b805190915015610efb578080602001905181019061424e91906149c9565b610efb5760405162461bcd60e51b815260206004820152602a60248201527f5361666545524332303a204552433230206f7065726174696f6e20646964206e6044820152691bdd081cdd58d8d9595960b21b6064820152608401610653565b6000818311613ef85781611cbc565b606060006142cb836002614a12565b6142d690600261493d565b67ffffffffffffffff8111156142ee576142ee614c44565b6040519080825280601f01601f191660200182016040528015614318576020820181803683370190505b509050600360fc1b8160008151811061433357614333614c5a565b60200101906001600160f81b031916908160001a905350600f60fb1b8160018151811061436257614362614c5a565b60200101906001600160f81b031916908160001a9053506000614386846002614a12565b61439190600161493d565b90505b6001811115614409576f181899199a1a9b1b9c1cb0b131b232b360811b85600f16601081106143c5576143c5614c5a565b1a60f81b8282815181106143db576143db614c5a565b60200101906001600160f81b031916908160001a90535060049490941c9361440281614b61565b9050614394565b508315611cbc5760405162461bcd60e51b815260206004820181905260248201527f537472696e67733a20686578206c656e67746820696e73756666696369656e746044820152606401610653565b6144628282611cc3565b61109d5760008281526001602081815260408084206001600160a01b0386168086529252808420805460ff19169093179092559051339285917f2f8788117e7eff1d82e926ec794901d17c78024a50270940304540a733656f0d9190a45050565b6000611cbc836001600160a01b03841661460c565b60008260000182815481106144ef576144ef614c5a565b9060005260206000200154905092915050565b600081815260018301602052604081205480156145eb5760006145266001836149ff565b855490915060009061453a906001906149ff565b905081811461459f57600086600001828154811061455a5761455a614c5a565b906000526020600020015490508087600001848154811061457d5761457d614c5a565b6000918252602080832090910192909255918252600188019052604090208390555b85548690806145b0576145b0614c70565b6001900381819060005260206000200160009055905585600101600086815260200190815260200160002060009055600193505050506105f7565b60009150506105f7565b6060614604848460008561465b565b949350505050565b6000818152600183016020526040812054614653575081546001818101845560008481526020808220909301849055845484825282860190935260409020919091556105f7565b5060006105f7565b6060824710156146bc5760405162461bcd60e51b815260206004820152602660248201527f416464726573733a20696e73756666696369656e742062616c616e636520666f6044820152651c8818d85b1b60d21b6064820152608401610653565b6001600160a01b0385163b6147135760405162461bcd60e51b815260206004820152601d60248201527f416464726573733a2063616c6c20746f206e6f6e2d636f6e74726163740000006044820152606401610653565b600080866001600160a01b0316858760405161472f9190614c86565b60006040518083038185875af1925050503d806000811461476c576040519150601f19603f3d011682016040523d82523d6000602084013e614771565b606091505b509150915061478182828661478c565b979650505050505050565b6060831561479b575081611cbc565b8251156147ab5782518084602001fd5b8160405162461bcd60e51b81526004016106539190614c11565b6000602082840312156147d757600080fd5b81356001600160e01b031981168114611cbc57600080fd5b6001600160a01b03811681146106e657600080fd5b60006020828403121561481657600080fd5b8135611cbc816147ef565b6000806040838503121561483457600080fd5b823591506020830135614846816147ef565b809150509250929050565b60006020828403121561486357600080fd5b5035919050565b60008060006060848603121561487f57600080fd5b833561488a816147ef565b92506020840135915060408401356148a1816147ef565b809150509250925092565b600080604083850312156148bf57600080fd5b82356148ca816147ef565b91506020830135614846816147ef565b600080604083850312156148ed57600080fd5b50508035926020909101359150565b80151581146106e657600080fd5b60006020828403121561491c57600080fd5b8135611cbc816148fc565b634e487b7160e01b600052601160045260246000fd5b808201808211156105f7576105f7614927565b60208082526023908201527f63666133622061646472657373206973206d697373696e67204f574e45525f526040820152624f4c4560e81b606082015260800190565b6000602082840312156149a557600080fd5b8151611cbc816147ef565b6001600160a01b03929092168252602082015260400190565b6000602082840312156149db57600080fd5b8151611cbc816148fc565b6000602082840312156149f857600080fd5b5051919050565b818103818111156105f7576105f7614927565b80820281158282048414176105f7576105f7614927565b600082614a4657634e487b7160e01b600052601260045260246000fd5b500490565b600060208284031215614a5d57600080fd5b815160ff81168114611cbc57600080fd5b600181815b80851115614aa9578160001904821115614a8f57614a8f614927565b80851615614a9c57918102915b93841c9390800290614a73565b509250929050565b600082614ac0575060016105f7565b81614acd575060006105f7565b8160018114614ae35760028114614aed57614b09565b60019150506105f7565b60ff841115614afe57614afe614927565b50506001821b6105f7565b5060208310610133831016604e8410600b8410161715614b2c575081810a6105f7565b614b368383614a6e565b8060001904821115614b4a57614b4a614927565b029392505050565b6000611cbc60ff841683614ab1565b600081614b7057614b70614927565b506000190190565b60005b83811015614b93578181015183820152602001614b7b565b50506000910152565b7f416363657373436f6e74726f6c3a206163636f756e7420000000000000000000815260008351614bd4816017850160208801614b78565b7001034b99036b4b9b9b4b733903937b6329607d1b6017918401918201528351614c05816028840160208801614b78565b01602801949350505050565b6020815260008251806020840152614c30816040850160208701614b78565b601f01601f19169190910160400192915050565b634e487b7160e01b600052604160045260246000fd5b634e487b7160e01b600052603260045260246000fd5b634e487b7160e01b600052603160045260246000fd5b60008251614c98818460208701614b78565b919091019291505056feb19546dff01e856fb3f010c267a7b1c60363cf8a4664e21cc89c26224620214ea26469706673582212208afb254558869fccf2b34f096874594a00df8a7af884827070db7fd306f42c6064736f6c63430008110033",
  "devdoc": {
    "kind": "dev",
    "methods": {
      "addOwner(address)": {
        "details": "add an address to the list of owners",
        "params": {
          "_newOwner": "the address of the new owner"
        }
      },
      "borrow(address,uint256,address)": {
        "details": "mint some stable coins and pay the issuance fee. The transaction will fail if the resulting ICR < MCR",
        "params": {
          "_amount": "the value of the minting",
          "_newNextTrove": "is the trove that we think will be the next one in the list. This might be off in case there were some other list changing transactions",
          "_recipient": "is the address to which the newly minted tokens will be transferred"
        }
      },
      "collateral()": {
        "details": "this function will return the actual collateral (balance of the collateral token) including any liquidation rewards from community liquidation"
      },
      "collateralValue()": {
        "details": "the value of the collateral * the current price as returned by the price feed contract for the collateral token"
      },
      "collateralization()": {
        "details": "the Individual Collateralisation Ratio (ICR) of the trove"
      },
      "debt()": {
        "details": "this function will return the actual debt including any liquidation liabilities from community liquidation"
      },
      "decreaseCollateral(address,uint256,address)": {
        "details": "send some or all of the balance of the trove to an arbitrary address. Only the owner of the trove can do this as long as the debt is Zero, the transfer is performed without further checks. once the debt is not zero, the trove position in the trove list is changed to keep the list ordered by collateralisation ratio",
        "params": {
          "_amount": "amount of collateral",
          "_newNextTrove": "hint for next trove after reorder",
          "_recipient": "the address which will receive the tokens"
        }
      },
      "getRoleAdmin(bytes32)": {
        "details": "Returns the admin role that controls `role`. See {grantRole} and {revokeRole}. To change a role's admin, use {_setRoleAdmin}."
      },
      "getRoleMember(bytes32,uint256)": {
        "details": "Returns one of the accounts that have `role`. `index` must be a value between 0 and {getRoleMemberCount}, non-inclusive. Role bearers are not sorted in any particular way, and their ordering may change at any point. WARNING: When using {getRoleMember} and {getRoleMemberCount}, make sure you perform all queries on the same block. See the following https://forum.openzeppelin.com/t/iterating-over-elements-on-enumerableset-in-openzeppelin-contracts/2296[forum post] for more information."
      },
      "getRoleMemberCount(bytes32)": {
        "details": "Returns the number of accounts that have `role`. Can be used together with {getRoleMember} to enumerate all bearers of a role."
      },
      "grantRole(bytes32,address)": {
        "details": "Grants `role` to `account`. If `account` had not been already granted `role`, emits a {RoleGranted} event. Requirements: - the caller must have ``role``'s admin role."
      },
      "hasRole(bytes32,address)": {
        "details": "Returns `true` if `account` has been granted `role`."
      },
      "increaseCollateral(uint256,address)": {
        "details": "there are two options to increase the collateral: 1. transfer the tokens to the trove and call increaseCollateral with amount = 0 2. grant the trove permission to transfer from your account and call increaseCollateral with amount > 0",
        "params": {
          "_amount": "a positive amount to transfer from the sender's account or zero",
          "_newNextTrove": "once the trove is better collateralised, its position in the list will change, the caller should indicate the new position in order to reduce gas consumption"
        }
      },
      "liquidate()": {
        "details": "is called to liquidate the trove, if ICR < MCR then all the collateral is sent to the liquidation pool and the debt is forgiven the msg.sender is allowed to transfer the liquidation reserve out of the trove"
      },
      "mcr()": {
        "details": "the Minimum Collateralisation Ratio for this trove as set in the Token to Price Feed contract."
      },
      "netDebt()": {
        "details": "the net debt is the debt minus the liquidation reserve"
      },
      "redeem(address,address)": {
        "details": "is called to redeem StableCoin for token, called by factory when MCR > ICR, amount of StableCoin is taken from balance and must be <= netDebt. uses priceFeed to calculate collateral amount. returns amount of StableCoin used and collateral recieved",
        "params": {
          "_newNextTrove": "hint for next trove after reorder, if it's not full redemption",
          "_recipient": "the address which recieves redeemed token"
        }
      },
      "removeOwner(address)": {
        "details": "add an address to the list of owners",
        "params": {
          "_ownerToRemove": "the address of the new owner"
        }
      },
      "renounceOwnership()": {
        "details": "Leaves the contract without owner. It will not be possible to call `onlyOwner` functions anymore. Can only be called by the current owner. NOTE: Renouncing ownership will leave the contract without an owner, thereby removing any functionality that is only available to the owner."
      },
      "renounceRole(bytes32,address)": {
        "details": "Revokes `role` from the calling account. Roles are often managed via {grantRole} and {revokeRole}: this function's purpose is to provide a mechanism for accounts to lose their privileges if they are compromised (such as when a trusted device is misplaced). If the calling account had been revoked `role`, emits a {RoleRevoked} event. Requirements: - the caller must be `account`."
      },
      "repay(uint256,address)": {
        "details": "repay a portion of the debt by either sending some stable coins to the trove or allowing the trove to take tokens out of your balance",
        "params": {
          "_amount": "the amount of stable coins to reduce the debt with",
          "_newNextTrove": "is the trove that we think will be the next one in the list. This might be off in case there were some other list changing transactions"
        }
      },
      "revokeRole(bytes32,address)": {
        "details": "Revokes `role` from `account`. If `account` had been granted `role`, emits a {RoleRevoked} event. Requirements: - the caller must have ``role``'s admin role."
      },
      "setArbitrageParticipation(bool)": {
        "details": "configuration function to enable or disable collateral participation in ArbitragePool",
        "params": {
          "_state": "true/false to turn the state on/off"
        }
      },
      "supportsInterface(bytes4)": {
        "details": "See {IERC165-supportsInterface}."
      },
      "transferOwnership(address)": {
        "details": "transfers user's trove ownership after revoking other roles from other addresses",
        "params": {
          "_newOwner": "the address of the new owner"
        }
      },
      "transferToken(address,address)": {
        "details": "security function to make sure that if tokens are sent to the trove by mistake, they're not lost. It will always send the entire balance This function can not be used to transfer the collateral token",
        "params": {
          "_recipient": "the address the transfer should go to",
          "_token": "the ERC20 to transfer"
        }
      },
      "unclaimedArbitrageReward()": {
        "details": "the reward in the liquidation pool which has not been claimed yet"
      },
      "unclaimedCollateralRewardAndDebt()": {
        "details": "the reward in the liquidation pool which has not been claimed yet"
      }
    },
    "version": 1
  },
  "userdoc": {
    "kind": "user",
    "methods": {},
    "version": 1
  },
  "storageLayout": {
    "storage": [
      {
        "astId": 2054,
        "contract": "contracts/trove.sol:Trove",
        "label": "_owner",
        "offset": 0,
        "slot": "0",
        "type": "t_address"
      },
      {
        "astId": 2607,
        "contract": "contracts/trove.sol:Trove",
        "label": "_initialized",
        "offset": 20,
        "slot": "0",
        "type": "t_bool"
      },
      {
        "astId": 2610,
        "contract": "contracts/trove.sol:Trove",
        "label": "_initializing",
        "offset": 21,
        "slot": "0",
        "type": "t_bool"
      },
      {
        "astId": 1539,
        "contract": "contracts/trove.sol:Trove",
        "label": "_roles",
        "offset": 0,
        "slot": "1",
        "type": "t_mapping(t_bytes32,t_struct(RoleData)1534_storage)"
      },
      {
        "astId": 1842,
        "contract": "contracts/trove.sol:Trove",
        "label": "_roleMembers",
        "offset": 0,
        "slot": "2",
        "type": "t_mapping(t_bytes32,t_struct(AddressSet)4823_storage)"
      },
      {
        "astId": 17410,
        "contract": "contracts/trove.sol:Trove",
        "label": "token",
        "offset": 0,
        "slot": "3",
        "type": "t_contract(IERC20)3472"
      },
      {
        "astId": 17413,
        "contract": "contracts/trove.sol:Trove",
        "label": "TOKEN_PRECISION",
        "offset": 0,
        "slot": "4",
        "type": "t_uint256"
      },
      {
        "astId": 17415,
        "contract": "contracts/trove.sol:Trove",
        "label": "_debt",
        "offset": 0,
        "slot": "5",
        "type": "t_uint256"
      },
      {
        "astId": 17417,
        "contract": "contracts/trove.sol:Trove",
        "label": "liquidationReserve",
        "offset": 0,
        "slot": "6",
        "type": "t_uint256"
      },
      {
        "astId": 17420,
        "contract": "contracts/trove.sol:Trove",
        "label": "recordedCollateral",
        "offset": 0,
        "slot": "7",
        "type": "t_uint256"
      },
      {
        "astId": 17422,
        "contract": "contracts/trove.sol:Trove",
        "label": "liqTokenRateSnapshot",
        "offset": 0,
        "slot": "8",
        "type": "t_uint256"
      },
      {
        "astId": 17424,
        "contract": "contracts/trove.sol:Trove",
        "label": "arbitrageParticipation",
        "offset": 0,
        "slot": "9",
        "type": "t_bool"
      },
      {
        "astId": 17427,
        "contract": "contracts/trove.sol:Trove",
        "label": "arbitrageState",
        "offset": 0,
        "slot": "10",
        "type": "t_struct(ArbitrageState)17402_storage"
      }
    ],
    "types": {
      "t_address": {
        "encoding": "inplace",
        "label": "address",
        "numberOfBytes": "20"
      },
      "t_array(t_bytes32)dyn_storage": {
        "base": "t_bytes32",
        "encoding": "dynamic_array",
        "label": "bytes32[]",
        "numberOfBytes": "32"
      },
      "t_bool": {
        "encoding": "inplace",
        "label": "bool",
        "numberOfBytes": "1"
      },
      "t_bytes32": {
        "encoding": "inplace",
        "label": "bytes32",
        "numberOfBytes": "32"
      },
      "t_contract(IArbitragePool)8758": {
        "encoding": "inplace",
        "label": "contract IArbitragePool",
        "numberOfBytes": "20"
      },
      "t_contract(IERC20)3472": {
        "encoding": "inplace",
        "label": "contract IERC20",
        "numberOfBytes": "20"
      },
      "t_contract(IMintableToken)8938": {
        "encoding": "inplace",
        "label": "contract IMintableToken",
        "numberOfBytes": "20"
      },
      "t_mapping(t_address,t_bool)": {
        "encoding": "mapping",
        "key": "t_address",
        "label": "mapping(address => bool)",
        "numberOfBytes": "32",
        "value": "t_bool"
      },
      "t_mapping(t_bytes32,t_struct(AddressSet)4823_storage)": {
        "encoding": "mapping",
        "key": "t_bytes32",
        "label": "mapping(bytes32 => struct EnumerableSet.AddressSet)",
        "numberOfBytes": "32",
        "value": "t_struct(AddressSet)4823_storage"
      },
      "t_mapping(t_bytes32,t_struct(RoleData)1534_storage)": {
        "encoding": "mapping",
        "key": "t_bytes32",
        "label": "mapping(bytes32 => struct AccessControl.RoleData)",
        "numberOfBytes": "32",
        "value": "t_struct(RoleData)1534_storage"
      },
      "t_mapping(t_bytes32,t_uint256)": {
        "encoding": "mapping",
        "key": "t_bytes32",
        "label": "mapping(bytes32 => uint256)",
        "numberOfBytes": "32",
        "value": "t_uint256"
      },
      "t_struct(AddressSet)4823_storage": {
        "encoding": "inplace",
        "label": "struct EnumerableSet.AddressSet",
        "members": [
          {
            "astId": 4822,
            "contract": "contracts/trove.sol:Trove",
            "label": "_inner",
            "offset": 0,
            "slot": "0",
            "type": "t_struct(Set)4522_storage"
          }
        ],
        "numberOfBytes": "64"
      },
      "t_struct(ArbitrageState)17402_storage": {
        "encoding": "inplace",
        "label": "struct Trove.ArbitrageState",
        "members": [
          {
            "astId": 17396,
            "contract": "contracts/trove.sol:Trove",
            "label": "arbitragePool",
            "offset": 0,
            "slot": "0",
            "type": "t_contract(IArbitragePool)8758"
          },
          {
            "astId": 17399,
            "contract": "contracts/trove.sol:Trove",
            "label": "apToken",
            "offset": 0,
            "slot": "1",
            "type": "t_contract(IMintableToken)8938"
          },
          {
            "astId": 17401,
            "contract": "contracts/trove.sol:Trove",
            "label": "lastApPrice",
            "offset": 0,
            "slot": "2",
            "type": "t_uint256"
          }
        ],
        "numberOfBytes": "96"
      },
      "t_struct(RoleData)1534_storage": {
        "encoding": "inplace",
        "label": "struct AccessControl.RoleData",
        "members": [
          {
            "astId": 1531,
            "contract": "contracts/trove.sol:Trove",
            "label": "members",
            "offset": 0,
            "slot": "0",
            "type": "t_mapping(t_address,t_bool)"
          },
          {
            "astId": 1533,
            "contract": "contracts/trove.sol:Trove",
            "label": "adminRole",
            "offset": 0,
            "slot": "1",
            "type": "t_bytes32"
          }
        ],
        "numberOfBytes": "64"
      },
      "t_struct(Set)4522_storage": {
        "encoding": "inplace",
        "label": "struct EnumerableSet.Set",
        "members": [
          {
            "astId": 4517,
            "contract": "contracts/trove.sol:Trove",
            "label": "_values",
            "offset": 0,
            "slot": "0",
            "type": "t_array(t_bytes32)dyn_storage"
          },
          {
            "astId": 4521,
            "contract": "contracts/trove.sol:Trove",
            "label": "_indexes",
            "offset": 0,
            "slot": "1",
            "type": "t_mapping(t_bytes32,t_uint256)"
          }
        ],
        "numberOfBytes": "64"
      },
      "t_uint256": {
        "encoding": "inplace",
        "label": "uint256",
        "numberOfBytes": "32"
      }
    }
  }
}